{
  "contractName": "AddTokenToBehodlerPower",
  "abi": [
    {
      "inputs": [
        {
          "internalType": "address",
          "name": "_token",
          "type": "address"
        },
        {
          "internalType": "bool",
          "name": "_burnable",
          "type": "bool"
        },
        {
          "internalType": "bytes32",
          "name": "_power",
          "type": "bytes32"
        },
        {
          "internalType": "address",
          "name": "_angband",
          "type": "address"
        }
      ],
      "stateMutability": "nonpayable",
      "type": "constructor"
    },
    {
      "anonymous": false,
      "inputs": [
        {
          "indexed": false,
          "internalType": "address",
          "name": "user",
          "type": "address"
        },
        {
          "indexed": false,
          "internalType": "bytes32",
          "name": "minion",
          "type": "bytes32"
        },
        {
          "indexed": false,
          "internalType": "bytes32",
          "name": "domain",
          "type": "bytes32"
        }
      ],
      "name": "PowerInvoked",
      "type": "event"
    },
    {
      "inputs": [],
      "name": "angband",
      "outputs": [
        {
          "internalType": "contract Angband",
          "name": "",
          "type": "address"
        }
      ],
      "stateMutability": "view",
      "type": "function"
    },
    {
      "inputs": [],
      "name": "destruct",
      "outputs": [],
      "stateMutability": "nonpayable",
      "type": "function"
    },
    {
      "inputs": [
        {
          "internalType": "bytes32",
          "name": "minion",
          "type": "bytes32"
        },
        {
          "internalType": "address",
          "name": "sender",
          "type": "address"
        }
      ],
      "name": "invoke",
      "outputs": [],
      "stateMutability": "nonpayable",
      "type": "function"
    },
    {
      "inputs": [],
      "name": "power",
      "outputs": [
        {
          "internalType": "bytes32",
          "name": "name",
          "type": "bytes32"
        },
        {
          "internalType": "bytes32",
          "name": "domain",
          "type": "bytes32"
        },
        {
          "internalType": "bool",
          "name": "transferrable",
          "type": "bool"
        },
        {
          "internalType": "bool",
          "name": "unique",
          "type": "bool"
        }
      ],
      "stateMutability": "view",
      "type": "function"
    },
    {
      "inputs": [],
      "name": "registry",
      "outputs": [
        {
          "internalType": "contract PowersRegistry",
          "name": "",
          "type": "address"
        }
      ],
      "stateMutability": "view",
      "type": "function"
    }
  ],
  "bytecode": "0x608060405234801561001057600080fd5b50604051610e19380380610e198339818101604052608081101561003357600080fd5b8101908080519060200190929190805190602001909291908051906020019092919080519060200190929190505050818180600460006101000a81548173ffffffffffffffffffffffffffffffffffffffff021916908373ffffffffffffffffffffffffffffffffffffffff1602179055506000600460009054906101000a900473ffffffffffffffffffffffffffffffffffffffff1673ffffffffffffffffffffffffffffffffffffffff166321f8a721600460009054906101000a900473ffffffffffffffffffffffffffffffffffffffff1673ffffffffffffffffffffffffffffffffffffffff1663796368a16040518163ffffffff1660e01b815260040160206040518083038186803b15801561014d57600080fd5b505afa158015610161573d6000803e3d6000fd5b505050506040513d602081101561017757600080fd5b81019080805190602001909291905050506040518263ffffffff1660e01b81526004018082815260200191505060206040518083038186803b1580156101bc57600080fd5b505afa1580156101d0573d6000803e3d6000fd5b505050506040513d60208110156101e657600080fd5b8101908080519060200190929190505050905080600360006101000a81548173ffffffffffffffffffffffffffffffffffffffff021916908373ffffffffffffffffffffffffffffffffffffffff160217905550600080600080600360009054906101000a900473ffffffffffffffffffffffffffffffffffffffff1673ffffffffffffffffffffffffffffffffffffffff1663b872c523886040518263ffffffff1660e01b81526004018082815260200191505060806040518083038186803b1580156102b357600080fd5b505afa1580156102c7573d6000803e3d6000fd5b505050506040513d60808110156102dd57600080fd5b810190808051906020019092919080519060200190929190805190602001909291908051906020019092919050505093509350935093506040518060800160405280858152602001848152602001831515815260200182151581525060008082015181600001556020820151816001015560408201518160020160006101000a81548160ff02191690831515021790555060608201518160020160016101000a81548160ff0219169083151502179055509050505050505050505083600560006101000a81548173ffffffffffffffffffffffffffffffffffffffff021916908373ffffffffffffffffffffffffffffffffffffffff16021790555082600560146101000a81548160ff02191690831515021790555050505050610a13806104066000396000f3fe608060405234801561001057600080fd5b50600436106100575760003560e01c80632b68b9c61461005c5780634a4d59fa146100665780637b1039991461009d578063c936c233146100d1578063f77b09c21461011f575b600080fd5b610064610153565b005b61006e6101ee565b604051808581526020018481526020018315158152602001821515815260200194505050505060405180910390f35b6100a5610226565b604051808273ffffffffffffffffffffffffffffffffffffffff16815260200191505060405180910390f35b61011d600480360360408110156100e757600080fd5b8101908080359060200190929190803573ffffffffffffffffffffffffffffffffffffffff16906020019092919050505061024c565b005b610127610742565b604051808273ffffffffffffffffffffffffffffffffffffffff16815260200191505060405180910390f35b600460149054906101000a900460ff166101d5576040517f08c379a000000000000000000000000000000000000000000000000000000000815260040180806020018281038252601c8152602001807f4d4f52474f54483a206177616974696e6720696e766f636174696f6e0000000081525060200191505060405180910390fd5b3373ffffffffffffffffffffffffffffffffffffffff16ff5b60008060000154908060010154908060020160009054906101000a900460ff16908060020160019054906101000a900460ff16905084565b600360009054906101000a900473ffffffffffffffffffffffffffffffffffffffff1681565b600460009054906101000a900473ffffffffffffffffffffffffffffffffffffffff1673ffffffffffffffffffffffffffffffffffffffff163373ffffffffffffffffffffffffffffffffffffffff161461030f576040517f08c379a00000000000000000000000000000000000000000000000000000000081526004018080602001828103825260158152602001807f4d4f52474f54483a20616e6762616e64206f6e6c79000000000000000000000081525060200191505060405180910390fd5b600360009054906101000a900473ffffffffffffffffffffffffffffffffffffffff1673ffffffffffffffffffffffffffffffffffffffff16636f9f071982846040518363ffffffff1660e01b8152600401808373ffffffffffffffffffffffffffffffffffffffff1681526020018281526020019250505060206040518083038186803b1580156103a057600080fd5b505afa1580156103b4573d6000803e3d6000fd5b505050506040513d60208110156103ca57600080fd5b8101908080519060200190929190505050610430576040517f08c379a00000000000000000000000000000000000000000000000000000000081526004018080602001828103825260248152602001806109996024913960400191505060405180910390fd5b600460149054906101000a900460ff1615610496576040517f08c379a00000000000000000000000000000000000000000000000000000000081526004018080602001828103825260218152602001806109bd6021913960400191505060405180910390fd5b61049e610768565b610510576040517f08c379a00000000000000000000000000000000000000000000000000000000081526004018080602001828103825260198152602001807f4d4f52474f54483a20506f77657220696e766f636174696f6e0000000000000081525060200191505060405180910390fd5b6001600460146101000a81548160ff0219169083151502179055507fbf5b23777e352e9708c3b8c426082bfe210a51d7fa57e008add695df522b804c8183600060010154604051808473ffffffffffffffffffffffffffffffffffffffff168152602001838152602001828152602001935050505060405180910390a16000600460009054906101000a900473ffffffffffffffffffffffffffffffffffffffff1673ffffffffffffffffffffffffffffffffffffffff166321f8a7216000600101546040518263ffffffff1660e01b81526004018082815260200191505060206040518083038186803b15801561060757600080fd5b505afa15801561061b573d6000803e3d6000fd5b505050506040513d602081101561063157600080fd5b81019080805190602001909291905050509050600460009054906101000a900473ffffffffffffffffffffffffffffffffffffffff1673ffffffffffffffffffffffffffffffffffffffff168173ffffffffffffffffffffffffffffffffffffffff161461073d578073ffffffffffffffffffffffffffffffffffffffff1663f2fde38b600460009054906101000a900473ffffffffffffffffffffffffffffffffffffffff166040518263ffffffff1660e01b8152600401808273ffffffffffffffffffffffffffffffffffffffff168152602001915050600060405180830381600087803b15801561072457600080fd5b505af1158015610738573d6000803e3d6000fd5b505050505b505050565b600460009054906101000a900473ffffffffffffffffffffffffffffffffffffffff1681565b600080600460009054906101000a900473ffffffffffffffffffffffffffffffffffffffff1673ffffffffffffffffffffffffffffffffffffffff166321f8a7216000600101546040518263ffffffff1660e01b81526004018082815260200191505060206040518083038186803b1580156107e357600080fd5b505afa1580156107f7573d6000803e3d6000fd5b505050506040513d602081101561080d57600080fd5b8101908080519060200190929190505050905060008190508073ffffffffffffffffffffffffffffffffffffffff166366ce93ca600560009054906101000a900473ffffffffffffffffffffffffffffffffffffffff166001600560149054906101000a900460ff166040518463ffffffff1660e01b8152600401808473ffffffffffffffffffffffffffffffffffffffff168152602001831515815260200182151581526020019350505050600060405180830381600087803b1580156108d457600080fd5b505af11580156108e8573d6000803e3d6000fd5b505050508073ffffffffffffffffffffffffffffffffffffffff16637a29e022600560009054906101000a900473ffffffffffffffffffffffffffffffffffffffff166040518263ffffffff1660e01b8152600401808273ffffffffffffffffffffffffffffffffffffffff168152602001915050600060405180830381600087803b15801561097757600080fd5b505af115801561098b573d6000803e3d6000fd5b505050506001925050509056fe4d4f52474f54483a20496e766f636174696f6e206279206d696e696f6e73206f6e6c792e4d4f52474f54483a20506f7765722063616e6e6f7420626520696e766f6b65642ea2646970667358221220bbfda953562944a12022b7a75e128d38f40a614775cea461526f4fa3c5a7de8f64736f6c63430007010033",
  "immutableReferences": {},
  "source": "// SPDX-License-Identifier: MIT\npragma solidity ^0.7.1;\nimport \"../Powers.sol\";\n\nabstract contract Lachesis {\n    function measure(\n        address token,\n        bool valid,\n        bool burnable\n    ) public virtual;\n\n    function updateBehodler(address token) public virtual;\n}\n\ncontract AddTokenToBehodlerPower is PowerInvoker {\n    address token;\n    bool burnable;\n\n    constructor(\n        address _token,\n        bool _burnable,\n        bytes32 _power,\n        address _angband\n    ) PowerInvoker(_power, _angband) {\n        token = _token;\n        burnable = _burnable;\n    }\n\n    function orchestrate() internal override returns (bool) {\n        address _lachesis = angband.getAddress(power.domain);\n        Lachesis lachesis = Lachesis(_lachesis);\n        lachesis.measure(token, true, burnable);\n        lachesis.updateBehodler(token);\n        return true;\n    }\n}\n",
  "sourcePath": "/home/justin/weidai ecosystem/morgoth-dao/contracts/behodlerPowers/AddTokenToBehodlerPower.sol",
  "compiler": {
    "name": "solc",
    "version": "0.7.1+commit.f4a555be.Emscripten.clang"
  },
  "schemaVersion": "3.3.3",
  "updatedAt": "2021-01-26T21:14:25.322Z",
  "devdoc": {
    "kind": "dev",
    "methods": {},
    "version": 1
  },
  "userdoc": {
    "kind": "user",
    "methods": {},
    "version": 1
  }
}