{
  "contractName": "ConfigureScarcityPower",
  "abi": [
    {
      "inputs": [
        {
          "internalType": "bytes32",
          "name": "_power",
          "type": "bytes32"
        },
        {
          "internalType": "address",
          "name": "_angband",
          "type": "address"
        }
      ],
      "stateMutability": "nonpayable",
      "type": "constructor"
    },
    {
      "anonymous": false,
      "inputs": [
        {
          "indexed": false,
          "internalType": "address",
          "name": "user",
          "type": "address"
        },
        {
          "indexed": false,
          "internalType": "bytes32",
          "name": "minion",
          "type": "bytes32"
        },
        {
          "indexed": false,
          "internalType": "bytes32",
          "name": "domain",
          "type": "bytes32"
        }
      ],
      "name": "PowerInvoked",
      "type": "event"
    },
    {
      "inputs": [],
      "name": "angband",
      "outputs": [
        {
          "internalType": "contract Angband",
          "name": "",
          "type": "address"
        }
      ],
      "stateMutability": "view",
      "type": "function"
    },
    {
      "inputs": [],
      "name": "destruct",
      "outputs": [],
      "stateMutability": "nonpayable",
      "type": "function"
    },
    {
      "inputs": [
        {
          "internalType": "bytes32",
          "name": "minion",
          "type": "bytes32"
        },
        {
          "internalType": "address",
          "name": "sender",
          "type": "address"
        }
      ],
      "name": "invoke",
      "outputs": [],
      "stateMutability": "nonpayable",
      "type": "function"
    },
    {
      "inputs": [],
      "name": "power",
      "outputs": [
        {
          "internalType": "bytes32",
          "name": "name",
          "type": "bytes32"
        },
        {
          "internalType": "bytes32",
          "name": "domain",
          "type": "bytes32"
        },
        {
          "internalType": "bool",
          "name": "transferrable",
          "type": "bool"
        },
        {
          "internalType": "bool",
          "name": "unique",
          "type": "bool"
        }
      ],
      "stateMutability": "view",
      "type": "function"
    },
    {
      "inputs": [],
      "name": "registry",
      "outputs": [
        {
          "internalType": "contract PowersRegistry",
          "name": "",
          "type": "address"
        }
      ],
      "stateMutability": "view",
      "type": "function"
    },
    {
      "inputs": [
        {
          "internalType": "uint256",
          "name": "_transferFee",
          "type": "uint256"
        },
        {
          "internalType": "uint256",
          "name": "_burnFee",
          "type": "uint256"
        },
        {
          "internalType": "address",
          "name": "_feeDestination",
          "type": "address"
        }
      ],
      "name": "parameterize",
      "outputs": [],
      "stateMutability": "nonpayable",
      "type": "function"
    }
  ],
  "bytecode": "0x608060405234801561001057600080fd5b50604051610dab380380610dab8339818101604052604081101561003357600080fd5b810190808051906020019092919080519060200190929190505050818180600460006101000a81548173ffffffffffffffffffffffffffffffffffffffff021916908373ffffffffffffffffffffffffffffffffffffffff1602179055506000600460009054906101000a900473ffffffffffffffffffffffffffffffffffffffff1673ffffffffffffffffffffffffffffffffffffffff166321f8a721600460009054906101000a900473ffffffffffffffffffffffffffffffffffffffff1673ffffffffffffffffffffffffffffffffffffffff1663796368a16040518163ffffffff1660e01b815260040160206040518083038186803b15801561013957600080fd5b505afa15801561014d573d6000803e3d6000fd5b505050506040513d602081101561016357600080fd5b81019080805190602001909291905050506040518263ffffffff1660e01b81526004018082815260200191505060206040518083038186803b1580156101a857600080fd5b505afa1580156101bc573d6000803e3d6000fd5b505050506040513d60208110156101d257600080fd5b8101908080519060200190929190505050905080600360006101000a81548173ffffffffffffffffffffffffffffffffffffffff021916908373ffffffffffffffffffffffffffffffffffffffff160217905550600080600080600360009054906101000a900473ffffffffffffffffffffffffffffffffffffffff1673ffffffffffffffffffffffffffffffffffffffff1663b872c523886040518263ffffffff1660e01b81526004018082815260200191505060806040518083038186803b15801561029f57600080fd5b505afa1580156102b3573d6000803e3d6000fd5b505050506040513d60808110156102c957600080fd5b810190808051906020019092919080519060200190929190805190602001909291908051906020019092919050505093509350935093506040518060800160405280858152602001848152602001831515815260200182151581525060008082015181600001556020820151816001015560408201518160020160006101000a81548160ff02191690831515021790555060608201518160020160016101000a81548160ff021916908315150217905550905050505050505050505050610a16806103956000396000f3fe608060405234801561001057600080fd5b50600436106100625760003560e01c80632b68b9c6146100675780633bfcc238146100715780634a4d59fa146100c95780637b10399914610100578063c936c23314610134578063f77b09c214610182575b600080fd5b61006f6101b6565b005b6100c76004803603606081101561008757600080fd5b810190808035906020019092919080359060200190929190803573ffffffffffffffffffffffffffffffffffffffff169060200190929190505050610251565b005b6100d16102a5565b604051808581526020018481526020018315158152602001821515815260200194505050505060405180910390f35b6101086102dd565b604051808273ffffffffffffffffffffffffffffffffffffffff16815260200191505060405180910390f35b6101806004803603604081101561014a57600080fd5b8101908080359060200190929190803573ffffffffffffffffffffffffffffffffffffffff169060200190929190505050610303565b005b61018a6107f9565b604051808273ffffffffffffffffffffffffffffffffffffffff16815260200191505060405180910390f35b600460149054906101000a900460ff16610238576040517f08c379a000000000000000000000000000000000000000000000000000000000815260040180806020018281038252601c8152602001807f4d4f52474f54483a206177616974696e6720696e766f636174696f6e0000000081525060200191505060405180910390fd5b3373ffffffffffffffffffffffffffffffffffffffff16ff5b826005819055508160068190555080600760006101000a81548173ffffffffffffffffffffffffffffffffffffffff021916908373ffffffffffffffffffffffffffffffffffffffff160217905550505050565b60008060000154908060010154908060020160009054906101000a900460ff16908060020160019054906101000a900460ff16905084565b600360009054906101000a900473ffffffffffffffffffffffffffffffffffffffff1681565b600460009054906101000a900473ffffffffffffffffffffffffffffffffffffffff1673ffffffffffffffffffffffffffffffffffffffff163373ffffffffffffffffffffffffffffffffffffffff16146103c6576040517f08c379a00000000000000000000000000000000000000000000000000000000081526004018080602001828103825260158152602001807f4d4f52474f54483a20616e6762616e64206f6e6c79000000000000000000000081525060200191505060405180910390fd5b600360009054906101000a900473ffffffffffffffffffffffffffffffffffffffff1673ffffffffffffffffffffffffffffffffffffffff16636f9f071982846040518363ffffffff1660e01b8152600401808373ffffffffffffffffffffffffffffffffffffffff1681526020018281526020019250505060206040518083038186803b15801561045757600080fd5b505afa15801561046b573d6000803e3d6000fd5b505050506040513d602081101561048157600080fd5b81019080805190602001909291905050506104e7576040517f08c379a000000000000000000000000000000000000000000000000000000000815260040180806020018281038252602481526020018061099c6024913960400191505060405180910390fd5b600460149054906101000a900460ff161561054d576040517f08c379a00000000000000000000000000000000000000000000000000000000081526004018080602001828103825260218152602001806109c06021913960400191505060405180910390fd5b61055561081f565b6105c7576040517f08c379a00000000000000000000000000000000000000000000000000000000081526004018080602001828103825260198152602001807f4d4f52474f54483a20506f77657220696e766f636174696f6e0000000000000081525060200191505060405180910390fd5b6001600460146101000a81548160ff0219169083151502179055507fbf5b23777e352e9708c3b8c426082bfe210a51d7fa57e008add695df522b804c8183600060010154604051808473ffffffffffffffffffffffffffffffffffffffff168152602001838152602001828152602001935050505060405180910390a16000600460009054906101000a900473ffffffffffffffffffffffffffffffffffffffff1673ffffffffffffffffffffffffffffffffffffffff166321f8a7216000600101546040518263ffffffff1660e01b81526004018082815260200191505060206040518083038186803b1580156106be57600080fd5b505afa1580156106d2573d6000803e3d6000fd5b505050506040513d60208110156106e857600080fd5b81019080805190602001909291905050509050600460009054906101000a900473ffffffffffffffffffffffffffffffffffffffff1673ffffffffffffffffffffffffffffffffffffffff168173ffffffffffffffffffffffffffffffffffffffff16146107f4578073ffffffffffffffffffffffffffffffffffffffff1663f2fde38b600460009054906101000a900473ffffffffffffffffffffffffffffffffffffffff166040518263ffffffff1660e01b8152600401808273ffffffffffffffffffffffffffffffffffffffff168152602001915050600060405180830381600087803b1580156107db57600080fd5b505af11580156107ef573d6000803e3d6000fd5b505050505b505050565b600460009054906101000a900473ffffffffffffffffffffffffffffffffffffffff1681565b600080600460009054906101000a900473ffffffffffffffffffffffffffffffffffffffff1673ffffffffffffffffffffffffffffffffffffffff166321f8a7216000600101546040518263ffffffff1660e01b81526004018082815260200191505060206040518083038186803b15801561089a57600080fd5b505afa1580156108ae573d6000803e3d6000fd5b505050506040513d60208110156108c457600080fd5b8101908080519060200190929190505050905060008190508073ffffffffffffffffffffffffffffffffffffffff16627ed4fe600554600654600760009054906101000a900473ffffffffffffffffffffffffffffffffffffffff166040518463ffffffff1660e01b8152600401808481526020018381526020018273ffffffffffffffffffffffffffffffffffffffff1681526020019350505050600060405180830381600087803b15801561097a57600080fd5b505af115801561098e573d6000803e3d6000fd5b505050506001925050509056fe4d4f52474f54483a20496e766f636174696f6e206279206d696e696f6e73206f6e6c792e4d4f52474f54483a20506f7765722063616e6e6f7420626520696e766f6b65642ea2646970667358221220c5ace508133c89a14418e8974f1ef7b3aaf45fd45a5e39d7532c644be7005e1864736f6c63430007010033",
  "immutableReferences": {},
  "source": "// SPDX-License-Identifier: MIT\npragma solidity ^0.7.1;\nimport \"../Powers.sol\";\n\nabstract contract Scarcity {\n    function configureScarcity(\n        uint transferFee,\n        uint burnFee,\n        address feeDestination\n    ) public virtual;\n}\n\ncontract ConfigureScarcityPower is PowerInvoker {\n\n    uint transferFee;\n    uint burnFee;\n    address feeDestination;\n    constructor (bytes32 _power, address _angband) PowerInvoker(_power,_angband) {}\n\n    function parameterize (uint _transferFee,uint _burnFee,address _feeDestination) public {\n            transferFee=_transferFee;\n            burnFee = _burnFee;\n            feeDestination = _feeDestination;\n    }\n\n    function orchestrate() internal override returns (bool){\n        address scarcity = angband.getAddress(power.domain);\n        Scarcity scx = Scarcity(scarcity);\n        scx.configureScarcity(transferFee,burnFee,feeDestination);\n        return true;\n    }\n}",
  "sourcePath": "/home/justin/weidai ecosystem/morgoth-dao/contracts/behodlerPowers/ConfigureScarcityPower.sol",
  "compiler": {
    "name": "solc",
    "version": "0.7.1+commit.f4a555be.Emscripten.clang"
  },
  "schemaVersion": "3.3.3",
  "updatedAt": "2021-01-26T21:14:25.325Z",
  "devdoc": {
    "kind": "dev",
    "methods": {},
    "version": 1
  },
  "userdoc": {
    "kind": "user",
    "methods": {},
    "version": 1
  }
}