{
  "contractName": "Migrator",
  "abi": [
    {
      "inputs": [
        {
          "internalType": "address",
          "name": "behodler1",
          "type": "address"
        },
        {
          "internalType": "address",
          "name": "scarcity1",
          "type": "address"
        },
        {
          "internalType": "address",
          "name": "lachesis1",
          "type": "address"
        },
        {
          "internalType": "address",
          "name": "behodler2",
          "type": "address"
        },
        {
          "internalType": "address",
          "name": "lachesis2",
          "type": "address"
        },
        {
          "internalType": "address",
          "name": "_weidai",
          "type": "address"
        },
        {
          "internalType": "address",
          "name": "_eye",
          "type": "address"
        },
        {
          "internalType": "address",
          "name": "_angband",
          "type": "address"
        },
        {
          "internalType": "address",
          "name": "loomTokenSwap",
          "type": "address"
        },
        {
          "internalType": "address",
          "name": "_liquidityReceiver",
          "type": "address"
        }
      ],
      "stateMutability": "nonpayable",
      "type": "constructor"
    },
    {
      "anonymous": false,
      "inputs": [
        {
          "indexed": false,
          "internalType": "uint256",
          "name": "step",
          "type": "uint256"
        }
      ],
      "name": "addDummyTokens",
      "type": "event"
    },
    {
      "anonymous": false,
      "inputs": [
        {
          "indexed": false,
          "internalType": "uint256",
          "name": "step",
          "type": "uint256"
        },
        {
          "indexed": false,
          "internalType": "uint256",
          "name": "scxExchangeRate",
          "type": "uint256"
        }
      ],
      "name": "addTokensAsLiquidity",
      "type": "event"
    },
    {
      "anonymous": false,
      "inputs": [
        {
          "indexed": false,
          "internalType": "uint256",
          "name": "step",
          "type": "uint256"
        }
      ],
      "name": "addTokensToLachesis2",
      "type": "event"
    },
    {
      "anonymous": false,
      "inputs": [
        {
          "indexed": false,
          "internalType": "uint8",
          "name": "step",
          "type": "uint8"
        }
      ],
      "name": "bailOnMigration",
      "type": "event"
    },
    {
      "anonymous": false,
      "inputs": [
        {
          "indexed": false,
          "internalType": "uint256",
          "name": "step",
          "type": "uint256"
        }
      ],
      "name": "disableBehodler1",
      "type": "event"
    },
    {
      "anonymous": false,
      "inputs": [
        {
          "indexed": false,
          "internalType": "uint256",
          "name": "step",
          "type": "uint256"
        }
      ],
      "name": "drainBehodler1",
      "type": "event"
    },
    {
      "anonymous": false,
      "inputs": [
        {
          "indexed": false,
          "internalType": "uint256",
          "name": "step",
          "type": "uint256"
        },
        {
          "indexed": false,
          "internalType": "address",
          "name": "angband",
          "type": "address"
        }
      ],
      "name": "transferOwnershipToAngband",
      "type": "event"
    },
    {
      "anonymous": false,
      "inputs": [
        {
          "indexed": false,
          "internalType": "uint256",
          "name": "step",
          "type": "uint256"
        },
        {
          "indexed": false,
          "internalType": "address",
          "name": "behodler1",
          "type": "address"
        },
        {
          "indexed": false,
          "internalType": "address",
          "name": "scarcity1",
          "type": "address"
        },
        {
          "indexed": false,
          "internalType": "address",
          "name": "lachesis1",
          "type": "address"
        },
        {
          "indexed": false,
          "internalType": "address",
          "name": "behodler2",
          "type": "address"
        },
        {
          "indexed": false,
          "internalType": "address",
          "name": "lachesis2",
          "type": "address"
        }
      ],
      "name": "verifyOwnership",
      "type": "event"
    },
    {
      "inputs": [],
      "name": "One",
      "outputs": [
        {
          "internalType": "address",
          "name": "behodler",
          "type": "address"
        },
        {
          "internalType": "address",
          "name": "scarcity",
          "type": "address"
        },
        {
          "internalType": "address",
          "name": "lachesis",
          "type": "address"
        }
      ],
      "stateMutability": "view",
      "type": "function"
    },
    {
      "inputs": [],
      "name": "Two",
      "outputs": [
        {
          "internalType": "address",
          "name": "behodler",
          "type": "address"
        },
        {
          "internalType": "address",
          "name": "scarcity",
          "type": "address"
        },
        {
          "internalType": "address",
          "name": "lachesis",
          "type": "address"
        }
      ],
      "stateMutability": "view",
      "type": "function"
    },
    {
      "inputs": [],
      "name": "bridge",
      "outputs": [
        {
          "internalType": "contract ScarcityBridge",
          "name": "",
          "type": "address"
        }
      ],
      "stateMutability": "view",
      "type": "function"
    },
    {
      "inputs": [],
      "name": "stepCounter",
      "outputs": [
        {
          "internalType": "uint8",
          "name": "",
          "type": "uint8"
        }
      ],
      "stateMutability": "view",
      "type": "function"
    },
    {
      "inputs": [],
      "name": "initBridge",
      "outputs": [],
      "stateMutability": "nonpayable",
      "type": "function"
    },
    {
      "inputs": [],
      "name": "bail",
      "outputs": [],
      "stateMutability": "nonpayable",
      "type": "function"
    },
    {
      "inputs": [],
      "name": "step1",
      "outputs": [],
      "stateMutability": "nonpayable",
      "type": "function"
    },
    {
      "inputs": [
        {
          "internalType": "address[]",
          "name": "tokens",
          "type": "address[]"
        }
      ],
      "name": "step2",
      "outputs": [],
      "stateMutability": "nonpayable",
      "type": "function"
    },
    {
      "inputs": [],
      "name": "step3",
      "outputs": [],
      "stateMutability": "nonpayable",
      "type": "function"
    },
    {
      "inputs": [
        {
          "internalType": "uint256",
          "name": "iterations",
          "type": "uint256"
        }
      ],
      "name": "step4",
      "outputs": [],
      "stateMutability": "nonpayable",
      "type": "function"
    },
    {
      "inputs": [],
      "name": "step5",
      "outputs": [],
      "stateMutability": "nonpayable",
      "type": "function"
    },
    {
      "inputs": [
        {
          "internalType": "uint256",
          "name": "iterations",
          "type": "uint256"
        }
      ],
      "name": "step6",
      "outputs": [],
      "stateMutability": "nonpayable",
      "type": "function"
    },
    {
      "inputs": [],
      "name": "step7",
      "outputs": [],
      "stateMutability": "nonpayable",
      "type": "function"
    }
  ],
  "bytecode": "0x608060405260016000806101000a81548160ff021916908360ff16021790555034801561002b57600080fd5b50604051614bcc380380614bcc833981810160405261014081101561004f57600080fd5b810190808051906020019092919080519060200190929190805190602001909291908051906020019092919080519060200190929190805190602001909291908051906020019092919080519060200190929190805190602001909291908051906020019092919050505089600760000160006101000a81548173ffffffffffffffffffffffffffffffffffffffff021916908373ffffffffffffffffffffffffffffffffffffffff16021790555088600760010160006101000a81548173ffffffffffffffffffffffffffffffffffffffff021916908373ffffffffffffffffffffffffffffffffffffffff16021790555087600760020160006101000a81548173ffffffffffffffffffffffffffffffffffffffff021916908373ffffffffffffffffffffffffffffffffffffffff16021790555086600a60000160006101000a81548173ffffffffffffffffffffffffffffffffffffffff021916908373ffffffffffffffffffffffffffffffffffffffff16021790555085600a60020160006101000a81548173ffffffffffffffffffffffffffffffffffffffff021916908373ffffffffffffffffffffffffffffffffffffffff16021790555084600160006101000a81548173ffffffffffffffffffffffffffffffffffffffff021916908373ffffffffffffffffffffffffffffffffffffffff16021790555083600260006101000a81548173ffffffffffffffffffffffffffffffffffffffff021916908373ffffffffffffffffffffffffffffffffffffffff16021790555082600360006101000a81548173ffffffffffffffffffffffffffffffffffffffff021916908373ffffffffffffffffffffffffffffffffffffffff16021790555033600460006101000a81548173ffffffffffffffffffffffffffffffffffffffff021916908373ffffffffffffffffffffffffffffffffffffffff16021790555081600660006101000a81548173ffffffffffffffffffffffffffffffffffffffff021916908373ffffffffffffffffffffffffffffffffffffffff16021790555080600560006101000a81548173ffffffffffffffffffffffffffffffffffffffff021916908373ffffffffffffffffffffffffffffffffffffffff1602179055505050505050505050505061481f806103ad6000396000f3fe608060405234801561001057600080fd5b50600436106100cf5760003560e01c8063a8e3f25d1161008c578063d40a71fb11610066578063d40a71fb14610260578063dc9a2e601461026a578063df4ec249146102d8578063e78cea92146102e2576100cf565b8063a8e3f25d146101c7578063bddd3a6b146101e8578063be0c2110146101f2576100cf565b8063170a5808146100d4578063229187f5146101025780632447fe101461017b5780634fb4bcec14610185578063906597b91461018f578063944d46b014610199575b600080fd5b610100600480360360208110156100ea57600080fd5b8101908080359060200190929190505050610316565b005b6101796004803603602081101561011857600080fd5b810190808035906020019064010000000081111561013557600080fd5b82018360208201111561014757600080fd5b8035906020019184602083028401116401000000008311171561016957600080fd5b9091929391929390505050610e2c565b005b6101836110eb565b005b61018d6111fd565b005b6101976118c1565b005b6101c5600480360360208110156101af57600080fd5b8101908080359060200190929190505050611d74565b005b6101cf612524565b604051808260ff16815260200191505060405180910390f35b6101f0612535565b005b6101fa61280a565b604051808473ffffffffffffffffffffffffffffffffffffffff1681526020018373ffffffffffffffffffffffffffffffffffffffff1681526020018273ffffffffffffffffffffffffffffffffffffffff168152602001935050505060405180910390f35b610268612882565b005b6102726131c4565b604051808473ffffffffffffffffffffffffffffffffffffffff1681526020018373ffffffffffffffffffffffffffffffffffffffff1681526020018273ffffffffffffffffffffffffffffffffffffffff168152602001935050505060405180910390f35b6102e061323c565b005b6102ea6133e1565b604051808273ffffffffffffffffffffffffffffffffffffffff16815260200191505060405180910390f35b60048060ff1660008054906101000a900460ff1660ff16146103a0576040517f08c379a000000000000000000000000000000000000000000000000000000000815260040180806020018281038252601a8152602001807f4d4947524154494f4e3a20496e636f727265637420737465702e00000000000081525060200191505060405180910390fd5b6000600760020160009054906101000a900473ffffffffffffffffffffffffffffffffffffffff1690506000600760000160009054906101000a900473ffffffffffffffffffffffffffffffffffffffff169050600760010160009054906101000a900473ffffffffffffffffffffffffffffffffffffffff1673ffffffffffffffffffffffffffffffffffffffff1663095ea7b3600760000160009054906101000a900473ffffffffffffffffffffffffffffffffffffffff167fffffffffffffffffffffffffffffffffffffffffffffffffffffffffffffffff6040518363ffffffff1660e01b8152600401808373ffffffffffffffffffffffffffffffffffffffff16815260200182815260200192505050600060405180830381600087803b1580156104cf57600080fd5b505af11580156104e3573d6000803e3d6000fd5b505050506000601054856011540111610500578460115401610504565b6010545b90505b806011541015610da2578273ffffffffffffffffffffffffffffffffffffffff1663f622ada5600d6011548154811061053c57fe5b9060005260206000200160009054906101000a900473ffffffffffffffffffffffffffffffffffffffff1660016040518363ffffffff1660e01b8152600401808373ffffffffffffffffffffffffffffffffffffffff168152602001821515815260200192505050600060405180830381600087803b1580156105be57600080fd5b505af11580156105d2573d6000803e3d6000fd5b505050508273ffffffffffffffffffffffffffffffffffffffff1663f622ada5600e6011548154811061060157fe5b9060005260206000200160009054906101000a900473ffffffffffffffffffffffffffffffffffffffff1660016040518363ffffffff1660e01b8152600401808373ffffffffffffffffffffffffffffffffffffffff168152602001821515815260200192505050600060405180830381600087803b15801561068357600080fd5b505af1158015610697573d6000803e3d6000fd5b505050506000600e601154815481106106ac57fe5b9060005260206000200160009054906101000a900473ffffffffffffffffffffffffffffffffffffffff1673ffffffffffffffffffffffffffffffffffffffff166370a08231600760000160009054906101000a900473ffffffffffffffffffffffffffffffffffffffff166040518263ffffffff1660e01b8152600401808273ffffffffffffffffffffffffffffffffffffffff16815260200191505060206040518083038186803b15801561076257600080fd5b505afa158015610776573d6000803e3d6000fd5b505050506040513d602081101561078c57600080fd5b81019080805190602001909291905050509050600f819080600181540180825580915050600190039060005260206000200160009091909190915055600d601154815481106107d757fe5b9060005260206000200160009054906101000a900473ffffffffffffffffffffffffffffffffffffffff1673ffffffffffffffffffffffffffffffffffffffff166340c10f1930836040518363ffffffff1660e01b8152600401808373ffffffffffffffffffffffffffffffffffffffff16815260200182815260200192505050600060405180830381600087803b15801561087257600080fd5b505af1158015610886573d6000803e3d6000fd5b50505050600d6011548154811061089957fe5b9060005260206000200160009054906101000a900473ffffffffffffffffffffffffffffffffffffffff1673ffffffffffffffffffffffffffffffffffffffff1663095ea7b3600760000160009054906101000a900473ffffffffffffffffffffffffffffffffffffffff167fffffffffffffffffffffffffffffffffffffffffffffffffffffffffffffffff6040518363ffffffff1660e01b8152600401808373ffffffffffffffffffffffffffffffffffffffff16815260200182815260200192505050600060405180830381600087803b15801561097957600080fd5b505af115801561098d573d6000803e3d6000fd5b5050505060008373ffffffffffffffffffffffffffffffffffffffff1663d54888ff600d601154815481106109be57fe5b9060005260206000200160009054906101000a900473ffffffffffffffffffffffffffffffffffffffff168460006040518463ffffffff1660e01b8152600401808473ffffffffffffffffffffffffffffffffffffffff1681526020018381526020018281526020019350505050602060405180830381600087803b158015610a4657600080fd5b505af1158015610a5a573d6000803e3d6000fd5b505050506040513d6020811015610a7057600080fd5b810190808051906020019092919050505090508373ffffffffffffffffffffffffffffffffffffffff1663812db898600e60115481548110610aae57fe5b9060005260206000200160009054906101000a900473ffffffffffffffffffffffffffffffffffffffff168360006040518463ffffffff1660e01b8152600401808473ffffffffffffffffffffffffffffffffffffffff1681526020018381526020018281526020019350505050602060405180830381600087803b158015610b3657600080fd5b505af1158015610b4a573d6000803e3d6000fd5b505050506040513d6020811015610b6057600080fd5b810190808051906020019092919050505050600060019054906101000a900473ffffffffffffffffffffffffffffffffffffffff1673ffffffffffffffffffffffffffffffffffffffff1663ac22e15f826040518263ffffffff1660e01b815260040180828152602001915050600060405180830381600087803b158015610be757600080fd5b505af1158015610bfb573d6000803e3d6000fd5b505050508473ffffffffffffffffffffffffffffffffffffffff1663f622ada5600d60115481548110610c2a57fe5b9060005260206000200160009054906101000a900473ffffffffffffffffffffffffffffffffffffffff1660006040518363ffffffff1660e01b8152600401808373ffffffffffffffffffffffffffffffffffffffff168152602001821515815260200192505050600060405180830381600087803b158015610cac57600080fd5b505af1158015610cc0573d6000803e3d6000fd5b505050508473ffffffffffffffffffffffffffffffffffffffff1663f622ada5600e60115481548110610cef57fe5b9060005260206000200160009054906101000a900473ffffffffffffffffffffffffffffffffffffffff1660006040518363ffffffff1660e01b8152600401808373ffffffffffffffffffffffffffffffffffffffff168152602001821515815260200192505050600060405180830381600087803b158015610d7157600080fd5b505af1158015610d85573d6000803e3d6000fd5b505050505050601160008154809291906001019190505550610507565b601054811415610e25577f6e33c072534eef7646fdc2661414d5b29b56fad95e4233e9f75f3b75fc94a3fe60008054906101000a900460ff16604051808260ff16815260200191505060405180910390a160008081819054906101000a900460ff168092919060010191906101000a81548160ff021916908360ff160217905550505b5050505050565b60028060ff1660008054906101000a900460ff1660ff1614610eb6576040517f08c379a000000000000000000000000000000000000000000000000000000000815260040180806020018281038252601a8152602001807f4d4947524154494f4e3a20496e636f727265637420737465702e00000000000081525060200191505060405180910390fd5b8282600e9190610ec7929190613407565b506000600760020160009054906101000a900473ffffffffffffffffffffffffffffffffffffffff1690508383905060108190555060005b848490508160ff16101561107b578173ffffffffffffffffffffffffffffffffffffffff1663e2ea87db86868460ff16818110610f3857fe5b9050602002013573ffffffffffffffffffffffffffffffffffffffff166040518263ffffffff1660e01b8152600401808273ffffffffffffffffffffffffffffffffffffffff16815260200191505060006040518083038186803b158015610f9f57600080fd5b505afa158015610fb3573d6000803e3d6000fd5b505050508173ffffffffffffffffffffffffffffffffffffffff1663f622ada586868460ff16818110610fe257fe5b9050602002013573ffffffffffffffffffffffffffffffffffffffff1660006040518363ffffffff1660e01b8152600401808373ffffffffffffffffffffffffffffffffffffffff168152602001821515815260200192505050600060405180830381600087803b15801561105657600080fd5b505af115801561106a573d6000803e3d6000fd5b505050508080600101915050610eff565b507f37cf30c2ba184c3b9d6aa869f7d90508ab6431b6b539bfa0b64a5d3b332dc6fa60026040518082815260200191505060405180910390a160008081819054906101000a900460ff168092919060010191906101000a81548160ff021916908360ff1602179055505050505050565b600760010160009054906101000a900473ffffffffffffffffffffffffffffffffffffffff16600a60000160009054906101000a900473ffffffffffffffffffffffffffffffffffffffff1630604051611144906134a7565b808473ffffffffffffffffffffffffffffffffffffffff1681526020018373ffffffffffffffffffffffffffffffffffffffff1681526020018273ffffffffffffffffffffffffffffffffffffffff1681526020019350505050604051809103906000f0801580156111ba573d6000803e3d6000fd5b50600060016101000a81548173ffffffffffffffffffffffffffffffffffffffff021916908373ffffffffffffffffffffffffffffffffffffffff160217905550565b60058060ff1660008054906101000a900460ff1660ff1614611287576040517f08c379a000000000000000000000000000000000000000000000000000000000815260040180806020018281038252601a8152602001807f4d4947524154494f4e3a20496e636f727265637420737465702e00000000000081525060200191505060405180910390fd5b6000600a60020160009054906101000a900473ffffffffffffffffffffffffffffffffffffffff169050600080600073ffffffffffffffffffffffffffffffffffffffff16600660009054906101000a900473ffffffffffffffffffffffffffffffffffffffff1673ffffffffffffffffffffffffffffffffffffffff161461145557600660009054906101000a900473ffffffffffffffffffffffffffffffffffffffff1673ffffffffffffffffffffffffffffffffffffffff1663b31c710a6040518163ffffffff1660e01b815260040160206040518083038186803b15801561137257600080fd5b505afa158015611386573d6000803e3d6000fd5b505050506040513d602081101561139c57600080fd5b81019080805190602001909291905050509150600660009054906101000a900473ffffffffffffffffffffffffffffffffffffffff1673ffffffffffffffffffffffffffffffffffffffff1663c42bd05a6040518163ffffffff1660e01b815260040160206040518083038186803b15801561141757600080fd5b505afa15801561142b573d6000803e3d6000fd5b505050506040513d602081101561144157600080fd5b810190808051906020019092919050505090505b60005b6010548160ff161015611842576000600160009054906101000a900473ffffffffffffffffffffffffffffffffffffffff1673ffffffffffffffffffffffffffffffffffffffff16600e8360ff16815481106114b057fe5b9060005260206000200160009054906101000a900473ffffffffffffffffffffffffffffffffffffffff1673ffffffffffffffffffffffffffffffffffffffff1614806115845750600260009054906101000a900473ffffffffffffffffffffffffffffffffffffffff1673ffffffffffffffffffffffffffffffffffffffff16600e8360ff168154811061154157fe5b9060005260206000200160009054906101000a900473ffffffffffffffffffffffffffffffffffffffff1673ffffffffffffffffffffffffffffffffffffffff16145b905060008473ffffffffffffffffffffffffffffffffffffffff16600e8460ff16815481106115af57fe5b9060005260206000200160009054906101000a900473ffffffffffffffffffffffffffffffffffffffff1673ffffffffffffffffffffffffffffffffffffffff161461163557600e8360ff168154811061160557fe5b9060005260206000200160009054906101000a900473ffffffffffffffffffffffffffffffffffffffff16611637565b835b90508573ffffffffffffffffffffffffffffffffffffffff166366ce93ca826001856040518463ffffffff1660e01b8152600401808473ffffffffffffffffffffffffffffffffffffffff168152602001831515815260200182151581526020019350505050600060405180830381600087803b1580156116b757600080fd5b505af11580156116cb573d6000803e3d6000fd5b505050508573ffffffffffffffffffffffffffffffffffffffff16637a29e022826040518263ffffffff1660e01b8152600401808273ffffffffffffffffffffffffffffffffffffffff168152602001915050600060405180830381600087803b15801561173857600080fd5b505af115801561174c573d6000803e3d6000fd5b505050508161183357600560009054906101000a900473ffffffffffffffffffffffffffffffffffffffff1673ffffffffffffffffffffffffffffffffffffffff1663b1fcc8d3600e8560ff16815481106117a357fe5b9060005260206000200160009054906101000a900473ffffffffffffffffffffffffffffffffffffffff166040518263ffffffff1660e01b8152600401808273ffffffffffffffffffffffffffffffffffffffff168152602001915050600060405180830381600087803b15801561181a57600080fd5b505af115801561182e573d6000803e3d6000fd5b505050505b50508080600101915050611458565b507f93c023d699d94e3213abbe692c0d6ca47e174e34a5b5093454aa581c7af4f08060008054906101000a900460ff16604051808260ff16815260200191505060405180910390a160008081819054906101000a900460ff168092919060010191906101000a81548160ff021916908360ff1602179055505050505050565b600460009054906101000a900473ffffffffffffffffffffffffffffffffffffffff1673ffffffffffffffffffffffffffffffffffffffff163373ffffffffffffffffffffffffffffffffffffffff1614611984576040517f08c379a00000000000000000000000000000000000000000000000000000000081526004018080602001828103825260208152602001807f4d49475241544f523a206f6e6c79206465706c6f7965722063616e2063616c6c81525060200191505060405180910390fd5b600760008054906101000a900460ff1660ff16106119ed576040517f08c379a00000000000000000000000000000000000000000000000000000000081526004018080602001828103825260248152602001806146f26024913960400191505060405180910390fd5b600760000160009054906101000a900473ffffffffffffffffffffffffffffffffffffffff1673ffffffffffffffffffffffffffffffffffffffff16632348238c336040518263ffffffff1660e01b8152600401808273ffffffffffffffffffffffffffffffffffffffff168152602001915050600060405180830381600087803b158015611a7b57600080fd5b505af1158015611a8f573d6000803e3d6000fd5b50505050600760010160009054906101000a900473ffffffffffffffffffffffffffffffffffffffff1673ffffffffffffffffffffffffffffffffffffffff16632348238c336040518263ffffffff1660e01b8152600401808273ffffffffffffffffffffffffffffffffffffffff168152602001915050600060405180830381600087803b158015611b2157600080fd5b505af1158015611b35573d6000803e3d6000fd5b50505050600760020160009054906101000a900473ffffffffffffffffffffffffffffffffffffffff1673ffffffffffffffffffffffffffffffffffffffff16632348238c336040518263ffffffff1660e01b8152600401808273ffffffffffffffffffffffffffffffffffffffff168152602001915050600060405180830381600087803b158015611bc757600080fd5b505af1158015611bdb573d6000803e3d6000fd5b50505050600a60000160009054906101000a900473ffffffffffffffffffffffffffffffffffffffff1673ffffffffffffffffffffffffffffffffffffffff1663f2fde38b336040518263ffffffff1660e01b8152600401808273ffffffffffffffffffffffffffffffffffffffff168152602001915050600060405180830381600087803b158015611c6d57600080fd5b505af1158015611c81573d6000803e3d6000fd5b50505050600a60020160009054906101000a900473ffffffffffffffffffffffffffffffffffffffff1673ffffffffffffffffffffffffffffffffffffffff1663f2fde38b336040518263ffffffff1660e01b8152600401808273ffffffffffffffffffffffffffffffffffffffff168152602001915050600060405180830381600087803b158015611d1357600080fd5b505af1158015611d27573d6000803e3d6000fd5b505050507fbe6c3b9051d7592de155a063032273de21e0cec2a43d4ad860bf0ca7f3b5f59e60008054906101000a900460ff16604051808260ff16815260200191505060405180910390a1565b60068060ff1660008054906101000a900460ff1660ff1614611dfe576040517f08c379a000000000000000000000000000000000000000000000000000000000815260040180806020018281038252601a8152602001807f4d4947524154494f4e3a20496e636f727265637420737465702e00000000000081525060200191505060405180910390fd5b6000601054836012540111611e17578260125401611e1b565b6010545b90506000600a60000160009054906101000a900473ffffffffffffffffffffffffffffffffffffffff1690506000600660009054906101000a900473ffffffffffffffffffffffffffffffffffffffff1673ffffffffffffffffffffffffffffffffffffffff1663b31c710a6040518163ffffffff1660e01b815260040160206040518083038186803b158015611eb157600080fd5b505afa158015611ec5573d6000803e3d6000fd5b505050506040513d6020811015611edb57600080fd5b810190808051906020019092919050505090505b82601254101561236e576000600f60125481548110611f0a57fe5b906000526020600020015490506000600e60125481548110611f2857fe5b9060005260206000200160009054906101000a900473ffffffffffffffffffffffffffffffffffffffff1690508273ffffffffffffffffffffffffffffffffffffffff168173ffffffffffffffffffffffffffffffffffffffff16141561221e57600660009054906101000a900473ffffffffffffffffffffffffffffffffffffffff1673ffffffffffffffffffffffffffffffffffffffff1663b31c710a6040518163ffffffff1660e01b815260040160206040518083038186803b158015611ff157600080fd5b505afa158015612005573d6000803e3d6000fd5b505050506040513d602081101561201b57600080fd5b810190808051906020019092919050505073ffffffffffffffffffffffffffffffffffffffff1663095ea7b3600660009054906101000a900473ffffffffffffffffffffffffffffffffffffffff167fffffffffffffffffffffffffffffffffffffffffffffffffffffffffffffffff6040518363ffffffff1660e01b8152600401808373ffffffffffffffffffffffffffffffffffffffff16815260200182815260200192505050600060405180830381600087803b1580156120de57600080fd5b505af11580156120f2573d6000803e3d6000fd5b50505050600660009054906101000a900473ffffffffffffffffffffffffffffffffffffffff1673ffffffffffffffffffffffffffffffffffffffff16638119c0656040518163ffffffff1660e01b8152600401600060405180830381600087803b15801561216057600080fd5b505af1158015612174573d6000803e3d6000fd5b50505050600660009054906101000a900473ffffffffffffffffffffffffffffffffffffffff1673ffffffffffffffffffffffffffffffffffffffff1663c42bd05a6040518163ffffffff1660e01b815260040160206040518083038186803b1580156121e057600080fd5b505afa1580156121f4573d6000803e3d6000fd5b505050506040513d602081101561220a57600080fd5b810190808051906020019092919050505090505b8073ffffffffffffffffffffffffffffffffffffffff1663095ea7b3600a60000160009054906101000a900473ffffffffffffffffffffffffffffffffffffffff16846040518363ffffffff1660e01b8152600401808373ffffffffffffffffffffffffffffffffffffffff16815260200182815260200192505050600060405180830381600087803b1580156122b457600080fd5b505af11580156122c8573d6000803e3d6000fd5b505050508373ffffffffffffffffffffffffffffffffffffffff16635668870082846040518363ffffffff1660e01b8152600401808373ffffffffffffffffffffffffffffffffffffffff16815260200182815260200192505050600060405180830381600087803b15801561233d57600080fd5b505af1158015612351573d6000803e3d6000fd5b505050505050601260008154809291906001019190505550611eef565b60105483141561251d57600060019054906101000a900473ffffffffffffffffffffffffffffffffffffffff1673ffffffffffffffffffffffffffffffffffffffff166306d3313f6040518163ffffffff1660e01b8152600401600060405180830381600087803b1580156123e257600080fd5b505af11580156123f6573d6000803e3d6000fd5b505050507f859d64a08b751bfe0b802466a048a4cd9c9080a3c1f6ca3b8da9fcdd4668dd0660008054906101000a900460ff16600060019054906101000a900473ffffffffffffffffffffffffffffffffffffffff1673ffffffffffffffffffffffffffffffffffffffff16633ba0b9a96040518163ffffffff1660e01b815260040160206040518083038186803b15801561249157600080fd5b505afa1580156124a5573d6000803e3d6000fd5b505050506040513d60208110156124bb57600080fd5b8101908080519060200190929190505050604051808360ff1681526020018281526020019250505060405180910390a160008081819054906101000a900460ff168092919060010191906101000a81548160ff021916908360ff160217905550505b5050505050565b60008054906101000a900460ff1681565b60078060ff1660008054906101000a900460ff1660ff16146125bf576040517f08c379a000000000000000000000000000000000000000000000000000000000815260040180806020018281038252601a8152602001807f4d4947524154494f4e3a20496e636f727265637420737465702e00000000000081525060200191505060405180910390fd5b600a60000160009054906101000a900473ffffffffffffffffffffffffffffffffffffffff1673ffffffffffffffffffffffffffffffffffffffff1663f2fde38b600360009054906101000a900473ffffffffffffffffffffffffffffffffffffffff166040518263ffffffff1660e01b8152600401808273ffffffffffffffffffffffffffffffffffffffff168152602001915050600060405180830381600087803b15801561266f57600080fd5b505af1158015612683573d6000803e3d6000fd5b50505050600a60020160009054906101000a900473ffffffffffffffffffffffffffffffffffffffff1673ffffffffffffffffffffffffffffffffffffffff1663f2fde38b600360009054906101000a900473ffffffffffffffffffffffffffffffffffffffff166040518263ffffffff1660e01b8152600401808273ffffffffffffffffffffffffffffffffffffffff168152602001915050600060405180830381600087803b15801561273757600080fd5b505af115801561274b573d6000803e3d6000fd5b505050507f9db175eaff8fe53942f9595c409ff1b2f49e8502b4b29eb1c88d5082ff14ba4560008054906101000a900460ff16600360009054906101000a900473ffffffffffffffffffffffffffffffffffffffff16604051808360ff1681526020018273ffffffffffffffffffffffffffffffffffffffff1681526020019250505060405180910390a160008081819054906101000a900460ff168092919060010191906101000a81548160ff021916908360ff1602179055505050565b60078060000160009054906101000a900473ffffffffffffffffffffffffffffffffffffffff16908060010160009054906101000a900473ffffffffffffffffffffffffffffffffffffffff16908060020160009054906101000a900473ffffffffffffffffffffffffffffffffffffffff16905083565b60018060ff1660008054906101000a900460ff1660ff161461290c576040517f08c379a000000000000000000000000000000000000000000000000000000000815260040180806020018281038252601a8152602001807f4d4947524154494f4e3a20496e636f727265637420737465702e00000000000081525060200191505060405180910390fd5b60003090508073ffffffffffffffffffffffffffffffffffffffff16600760000160009054906101000a900473ffffffffffffffffffffffffffffffffffffffff1673ffffffffffffffffffffffffffffffffffffffff1663c6dbdf616040518163ffffffff1660e01b815260040160206040518083038186803b15801561299357600080fd5b505afa1580156129a7573d6000803e3d6000fd5b505050506040513d60208110156129bd57600080fd5b810190808051906020019092919050505073ffffffffffffffffffffffffffffffffffffffff1614612a3a576040517f08c379a00000000000000000000000000000000000000000000000000000000081526004018080602001828103825260238152602001806146cf6023913960400191505060405180910390fd5b8073ffffffffffffffffffffffffffffffffffffffff16600760010160009054906101000a900473ffffffffffffffffffffffffffffffffffffffff1673ffffffffffffffffffffffffffffffffffffffff1663c6dbdf616040518163ffffffff1660e01b815260040160206040518083038186803b158015612abc57600080fd5b505afa158015612ad0573d6000803e3d6000fd5b505050506040513d6020811015612ae657600080fd5b810190808051906020019092919050505073ffffffffffffffffffffffffffffffffffffffff1614612b63576040517f08c379a00000000000000000000000000000000000000000000000000000000081526004018080602001828103825260238152602001806147a46023913960400191505060405180910390fd5b8073ffffffffffffffffffffffffffffffffffffffff16600760020160009054906101000a900473ffffffffffffffffffffffffffffffffffffffff1673ffffffffffffffffffffffffffffffffffffffff1663c6dbdf616040518163ffffffff1660e01b815260040160206040518083038186803b158015612be557600080fd5b505afa158015612bf9573d6000803e3d6000fd5b505050506040513d6020811015612c0f57600080fd5b810190808051906020019092919050505073ffffffffffffffffffffffffffffffffffffffff1614612c8c576040517f08c379a00000000000000000000000000000000000000000000000000000000081526004018080602001828103825260238152602001806147166023913960400191505060405180910390fd5b8073ffffffffffffffffffffffffffffffffffffffff16600a60000160009054906101000a900473ffffffffffffffffffffffffffffffffffffffff1673ffffffffffffffffffffffffffffffffffffffff16638da5cb5b6040518163ffffffff1660e01b815260040160206040518083038186803b158015612d0e57600080fd5b505afa158015612d22573d6000803e3d6000fd5b505050506040513d6020811015612d3857600080fd5b810190808051906020019092919050505073ffffffffffffffffffffffffffffffffffffffff1614612db5576040517f08c379a00000000000000000000000000000000000000000000000000000000081526004018080602001828103825260238152602001806147c76023913960400191505060405180910390fd5b8073ffffffffffffffffffffffffffffffffffffffff16600a60020160009054906101000a900473ffffffffffffffffffffffffffffffffffffffff1673ffffffffffffffffffffffffffffffffffffffff16638da5cb5b6040518163ffffffff1660e01b815260040160206040518083038186803b158015612e3757600080fd5b505afa158015612e4b573d6000803e3d6000fd5b505050506040513d6020811015612e6157600080fd5b810190808051906020019092919050505073ffffffffffffffffffffffffffffffffffffffff1614612ede576040517f08c379a00000000000000000000000000000000000000000000000000000000081526004018080602001828103825260238152602001806147396023913960400191505060405180910390fd5b600a60000160009054906101000a900473ffffffffffffffffffffffffffffffffffffffff1673ffffffffffffffffffffffffffffffffffffffff1663e22bcf84306040518263ffffffff1660e01b8152600401808273ffffffffffffffffffffffffffffffffffffffff16815260200191505060206040518083038186803b158015612f6a57600080fd5b505afa158015612f7e573d6000803e3d6000fd5b505050506040513d6020811015612f9457600080fd5b8101908080519060200190929190505050612ffa576040517f08c379a000000000000000000000000000000000000000000000000000000000815260040180806020018281038252604881526020018061475c6048913960600191505060405180910390fd5b7eeb0161c4b9a7d9f8e8a7888c5ed71a19d148a05d48e1dd7b6f35a7ccc53f4d60008054906101000a900460ff16600760000160009054906101000a900473ffffffffffffffffffffffffffffffffffffffff16600760010160009054906101000a900473ffffffffffffffffffffffffffffffffffffffff16600760020160009054906101000a900473ffffffffffffffffffffffffffffffffffffffff16600a60000160009054906101000a900473ffffffffffffffffffffffffffffffffffffffff16600a60020160009054906101000a900473ffffffffffffffffffffffffffffffffffffffff16604051808760ff1681526020018673ffffffffffffffffffffffffffffffffffffffff1681526020018573ffffffffffffffffffffffffffffffffffffffff1681526020018473ffffffffffffffffffffffffffffffffffffffff1681526020018373ffffffffffffffffffffffffffffffffffffffff1681526020018273ffffffffffffffffffffffffffffffffffffffff168152602001965050505050505060405180910390a160008081819054906101000a900460ff168092919060010191906101000a81548160ff021916908360ff160217905550505050565b600a8060000160009054906101000a900473ffffffffffffffffffffffffffffffffffffffff16908060010160009054906101000a900473ffffffffffffffffffffffffffffffffffffffff16908060020160009054906101000a900473ffffffffffffffffffffffffffffffffffffffff16905083565b60038060ff1660008054906101000a900460ff1660ff16146132c6576040517f08c379a000000000000000000000000000000000000000000000000000000000815260040180806020018281038252601a8152602001807f4d4947524154494f4e3a20496e636f727265637420737465702e00000000000081525060200191505060405180910390fd5b60005b6010548160ff1610156133745760006040516132e4906134b4565b604051809103906000f080158015613300573d6000803e3d6000fd5b509050600d819080600181540180825580915050600190039060005260206000200160009091909190916101000a81548173ffffffffffffffffffffffffffffffffffffffff021916908373ffffffffffffffffffffffffffffffffffffffff1602179055505080806001019150506132c9565b5060008081819054906101000a900460ff168092919060010191906101000a81548160ff021916908360ff160217905550507f334bc055cefc24f7691360617839a1fabaa7148320839abc5308558e4c1618db60036040518082815260200191505060405180910390a150565b600060019054906101000a900473ffffffffffffffffffffffffffffffffffffffff1681565b828054828255906000526020600020908101928215613496579160200282015b8281111561349557823573ffffffffffffffffffffffffffffffffffffffff168260006101000a81548173ffffffffffffffffffffffffffffffffffffffff021916908373ffffffffffffffffffffffffffffffffffffffff16021790555091602001919060010190613427565b5b5090506134a391906134c1565b5090565b610809806134fd83390190565b6109c980613d0683390190565b5b808211156134f857600081816101000a81549073ffffffffffffffffffffffffffffffffffffffff0219169055506001016134c2565b509056fe608060405234801561001057600080fd5b506040516108093803806108098339818101604052606081101561003357600080fd5b8101908080519060200190929190805190602001909291908051906020019092919050505082600160030160006101000a81548173ffffffffffffffffffffffffffffffffffffffff021916908373ffffffffffffffffffffffffffffffffffffffff16021790555081600160040160006101000a81548173ffffffffffffffffffffffffffffffffffffffff021916908373ffffffffffffffffffffffffffffffffffffffff16021790555080600660006101000a81548173ffffffffffffffffffffffffffffffffffffffff021916908373ffffffffffffffffffffffffffffffffffffffff1602179055505050506106d6806101336000396000f3fe608060405234801561001057600080fd5b50600436106100575760003560e01c806306d3313f1461005c5780633ba0b9a91461006657806394b918de14610084578063ac22e15f146100b2578063c038a38e146100e0575b600080fd5b610064610146565b005b61006e610275565b6040518082815260200191505060405180910390f35b6100b06004803603602081101561009a57600080fd5b810190808035906020019092919050505061027b565b005b6100de600480360360208110156100c857600080fd5b81019080803590602001909291905050506105aa565b005b6100e861061a565b604051808681526020018581526020018481526020018373ffffffffffffffffffffffffffffffffffffffff1681526020018273ffffffffffffffffffffffffffffffffffffffff1681526020019550505050505060405180910390f35b600660009054906101000a900473ffffffffffffffffffffffffffffffffffffffff1673ffffffffffffffffffffffffffffffffffffffff163373ffffffffffffffffffffffffffffffffffffffff16146101a057600080fd5b600160040160009054906101000a900473ffffffffffffffffffffffffffffffffffffffff1673ffffffffffffffffffffffffffffffffffffffff166318160ddd6040518163ffffffff1660e01b8152600401602060405180830381600087803b15801561020d57600080fd5b505af1158015610221573d6000803e3d6000fd5b505050506040513d602081101561023757600080fd5b8101908080519060200190929190505050600180018190555060018001546001600001548161026257fe5b0460008190555043600160020181905550565b60005481565b600160030160009054906101000a900473ffffffffffffffffffffffffffffffffffffffff1673ffffffffffffffffffffffffffffffffffffffff166323b872dd3330846040518463ffffffff1660e01b8152600401808473ffffffffffffffffffffffffffffffffffffffff1681526020018373ffffffffffffffffffffffffffffffffffffffff1681526020018281526020019350505050602060405180830381600087803b15801561032f57600080fd5b505af1158015610343573d6000803e3d6000fd5b505050506040513d602081101561035957600080fd5b81019080805190602001909291905050506103dc576040517f08c379a000000000000000000000000000000000000000000000000000000000815260040180806020018281038252601c8152602001807f534358204252494447453a207472616e73666572206661696c65642e0000000081525060200191505060405180910390fd5b6000805482816103e857fe5b04905060008111610444576040517f08c379a000000000000000000000000000000000000000000000000000000000815260040180806020018281038252602281526020018061067f6022913960400191505060405180910390fd5b600160030160009054906101000a900473ffffffffffffffffffffffffffffffffffffffff1673ffffffffffffffffffffffffffffffffffffffff166342966c68836040518263ffffffff1660e01b815260040180828152602001915050602060405180830381600087803b1580156104bc57600080fd5b505af11580156104d0573d6000803e3d6000fd5b505050506040513d60208110156104e657600080fd5b810190808051906020019092919050505050600160040160009054906101000a900473ffffffffffffffffffffffffffffffffffffffff1673ffffffffffffffffffffffffffffffffffffffff1663d2cb010033836040518363ffffffff1660e01b8152600401808373ffffffffffffffffffffffffffffffffffffffff16815260200182815260200192505050600060405180830381600087803b15801561058e57600080fd5b505af11580156105a2573d6000803e3d6000fd5b505050505050565b600660009054906101000a900473ffffffffffffffffffffffffffffffffffffffff1673ffffffffffffffffffffffffffffffffffffffff163373ffffffffffffffffffffffffffffffffffffffff161461060457600080fd5b8060016000016000828254019250508190555050565b60018060000154908060010154908060020154908060030160009054906101000a900473ffffffffffffffffffffffffffffffffffffffff16908060040160009054906101000a900473ffffffffffffffffffffffffffffffffffffffff1690508556fe534358204252494447453a20696e73756666696369656e74205343582073656e742ea2646970667358221220da2bc7ce818069df772ce7eb3c4f41417a2e78e8a4d06ed80846836075c054b664736f6c63430007010033608060405234801561001057600080fd5b506109a9806100206000396000f3fe608060405234801561001057600080fd5b50600436106100935760003560e01c806340c10f191161006657806340c10f19146101cc57806342966c681461021a57806370a0823114610248578063a9059cbb146102a0578063dd62ed3e1461030457610093565b8063095ea7b31461009857806318160ddd146100fc57806323b872dd1461011a5780633b4c4b251461019e575b600080fd5b6100e4600480360360408110156100ae57600080fd5b81019080803573ffffffffffffffffffffffffffffffffffffffff1690602001909291908035906020019092919050505061037c565b60405180821515815260200191505060405180910390f35b610104610405565b6040518082815260200191505060405180910390f35b6101866004803603606081101561013057600080fd5b81019080803573ffffffffffffffffffffffffffffffffffffffff169060200190929190803573ffffffffffffffffffffffffffffffffffffffff1690602001909291908035906020019092919050505061040e565b60405180821515815260200191505060405180910390f35b6101ca600480360360208110156101b457600080fd5b8101908080359060200190929190505050610515565b005b610218600480360360408110156101e257600080fd5b81019080803573ffffffffffffffffffffffffffffffffffffffff1690602001909291908035906020019092919050505061051f565b005b6102466004803603602081101561023057600080fd5b81019080803590602001909291905050506105c1565b005b61028a6004803603602081101561025e57600080fd5b81019080803573ffffffffffffffffffffffffffffffffffffffff169060200190929190505050610662565b6040518082815260200191505060405180910390f35b6102ec600480360360408110156102b657600080fd5b81019080803573ffffffffffffffffffffffffffffffffffffffff169060200190929190803590602001909291905050506106ab565b60405180821515815260200191505060405180910390f35b6103666004803603604081101561031a57600080fd5b81019080803573ffffffffffffffffffffffffffffffffffffffff169060200190929190803573ffffffffffffffffffffffffffffffffffffffff1690602001909291905050506106bf565b6040518082815260200191505060405180910390f35b600081600260003373ffffffffffffffffffffffffffffffffffffffff1673ffffffffffffffffffffffffffffffffffffffff16815260200190815260200160002060008573ffffffffffffffffffffffffffffffffffffffff1673ffffffffffffffffffffffffffffffffffffffff1681526020019081526020016000208190555092915050565b60008054905090565b600081600260008673ffffffffffffffffffffffffffffffffffffffff1673ffffffffffffffffffffffffffffffffffffffff16815260200190815260200160002060008573ffffffffffffffffffffffffffffffffffffffff1673ffffffffffffffffffffffffffffffffffffffff168152602001908152602001600020541015610502576040517f08c379a000000000000000000000000000000000000000000000000000000000815260040180806020018281038252601b8152602001807f45524332303a206e6f7420617070726f76656420746f2073656e64000000000081525060200191505060405180910390fd5b61050d848484610746565b509392505050565b8060008190555050565b610568600160008473ffffffffffffffffffffffffffffffffffffffff1673ffffffffffffffffffffffffffffffffffffffff1681526020019081526020016000205482610867565b600160008473ffffffffffffffffffffffffffffffffffffffff1673ffffffffffffffffffffffffffffffffffffffff168152602001908152602001600020819055506105b760005482610867565b6000819055505050565b61060a600160003373ffffffffffffffffffffffffffffffffffffffff1673ffffffffffffffffffffffffffffffffffffffff16815260200190815260200160002054826108ec565b600160003373ffffffffffffffffffffffffffffffffffffffff1673ffffffffffffffffffffffffffffffffffffffff16815260200190815260200160002081905550610659600054826108ec565b60008190555050565b6000600160008373ffffffffffffffffffffffffffffffffffffffff1673ffffffffffffffffffffffffffffffffffffffff168152602001908152602001600020549050919050565b60006106b8338484610746565b5092915050565b6000600260008473ffffffffffffffffffffffffffffffffffffffff1673ffffffffffffffffffffffffffffffffffffffff16815260200190815260200160002060008373ffffffffffffffffffffffffffffffffffffffff1673ffffffffffffffffffffffffffffffffffffffff16815260200190815260200160002054905092915050565b6000610791600160008573ffffffffffffffffffffffffffffffffffffffff1673ffffffffffffffffffffffffffffffffffffffff1681526020019081526020016000205483610867565b600160008573ffffffffffffffffffffffffffffffffffffffff1673ffffffffffffffffffffffffffffffffffffffff1681526020019081526020016000208190555061081d600160008673ffffffffffffffffffffffffffffffffffffffff1673ffffffffffffffffffffffffffffffffffffffff16815260200190815260200160002054836108ec565b600160008673ffffffffffffffffffffffffffffffffffffffff1673ffffffffffffffffffffffffffffffffffffffff168152602001908152602001600020819055509392505050565b60008282840110156108e1576040517f08c379a000000000000000000000000000000000000000000000000000000000815260040180806020018281038252601d8152602001807f44756d6d79546f6b656e3a206164646974696f6e206f766572666c6f7700000081525060200191505060405180910390fd5b818301905092915050565b600081831015610947576040517f08c379a00000000000000000000000000000000000000000000000000000000081526004018080602001828103825260218152602001806109536021913960400191505060405180910390fd5b81830390509291505056fe44756d6d79546f6b656e3a207375627472616374696f6e20756e646572666c6f77a26469706673582212208d9efbd39e1c5ae702d0256d4ec3badb318a5944f59a83301d4de5476daaddef64736f6c634300070100334d4947524154494f4e3a206265686f646c657231206f776e6572206d69736d617463684d49475241544f523a206974277320746f6f206c61746520746f2061706f6c6f67697a654d4947524154494f4e3a206c6163686573697331206f776e6572206d69736d617463684d4947524154494f4e3a206c6163686573697332206f776e6572206d69736d617463684d4947524154494f4e3a20456e73757265207468617420746865206d6967726174696f6e20636f6e74726163742069732077686974656c6973746564206f6e204265686f646c65724d4947524154494f4e3a20736361726369747931206f776e6572206d69736d617463684d4947524154494f4e3a206265686f646c657232206f776e6572206d69736d61746368a26469706673582212209f1ded7797e3e0becc530cfe1289bd8ae10b026318e0e7de2f4669fd05e247c164736f6c63430007010033",
  "immutableReferences": {},
  "source": "// SPDX-License-Identifier: MIT\npragma solidity ^0.7.1;\nimport \"./DummyToken.sol\";\nimport \"./ScarcityBridge.sol\";\nimport \"./ERC20.sol\";\n\n/*\n    Each step has to be completed in order. Each step is represented by a public function. \n    A step counter is incremented to prevent out of order step execution\n    MIGRATION STEPS:\n    1. ASSERT OWNERSHIP\n        primary of Behodler1, Scarcity and Lachesis\n        owner of Behodler2 and Lachesis\n        assert that migrator is whitelisted on Behodler 2\n    2. Disable tokens as array. Add token addresses to array\n    3. For each token and in 1 transaction:\n        3.1 add a new dummy token via lachesis\n        3.2 swap in enough dummy to empty behodler of token\n    4. For each token, enable on Lachesis2 and update Behodler2\n    5. For each token, add liquidity on Behodler2\n    6. Record total scx to ScarcityBridge, calculating conversion rate and burn SCX in hand.\n    7. Transfer ownership of Behodler2 and Lachesis2 to Angband.\n */\n\nabstract contract SecondaryFacade {\n    function primary() public view virtual returns (address);\n\n    function transferPrimary(address recipient) public virtual;\n}\n\nabstract contract OwnableFacade {\n    function owner() public view virtual returns (address);\n\n    function transferOwnership(address newOwner) public virtual;\n}\n\nabstract contract Lachesis1 {\n    function measure(address token, bool valid) external virtual;\n\n    function cut(address token) external view virtual;\n}\n\nabstract contract LiquidityReceiverFacade {\n    function registerPyroToken(address baseToken) public virtual;\n}\n\nabstract contract Behodler1 {\n    function buyScarcity(\n        address tokenAddress,\n        uint256 value,\n        uint256 minPrice\n    ) external virtual returns (uint256);\n\n    function sellScarcity(\n        address tokenAddress,\n        uint256 value,\n        uint256 maxPrice\n    ) external virtual returns (uint256);\n}\n\nabstract contract Behodler2 {\n    function addLiquidity(address inputToken, uint256 amount)\n        public\n        payable\n        virtual;\n\n    function withdrawLiquidity(address outputToken, uint256 tokensToRelease)\n        public\n        payable\n        virtual;\n\n    function whiteListUsers(address user) public view virtual returns (bool);\n}\n\nabstract contract Lachesis2 {\n    function measure(\n        address token,\n        bool valid,\n        bool burnable\n    ) public virtual;\n\n    function updateBehodler(address token) public virtual;\n}\n\nabstract contract LoomTokenSwap {\n    ERC20 public oldToken;\n    ERC20 public newToken;\n\n    /**\n     * @notice Swaps all the old LOOM held by the caller to new LOOM.\n     *         Emits Swap event if the swap is successful.\n     */\n    function swap() external virtual;\n}\n\ncontract Migrator {\n    event bailOnMigration(uint8 step);\n    event verifyOwnership(\n        uint256 step,\n        address behodler1,\n        address scarcity1,\n        address lachesis1,\n        address behodler2,\n        address lachesis2\n    );\n    event disableBehodler1(uint256 step);\n    event addDummyTokens(uint256 step);\n    event drainBehodler1(uint256 step);\n    event addTokensToLachesis2(uint256 step);\n    event addTokensAsLiquidity(uint256 step, uint256 scxExchangeRate);\n    event transferOwnershipToAngband(uint256 step, address angband);\n\n    uint8 public stepCounter = 1;\n    ScarcityBridge public bridge;\n    struct version {\n        address behodler;\n        address scarcity;\n        address lachesis;\n    }\n\n    address weidai;\n    address eye;\n    address angband;\n    address deployer;\n    LiquidityReceiverFacade liquidityReceiver;\n    LoomTokenSwap loomSwap;\n\n    version public One;\n    version public Two;\n    address[] dummyTokens;\n    address[] baseTokens;\n    uint256[] baseBalances;\n    uint256 tokenCount;\n    uint256 step4Index;\n    uint256 step6Index;\n\n    constructor(\n        address behodler1,\n        address scarcity1,\n        address lachesis1,\n        address behodler2,\n        address lachesis2,\n        address _weidai,\n        address _eye,\n        address _angband,\n        address loomTokenSwap,\n        address _liquidityReceiver\n    ) {\n        One.behodler = behodler1;\n        One.scarcity = scarcity1;\n        One.lachesis = lachesis1;\n\n        Two.behodler = behodler2;\n        Two.lachesis = lachesis2;\n\n        weidai = _weidai;\n        eye = _eye;\n        angband = _angband;\n        deployer = msg.sender;\n        loomSwap = LoomTokenSwap(loomTokenSwap);\n        liquidityReceiver = LiquidityReceiverFacade(_liquidityReceiver);\n    }\n\n    function initBridge() public {\n        bridge = new ScarcityBridge(One.scarcity, Two.behodler, address(this));\n    }\n\n    modifier step(uint8 _step) {\n        require(stepCounter == _step, \"MIGRATION: Incorrect step.\");\n        _;\n    }\n\n    function bail() public {\n        require(msg.sender == deployer, \"MIGRATOR: only deployer can call\");\n        require(stepCounter < 7, \"MIGRATOR: it's too late to apologize\");\n\n        SecondaryFacade(One.behodler).transferPrimary(msg.sender);\n        SecondaryFacade(One.scarcity).transferPrimary(msg.sender);\n        SecondaryFacade(One.lachesis).transferPrimary(msg.sender);\n\n        OwnableFacade(Two.behodler).transferOwnership(msg.sender);\n        OwnableFacade(Two.lachesis).transferOwnership(msg.sender);\n        emit bailOnMigration(stepCounter);\n    }\n\n    function step1() public step(1) {\n        address self = address(this);\n        require(\n            SecondaryFacade(One.behodler).primary() == self,\n            \"MIGRATION: behodler1 owner mismatch\"\n        );\n        require(\n            SecondaryFacade(One.scarcity).primary() == self,\n            \"MIGRATION: scarcity1 owner mismatch\"\n        );\n        require(\n            SecondaryFacade(One.lachesis).primary() == self,\n            \"MIGRATION: lachesis1 owner mismatch\"\n        );\n\n        require(\n            OwnableFacade(Two.behodler).owner() == self,\n            \"MIGRATION: behodler2 owner mismatch\"\n        );\n        require(\n            OwnableFacade(Two.lachesis).owner() == self,\n            \"MIGRATION: lachesis2 owner mismatch\"\n        );\n\n        require(\n            Behodler2(Two.behodler).whiteListUsers(address(this)),\n            \"MIGRATION: Ensure that the migration contract is whitelisted on Behodler\"\n        );\n        emit verifyOwnership(\n            stepCounter,\n            One.behodler,\n            One.scarcity,\n            One.lachesis,\n            Two.behodler,\n            Two.lachesis\n        );\n        stepCounter++;\n    }\n\n    //disable tokens on Behodler1\n    function step2(address[] calldata tokens) public step(2) {\n        baseTokens = tokens;\n        Lachesis1 lachesis = Lachesis1(One.lachesis);\n        tokenCount = tokens.length;\n        for (uint8 i = 0; i < tokens.length; i++) {\n            lachesis.cut(tokens[i]); // checks that valid tokens have been passed in\n            lachesis.measure(tokens[i], false);\n        }\n        emit disableBehodler1(2);\n        stepCounter++;\n    }\n\n    //add dummy tokens deploy\n    function step3() public step(3) {\n        for (uint8 i = 0; i < tokenCount; i++) {\n            address token = address(new DummyToken());\n            dummyTokens.push(token);\n        }\n        stepCounter++;\n        emit addDummyTokens(3);\n    }\n\n    //drain behodler1 of tokens\n    function step4(uint256 iterations) public step(4) {\n        Lachesis1 lachesis = Lachesis1(One.lachesis);\n        Behodler1 behodler = Behodler1(One.behodler);\n        ERC20(One.scarcity).approve(One.behodler, uint256(-1));\n\n        uint256 stop =\n            step4Index + iterations > tokenCount\n                ? tokenCount\n                : step4Index + iterations;\n\n        for (; step4Index < stop; step4Index++) {\n            lachesis.measure(dummyTokens[step4Index], true);\n            lachesis.measure(baseTokens[step4Index], true);\n            uint256 tokenBalance =\n                ERC20(baseTokens[step4Index]).balanceOf(One.behodler);\n            baseBalances.push(tokenBalance);\n            ERC20(dummyTokens[step4Index]).mint(address(this), tokenBalance);\n            ERC20(dummyTokens[step4Index]).approve(One.behodler, uint256(-1));\n            uint256 scxGenerated =\n                behodler.buyScarcity(dummyTokens[step4Index], tokenBalance, 0);\n            behodler.sellScarcity(baseTokens[step4Index], scxGenerated, 0);\n            bridge.collectScarcity1BeforeBurning(scxGenerated);\n            lachesis.measure(dummyTokens[step4Index], false);\n            lachesis.measure(baseTokens[step4Index], false);\n        }\n\n        if (stop == tokenCount) {\n            emit drainBehodler1(stepCounter);\n            stepCounter++;\n        }\n    }\n\n    //add tokens to Behodler2\n    function step5() public step(5) {\n        Lachesis2 lachesis = Lachesis2(Two.lachesis);\n        address oldLoomToken = address(0);\n        address newLoomToken = address(0);\n        if (address(loomSwap) != address(0)) {\n            oldLoomToken = address(loomSwap.oldToken());\n            newLoomToken = address(loomSwap.newToken());\n        }\n        for (uint8 i = 0; i < tokenCount; i++) {\n            bool burnable = baseTokens[i] == weidai || baseTokens[i] == eye;\n            address token =\n                baseTokens[i] == oldLoomToken ? newLoomToken : baseTokens[i];\n            lachesis.measure(token, true, burnable);\n            lachesis.updateBehodler(token);\n            if (!burnable) {\n                liquidityReceiver.registerPyroToken(baseTokens[i]);\n            }\n        }\n        emit addTokensToLachesis2(stepCounter);\n        stepCounter++;\n    }\n\n    //add liquidity and calculate scx exchange rate for Behodler2\n    function step6(uint256 iterations) public step(6) {\n        uint256 stop =\n            step6Index + iterations > tokenCount\n                ? tokenCount\n                : step6Index + iterations;\n\n        Behodler2 behodler2 = Behodler2(Two.behodler);\n        address oldLoom = address(loomSwap.oldToken());\n        for (; step6Index < stop; step6Index++) {\n            uint256 behodler1Balance = baseBalances[step6Index];\n            address token = baseTokens[step6Index];\n            if (token == oldLoom) {\n                loomSwap.oldToken().approve(address(loomSwap), uint256(-1));\n                loomSwap.swap();\n                token = address(loomSwap.newToken());\n            }\n\n            ERC20(token).approve(Two.behodler, behodler1Balance);\n            behodler2.addLiquidity(token, behodler1Balance);\n        }\n\n        if (stop == tokenCount) {\n            bridge.recordExchangeRate();\n            emit addTokensAsLiquidity(stepCounter, bridge.exchangeRate());\n            stepCounter++;\n        }\n    }\n\n    //transfer to angband\n    function step7() public step(7) {\n        OwnableFacade(Two.behodler).transferOwnership(angband);\n        OwnableFacade(Two.lachesis).transferOwnership(angband);\n        emit transferOwnershipToAngband(stepCounter, angband);\n        stepCounter++;\n    }\n}\n",
  "sourcePath": "/home/justin/weidai ecosystem/morgoth-dao/contracts/Behodler1Migration/Migrator.sol",
  "compiler": {
    "name": "solc",
    "version": "0.7.1+commit.f4a555be.Emscripten.clang"
  },
  "schemaVersion": "3.3.3",
  "updatedAt": "2021-01-26T23:30:07.728Z",
  "devdoc": {
    "kind": "dev",
    "methods": {},
    "version": 1
  },
  "userdoc": {
    "kind": "user",
    "methods": {},
    "version": 1
  }
}