{
  "contractName": "PowersRegistry",
  "abi": [
    {
      "inputs": [],
      "stateMutability": "nonpayable",
      "type": "constructor"
    },
    {
      "anonymous": false,
      "inputs": [
        {
          "indexed": true,
          "internalType": "address",
          "name": "previousOwner",
          "type": "address"
        },
        {
          "indexed": true,
          "internalType": "address",
          "name": "newOwner",
          "type": "address"
        }
      ],
      "name": "OwnershipTransferred",
      "type": "event"
    },
    {
      "inputs": [],
      "name": "ADD_TOKEN_TO_BEHODLER",
      "outputs": [
        {
          "internalType": "bytes32",
          "name": "",
          "type": "bytes32"
        }
      ],
      "stateMutability": "view",
      "type": "function",
      "constant": true
    },
    {
      "inputs": [],
      "name": "AUTHORIZE_INVOKER",
      "outputs": [
        {
          "internalType": "bytes32",
          "name": "",
          "type": "bytes32"
        }
      ],
      "stateMutability": "view",
      "type": "function",
      "constant": true
    },
    {
      "inputs": [],
      "name": "BOND_USER_TO_MINION",
      "outputs": [
        {
          "internalType": "bytes32",
          "name": "",
          "type": "bytes32"
        }
      ],
      "stateMutability": "view",
      "type": "function",
      "constant": true
    },
    {
      "inputs": [],
      "name": "CHANGE_POWERS",
      "outputs": [
        {
          "internalType": "bytes32",
          "name": "",
          "type": "bytes32"
        }
      ],
      "stateMutability": "view",
      "type": "function",
      "constant": true
    },
    {
      "inputs": [],
      "name": "CONFIGURE_SCARCITY",
      "outputs": [
        {
          "internalType": "bytes32",
          "name": "",
          "type": "bytes32"
        }
      ],
      "stateMutability": "view",
      "type": "function",
      "constant": true
    },
    {
      "inputs": [],
      "name": "CONFIGURE_THANGORODRIM",
      "outputs": [
        {
          "internalType": "bytes32",
          "name": "",
          "type": "bytes32"
        }
      ],
      "stateMutability": "view",
      "type": "function",
      "constant": true
    },
    {
      "inputs": [],
      "name": "CREATE_NEW_POWER",
      "outputs": [
        {
          "internalType": "bytes32",
          "name": "",
          "type": "bytes32"
        }
      ],
      "stateMutability": "view",
      "type": "function",
      "constant": true
    },
    {
      "inputs": [],
      "name": "DISPUTE_DECISION",
      "outputs": [
        {
          "internalType": "bytes32",
          "name": "",
          "type": "bytes32"
        }
      ],
      "stateMutability": "view",
      "type": "function",
      "constant": true
    },
    {
      "inputs": [],
      "name": "INSERT_SILMARIL",
      "outputs": [
        {
          "internalType": "bytes32",
          "name": "",
          "type": "bytes32"
        }
      ],
      "stateMutability": "view",
      "type": "function",
      "constant": true
    },
    {
      "inputs": [],
      "name": "NULL",
      "outputs": [
        {
          "internalType": "bytes32",
          "name": "",
          "type": "bytes32"
        }
      ],
      "stateMutability": "view",
      "type": "function",
      "constant": true
    },
    {
      "inputs": [],
      "name": "POINT_TO_BEHODLER",
      "outputs": [
        {
          "internalType": "bytes32",
          "name": "",
          "type": "bytes32"
        }
      ],
      "stateMutability": "view",
      "type": "function",
      "constant": true
    },
    {
      "inputs": [],
      "name": "SEIZE_POWER",
      "outputs": [
        {
          "internalType": "bytes32",
          "name": "",
          "type": "bytes32"
        }
      ],
      "stateMutability": "view",
      "type": "function",
      "constant": true
    },
    {
      "inputs": [],
      "name": "SET_DISPUTE_TIMEOUT",
      "outputs": [
        {
          "internalType": "bytes32",
          "name": "",
          "type": "bytes32"
        }
      ],
      "stateMutability": "view",
      "type": "function",
      "constant": true
    },
    {
      "inputs": [],
      "name": "TREASURER",
      "outputs": [
        {
          "internalType": "bytes32",
          "name": "",
          "type": "bytes32"
        }
      ],
      "stateMutability": "view",
      "type": "function",
      "constant": true
    },
    {
      "inputs": [],
      "name": "VETO_BAD_OUTCOME",
      "outputs": [
        {
          "internalType": "bytes32",
          "name": "",
          "type": "bytes32"
        }
      ],
      "stateMutability": "view",
      "type": "function",
      "constant": true
    },
    {
      "inputs": [],
      "name": "WIRE_ANGBAND",
      "outputs": [
        {
          "internalType": "bytes32",
          "name": "",
          "type": "bytes32"
        }
      ],
      "stateMutability": "view",
      "type": "function",
      "constant": true
    },
    {
      "inputs": [
        {
          "internalType": "address",
          "name": "_powers",
          "type": "address"
        }
      ],
      "name": "changePower",
      "outputs": [],
      "stateMutability": "nonpayable",
      "type": "function"
    },
    {
      "inputs": [],
      "name": "owner",
      "outputs": [
        {
          "internalType": "address",
          "name": "",
          "type": "address"
        }
      ],
      "stateMutability": "view",
      "type": "function",
      "constant": true
    },
    {
      "inputs": [
        {
          "internalType": "bytes32",
          "name": "",
          "type": "bytes32"
        }
      ],
      "name": "powers",
      "outputs": [
        {
          "internalType": "bytes32",
          "name": "name",
          "type": "bytes32"
        },
        {
          "internalType": "bytes32",
          "name": "domain",
          "type": "bytes32"
        },
        {
          "internalType": "bool",
          "name": "transferrable",
          "type": "bool"
        },
        {
          "internalType": "bool",
          "name": "unique",
          "type": "bool"
        }
      ],
      "stateMutability": "view",
      "type": "function",
      "constant": true
    },
    {
      "inputs": [],
      "name": "renounceOwnership",
      "outputs": [],
      "stateMutability": "nonpayable",
      "type": "function"
    },
    {
      "inputs": [
        {
          "internalType": "address",
          "name": "newOwner",
          "type": "address"
        }
      ],
      "name": "transferOwnership",
      "outputs": [],
      "stateMutability": "nonpayable",
      "type": "function"
    },
    {
      "inputs": [
        {
          "internalType": "address",
          "name": "",
          "type": "address"
        }
      ],
      "name": "userMinion",
      "outputs": [
        {
          "internalType": "bytes32",
          "name": "",
          "type": "bytes32"
        }
      ],
      "stateMutability": "view",
      "type": "function",
      "constant": true
    },
    {
      "inputs": [],
      "name": "seed",
      "outputs": [],
      "stateMutability": "nonpayable",
      "type": "function"
    },
    {
      "inputs": [
        {
          "internalType": "bytes32",
          "name": "power",
          "type": "bytes32"
        },
        {
          "internalType": "address",
          "name": "user",
          "type": "address"
        }
      ],
      "name": "userHasPower",
      "outputs": [
        {
          "internalType": "bool",
          "name": "",
          "type": "bool"
        }
      ],
      "stateMutability": "view",
      "type": "function",
      "constant": true
    },
    {
      "inputs": [
        {
          "internalType": "address",
          "name": "user",
          "type": "address"
        },
        {
          "internalType": "bytes32",
          "name": "minion",
          "type": "bytes32"
        }
      ],
      "name": "isUserMinion",
      "outputs": [
        {
          "internalType": "bool",
          "name": "",
          "type": "bool"
        }
      ],
      "stateMutability": "view",
      "type": "function",
      "constant": true
    },
    {
      "inputs": [
        {
          "internalType": "bytes32",
          "name": "power",
          "type": "bytes32"
        },
        {
          "internalType": "bytes32",
          "name": "domain",
          "type": "bytes32"
        },
        {
          "internalType": "bool",
          "name": "transferrable",
          "type": "bool"
        },
        {
          "internalType": "bool",
          "name": "unique",
          "type": "bool"
        }
      ],
      "name": "create",
      "outputs": [],
      "stateMutability": "nonpayable",
      "type": "function"
    },
    {
      "inputs": [
        {
          "internalType": "bytes32",
          "name": "power",
          "type": "bytes32"
        }
      ],
      "name": "destroy",
      "outputs": [],
      "stateMutability": "nonpayable",
      "type": "function"
    },
    {
      "inputs": [
        {
          "internalType": "bytes32",
          "name": "power",
          "type": "bytes32"
        },
        {
          "internalType": "bytes32",
          "name": "minion_to",
          "type": "bytes32"
        }
      ],
      "name": "pour",
      "outputs": [],
      "stateMutability": "nonpayable",
      "type": "function"
    },
    {
      "inputs": [
        {
          "internalType": "bytes32",
          "name": "power",
          "type": "bytes32"
        },
        {
          "internalType": "bytes32",
          "name": "minion_to",
          "type": "bytes32"
        }
      ],
      "name": "spread",
      "outputs": [],
      "stateMutability": "nonpayable",
      "type": "function"
    },
    {
      "inputs": [
        {
          "internalType": "address",
          "name": "user",
          "type": "address"
        },
        {
          "internalType": "bytes32",
          "name": "minion",
          "type": "bytes32"
        }
      ],
      "name": "castIntoVoid",
      "outputs": [],
      "stateMutability": "nonpayable",
      "type": "function"
    },
    {
      "inputs": [
        {
          "internalType": "address",
          "name": "user",
          "type": "address"
        },
        {
          "internalType": "bytes32",
          "name": "minion",
          "type": "bytes32"
        }
      ],
      "name": "bondUserToMinion",
      "outputs": [],
      "stateMutability": "nonpayable",
      "type": "function"
    }
  ],
  "bytecode": "0x608060405234801561001057600080fd5b50336000806101000a81548173ffffffffffffffffffffffffffffffffffffffff021916908373ffffffffffffffffffffffffffffffffffffffff1602179055503373ffffffffffffffffffffffffffffffffffffffff16600073ffffffffffffffffffffffffffffffffffffffff167f8be0079c531659141344cd1fd0a4f28419497f9722a3daafe3b4186f6b6457e060405160405180910390a3600780600181540180825580915050600190039060005260206000200160007f4d656c6b6f720000000000000000000000000000000000000000000000000000909190915055600780600181540180825580915050600190039060005260206000200160007f556e676f6c69616e740000000000000000000000000000000000000000000000909190915055600780600181540180825580915050600190039060005260206000200160007f536175726f6e0000000000000000000000000000000000000000000000000000909190915055600780600181540180825580915050600190039060005260206000200160007f536172756d616e00000000000000000000000000000000000000000000000000909190915055600780600181540180825580915050600190039060005260206000200160007f476c617572756e67000000000000000000000000000000000000000000000000909190915055600780600181540180825580915050600190039060005260206000200160007f476f74686d6f6700000000000000000000000000000000000000000000000000909190915055600780600181540180825580915050600190039060005260206000200160007f436172636861726f746800000000000000000000000000000000000000000000909190915055600780600181540180825580915050600190039060005260206000200160007f57697463686b696e670000000000000000000000000000000000000000000000909190915055600780600181540180825580915050600190039060005260206000200160007f536d617567000000000000000000000000000000000000000000000000000000909190915055600780600181540180825580915050600190039060005260206000200160007f647261676f6e0000000000000000000000000000000000000000000000000000909190915055600780600181540180825580915050600190039060005260206000200160007f62616c726f670000000000000000000000000000000000000000000000000000909190915055600780600181540180825580915050600190039060005260206000200160007f6f726300000000000000000000000000000000000000000000000000000000009091909150556001600360003373ffffffffffffffffffffffffffffffffffffffff1673ffffffffffffffffffffffffffffffffffffffff16815260200190815260200160002060007f4d656c6b6f720000000000000000000000000000000000000000000000000000815260200190815260200160002060006101000a81548160ff0219169083151502179055506001600460007f4352454154455f4e45575f504f57455200000000000000000000000000000000815260200190815260200160002060007f4d656c6b6f720000000000000000000000000000000000000000000000000000815260200190815260200160002060006101000a81548160ff0219169083151502179055506001600460007f5345495a455f504f574552000000000000000000000000000000000000000000815260200190815260200160002060007f4d656c6b6f720000000000000000000000000000000000000000000000000000815260200190815260200160002060006101000a81548160ff0219169083151502179055506001600460007f424f4e445f555345525f544f5f4d494e494f4e00000000000000000000000000815260200190815260200160002060007f4d656c6b6f720000000000000000000000000000000000000000000000000000815260200190815260200160002060006101000a81548160ff0219169083151502179055507f4d656c6b6f720000000000000000000000000000000000000000000000000000600660003373ffffffffffffffffffffffffffffffffffffffff1673ffffffffffffffffffffffffffffffffffffffff168152602001908152602001600020819055506001600560007f4d656c6b6f720000000000000000000000000000000000000000000000000000815260200190815260200160002060007f4352454154455f4e45575f504f57455200000000000000000000000000000000815260200190815260200160002060006101000a81548160ff0219169083151502179055506001600560007f4d656c6b6f720000000000000000000000000000000000000000000000000000815260200190815260200160002060007f5345495a455f504f574552000000000000000000000000000000000000000000815260200190815260200160002060006101000a81548160ff0219169083151502179055506001600560007f4d656c6b6f720000000000000000000000000000000000000000000000000000815260200190815260200160002060007f424f4e445f555345525f544f5f4d494e494f4e00000000000000000000000000815260200190815260200160002060006101000a81548160ff02191690831515021790555060018060146101000a81548160ff021916908315150217905550612869806107f86000396000f3fe608060405234801561001057600080fd5b50600436106101e55760003560e01c80637d94792a1161010f578063d2f0bf5c116100a2578063f5fd1feb11610071578063f5fd1feb14610701578063f70b6fc51461071f578063fb1849ee1461073d578063fb3773e21461075b576101e5565b8063d2f0bf5c14610663578063eabe0a8314610681578063f26be3fc1461069f578063f2fde38b146106bd576101e5565b8063a7352b61116100de578063a7352b6114610574578063adffe2d3146105cc578063af122def146105ea578063b872c52314610608576101e5565b80637d94792a146104c85780637fe48f8e146104d25780638da5cb5b146104f05780639509ff4f14610524576101e5565b806343810901116101875780636f9f0719116101565780636f9f07191461041e578063715018a61461048257806373daf98c1461048c5780637cc2af3d146104aa576101e5565b806343810901146103365780635649cd63146103845780636be48259146103d25780636e0bd282146103f0576101e5565b80632140c9aa116101c35780632140c9aa1461025e578063250d4c6d1461027c57806332b68b6d146102e05780633983d17a146102fe576101e5565b806301f6d8d7146101ea578063093ad4f5146102085780631f299e7e14610226575b600080fd5b6101f261079f565b6040518082815260200191505060405180910390f35b6102106107c3565b6040518082815260200191505060405180910390f35b61025c6004803603604081101561023c57600080fd5b8101908080359060200190929190803590602001909291905050506107e7565b005b610266610aa2565b6040518082815260200191505060405180910390f35b6102c86004803603604081101561029257600080fd5b8101908080359060200190929190803573ffffffffffffffffffffffffffffffffffffffff169060200190929190505050610ac6565b60405180821515815260200191505060405180910390f35b6102e8610b46565b6040518082815260200191505060405180910390f35b6103346004803603604081101561031457600080fd5b810190808035906020019092919080359060200190929190505050610b6a565b005b6103826004803603604081101561034c57600080fd5b81019080803573ffffffffffffffffffffffffffffffffffffffff16906020019092919080359060200190929190505050610fd8565b005b6103d06004803603604081101561039a57600080fd5b81019080803573ffffffffffffffffffffffffffffffffffffffff1690602001909291908035906020019092919050505061133c565b005b6103da6115d0565b6040518082815260200191505060405180910390f35b61041c6004803603602081101561040657600080fd5b81019080803590602001909291905050506115f4565b005b61046a6004803603604081101561043457600080fd5b81019080803573ffffffffffffffffffffffffffffffffffffffff1690602001909291908035906020019092919050505061199f565b60405180821515815260200191505060405180910390f35b61048a611a07565b005b610494611b86565b6040518082815260200191505060405180910390f35b6104b2611baa565b6040518082815260200191505060405180910390f35b6104d0611bce565b005b6104da611c11565b6040518082815260200191505060405180910390f35b6104f8611c35565b604051808273ffffffffffffffffffffffffffffffffffffffff16815260200191505060405180910390f35b6105726004803603608081101561053a57600080fd5b810190808035906020019092919080359060200190929190803515159060200190929190803515159060200190929190505050611c5e565b005b6105b66004803603602081101561058a57600080fd5b81019080803573ffffffffffffffffffffffffffffffffffffffff169060200190929190505050611ed5565b6040518082815260200191505060405180910390f35b6105d4611eed565b6040518082815260200191505060405180910390f35b6105f2611f11565b6040518082815260200191505060405180910390f35b6106346004803603602081101561061e57600080fd5b8101908080359060200190929190505050611f35565b604051808581526020018481526020018315158152602001821515815260200194505050505060405180910390f35b61066b611f7f565b6040518082815260200191505060405180910390f35b610689611fa3565b6040518082815260200191505060405180910390f35b6106a7611fc7565b6040518082815260200191505060405180910390f35b6106ff600480360360208110156106d357600080fd5b81019080803573ffffffffffffffffffffffffffffffffffffffff169060200190929190505050611feb565b005b6107096121ef565b6040518082815260200191505060405180910390f35b610727612213565b6040518082815260200191505060405180910390f35b610745612237565b6040518082815260200191505060405180910390f35b61079d6004803603602081101561077157600080fd5b81019080803573ffffffffffffffffffffffffffffffffffffffff16906020019092919050505061225b565b005b7f574952455f414e4742414e44000000000000000000000000000000000000000081565b7f5345545f444953505554455f54494d454f55540000000000000000000000000081565b81600160149054906101000a900460ff1661086a576040517f08c379a000000000000000000000000000000000000000000000000000000000815260040180806020018281038252601e8152602001807f4d4f52474f54483a20706f77657273206e6f7420616c6c6f63617465642e000081525060200191505060405180910390fd5b600160009054906101000a900473ffffffffffffffffffffffffffffffffffffffff1673ffffffffffffffffffffffffffffffffffffffff1663250d4c6d82336040518363ffffffff1660e01b8152600401808381526020018273ffffffffffffffffffffffffffffffffffffffff1681526020019250505060206040518083038186803b1580156108fb57600080fd5b505afa15801561090f573d6000803e3d6000fd5b505050506040513d602081101561092557600080fd5b81019080805190602001909291905050506109a8576040517f08c379a00000000000000000000000000000000000000000000000000000000081526004018080602001828103825260188152602001807f4d4f52474f54483a20666f7262696464656e20706f776572000000000000000081525060200191505060405180910390fd5b6109b06127b5565b6002600085815260200190815260200160002060405180608001604052908160008201548152602001600182015481526020016002820160009054906101000a900460ff161515151581526020016002820160019054906101000a900460ff1615151515815250509050806060015115610a92576040517f08c379a000000000000000000000000000000000000000000000000000000000815260040180806020018281038252601d8152602001807f4d4f52474f54483a20706f776572206e6f7420646976697369626c652e00000081525060200191505060405180910390fd5b610a9c8484612737565b50505050565b7f4348414e47455f504f574552530000000000000000000000000000000000000081565b600080600660008473ffffffffffffffffffffffffffffffffffffffff1673ffffffffffffffffffffffffffffffffffffffff16815260200190815260200160002054905060056000828152602001908152602001600020600085815260200190815260200160002060009054906101000a900460ff1691505092915050565b7f444953505554455f4445434953494f4e0000000000000000000000000000000081565b817f5345495a455f504f574552000000000000000000000000000000000000000000600160149054906101000a900460ff16610c0e576040517f08c379a00000000000000000000000000000000000000000000000000000000081526004018080602001828103825260018152602001807f2e0000000000000000000000000000000000000000000000000000000000000081525060200191505060405180910390fd5b600160009054906101000a900473ffffffffffffffffffffffffffffffffffffffff1673ffffffffffffffffffffffffffffffffffffffff1663250d4c6d83336040518363ffffffff1660e01b8152600401808381526020018273ffffffffffffffffffffffffffffffffffffffff1681526020019250505060206040518083038186803b158015610c9f57600080fd5b505afa158015610cb3573d6000803e3d6000fd5b505050506040513d6020811015610cc957600080fd5b810190808051906020019092919050505080610dad5750600160009054906101000a900473ffffffffffffffffffffffffffffffffffffffff1673ffffffffffffffffffffffffffffffffffffffff1663250d4c6d82336040518363ffffffff1660e01b8152600401808381526020018273ffffffffffffffffffffffffffffffffffffffff1681526020019250505060206040518083038186803b158015610d7157600080fd5b505afa158015610d85573d6000803e3d6000fd5b505050506040513d6020811015610d9b57600080fd5b81019080805190602001909291905050505b610e1f576040517f08c379a00000000000000000000000000000000000000000000000000000000081526004018080602001828103825260198152602001807f4d4f52474f54483a20666f7262696464656e20706f776572730000000000000081525060200191505060405180910390fd5b610e276127b5565b6002600086815260200190815260200160002060405180608001604052908160008201548152602001600182015481526020016002820160009054906101000a900460ff161515151581526020016002820160019054906101000a900460ff16151515158152505090508060400151610f08576040517f08c379a00000000000000000000000000000000000000000000000000000000081526004018080602001828103825260208152602001807f4d4f52474f54483a20706f776572206e6f74207472616e736665727261626c6581525060200191505060405180910390fd5b6000600660003373ffffffffffffffffffffffffffffffffffffffff1673ffffffffffffffffffffffffffffffffffffffff168152602001908152602001600020549050600060046000888152602001908152602001600020600083815260200190815260200160002060006101000a81548160ff021916908315150217905550600060056000838152602001908152602001600020600088815260200190815260200160002060006101000a81548160ff021916908315150217905550610fd08686612737565b505050505050565b7f424f4e445f555345525f544f5f4d494e494f4e00000000000000000000000000600160149054906101000a900460ff1661107b576040517f08c379a000000000000000000000000000000000000000000000000000000000815260040180806020018281038252601e8152602001807f4d4f52474f54483a20706f77657273206e6f7420616c6c6f63617465642e000081525060200191505060405180910390fd5b600160009054906101000a900473ffffffffffffffffffffffffffffffffffffffff1673ffffffffffffffffffffffffffffffffffffffff1663250d4c6d82336040518363ffffffff1660e01b8152600401808381526020018273ffffffffffffffffffffffffffffffffffffffff1681526020019250505060206040518083038186803b15801561110c57600080fd5b505afa158015611120573d6000803e3d6000fd5b505050506040513d602081101561113657600080fd5b81019080805190602001909291905050506111b9576040517f08c379a00000000000000000000000000000000000000000000000000000000081526004018080602001828103825260188152602001807f4d4f52474f54483a20666f7262696464656e20706f776572000000000000000081525060200191505060405180910390fd5b600360008473ffffffffffffffffffffffffffffffffffffffff1673ffffffffffffffffffffffffffffffffffffffff168152602001908152602001600020600083815260200190815260200160002060009054906101000a900460ff161561128a576040517f08c379a00000000000000000000000000000000000000000000000000000000081526004018080602001828103825260208152602001807f4d4f52474f54483a206d696e696f6e20616c72656164792061737369676e656481525060200191505060405180910390fd5b6001600360008573ffffffffffffffffffffffffffffffffffffffff1673ffffffffffffffffffffffffffffffffffffffff168152602001908152602001600020600084815260200190815260200160002060006101000a81548160ff02191690831515021790555081600660008573ffffffffffffffffffffffffffffffffffffffff1673ffffffffffffffffffffffffffffffffffffffff16815260200190815260200160002081905550505050565b7f424f4e445f555345525f544f5f4d494e494f4e00000000000000000000000000600160149054906101000a900460ff166113df576040517f08c379a000000000000000000000000000000000000000000000000000000000815260040180806020018281038252601e8152602001807f4d4f52474f54483a20706f77657273206e6f7420616c6c6f63617465642e000081525060200191505060405180910390fd5b600160009054906101000a900473ffffffffffffffffffffffffffffffffffffffff1673ffffffffffffffffffffffffffffffffffffffff1663250d4c6d82336040518363ffffffff1660e01b8152600401808381526020018273ffffffffffffffffffffffffffffffffffffffff1681526020019250505060206040518083038186803b15801561147057600080fd5b505afa158015611484573d6000803e3d6000fd5b505050506040513d602081101561149a57600080fd5b810190808051906020019092919050505061151d576040517f08c379a00000000000000000000000000000000000000000000000000000000081526004018080602001828103825260188152602001807f4d4f52474f54483a20666f7262696464656e20706f776572000000000000000081525060200191505060405180910390fd5b6000600360008573ffffffffffffffffffffffffffffffffffffffff1673ffffffffffffffffffffffffffffffffffffffff168152602001908152602001600020600084815260200190815260200160002060006101000a81548160ff0219169083151502179055506000600660008573ffffffffffffffffffffffffffffffffffffffff1673ffffffffffffffffffffffffffffffffffffffff16815260200190815260200160002081905550505050565b7f434f4e4649475552455f5343415243495459000000000000000000000000000081565b7f4352454154455f4e45575f504f574552000000000000000000000000000000007f4348414e47455f504f5745525300000000000000000000000000000000000000600160149054906101000a900460ff166116b8576040517f08c379a00000000000000000000000000000000000000000000000000000000081526004018080602001828103825260018152602001807f2e0000000000000000000000000000000000000000000000000000000000000081525060200191505060405180910390fd5b600160009054906101000a900473ffffffffffffffffffffffffffffffffffffffff1673ffffffffffffffffffffffffffffffffffffffff1663250d4c6d83336040518363ffffffff1660e01b8152600401808381526020018273ffffffffffffffffffffffffffffffffffffffff1681526020019250505060206040518083038186803b15801561174957600080fd5b505afa15801561175d573d6000803e3d6000fd5b505050506040513d602081101561177357600080fd5b8101908080519060200190929190505050806118575750600160009054906101000a900473ffffffffffffffffffffffffffffffffffffffff1673ffffffffffffffffffffffffffffffffffffffff1663250d4c6d82336040518363ffffffff1660e01b8152600401808381526020018273ffffffffffffffffffffffffffffffffffffffff1681526020019250505060206040518083038186803b15801561181b57600080fd5b505afa15801561182f573d6000803e3d6000fd5b505050506040513d602081101561184557600080fd5b81019080805190602001909291905050505b6118c9576040517f08c379a00000000000000000000000000000000000000000000000000000000081526004018080602001828103825260198152602001807f4d4f52474f54483a20666f7262696464656e20706f776572730000000000000081525060200191505060405180910390fd5b60405180608001604052807f4e554c4c0000000000000000000000000000000000000000000000000000000081526020017f4e554c4c0000000000000000000000000000000000000000000000000000000081526020016000151581526020016000151581525060026000858152602001908152602001600020600082015181600001556020820151816001015560408201518160020160006101000a81548160ff02191690831515021790555060608201518160020160016101000a81548160ff021916908315150217905550905050505050565b6000600360008473ffffffffffffffffffffffffffffffffffffffff1673ffffffffffffffffffffffffffffffffffffffff168152602001908152602001600020600083815260200190815260200160002060009054906101000a900460ff16905092915050565b3373ffffffffffffffffffffffffffffffffffffffff1660008054906101000a900473ffffffffffffffffffffffffffffffffffffffff1673ffffffffffffffffffffffffffffffffffffffff1614611ac8576040517f08c379a00000000000000000000000000000000000000000000000000000000081526004018080602001828103825260208152602001807f4f776e61626c653a2063616c6c6572206973206e6f7420746865206f776e657281525060200191505060405180910390fd5b600073ffffffffffffffffffffffffffffffffffffffff1660008054906101000a900473ffffffffffffffffffffffffffffffffffffffff1673ffffffffffffffffffffffffffffffffffffffff167f8be0079c531659141344cd1fd0a4f28419497f9722a3daafe3b4186f6b6457e060405160405180910390a360008060006101000a81548173ffffffffffffffffffffffffffffffffffffffff021916908373ffffffffffffffffffffffffffffffffffffffff160217905550565b7f415554484f52495a455f494e564f4b455200000000000000000000000000000081565b7f434f4e4649475552455f5448414e474f524f4452494d0000000000000000000081565b30600160006101000a81548173ffffffffffffffffffffffffffffffffffffffff021916908373ffffffffffffffffffffffffffffffffffffffff160217905550565b7f5645544f5f4241445f4f5554434f4d450000000000000000000000000000000081565b60008060009054906101000a900473ffffffffffffffffffffffffffffffffffffffff16905090565b7f4352454154455f4e45575f504f57455200000000000000000000000000000000600160149054906101000a900460ff16611d01576040517f08c379a000000000000000000000000000000000000000000000000000000000815260040180806020018281038252601e8152602001807f4d4f52474f54483a20706f77657273206e6f7420616c6c6f63617465642e000081525060200191505060405180910390fd5b600160009054906101000a900473ffffffffffffffffffffffffffffffffffffffff1673ffffffffffffffffffffffffffffffffffffffff1663250d4c6d82336040518363ffffffff1660e01b8152600401808381526020018273ffffffffffffffffffffffffffffffffffffffff1681526020019250505060206040518083038186803b158015611d9257600080fd5b505afa158015611da6573d6000803e3d6000fd5b505050506040513d6020811015611dbc57600080fd5b8101908080519060200190929190505050611e3f576040517f08c379a00000000000000000000000000000000000000000000000000000000081526004018080602001828103825260188152602001807f4d4f52474f54483a20666f7262696464656e20706f776572000000000000000081525060200191505060405180910390fd5b6040518060800160405280868152602001858152602001841515815260200183151581525060026000878152602001908152602001600020600082015181600001556020820151816001015560408201518160020160006101000a81548160ff02191690831515021790555060608201518160020160016101000a81548160ff0219169083151502179055509050505050505050565b60066020528060005260406000206000915090505481565b7f494e534552545f53494c4d4152494c000000000000000000000000000000000081565b7f504f494e545f544f5f4245484f444c455200000000000000000000000000000081565b60026020528060005260406000206000915090508060000154908060010154908060020160009054906101000a900460ff16908060020160019054906101000a900460ff16905084565b7f5345495a455f504f57455200000000000000000000000000000000000000000081565b7f424f4e445f555345525f544f5f4d494e494f4e0000000000000000000000000081565b7f4e554c4c0000000000000000000000000000000000000000000000000000000081565b3373ffffffffffffffffffffffffffffffffffffffff1660008054906101000a900473ffffffffffffffffffffffffffffffffffffffff1673ffffffffffffffffffffffffffffffffffffffff16146120ac576040517f08c379a00000000000000000000000000000000000000000000000000000000081526004018080602001828103825260208152602001807f4f776e61626c653a2063616c6c6572206973206e6f7420746865206f776e657281525060200191505060405180910390fd5b600073ffffffffffffffffffffffffffffffffffffffff168173ffffffffffffffffffffffffffffffffffffffff161415612132576040517f08c379a00000000000000000000000000000000000000000000000000000000081526004018080602001828103825260268152602001806127e86026913960400191505060405180910390fd5b8073ffffffffffffffffffffffffffffffffffffffff1660008054906101000a900473ffffffffffffffffffffffffffffffffffffffff1673ffffffffffffffffffffffffffffffffffffffff167f8be0079c531659141344cd1fd0a4f28419497f9722a3daafe3b4186f6b6457e060405160405180910390a3806000806101000a81548173ffffffffffffffffffffffffffffffffffffffff021916908373ffffffffffffffffffffffffffffffffffffffff16021790555050565b7f4352454154455f4e45575f504f5745520000000000000000000000000000000081565b7f4144445f544f4b454e5f544f5f4245484f444c4552000000000000000000000081565b7f545245415355524552000000000000000000000000000000000000000000000081565b600160009054906101000a900473ffffffffffffffffffffffffffffffffffffffff1673ffffffffffffffffffffffffffffffffffffffff16632140c9aa6040518163ffffffff1660e01b815260040160206040518083038186803b1580156122c357600080fd5b505afa1580156122d7573d6000803e3d6000fd5b505050506040513d60208110156122ed57600080fd5b8101908080519060200190929190505050600073ffffffffffffffffffffffffffffffffffffffff16600160009054906101000a900473ffffffffffffffffffffffffffffffffffffffff1673ffffffffffffffffffffffffffffffffffffffff1614600160149054906101000a900460ff166123b5576040517f08c379a000000000000000000000000000000000000000000000000000000000815260040180806020018281038252602681526020018061280e6026913960400191505060405180910390fd5b80806124895750600160009054906101000a900473ffffffffffffffffffffffffffffffffffffffff1673ffffffffffffffffffffffffffffffffffffffff1663250d4c6d83336040518363ffffffff1660e01b8152600401808381526020018273ffffffffffffffffffffffffffffffffffffffff1681526020019250505060206040518083038186803b15801561244d57600080fd5b505afa158015612461573d6000803e3d6000fd5b505050506040513d602081101561247757600080fd5b81019080805190602001909291905050505b6124fb576040517f08c379a00000000000000000000000000000000000000000000000000000000081526004018080602001828103825260188152602001807f4d4f52474f54483a20666f7262696464656e20706f776572000000000000000081525060200191505060405180910390fd5b60008373ffffffffffffffffffffffffffffffffffffffff16632140c9aa6040518163ffffffff1660e01b815260040160206040518083038186803b15801561254357600080fd5b505afa158015612557573d6000803e3d6000fd5b505050506040513d602081101561256d57600080fd5b8101908080519060200190929190505050905083600160006101000a81548173ffffffffffffffffffffffffffffffffffffffff021916908373ffffffffffffffffffffffffffffffffffffffff160217905550600160149054906101000a900460ff1615806126a55750600160009054906101000a900473ffffffffffffffffffffffffffffffffffffffff1673ffffffffffffffffffffffffffffffffffffffff1663250d4c6d82336040518363ffffffff1660e01b8152600401808381526020018273ffffffffffffffffffffffffffffffffffffffff1681526020019250505060206040518083038186803b15801561266957600080fd5b505afa15801561267d573d6000803e3d6000fd5b505050506040513d602081101561269357600080fd5b81019080805190602001909291905050505b612717576040517f08c379a00000000000000000000000000000000000000000000000000000000081526004018080602001828103825260188152602001807f4d4f52474f54483a20666f7262696464656e20706f776572000000000000000081525060200191505060405180910390fd5b60018060146101000a81548160ff02191690831515021790555050505050565b600160046000848152602001908152602001600020600083815260200190815260200160002060006101000a81548160ff021916908315150217905550600160056000838152602001908152602001600020600084815260200190815260200160002060006101000a81548160ff0219169083151502179055505050565b60405180608001604052806000801916815260200160008019168152602001600015158152602001600015158152509056fe4f776e61626c653a206e6577206f776e657220697320746865207a65726f20616464726573734d4f52474f54483a20706f776572735265676973747279206e6f7420616c6c6f63617465642ea26469706673582212207d7f516761a38740ecac5c6969bcecff37939951d55e910009d3099700ddee9664736f6c63430007010033",
  "immutableReferences": {},
  "source": "// SPDX-License-Identifier: MIT\npragma solidity ^0.7.1;\nimport \"./Angband.sol\";\nimport \"./openzeppelin/Ownable.sol\";\n\nstruct Power {\n    bytes32 name;\n    bytes32 domain; //Thangorodrim mapping\n    bool transferrable;\n    bool unique;\n}\n\nabstract contract PowerInvoker {\n    event PowerInvoked(address user, bytes32 minion, bytes32 domain);\n\n    Power public power;\n    PowersRegistry public registry;\n    Angband public angband;\n    bool invoked;\n\n    constructor(bytes32 _power, address _angband) {\n        angband = Angband(_angband);\n        address _registry = angband.getAddress(angband.POWERREGISTRY());\n        registry = PowersRegistry(_registry);\n        (bytes32 name, bytes32 domain, bool transferrable, bool unique) =\n            registry.powers(_power);\n        power = Power(name, domain, transferrable, unique);\n    }\n\n    modifier revertOwnership {\n        _;\n        address ownableContract = angband.getAddress(power.domain);\n        if (ownableContract != address(angband))\n            Ownable(ownableContract).transferOwnership(address(angband));\n    }\n\n    function destruct() public {\n        require(invoked, \"MORGOTH: awaiting invocation\");\n        selfdestruct(msg.sender);\n    }\n\n    function orchestrate() internal virtual returns (bool);\n\n    function invoke(bytes32 minion, address sender) public revertOwnership {\n        require(msg.sender == address(angband), \"MORGOTH: angband only\");\n        require(\n            registry.isUserMinion(sender, minion),\n            \"MORGOTH: Invocation by minions only.\"\n        );\n        require(!invoked, \"MORGOTH: Power cannot be invoked.\");\n        require(orchestrate(), \"MORGOTH: Power invocation\");\n        invoked = true;\n        emit PowerInvoked(sender, minion, power.domain);\n    }\n}\n\ncontract Empowered is Ownable {\n    PowersRegistry internal powersRegistry;\n    bool initialized;\n\n    function changePower(address _powers)\n        public\n        requiresPowerOrInitialCondition(\n            powersRegistry.CHANGE_POWERS(),\n            address(powersRegistry) == address(0)\n        )\n    {\n        bytes32 _power = PowersRegistry(_powers).CHANGE_POWERS();\n        powersRegistry = PowersRegistry(_powers);\n        require(\n            !initialized || powersRegistry.userHasPower(_power, msg.sender),\n            \"MORGOTH: forbidden power\"\n        );\n        initialized = true;\n    }\n\n    modifier requiresPower(bytes32 power) {\n        require(initialized, \"MORGOTH: powers not allocated.\");\n        require(\n            powersRegistry.userHasPower(power, msg.sender),\n            \"MORGOTH: forbidden power\"\n        );\n        _;\n    }\n\n    modifier requiresPowerOnInvocation(address invoker) {\n        (bytes32 power, , , ) = PowerInvoker(invoker).power();\n        require(initialized, \"MORGOTH: powers not allocated.\");\n        require(\n            powersRegistry.userHasPower(power, msg.sender),\n            \"MORGOTH: forbidden power\"\n        );\n        _;\n    }\n\n    modifier requiresPowerOrInitialCondition(\n        bytes32 power,\n        bool initialCondition\n    ) {\n        require(initialized, \"MORGOTH: powersRegistry not allocated.\");\n        require(\n            initialCondition || powersRegistry.userHasPower(power, msg.sender),\n            \"MORGOTH: forbidden power\"\n        );\n        _;\n    }\n\n    modifier hasEitherPower(bytes32 power1, bytes32 power2) {\n        require(initialized, \".\");\n        require(\n            powersRegistry.userHasPower(power1, msg.sender) ||\n                powersRegistry.userHasPower(power2, msg.sender),\n            \"MORGOTH: forbidden powers\"\n        );\n        _;\n    }\n}\n\n/*\nEvery user privilege is a power in MorgothDAO. At first these powers will be controlled by personalities. Over time they can be handed over to increasingly\ndecentralized mechanisms.\n*/\n\ncontract PowersRegistry is Empowered {\n    bytes32 public constant NULL = \"NULL\";\n    bytes32 public constant POINT_TO_BEHODLER = \"POINT_TO_BEHODLER\"; // set all behodler addresses\n    bytes32 public constant WIRE_ANGBAND = \"WIRE_ANGBAND\";\n    bytes32 public constant CHANGE_POWERS = \"CHANGE_POWERS\"; // change the power registry\n    bytes32 public constant CONFIGURE_THANGORODRIM = \"CONFIGURE_THANGORODRIM\"; // set the registry of contract addresses\n    bytes32 public constant SEIZE_POWER = \"SEIZE_POWER\"; //reclaim a delegated power.\n    bytes32 public constant CREATE_NEW_POWER = \"CREATE_NEW_POWER\";\n    bytes32 public constant BOND_USER_TO_MINION = \"BOND_USER_TO_MINION\";\n    bytes32 public constant ADD_TOKEN_TO_BEHODLER = \"ADD_TOKEN_TO_BEHODLER\";\n    bytes32 public constant CONFIGURE_SCARCITY = \"CONFIGURE_SCARCITY\";\n    bytes32 public constant VETO_BAD_OUTCOME = \"VETO_BAD_OUTCOME\";\n    bytes32 public constant DISPUTE_DECISION = \"DISPUTE_DECISION\";\n    bytes32 public constant SET_DISPUTE_TIMEOUT = \"SET_DISPUTE_TIMEOUT\";\n    bytes32 public constant INSERT_SILMARIL = \"INSERT_SILMARIL\";\n    bytes32 public constant AUTHORIZE_INVOKER = \"AUTHORIZE_INVOKER\";\n    bytes32 public constant TREASURER = \"TREASURER\";\n\n    mapping(bytes32 => Power) public powers;\n\n    mapping(address => mapping(bytes32 => bool)) userIsMinion;\n    mapping(bytes32 => mapping(bytes32 => bool)) powerIsInMinion; //power,minion,bool\n    mapping(bytes32 => mapping(bytes32 => bool)) minionHasPower; // minion,power,bool\n    mapping(address => bytes32) public userMinion;\n\n    bytes32[] minions;\n\n    constructor() {\n        minions.push(\"Melkor\");\n        minions.push(\"Ungoliant\");\n        minions.push(\"Sauron\");\n        minions.push(\"Saruman\");\n        minions.push(\"Glaurung\");\n        minions.push(\"Gothmog\");\n        minions.push(\"Carcharoth\");\n        minions.push(\"Witchking\");\n        minions.push(\"Smaug\");\n        minions.push(\"dragon\");\n        minions.push(\"balrog\");\n        minions.push(\"orc\");\n        userIsMinion[msg.sender][\"Melkor\"] = true;\n        powerIsInMinion[CREATE_NEW_POWER][\"Melkor\"] = true;\n        powerIsInMinion[SEIZE_POWER][\"Melkor\"] = true;\n        powerIsInMinion[BOND_USER_TO_MINION][\"Melkor\"] = true;\n\n        userMinion[msg.sender] = \"Melkor\";\n\n        minionHasPower[\"Melkor\"][CREATE_NEW_POWER] = true;\n        minionHasPower[\"Melkor\"][SEIZE_POWER] = true;\n        minionHasPower[\"Melkor\"][BOND_USER_TO_MINION] = true;\n        initialized = true;\n    }\n\n    function seed() public{\n        powersRegistry = PowersRegistry(address(this));\n    }\n\n    function userHasPower(bytes32 power, address user)\n        public\n        view\n        returns (bool)\n    {\n        bytes32 minion = userMinion[user];\n        return minionHasPower[minion][power];\n    }\n\n    function isUserMinion(address user, bytes32 minion)\n        public\n        view\n        returns (bool)\n    {\n        return userIsMinion[user][minion];\n    }\n\n    function create(\n        bytes32 power,\n        bytes32 domain,\n        bool transferrable,\n        bool unique\n    ) public requiresPower(CREATE_NEW_POWER) {\n        powers[power] = Power(power, domain, transferrable, unique);\n    }\n\n    function destroy(bytes32 power)\n        public\n        hasEitherPower(CREATE_NEW_POWER, CHANGE_POWERS)\n    {\n        powers[power] = Power(NULL, NULL, false, false);\n    }\n\n    function pour(bytes32 power, bytes32 minion_to)\n        public\n        hasEitherPower(power, SEIZE_POWER)\n    {\n        Power memory currentPower = powers[power];\n        require(currentPower.transferrable, \"MORGOTH: power not transferrable\");\n\n        bytes32 fromMinion = userMinion[msg.sender];\n        powerIsInMinion[power][fromMinion] = false;\n        minionHasPower[fromMinion][power] = false;\n\n        _spread(power, minion_to);\n    }\n\n    function spread(bytes32 power, bytes32 minion_to)\n        public\n        requiresPower(power)\n    {\n        Power memory currentPower = powers[power];\n        require(!currentPower.unique, \"MORGOTH: power not divisible.\");\n        _spread(power, minion_to);\n    }\n   \n    function castIntoVoid(address user, bytes32 minion)\n        public\n        requiresPower(BOND_USER_TO_MINION)\n    {\n        userIsMinion[user][minion] = false;\n        userMinion[user] = \"\";\n    }\n\n    function bondUserToMinion(address user, bytes32 minion)\n        public\n        requiresPower(BOND_USER_TO_MINION)\n    {\n        require(\n            !userIsMinion[user][minion],\n            \"MORGOTH: minion already assigned\"\n        );\n        userIsMinion[user][minion] = true;\n        userMinion[user] = minion;\n    }\n\n     function _spread(\n        bytes32 name,\n        bytes32 minion_to\n    ) internal {\n        powerIsInMinion[name][minion_to] = true;\n        minionHasPower[minion_to][name] = true;\n    }\n\n}\n",
  "sourcePath": "/home/justin/weidai ecosystem/morgoth-dao/contracts/Powers.sol",
  "compiler": {
    "name": "solc",
    "version": "0.7.1+commit.f4a555be.Emscripten.clang"
  },
  "schemaVersion": "3.3.3",
  "updatedAt": "2021-01-26T23:18:57.357Z",
  "networkType": "ethereum",
  "devdoc": {
    "kind": "dev",
    "methods": {
      "renounceOwnership()": {
        "details": "Leaves the contract without owner. It will not be possible to call `onlyOwner` functions anymore. Can only be called by the current owner. NOTE: Renouncing ownership will leave the contract without an owner, thereby removing any functionality that is only available to the owner."
      },
      "transferOwnership(address)": {
        "details": "Transfers ownership of the contract to a new account (`newOwner`). Can only be called by the current owner."
      }
    },
    "version": 1
  },
  "userdoc": {
    "kind": "user",
    "methods": {},
    "version": 1
  }
}