{
  "contractName": "ScarcityBridge",
  "abi": [
    {
      "inputs": [
        {
          "internalType": "address",
          "name": "scarcity1",
          "type": "address"
        },
        {
          "internalType": "address",
          "name": "scarcity2",
          "type": "address"
        },
        {
          "internalType": "address",
          "name": "_migrator",
          "type": "address"
        }
      ],
      "stateMutability": "nonpayable",
      "type": "constructor"
    },
    {
      "inputs": [],
      "name": "exchangeRate",
      "outputs": [
        {
          "internalType": "uint256",
          "name": "",
          "type": "uint256"
        }
      ],
      "stateMutability": "view",
      "type": "function"
    },
    {
      "inputs": [],
      "name": "totals",
      "outputs": [
        {
          "internalType": "uint256",
          "name": "total_v1",
          "type": "uint256"
        },
        {
          "internalType": "uint256",
          "name": "total_v2",
          "type": "uint256"
        },
        {
          "internalType": "uint256",
          "name": "blockRecorded",
          "type": "uint256"
        },
        {
          "internalType": "address",
          "name": "scarcity1",
          "type": "address"
        },
        {
          "internalType": "address",
          "name": "scarcity2",
          "type": "address"
        }
      ],
      "stateMutability": "view",
      "type": "function"
    },
    {
      "inputs": [
        {
          "internalType": "uint256",
          "name": "scx",
          "type": "uint256"
        }
      ],
      "name": "collectScarcity1BeforeBurning",
      "outputs": [],
      "stateMutability": "nonpayable",
      "type": "function"
    },
    {
      "inputs": [],
      "name": "recordExchangeRate",
      "outputs": [],
      "stateMutability": "nonpayable",
      "type": "function"
    },
    {
      "inputs": [
        {
          "internalType": "uint256",
          "name": "v1SCX",
          "type": "uint256"
        }
      ],
      "name": "swap",
      "outputs": [],
      "stateMutability": "nonpayable",
      "type": "function"
    }
  ],
  "bytecode": "0x608060405234801561001057600080fd5b506040516108093803806108098339818101604052606081101561003357600080fd5b8101908080519060200190929190805190602001909291908051906020019092919050505082600160030160006101000a81548173ffffffffffffffffffffffffffffffffffffffff021916908373ffffffffffffffffffffffffffffffffffffffff16021790555081600160040160006101000a81548173ffffffffffffffffffffffffffffffffffffffff021916908373ffffffffffffffffffffffffffffffffffffffff16021790555080600660006101000a81548173ffffffffffffffffffffffffffffffffffffffff021916908373ffffffffffffffffffffffffffffffffffffffff1602179055505050506106d6806101336000396000f3fe608060405234801561001057600080fd5b50600436106100575760003560e01c806306d3313f1461005c5780633ba0b9a91461006657806394b918de14610084578063ac22e15f146100b2578063c038a38e146100e0575b600080fd5b610064610146565b005b61006e610275565b6040518082815260200191505060405180910390f35b6100b06004803603602081101561009a57600080fd5b810190808035906020019092919050505061027b565b005b6100de600480360360208110156100c857600080fd5b81019080803590602001909291905050506105aa565b005b6100e861061a565b604051808681526020018581526020018481526020018373ffffffffffffffffffffffffffffffffffffffff1681526020018273ffffffffffffffffffffffffffffffffffffffff1681526020019550505050505060405180910390f35b600660009054906101000a900473ffffffffffffffffffffffffffffffffffffffff1673ffffffffffffffffffffffffffffffffffffffff163373ffffffffffffffffffffffffffffffffffffffff16146101a057600080fd5b600160040160009054906101000a900473ffffffffffffffffffffffffffffffffffffffff1673ffffffffffffffffffffffffffffffffffffffff166318160ddd6040518163ffffffff1660e01b8152600401602060405180830381600087803b15801561020d57600080fd5b505af1158015610221573d6000803e3d6000fd5b505050506040513d602081101561023757600080fd5b8101908080519060200190929190505050600180018190555060018001546001600001548161026257fe5b0460008190555043600160020181905550565b60005481565b600160030160009054906101000a900473ffffffffffffffffffffffffffffffffffffffff1673ffffffffffffffffffffffffffffffffffffffff166323b872dd3330846040518463ffffffff1660e01b8152600401808473ffffffffffffffffffffffffffffffffffffffff1681526020018373ffffffffffffffffffffffffffffffffffffffff1681526020018281526020019350505050602060405180830381600087803b15801561032f57600080fd5b505af1158015610343573d6000803e3d6000fd5b505050506040513d602081101561035957600080fd5b81019080805190602001909291905050506103dc576040517f08c379a000000000000000000000000000000000000000000000000000000000815260040180806020018281038252601c8152602001807f534358204252494447453a207472616e73666572206661696c65642e0000000081525060200191505060405180910390fd5b6000805482816103e857fe5b04905060008111610444576040517f08c379a000000000000000000000000000000000000000000000000000000000815260040180806020018281038252602281526020018061067f6022913960400191505060405180910390fd5b600160030160009054906101000a900473ffffffffffffffffffffffffffffffffffffffff1673ffffffffffffffffffffffffffffffffffffffff166342966c68836040518263ffffffff1660e01b815260040180828152602001915050602060405180830381600087803b1580156104bc57600080fd5b505af11580156104d0573d6000803e3d6000fd5b505050506040513d60208110156104e657600080fd5b810190808051906020019092919050505050600160040160009054906101000a900473ffffffffffffffffffffffffffffffffffffffff1673ffffffffffffffffffffffffffffffffffffffff1663d2cb010033836040518363ffffffff1660e01b8152600401808373ffffffffffffffffffffffffffffffffffffffff16815260200182815260200192505050600060405180830381600087803b15801561058e57600080fd5b505af11580156105a2573d6000803e3d6000fd5b505050505050565b600660009054906101000a900473ffffffffffffffffffffffffffffffffffffffff1673ffffffffffffffffffffffffffffffffffffffff163373ffffffffffffffffffffffffffffffffffffffff161461060457600080fd5b8060016000016000828254019250508190555050565b60018060000154908060010154908060020154908060030160009054906101000a900473ffffffffffffffffffffffffffffffffffffffff16908060040160009054906101000a900473ffffffffffffffffffffffffffffffffffffffff1690508556fe534358204252494447453a20696e73756666696369656e74205343582073656e742ea2646970667358221220da2bc7ce818069df772ce7eb3c4f41417a2e78e8a4d06ed80846836075c054b664736f6c63430007010033",
  "immutableReferences": {},
  "source": "// SPDX-License-Identifier: MIT\npragma solidity ^0.7.1;\n\nabstract contract IERC20 {\n    function totalSupply() external virtual returns (uint256);\n\n    function transferFrom(\n        address sender,\n        address recipient,\n        uint256 value\n    ) external virtual returns (bool);\n}\n\nabstract contract SCX {\n    function burn(uint256 value) external virtual returns (bool);\n\n    function migrateMint(address recipient, uint256 value) public virtual;\n}\n\ncontract ScarcityBridge {\n    struct ScarcityTotals {\n        uint256 total_v1;\n        uint256 total_v2;\n        uint256 blockRecorded;\n        address scarcity1;\n        address scarcity2;\n    }\n    uint256 public exchangeRate; //also represents the minimum old SCX required to get 1 unit of new SCX\n    ScarcityTotals public totals;\n    address migrator;\n\n    modifier onlyMigrator {\n        require(msg.sender == migrator);\n        _;\n    }\n\n    constructor(\n        address scarcity1,\n        address scarcity2,\n        address _migrator\n    ) {\n        totals.scarcity1 = scarcity1;\n        totals.scarcity2 = scarcity2;\n        migrator = _migrator;\n    }\n\n    function collectScarcity1BeforeBurning(uint256 scx) public onlyMigrator {\n        totals.total_v1 += scx;\n    }\n\n    function recordExchangeRate() public onlyMigrator {\n        totals.total_v2 = IERC20(totals.scarcity2).totalSupply();\n        exchangeRate = totals.total_v1 / totals.total_v2;\n        totals.blockRecorded = block.number;\n    }\n\n    function swap(uint256 v1SCX) public {\n        require(\n            IERC20(totals.scarcity1).transferFrom(\n                msg.sender,\n                address(this),\n                v1SCX\n            ),\n            \"SCX BRIDGE: transfer failed.\"\n        );\n        uint256 newSCX = v1SCX / exchangeRate;\n        require(newSCX > 0, \"SCX BRIDGE: insufficient SCX sent.\");\n        SCX(totals.scarcity1).burn(v1SCX);\n        SCX(totals.scarcity2).migrateMint(msg.sender, newSCX);\n    }\n}\n",
  "sourcePath": "/home/justin/weidai ecosystem/morgoth-dao/contracts/Behodler1Migration/ScarcityBridge.sol",
  "compiler": {
    "name": "solc",
    "version": "0.7.1+commit.f4a555be.Emscripten.clang"
  },
  "schemaVersion": "3.3.3",
  "updatedAt": "2021-01-26T23:30:07.819Z",
  "devdoc": {
    "kind": "dev",
    "methods": {},
    "version": 1
  },
  "userdoc": {
    "kind": "user",
    "methods": {},
    "version": 1
  }
}