{
  "contractName": "ScarcityBridge",
  "abi": [
    {
      "inputs": [
        {
          "internalType": "address",
          "name": "scarcity1",
          "type": "address"
        },
        {
          "internalType": "address",
          "name": "scarcity2",
          "type": "address"
        },
        {
          "internalType": "address",
          "name": "_migrator",
          "type": "address"
        }
      ],
      "stateMutability": "nonpayable",
      "type": "constructor"
    },
    {
      "inputs": [],
      "name": "exchangeRate",
      "outputs": [
        {
          "internalType": "uint256",
          "name": "",
          "type": "uint256"
        }
      ],
      "stateMutability": "view",
      "type": "function"
    },
    {
      "inputs": [],
      "name": "totals",
      "outputs": [
        {
          "internalType": "uint256",
          "name": "total_v1",
          "type": "uint256"
        },
        {
          "internalType": "uint256",
          "name": "total_v2",
          "type": "uint256"
        },
        {
          "internalType": "uint256",
          "name": "blockRecorded",
          "type": "uint256"
        },
        {
          "internalType": "address",
          "name": "scarcity1",
          "type": "address"
        },
        {
          "internalType": "address",
          "name": "scarcity2",
          "type": "address"
        }
      ],
      "stateMutability": "view",
      "type": "function"
    },
    {
      "inputs": [
        {
          "internalType": "uint256",
          "name": "scx",
          "type": "uint256"
        }
      ],
      "name": "collectScarcity1BeforeBurning",
      "outputs": [],
      "stateMutability": "nonpayable",
      "type": "function"
    },
    {
      "inputs": [],
      "name": "recordExchangeRate",
      "outputs": [],
      "stateMutability": "nonpayable",
      "type": "function"
    },
    {
      "inputs": [],
      "name": "swap",
      "outputs": [],
      "stateMutability": "nonpayable",
      "type": "function"
    }
  ],
  "bytecode": "0x608060405234801561001057600080fd5b506040516108b23803806108b28339818101604052606081101561003357600080fd5b8101908080519060200190929190805190602001909291908051906020019092919050505082600160030160006101000a81548173ffffffffffffffffffffffffffffffffffffffff021916908373ffffffffffffffffffffffffffffffffffffffff16021790555081600160040160006101000a81548173ffffffffffffffffffffffffffffffffffffffff021916908373ffffffffffffffffffffffffffffffffffffffff16021790555080600660006101000a81548173ffffffffffffffffffffffffffffffffffffffff021916908373ffffffffffffffffffffffffffffffffffffffff16021790555050505061077f806101336000396000f3fe608060405234801561001057600080fd5b50600436106100575760003560e01c806306d3313f1461005c5780633ba0b9a9146100665780638119c06514610084578063ac22e15f1461008e578063c038a38e146100bc575b600080fd5b610064610122565b005b61006e610251565b6040518082815260200191505060405180910390f35b61008c610257565b005b6100ba600480360360208110156100a457600080fd5b8101908080359060200190929190505050610653565b005b6100c46106c3565b604051808681526020018581526020018481526020018373ffffffffffffffffffffffffffffffffffffffff1681526020018273ffffffffffffffffffffffffffffffffffffffff1681526020019550505050505060405180910390f35b600660009054906101000a900473ffffffffffffffffffffffffffffffffffffffff1673ffffffffffffffffffffffffffffffffffffffff163373ffffffffffffffffffffffffffffffffffffffff161461017c57600080fd5b600160040160009054906101000a900473ffffffffffffffffffffffffffffffffffffffff1673ffffffffffffffffffffffffffffffffffffffff166318160ddd6040518163ffffffff1660e01b8152600401602060405180830381600087803b1580156101e957600080fd5b505af11580156101fd573d6000803e3d6000fd5b505050506040513d602081101561021357600080fd5b8101908080519060200190929190505050600180018190555060018001546001600001548161023e57fe5b0460008190555043600160020181905550565b60005481565b6000600160030160009054906101000a900473ffffffffffffffffffffffffffffffffffffffff1673ffffffffffffffffffffffffffffffffffffffff166370a08231336040518263ffffffff1660e01b8152600401808273ffffffffffffffffffffffffffffffffffffffff168152602001915050602060405180830381600087803b1580156102e757600080fd5b505af11580156102fb573d6000803e3d6000fd5b505050506040513d602081101561031157600080fd5b81019080805190602001909291905050509050600160030160009054906101000a900473ffffffffffffffffffffffffffffffffffffffff1673ffffffffffffffffffffffffffffffffffffffff166323b872dd3330846040518463ffffffff1660e01b8152600401808473ffffffffffffffffffffffffffffffffffffffff1681526020018373ffffffffffffffffffffffffffffffffffffffff1681526020018281526020019350505050602060405180830381600087803b1580156103d857600080fd5b505af11580156103ec573d6000803e3d6000fd5b505050506040513d602081101561040257600080fd5b8101908080519060200190929190505050610485576040517f08c379a000000000000000000000000000000000000000000000000000000000815260040180806020018281038252601c8152602001807f534358204252494447453a207472616e73666572206661696c65642e0000000081525060200191505060405180910390fd5b60008054828161049157fe5b049050600081116104ed576040517f08c379a00000000000000000000000000000000000000000000000000000000081526004018080602001828103825260228152602001806107286022913960400191505060405180910390fd5b600160030160009054906101000a900473ffffffffffffffffffffffffffffffffffffffff1673ffffffffffffffffffffffffffffffffffffffff166342966c68836040518263ffffffff1660e01b815260040180828152602001915050602060405180830381600087803b15801561056557600080fd5b505af1158015610579573d6000803e3d6000fd5b505050506040513d602081101561058f57600080fd5b810190808051906020019092919050505050600160040160009054906101000a900473ffffffffffffffffffffffffffffffffffffffff1673ffffffffffffffffffffffffffffffffffffffff1663d2cb010033836040518363ffffffff1660e01b8152600401808373ffffffffffffffffffffffffffffffffffffffff16815260200182815260200192505050600060405180830381600087803b15801561063757600080fd5b505af115801561064b573d6000803e3d6000fd5b505050505050565b600660009054906101000a900473ffffffffffffffffffffffffffffffffffffffff1673ffffffffffffffffffffffffffffffffffffffff163373ffffffffffffffffffffffffffffffffffffffff16146106ad57600080fd5b8060016000016000828254019250508190555050565b60018060000154908060010154908060020154908060030160009054906101000a900473ffffffffffffffffffffffffffffffffffffffff16908060040160009054906101000a900473ffffffffffffffffffffffffffffffffffffffff1690508556fe534358204252494447453a20696e73756666696369656e74205343582073656e742ea26469706673582212203ec6faf81bacb0ecf91815773cb62ac54a9a3d12fa07dcffc65b73668c0543e464736f6c63430007010033",
  "immutableReferences": {},
  "source": "// SPDX-License-Identifier: MIT\npragma solidity ^0.7.1;\n\nabstract contract IERC20 {\n    function totalSupply() external virtual returns (uint256);\n\n    function transferFrom(\n        address sender,\n        address recipient,\n        uint256 value\n    ) external virtual returns (bool);\n\n    function balanceOf(address holder) external virtual returns (uint);\n}\n\nabstract contract SCX {\n    function burn(uint256 value) external virtual returns (bool);\n\n    function migrateMint(address recipient, uint256 value) public virtual;\n}\n\ncontract ScarcityBridge {\n    struct ScarcityTotals {\n        uint256 total_v1;\n        uint256 total_v2;\n        uint256 blockRecorded;\n        address scarcity1;\n        address scarcity2;\n    }\n    uint256 public exchangeRate; //also represents the minimum old SCX required to get 1 unit of new SCX\n    ScarcityTotals public totals;\n    address migrator;\n\n    modifier onlyMigrator {\n        require(msg.sender == migrator);\n        _;\n    }\n\n    constructor(\n        address scarcity1,\n        address scarcity2,\n        address _migrator\n    ) {\n        totals.scarcity1 = scarcity1;\n        totals.scarcity2 = scarcity2;\n        migrator = _migrator;\n    }\n\n    function collectScarcity1BeforeBurning(uint256 scx) public onlyMigrator {\n        totals.total_v1 += scx;\n    }\n\n    function recordExchangeRate() public onlyMigrator {\n        totals.total_v2 = IERC20(totals.scarcity2).totalSupply();\n        exchangeRate = totals.total_v1 / totals.total_v2;\n        totals.blockRecorded = block.number;\n    }\n\n    function swap() public {\n        uint256 v1Balance = IERC20(totals.scarcity1).balanceOf(msg.sender);\n        require(\n            IERC20(totals.scarcity1).transferFrom(\n                msg.sender,\n                address(this),\n                v1Balance\n            ),\n            \"SCX BRIDGE: transfer failed.\"\n        );\n        uint256 newSCX = v1Balance / exchangeRate;\n        require(newSCX > 0, \"SCX BRIDGE: insufficient SCX sent.\");\n        SCX(totals.scarcity1).burn(v1Balance);\n        SCX(totals.scarcity2).migrateMint(msg.sender, newSCX);\n    }\n}\n",
  "sourcePath": "/home/justin/weidai ecosystem/morgoth-dao/contracts/Behodler1Migration/ScarcityBridge.sol",
  "compiler": {
    "name": "solc",
    "version": "0.7.1+commit.f4a555be.Emscripten.clang"
  },
  "schemaVersion": "3.3.3",
  "updatedAt": "2021-02-08T12:53:47.947Z",
  "devdoc": {
    "kind": "dev",
    "methods": {},
    "version": 1
  },
  "userdoc": {
    "kind": "user",
    "methods": {},
    "version": 1
  }
}