{
  "contractName": "SetSilmarilPower",
  "abi": [
    {
      "inputs": [
        {
          "internalType": "bytes32",
          "name": "_power",
          "type": "bytes32"
        },
        {
          "internalType": "address",
          "name": "_angband",
          "type": "address"
        }
      ],
      "stateMutability": "nonpayable",
      "type": "constructor"
    },
    {
      "anonymous": false,
      "inputs": [
        {
          "indexed": false,
          "internalType": "address",
          "name": "user",
          "type": "address"
        },
        {
          "indexed": false,
          "internalType": "bytes32",
          "name": "minion",
          "type": "bytes32"
        },
        {
          "indexed": false,
          "internalType": "bytes32",
          "name": "domain",
          "type": "bytes32"
        }
      ],
      "name": "PowerInvoked",
      "type": "event"
    },
    {
      "inputs": [],
      "name": "angband",
      "outputs": [
        {
          "internalType": "contract Angband",
          "name": "",
          "type": "address"
        }
      ],
      "stateMutability": "view",
      "type": "function"
    },
    {
      "inputs": [],
      "name": "destruct",
      "outputs": [],
      "stateMutability": "nonpayable",
      "type": "function"
    },
    {
      "inputs": [
        {
          "internalType": "bytes32",
          "name": "minion",
          "type": "bytes32"
        },
        {
          "internalType": "address",
          "name": "sender",
          "type": "address"
        }
      ],
      "name": "invoke",
      "outputs": [],
      "stateMutability": "nonpayable",
      "type": "function"
    },
    {
      "inputs": [],
      "name": "power",
      "outputs": [
        {
          "internalType": "bytes32",
          "name": "name",
          "type": "bytes32"
        },
        {
          "internalType": "bytes32",
          "name": "domain",
          "type": "bytes32"
        },
        {
          "internalType": "bool",
          "name": "transferrable",
          "type": "bool"
        },
        {
          "internalType": "bool",
          "name": "unique",
          "type": "bool"
        }
      ],
      "stateMutability": "view",
      "type": "function"
    },
    {
      "inputs": [],
      "name": "registry",
      "outputs": [
        {
          "internalType": "contract PowersRegistry",
          "name": "",
          "type": "address"
        }
      ],
      "stateMutability": "view",
      "type": "function"
    },
    {
      "inputs": [
        {
          "internalType": "uint8",
          "name": "index",
          "type": "uint8"
        },
        {
          "internalType": "uint16",
          "name": "percentage",
          "type": "uint16"
        },
        {
          "internalType": "address",
          "name": "exit",
          "type": "address"
        }
      ],
      "name": "parameterize",
      "outputs": [],
      "stateMutability": "nonpayable",
      "type": "function"
    }
  ],
  "bytecode": "0x608060405234801561001057600080fd5b50604051610e0b380380610e0b8339818101604052604081101561003357600080fd5b810190808051906020019092919080519060200190929190505050818180600460006101000a81548173ffffffffffffffffffffffffffffffffffffffff021916908373ffffffffffffffffffffffffffffffffffffffff1602179055506000600460009054906101000a900473ffffffffffffffffffffffffffffffffffffffff1673ffffffffffffffffffffffffffffffffffffffff166321f8a721600460009054906101000a900473ffffffffffffffffffffffffffffffffffffffff1673ffffffffffffffffffffffffffffffffffffffff1663796368a16040518163ffffffff1660e01b815260040160206040518083038186803b15801561013957600080fd5b505afa15801561014d573d6000803e3d6000fd5b505050506040513d602081101561016357600080fd5b81019080805190602001909291905050506040518263ffffffff1660e01b81526004018082815260200191505060206040518083038186803b1580156101a857600080fd5b505afa1580156101bc573d6000803e3d6000fd5b505050506040513d60208110156101d257600080fd5b8101908080519060200190929190505050905080600360006101000a81548173ffffffffffffffffffffffffffffffffffffffff021916908373ffffffffffffffffffffffffffffffffffffffff160217905550600080600080600360009054906101000a900473ffffffffffffffffffffffffffffffffffffffff1673ffffffffffffffffffffffffffffffffffffffff1663b872c523886040518263ffffffff1660e01b81526004018082815260200191505060806040518083038186803b15801561029f57600080fd5b505afa1580156102b3573d6000803e3d6000fd5b505050506040513d60808110156102c957600080fd5b810190808051906020019092919080519060200190929190805190602001909291908051906020019092919050505093509350935093506040518060800160405280858152602001848152602001831515815260200182151581525060008082015181600001556020820151816001015560408201518160020160006101000a81548160ff02191690831515021790555060608201518160020160016101000a81548160ff021916908315150217905550905050505050505050505050610a76806103956000396000f3fe608060405234801561001057600080fd5b50600436106100625760003560e01c80632b68b9c614610067578063394b9aef146100715780634a4d59fa146100d05780637b10399914610107578063c936c2331461013b578063f77b09c214610189575b600080fd5b61006f6101bd565b005b6100ce6004803603606081101561008757600080fd5b81019080803560ff169060200190929190803561ffff169060200190929190803573ffffffffffffffffffffffffffffffffffffffff169060200190929190505050610258565b005b6100d86102df565b604051808581526020018481526020018315158152602001821515815260200194505050505060405180910390f35b61010f610317565b604051808273ffffffffffffffffffffffffffffffffffffffff16815260200191505060405180910390f35b6101876004803603604081101561015157600080fd5b8101908080359060200190929190803573ffffffffffffffffffffffffffffffffffffffff16906020019092919050505061033d565b005b610191610833565b604051808273ffffffffffffffffffffffffffffffffffffffff16815260200191505060405180910390f35b600460149054906101000a900460ff1661023f576040517f08c379a000000000000000000000000000000000000000000000000000000000815260040180806020018281038252601c8152602001807f4d4f52474f54483a206177616974696e6720696e766f636174696f6e0000000081525060200191505060405180910390fd5b3373ffffffffffffffffffffffffffffffffffffffff16ff5b80600560000160036101000a81548173ffffffffffffffffffffffffffffffffffffffff021916908373ffffffffffffffffffffffffffffffffffffffff16021790555081600560000160016101000a81548161ffff021916908361ffff16021790555082600560000160006101000a81548160ff021916908360ff160217905550505050565b60008060000154908060010154908060020160009054906101000a900460ff16908060020160019054906101000a900460ff16905084565b600360009054906101000a900473ffffffffffffffffffffffffffffffffffffffff1681565b600460009054906101000a900473ffffffffffffffffffffffffffffffffffffffff1673ffffffffffffffffffffffffffffffffffffffff163373ffffffffffffffffffffffffffffffffffffffff1614610400576040517f08c379a00000000000000000000000000000000000000000000000000000000081526004018080602001828103825260158152602001807f4d4f52474f54483a20616e6762616e64206f6e6c79000000000000000000000081525060200191505060405180910390fd5b600360009054906101000a900473ffffffffffffffffffffffffffffffffffffffff1673ffffffffffffffffffffffffffffffffffffffff16636f9f071982846040518363ffffffff1660e01b8152600401808373ffffffffffffffffffffffffffffffffffffffff1681526020018281526020019250505060206040518083038186803b15801561049157600080fd5b505afa1580156104a5573d6000803e3d6000fd5b505050506040513d60208110156104bb57600080fd5b8101908080519060200190929190505050610521576040517f08c379a00000000000000000000000000000000000000000000000000000000081526004018080602001828103825260248152602001806109fc6024913960400191505060405180910390fd5b600460149054906101000a900460ff1615610587576040517f08c379a0000000000000000000000000000000000000000000000000000000008152600401808060200182810382526021815260200180610a206021913960400191505060405180910390fd5b61058f610859565b610601576040517f08c379a00000000000000000000000000000000000000000000000000000000081526004018080602001828103825260198152602001807f4d4f52474f54483a20506f77657220696e766f636174696f6e0000000000000081525060200191505060405180910390fd5b6001600460146101000a81548160ff0219169083151502179055507fbf5b23777e352e9708c3b8c426082bfe210a51d7fa57e008add695df522b804c8183600060010154604051808473ffffffffffffffffffffffffffffffffffffffff168152602001838152602001828152602001935050505060405180910390a16000600460009054906101000a900473ffffffffffffffffffffffffffffffffffffffff1673ffffffffffffffffffffffffffffffffffffffff166321f8a7216000600101546040518263ffffffff1660e01b81526004018082815260200191505060206040518083038186803b1580156106f857600080fd5b505afa15801561070c573d6000803e3d6000fd5b505050506040513d602081101561072257600080fd5b81019080805190602001909291905050509050600460009054906101000a900473ffffffffffffffffffffffffffffffffffffffff1673ffffffffffffffffffffffffffffffffffffffff168173ffffffffffffffffffffffffffffffffffffffff161461082e578073ffffffffffffffffffffffffffffffffffffffff1663f2fde38b600460009054906101000a900473ffffffffffffffffffffffffffffffffffffffff166040518263ffffffff1660e01b8152600401808273ffffffffffffffffffffffffffffffffffffffff168152602001915050600060405180830381600087803b15801561081557600080fd5b505af1158015610829573d6000803e3d6000fd5b505050505b505050565b600460009054906101000a900473ffffffffffffffffffffffffffffffffffffffff1681565b600080600460009054906101000a900473ffffffffffffffffffffffffffffffffffffffff1673ffffffffffffffffffffffffffffffffffffffff166321f8a7216000600101546040518263ffffffff1660e01b81526004018082815260200191505060206040518083038186803b1580156108d457600080fd5b505afa1580156108e8573d6000803e3d6000fd5b505050506040513d60208110156108fe57600080fd5b810190808051906020019092919050505090508073ffffffffffffffffffffffffffffffffffffffff16637ebc1be7600560000160009054906101000a900460ff16600560000160019054906101000a900461ffff16600560000160039054906101000a900473ffffffffffffffffffffffffffffffffffffffff166040518463ffffffff1660e01b8152600401808460ff1681526020018361ffff1681526020018273ffffffffffffffffffffffffffffffffffffffff1681526020019350505050600060405180830381600087803b1580156109db57600080fd5b505af11580156109ef573d6000803e3d6000fd5b5050505060019150509056fe4d4f52474f54483a20496e766f636174696f6e206279206d696e696f6e73206f6e6c792e4d4f52474f54483a20506f7765722063616e6e6f7420626520696e766f6b65642ea2646970667358221220814a975c44d5f871aecc66865fcccec7c3c736c22a7b29d01ea5521002c9c8d664736f6c63430007010033",
  "immutableReferences": {},
  "source": "// SPDX-License-Identifier: MIT\npragma solidity ^0.7.1;\nimport \"../Powers.sol\";\n\ninterface IronCrownFacade {\n    function setSilmaril(\n        uint8 index,\n        uint16 percentage,\n        address exit\n    ) external;\n}\n\ncontract SetSilmarilPower is PowerInvoker {\n    struct Parameters {\n        uint8 index;\n        uint16 percentage;\n        address exit;\n    }\n    Parameters parameters;\n\n    constructor(bytes32 _power, address _angband)\n        PowerInvoker(_power, _angband)\n    {}\n\n    function parameterize(\n        uint8 index,\n        uint16 percentage,\n        address exit\n    ) public {\n        parameters.exit = exit;\n        parameters.percentage = percentage;\n        parameters.index = index;\n    }\n\n    function orchestrate() internal override returns (bool) {\n        IronCrownFacade ironCrown =\n            IronCrownFacade(angband.getAddress(power.domain));\n        ironCrown.setSilmaril(\n            parameters.index,\n            parameters.percentage,\n            parameters.exit\n        );\n        return true;\n    }\n}\n",
  "sourcePath": "/home/justin/weidai ecosystem/morgoth-dao/contracts/behodlerPowers/SetSilmarilPower.sol",
  "compiler": {
    "name": "solc",
    "version": "0.7.1+commit.f4a555be.Emscripten.clang"
  },
  "schemaVersion": "3.3.3",
  "updatedAt": "2021-01-26T23:18:57.394Z",
  "networkType": "ethereum",
  "devdoc": {
    "kind": "dev",
    "methods": {},
    "version": 1
  },
  "userdoc": {
    "kind": "user",
    "methods": {},
    "version": 1
  }
}