{
  "contractName": "Thangorodrim",
  "abi": [
    {
      "inputs": [],
      "name": "ANGBAND",
      "outputs": [
        {
          "internalType": "bytes32",
          "name": "",
          "type": "bytes32"
        }
      ],
      "stateMutability": "view",
      "type": "function"
    },
    {
      "inputs": [],
      "name": "BEHODLER",
      "outputs": [
        {
          "internalType": "bytes32",
          "name": "",
          "type": "bytes32"
        }
      ],
      "stateMutability": "view",
      "type": "function"
    },
    {
      "inputs": [],
      "name": "IRON_CROWN",
      "outputs": [
        {
          "internalType": "bytes32",
          "name": "",
          "type": "bytes32"
        }
      ],
      "stateMutability": "view",
      "type": "function"
    },
    {
      "inputs": [],
      "name": "LACHESIS",
      "outputs": [
        {
          "internalType": "bytes32",
          "name": "",
          "type": "bytes32"
        }
      ],
      "stateMutability": "view",
      "type": "function"
    },
    {
      "inputs": [],
      "name": "POWERREGISTRY",
      "outputs": [
        {
          "internalType": "bytes32",
          "name": "",
          "type": "bytes32"
        }
      ],
      "stateMutability": "view",
      "type": "function"
    },
    {
      "inputs": [
        {
          "internalType": "bytes32",
          "name": "_key",
          "type": "bytes32"
        }
      ],
      "name": "getAddress",
      "outputs": [
        {
          "internalType": "address",
          "name": "",
          "type": "address"
        }
      ],
      "stateMutability": "view",
      "type": "function"
    }
  ],
  "bytecode": "0x608060405234801561001057600080fd5b5061027b806100206000396000f3fe608060405234801561001057600080fd5b50600436106100625760003560e01c806321f8a72114610067578063796368a1146100bf57806396474663146100dd578063b4194b17146100fb578063b98a369514610119578063ce9494dd14610137575b600080fd5b6100936004803603602081101561007d57600080fd5b8101908080359060200190929190505050610155565b604051808273ffffffffffffffffffffffffffffffffffffffff16815260200191505060405180910390f35b6100c7610191565b6040518082815260200191505060405180910390f35b6100e56101b5565b6040518082815260200191505060405180910390f35b6101036101d9565b6040518082815260200191505060405180910390f35b6101216101fd565b6040518082815260200191505060405180910390f35b61013f610221565b6040518082815260200191505060405180910390f35b600080600083815260200190815260200160002060009054906101000a900473ffffffffffffffffffffffffffffffffffffffff169050919050565b7f504f57455252454749535452590000000000000000000000000000000000000081565b7f414e4742414e440000000000000000000000000000000000000000000000000081565b7f49524f4e5f43524f574e0000000000000000000000000000000000000000000081565b7f4c4143484553495300000000000000000000000000000000000000000000000081565b7f4245484f444c45520000000000000000000000000000000000000000000000008156fea264697066735822122029839a3be7496898a63f53dac39b461e31bd9394bd359b8b2f780c8611aab45964736f6c63430007010033",
  "immutableReferences": {},
  "source": "// SPDX-License-Identifier: MIT\npragma solidity ^0.7.1;\n\ncontract Thangorodrim {\n    bytes32 public constant POWERREGISTRY = \"POWERREGISTRY\";\n    bytes32 public constant BEHODLER = \"BEHODLER\";\n    bytes32 public constant LACHESIS = \"LACHESIS\";\n    bytes32 public constant IRON_CROWN = \"IRON_CROWN\";\n    bytes32 public constant ANGBAND = \"ANGBAND\";\n\n    mapping(bytes32 => address) private addresses;\n\n    function getAddress(bytes32 _key) public view returns (address) {\n        return addresses[_key];\n    }\n\n    function _setAddress(bytes32 _key, address _value) internal {\n        addresses[_key] = _value;\n    }\n}\n",
  "sourcePath": "/home/justin/weidai ecosystem/morgoth-dao/contracts/Thangorodrim.sol",
  "compiler": {
    "name": "solc",
    "version": "0.7.1+commit.f4a555be.Emscripten.clang"
  },
  "schemaVersion": "3.3.3",
  "updatedAt": "2021-01-26T21:14:25.321Z",
  "devdoc": {
    "kind": "dev",
    "methods": {},
    "version": 1
  },
  "userdoc": {
    "kind": "user",
    "methods": {},
    "version": 1
  }
}