{
  "_format": "hh-sol-artifact-1",
  "contractName": "LiquidQueue",
  "sourceName": "contracts/phase1/LiquidQueue.sol",
  "abi": [
    {
      "anonymous": false,
      "inputs": [
        {
          "indexed": true,
          "internalType": "address",
          "name": "previousOwner",
          "type": "address"
        },
        {
          "indexed": true,
          "internalType": "address",
          "name": "newOwner",
          "type": "address"
        }
      ],
      "name": "OwnershipTransferred",
      "type": "event"
    },
    {
      "anonymous": false,
      "inputs": [
        {
          "indexed": true,
          "internalType": "address",
          "name": "lp",
          "type": "address"
        },
        {
          "indexed": false,
          "internalType": "uint256",
          "name": "amount",
          "type": "uint256"
        },
        {
          "indexed": false,
          "internalType": "address",
          "name": "holder",
          "type": "address"
        }
      ],
      "name": "popped",
      "type": "event"
    },
    {
      "anonymous": false,
      "inputs": [
        {
          "indexed": true,
          "internalType": "address",
          "name": "lp",
          "type": "address"
        },
        {
          "indexed": false,
          "internalType": "uint256",
          "name": "amount",
          "type": "uint256"
        },
        {
          "indexed": false,
          "internalType": "address",
          "name": "holder",
          "type": "address"
        }
      ],
      "name": "queued",
      "type": "event"
    },
    {
      "inputs": [
        {
          "internalType": "uint24",
          "name": "targetVelocity",
          "type": "uint24"
        },
        {
          "internalType": "uint8",
          "name": "size",
          "type": "uint8"
        },
        {
          "internalType": "address",
          "name": "eye",
          "type": "address"
        },
        {
          "internalType": "uint256",
          "name": "stagnationRewardTimeout",
          "type": "uint256"
        },
        {
          "internalType": "uint256",
          "name": "eyeReward",
          "type": "uint256"
        },
        {
          "internalType": "bool",
          "name": "LPburnDisabled",
          "type": "bool"
        }
      ],
      "name": "configure",
      "outputs": [],
      "stateMutability": "nonpayable",
      "type": "function"
    },
    {
      "inputs": [
        {
          "internalType": "uint256",
          "name": "index",
          "type": "uint256"
        }
      ],
      "name": "getBatch",
      "outputs": [
        {
          "internalType": "address",
          "name": "recipient",
          "type": "address"
        },
        {
          "internalType": "address",
          "name": "LP",
          "type": "address"
        },
        {
          "internalType": "uint256",
          "name": "amount",
          "type": "uint256"
        },
        {
          "internalType": "uint256",
          "name": "joinTimeStamp",
          "type": "uint256"
        },
        {
          "internalType": "uint256",
          "name": "durationSinceLast",
          "type": "uint256"
        },
        {
          "internalType": "uint256",
          "name": "eyeHeightAtJoin",
          "type": "uint256"
        },
        {
          "internalType": "bool",
          "name": "validIndex",
          "type": "bool"
        }
      ],
      "stateMutability": "view",
      "type": "function"
    },
    {
      "inputs": [],
      "name": "getQueueData",
      "outputs": [
        {
          "internalType": "uint256",
          "name": "length",
          "type": "uint256"
        },
        {
          "internalType": "uint256",
          "name": "last",
          "type": "uint256"
        },
        {
          "internalType": "uint256",
          "name": "entryIndex",
          "type": "uint256"
        },
        {
          "internalType": "uint256",
          "name": "velocity",
          "type": "uint256"
        },
        {
          "internalType": "uint256",
          "name": "burnRatio",
          "type": "uint256"
        }
      ],
      "stateMutability": "view",
      "type": "function"
    },
    {
      "inputs": [
        {
          "internalType": "address",
          "name": "LP",
          "type": "address"
        },
        {
          "internalType": "address",
          "name": "recipient",
          "type": "address"
        }
      ],
      "name": "join",
      "outputs": [],
      "stateMutability": "nonpayable",
      "type": "function"
    },
    {
      "inputs": [],
      "name": "mintingModule",
      "outputs": [
        {
          "internalType": "address",
          "name": "",
          "type": "address"
        }
      ],
      "stateMutability": "view",
      "type": "function"
    },
    {
      "inputs": [],
      "name": "owner",
      "outputs": [
        {
          "internalType": "address",
          "name": "",
          "type": "address"
        }
      ],
      "stateMutability": "view",
      "type": "function"
    },
    {
      "inputs": [
        {
          "internalType": "bool",
          "name": "paws",
          "type": "bool"
        }
      ],
      "name": "pause",
      "outputs": [],
      "stateMutability": "nonpayable",
      "type": "function"
    },
    {
      "inputs": [],
      "name": "paused",
      "outputs": [
        {
          "internalType": "bool",
          "name": "",
          "type": "bool"
        }
      ],
      "stateMutability": "view",
      "type": "function"
    },
    {
      "inputs": [],
      "name": "pop",
      "outputs": [],
      "stateMutability": "nonpayable",
      "type": "function"
    },
    {
      "inputs": [],
      "name": "renounceOwnership",
      "outputs": [],
      "stateMutability": "nonpayable",
      "type": "function"
    },
    {
      "inputs": [
        {
          "internalType": "address",
          "name": "m",
          "type": "address"
        }
      ],
      "name": "setMintingModule",
      "outputs": [],
      "stateMutability": "nonpayable",
      "type": "function"
    },
    {
      "inputs": [
        {
          "internalType": "address",
          "name": "r",
          "type": "address"
        }
      ],
      "name": "setReward",
      "outputs": [],
      "stateMutability": "nonpayable",
      "type": "function"
    },
    {
      "inputs": [
        {
          "internalType": "address",
          "name": "newOwner",
          "type": "address"
        }
      ],
      "name": "transferOwnership",
      "outputs": [],
      "stateMutability": "nonpayable",
      "type": "function"
    }
  ],
  "bytecode": "0x608060405234801561001057600080fd5b50336000806101000a81548173ffffffffffffffffffffffffffffffffffffffff021916908373ffffffffffffffffffffffffffffffffffffffff1602179055503373ffffffffffffffffffffffffffffffffffffffff16600073ffffffffffffffffffffffffffffffffffffffff167f8be0079c531659141344cd1fd0a4f28419497f9722a3daafe3b4186f6b6457e060405160405180910390a36121dc806100bb6000396000f3fe608060405234801561001057600080fd5b50600436106100cf5760003560e01c806386c17a751161008c578063b06173e911610066578063b06173e9146102fe578063b1c4907914610338578063e5932c401461039c578063f2fde38b146103e0576100cf565b806386c17a751461028c5780638da5cb5b146102c0578063a4ece52c146102f4576100cf565b806302329a29146100d457806327199d41146101045780635ac44282146101845780635c975abb1461021e578063686c0fcb1461023e578063715018a614610282575b600080fd5b610102600480360360208110156100ea57600080fd5b81019080803515159060200190929190505050610424565b005b610182600480360360c081101561011a57600080fd5b81019080803562ffffff169060200190929190803560ff169060200190929190803573ffffffffffffffffffffffffffffffffffffffff1690602001909291908035906020019092919080359060200190929190803515159060200190929190505050610502565b005b6101b06004803603602081101561019a57600080fd5b810190808035906020019092919050505061086c565b604051808873ffffffffffffffffffffffffffffffffffffffff1681526020018773ffffffffffffffffffffffffffffffffffffffff168152602001868152602001858152602001848152602001838152602001821515815260200197505050505050505060405180910390f35b6102266109c7565b60405180821515815260200191505060405180910390f35b6102806004803603602081101561025457600080fd5b81019080803573ffffffffffffffffffffffffffffffffffffffff1690602001909291905050506109da565b005b61028a610adf565b005b610294610c5e565b604051808273ffffffffffffffffffffffffffffffffffffffff16815260200191505060405180910390f35b6102c8610c84565b604051808273ffffffffffffffffffffffffffffffffffffffff16815260200191505060405180910390f35b6102fc610cad565b005b610306610fcc565b604051808681526020018581526020018481526020018381526020018281526020019550505050505060405180910390f35b61039a6004803603604081101561034e57600080fd5b81019080803573ffffffffffffffffffffffffffffffffffffffff169060200190929190803573ffffffffffffffffffffffffffffffffffffffff169060200190929190505050611005565b005b6103de600480360360208110156103b257600080fd5b81019080803573ffffffffffffffffffffffffffffffffffffffff169060200190929190505050611a73565b005b610422600480360360208110156103f657600080fd5b81019080803573ffffffffffffffffffffffffffffffffffffffff169060200190929190505050611b78565b005b3373ffffffffffffffffffffffffffffffffffffffff1660008054906101000a900473ffffffffffffffffffffffffffffffffffffffff1673ffffffffffffffffffffffffffffffffffffffff16146104e5576040517f08c379a00000000000000000000000000000000000000000000000000000000081526004018080602001828103825260208152602001807f4f776e61626c653a2063616c6c6572206973206e6f7420746865206f776e657281525060200191505060405180910390fd5b80600160146101000a81548160ff02191690831515021790555050565b3373ffffffffffffffffffffffffffffffffffffffff1660008054906101000a900473ffffffffffffffffffffffffffffffffffffffff1673ffffffffffffffffffffffffffffffffffffffff16146105c3576040517f08c379a00000000000000000000000000000000000000000000000000000000081526004018080602001828103825260208152602001807f4f776e61626c653a2063616c6c6572206973206e6f7420746865206f776e657281525060200191505060405180910390fd5b60078001805490508560ff161015610626576040517f08c379a000000000000000000000000000000000000000000000000000000000815260040180806020018281038252602281526020018061215b6022913960400191505060405180910390fd5b84600360000160036101000a81548160ff021916908360ff16021790555085600360000160006101000a81548162ffffff021916908362ffffff160217905550600073ffffffffffffffffffffffffffffffffffffffff16600360000160049054906101000a900473ffffffffffffffffffffffffffffffffffffffff1673ffffffffffffffffffffffffffffffffffffffff16146107f0578373ffffffffffffffffffffffffffffffffffffffff16600360000160049054906101000a900473ffffffffffffffffffffffffffffffffffffffff1673ffffffffffffffffffffffffffffffffffffffff16148015610726575060006007800180549050145b8061073d5750600160149054906101000a900460ff165b610792576040517f08c379a000000000000000000000000000000000000000000000000000000000815260040180806020018281038252602a81526020018061217d602a913960400191505060405180910390fd5b6000806007800180549050116107a95760006107d2565b60078001600760060154815481106107bd57fe5b90600052602060002090600602016003015442035b90506003600201548102600760020160008282540192505081905550505b83600360000160046101000a81548173ffffffffffffffffffffffffffffffffffffffff021916908373ffffffffffffffffffffffffffffffffffffffff1602179055508260036001018190555081600360020181905550806003800160006101000a81548160ff021916908315150217905550505050505050565b600080600080600080600061087f6120b1565b88600780018054905011156109bb5760078001898154811061089d57fe5b90600052602060002090600602016040518060c00160405290816000820160009054906101000a900473ffffffffffffffffffffffffffffffffffffffff1673ffffffffffffffffffffffffffffffffffffffff1673ffffffffffffffffffffffffffffffffffffffff1681526020016001820160009054906101000a900473ffffffffffffffffffffffffffffffffffffffff1673ffffffffffffffffffffffffffffffffffffffff1673ffffffffffffffffffffffffffffffffffffffff168152602001600282015481526020016003820154815260200160048201548152602001600582015481525050905080600001519750806020015196508060400151955080606001519450806080015193508060a001519250600191505b50919395979092949650565b600160149054906101000a900460ff1681565b3373ffffffffffffffffffffffffffffffffffffffff1660008054906101000a900473ffffffffffffffffffffffffffffffffffffffff1673ffffffffffffffffffffffffffffffffffffffff1614610a9b576040517f08c379a00000000000000000000000000000000000000000000000000000000081526004018080602001828103825260208152602001807f4f776e61626c653a2063616c6c6572206973206e6f7420746865206f776e657281525060200191505060405180910390fd5b80600160006101000a81548173ffffffffffffffffffffffffffffffffffffffff021916908373ffffffffffffffffffffffffffffffffffffffff16021790555050565b3373ffffffffffffffffffffffffffffffffffffffff1660008054906101000a900473ffffffffffffffffffffffffffffffffffffffff1673ffffffffffffffffffffffffffffffffffffffff1614610ba0576040517f08c379a00000000000000000000000000000000000000000000000000000000081526004018080602001828103825260208152602001807f4f776e61626c653a2063616c6c6572206973206e6f7420746865206f776e657281525060200191505060405180910390fd5b600073ffffffffffffffffffffffffffffffffffffffff1660008054906101000a900473ffffffffffffffffffffffffffffffffffffffff1673ffffffffffffffffffffffffffffffffffffffff167f8be0079c531659141344cd1fd0a4f28419497f9722a3daafe3b4186f6b6457e060405160405180910390a360008060006101000a81548173ffffffffffffffffffffffffffffffffffffffff021916908373ffffffffffffffffffffffffffffffffffffffff160217905550565b600160009054906101000a900473ffffffffffffffffffffffffffffffffffffffff1681565b60008060009054906101000a900473ffffffffffffffffffffffffffffffffffffffff16905090565b3373ffffffffffffffffffffffffffffffffffffffff1660008054906101000a900473ffffffffffffffffffffffffffffffffffffffff1673ffffffffffffffffffffffffffffffffffffffff1614610d6e576040517f08c379a00000000000000000000000000000000000000000000000000000000081526004018080602001828103825260208152602001807f4f776e61626c653a2063616c6c6572206973206e6f7420746865206f776e657281525060200191505060405180910390fd5b600160149054906101000a900460ff16610df0576040517f08c379a00000000000000000000000000000000000000000000000000000000081526004018080602001828103825260208152602001807f4c49515549442051554555453a2063757272656e746c7920756e70617573656481525060200191505060405180910390fd5b610ef96007800160076006015481548110610e0757fe5b90600052602060002090600602016040518060c00160405290816000820160009054906101000a900473ffffffffffffffffffffffffffffffffffffffff1673ffffffffffffffffffffffffffffffffffffffff1673ffffffffffffffffffffffffffffffffffffffff1681526020016001820160009054906101000a900473ffffffffffffffffffffffffffffffffffffffff1673ffffffffffffffffffffffffffffffffffffffff1673ffffffffffffffffffffffffffffffffffffffff168152602001600282015481526020016003820154815260200160048201548152602001600582015481525050611d7c565b60078001805480610f0657fe5b6001900381819060005260206000209060060201600080820160006101000a81549073ffffffffffffffffffffffffffffffffffffffff02191690556001820160006101000a81549073ffffffffffffffffffffffffffffffffffffffff02191690556002820160009055600382016000905560048201600090556005820160009055505090556000600780018054905090508060076006015481610fa757fe5b066007600601819055508060076005015481610fbf57fe5b0660076005018190555050565b60008060008060006007800180549050600760050154600760060154600760000154600760010154945094509450945094509091929394565b600160009054906101000a900473ffffffffffffffffffffffffffffffffffffffff1673ffffffffffffffffffffffffffffffffffffffff163373ffffffffffffffffffffffffffffffffffffffff16146110ab576040517f08c379a000000000000000000000000000000000000000000000000000000000815260040180806020018281038252602181526020018061213a6021913960400191505060405180910390fd5b600160149054906101000a900460ff161561112e576040517f08c379a000000000000000000000000000000000000000000000000000000000815260040180806020018281038252601e8152602001807f4c49515549442051554555453a2063757272656e746c7920706175736564000081525060200191505060405180910390fd5b600082905060008173ffffffffffffffffffffffffffffffffffffffff166370a08231600160009054906101000a900473ffffffffffffffffffffffffffffffffffffffff166040518263ffffffff1660e01b8152600401808273ffffffffffffffffffffffffffffffffffffffff16815260200191505060206040518083038186803b1580156111be57600080fd5b505afa1580156111d2573d6000803e3d6000fd5b505050506040513d60208110156111e857600080fd5b810190808051906020019092919050505090508173ffffffffffffffffffffffffffffffffffffffff166323b872dd600160009054906101000a900473ffffffffffffffffffffffffffffffffffffffff1630846040518463ffffffff1660e01b8152600401808473ffffffffffffffffffffffffffffffffffffffff1681526020018373ffffffffffffffffffffffffffffffffffffffff1681526020018281526020019350505050602060405180830381600087803b1580156112ac57600080fd5b505af11580156112c0573d6000803e3d6000fd5b505050506040513d60208110156112d657600080fd5b8101908080519060200190929190505050506000429050600080600780018054905011156114ac57600780016007600601548154811061131257fe5b90600052602060002090600602016003015482039050600360000160039054906101000a900460ff1660ff166001820162093a808161134d57fe5b048161135557fe5b04600760000160008282540192505081905550600360000160039054906101000a900460ff1660ff166007800180549050141561140b576000600360000160039054906101000a900460ff1660ff16600160078001600760050154815481106113ba57fe5b9060005260206000209060060201600401540162093a80816113d857fe5b04816113e057fe5b049050600060076000015490508181106113fc578181036113ff565b60005b60076000018190555050505b6003800160009054906101000a900460ff161580156114475750600360000160009054906101000a900462ffffff1662ffffff16600760000154115b801561146e5750600360000160039054906101000a900460ff1660ff166007800180549050145b1561149f57603160076001015410611487576031611491565b6001600760010154015b6007600101819055506114ab565b60006007600101819055505b5b600760030160009054906101000a900460ff161561152f576003600201548102600760020160008282540192505081905550600360000160009054906101000a900462ffffff1662ffffff16600760000154111561152e576000600760030160006101000a81548160ff02191690831515021790555060006007600401819055505b5b600360000160009054906101000a900462ffffff1662ffffff1660076000015410801561156c5750600760030160009054906101000a900460ff16155b801561157f575060006007800180549050115b156115d657600060076004015414156115a157426007600401819055506115d5565b600360010154600760040154420311156115d4576001600760030160006101000a81548160ff0219169083151502179055505b5b5b600360000160039054906101000a900460ff1660ff166007800180549050141561170a576000600780016007600501548154811061161057fe5b90600052602060002090600602016040518060c00160405290816000820160009054906101000a900473ffffffffffffffffffffffffffffffffffffffff1673ffffffffffffffffffffffffffffffffffffffff1673ffffffffffffffffffffffffffffffffffffffff1681526020016001820160009054906101000a900473ffffffffffffffffffffffffffffffffffffffff1673ffffffffffffffffffffffffffffffffffffffff1673ffffffffffffffffffffffffffffffffffffffff168152602001600282015481526020016003820154815260200160048201548152602001600582015481525050905061170881611d7c565b505b60006040518060c001604052808773ffffffffffffffffffffffffffffffffffffffff1681526020018873ffffffffffffffffffffffffffffffffffffffff168152602001606460076001015487028161176057fe5b048603815260200142815260200160006007800180549050146117835783611788565b62093a805b81526020016007600201548152509050806020015173ffffffffffffffffffffffffffffffffffffffff167f4a74ae91e499b2d53903823b34945415649403f62238bbe2054d71e2363cd1de82604001518360000151604051808381526020018273ffffffffffffffffffffffffffffffffffffffff1681526020019250505060405180910390a2600360000160039054906101000a900460ff1660ff1660078001805490501015611933576007800181908060018154018082558091505060019003906000526020600020906006020160009091909190915060008201518160000160006101000a81548173ffffffffffffffffffffffffffffffffffffffff021916908373ffffffffffffffffffffffffffffffffffffffff16021790555060208201518160010160006101000a81548173ffffffffffffffffffffffffffffffffffffffff021916908373ffffffffffffffffffffffffffffffffffffffff16021790555060408201518160020155606082015181600301556080820151816004015560a0820151816005015550506001600780018054905003600760060181905550611a6a565b611957600760060154600360000160039054906101000a900460ff1660ff1661209a565b600760060181905550611984600760050154600360000160039054906101000a900460ff1660ff1661209a565b6007600501819055508060078001600760060154815481106119a257fe5b906000526020600020906006020160008201518160000160006101000a81548173ffffffffffffffffffffffffffffffffffffffff021916908373ffffffffffffffffffffffffffffffffffffffff16021790555060208201518160010160006101000a81548173ffffffffffffffffffffffffffffffffffffffff021916908373ffffffffffffffffffffffffffffffffffffffff16021790555060408201518160020155606082015181600301556080820151816004015560a082015181600501559050505b50505050505050565b3373ffffffffffffffffffffffffffffffffffffffff1660008054906101000a900473ffffffffffffffffffffffffffffffffffffffff1673ffffffffffffffffffffffffffffffffffffffff1614611b34576040517f08c379a00000000000000000000000000000000000000000000000000000000081526004018080602001828103825260208152602001807f4f776e61626c653a2063616c6c6572206973206e6f7420746865206f776e657281525060200191505060405180910390fd5b80600260006101000a81548173ffffffffffffffffffffffffffffffffffffffff021916908373ffffffffffffffffffffffffffffffffffffffff16021790555050565b3373ffffffffffffffffffffffffffffffffffffffff1660008054906101000a900473ffffffffffffffffffffffffffffffffffffffff1673ffffffffffffffffffffffffffffffffffffffff1614611c39576040517f08c379a00000000000000000000000000000000000000000000000000000000081526004018080602001828103825260208152602001807f4f776e61626c653a2063616c6c6572206973206e6f7420746865206f776e657281525060200191505060405180910390fd5b600073ffffffffffffffffffffffffffffffffffffffff168173ffffffffffffffffffffffffffffffffffffffff161415611cbf576040517f08c379a00000000000000000000000000000000000000000000000000000000081526004018080602001828103825260268152602001806121146026913960400191505060405180910390fd5b8073ffffffffffffffffffffffffffffffffffffffff1660008054906101000a900473ffffffffffffffffffffffffffffffffffffffff1673ffffffffffffffffffffffffffffffffffffffff167f8be0079c531659141344cd1fd0a4f28419497f9722a3daafe3b4186f6b6457e060405160405180910390a3806000806101000a81548173ffffffffffffffffffffffffffffffffffffffff021916908373ffffffffffffffffffffffffffffffffffffffff16021790555050565b806020015173ffffffffffffffffffffffffffffffffffffffff1663a9059cbb826000015183604001516040518363ffffffff1660e01b8152600401808373ffffffffffffffffffffffffffffffffffffffff16815260200182815260200192505050602060405180830381600087803b158015611df957600080fd5b505af1158015611e0d573d6000803e3d6000fd5b505050506040513d6020811015611e2357600080fd5b81019080805190602001909291905050505060008160a00151600760020154039050600081111561201e57600260009054906101000a900473ffffffffffffffffffffffffffffffffffffffff1673ffffffffffffffffffffffffffffffffffffffff1663f5e64818600360000160049054906101000a900473ffffffffffffffffffffffffffffffffffffffff16836040518363ffffffff1660e01b8152600401808373ffffffffffffffffffffffffffffffffffffffff16815260200182815260200192505050602060405180830381600087803b158015611f0657600080fd5b505af1158015611f1a573d6000803e3d6000fd5b505050506040513d6020811015611f3057600080fd5b81019080805190602001909291905050501561201d57600360000160049054906101000a900473ffffffffffffffffffffffffffffffffffffffff1673ffffffffffffffffffffffffffffffffffffffff1663a9059cbb8360000151836040518363ffffffff1660e01b8152600401808373ffffffffffffffffffffffffffffffffffffffff16815260200182815260200192505050602060405180830381600087803b158015611fe057600080fd5b505af1158015611ff4573d6000803e3d6000fd5b505050506040513d602081101561200a57600080fd5b8101908080519060200190929190505050505b5b816020015173ffffffffffffffffffffffffffffffffffffffff167f026b78e6f21420c4acfa497265c98ba0d143d851f672cb7548d57cb17d41631983604001518460000151604051808381526020018273ffffffffffffffffffffffffffffffffffffffff1681526020019250505060405180910390a25050565b60008160018401816120a857fe5b06905092915050565b6040518060c00160405280600073ffffffffffffffffffffffffffffffffffffffff168152602001600073ffffffffffffffffffffffffffffffffffffffff16815260200160008152602001600081526020016000815260200160008152509056fe4f776e61626c653a206e6577206f776e657220697320746865207a65726f20616464726573734c49515549442051554555453a20726573747269637465642066756e6374696f6e4c49515549442051554555453a20706f7020717565756520746f20726573697a652e4c49515549442051554555453a2045796520616464726573732063757272656e746c79206c6f636b6564a26469706673582212209e9b318c75de5d83352c5652a4be57619fb3f6ed56cacc2aaa8bae8ce39258f064736f6c63430007060033",
  "linkReferences": {},
  "deployedLinkReferences": {}
}