{
  "contractName": "LiquidQueue",
  "abi": [
    {
      "anonymous": false,
      "inputs": [
        {
          "indexed": true,
          "internalType": "address",
          "name": "previousOwner",
          "type": "address"
        },
        {
          "indexed": true,
          "internalType": "address",
          "name": "newOwner",
          "type": "address"
        }
      ],
      "name": "OwnershipTransferred",
      "type": "event"
    },
    {
      "anonymous": false,
      "inputs": [
        {
          "indexed": true,
          "internalType": "address",
          "name": "lp",
          "type": "address"
        },
        {
          "indexed": false,
          "internalType": "uint256",
          "name": "amount",
          "type": "uint256"
        },
        {
          "indexed": false,
          "internalType": "address",
          "name": "holder",
          "type": "address"
        }
      ],
      "name": "popped",
      "type": "event"
    },
    {
      "anonymous": false,
      "inputs": [
        {
          "indexed": true,
          "internalType": "address",
          "name": "lp",
          "type": "address"
        },
        {
          "indexed": false,
          "internalType": "uint256",
          "name": "amount",
          "type": "uint256"
        },
        {
          "indexed": false,
          "internalType": "address",
          "name": "holder",
          "type": "address"
        }
      ],
      "name": "queued",
      "type": "event"
    },
    {
      "inputs": [],
      "name": "mintingModule",
      "outputs": [
        {
          "internalType": "address",
          "name": "",
          "type": "address"
        }
      ],
      "stateMutability": "view",
      "type": "function",
      "constant": true
    },
    {
      "inputs": [],
      "name": "owner",
      "outputs": [
        {
          "internalType": "address",
          "name": "",
          "type": "address"
        }
      ],
      "stateMutability": "view",
      "type": "function",
      "constant": true
    },
    {
      "inputs": [],
      "name": "paused",
      "outputs": [
        {
          "internalType": "bool",
          "name": "",
          "type": "bool"
        }
      ],
      "stateMutability": "view",
      "type": "function",
      "constant": true
    },
    {
      "inputs": [],
      "name": "renounceOwnership",
      "outputs": [],
      "stateMutability": "nonpayable",
      "type": "function"
    },
    {
      "inputs": [
        {
          "internalType": "address",
          "name": "newOwner",
          "type": "address"
        }
      ],
      "name": "transferOwnership",
      "outputs": [],
      "stateMutability": "nonpayable",
      "type": "function"
    },
    {
      "inputs": [
        {
          "internalType": "address",
          "name": "r",
          "type": "address"
        }
      ],
      "name": "setReward",
      "outputs": [],
      "stateMutability": "nonpayable",
      "type": "function"
    },
    {
      "inputs": [
        {
          "internalType": "bool",
          "name": "paws",
          "type": "bool"
        }
      ],
      "name": "pause",
      "outputs": [],
      "stateMutability": "nonpayable",
      "type": "function"
    },
    {
      "inputs": [
        {
          "internalType": "address",
          "name": "m",
          "type": "address"
        }
      ],
      "name": "setMintingModule",
      "outputs": [],
      "stateMutability": "nonpayable",
      "type": "function"
    },
    {
      "inputs": [
        {
          "internalType": "uint24",
          "name": "targetVelocity",
          "type": "uint24"
        },
        {
          "internalType": "uint8",
          "name": "size",
          "type": "uint8"
        },
        {
          "internalType": "address",
          "name": "eye",
          "type": "address"
        },
        {
          "internalType": "uint256",
          "name": "stagnationRewardTimeout",
          "type": "uint256"
        },
        {
          "internalType": "uint256",
          "name": "eyeReward",
          "type": "uint256"
        },
        {
          "internalType": "bool",
          "name": "LPburnDisabled",
          "type": "bool"
        }
      ],
      "name": "configure",
      "outputs": [],
      "stateMutability": "nonpayable",
      "type": "function"
    },
    {
      "inputs": [
        {
          "internalType": "address",
          "name": "LP",
          "type": "address"
        },
        {
          "internalType": "address",
          "name": "recipient",
          "type": "address"
        }
      ],
      "name": "join",
      "outputs": [],
      "stateMutability": "nonpayable",
      "type": "function"
    },
    {
      "inputs": [],
      "name": "pop",
      "outputs": [],
      "stateMutability": "nonpayable",
      "type": "function"
    },
    {
      "inputs": [],
      "name": "getQueueData",
      "outputs": [
        {
          "internalType": "uint256",
          "name": "length",
          "type": "uint256"
        },
        {
          "internalType": "uint256",
          "name": "last",
          "type": "uint256"
        },
        {
          "internalType": "uint256",
          "name": "entryIndex",
          "type": "uint256"
        },
        {
          "internalType": "uint256",
          "name": "velocity",
          "type": "uint256"
        },
        {
          "internalType": "uint256",
          "name": "burnRatio",
          "type": "uint256"
        },
        {
          "internalType": "bool",
          "name": "eyeActive",
          "type": "bool"
        },
        {
          "internalType": "uint256",
          "name": "eyeReward",
          "type": "uint256"
        }
      ],
      "stateMutability": "view",
      "type": "function",
      "constant": true
    },
    {
      "inputs": [
        {
          "internalType": "uint256",
          "name": "index",
          "type": "uint256"
        }
      ],
      "name": "getBatch",
      "outputs": [
        {
          "internalType": "address",
          "name": "recipient",
          "type": "address"
        },
        {
          "internalType": "address",
          "name": "LP",
          "type": "address"
        },
        {
          "internalType": "uint256",
          "name": "amount",
          "type": "uint256"
        },
        {
          "internalType": "uint256",
          "name": "joinTimeStamp",
          "type": "uint256"
        },
        {
          "internalType": "uint256",
          "name": "durationSinceLast",
          "type": "uint256"
        },
        {
          "internalType": "uint256",
          "name": "eyeHeightAtJoin",
          "type": "uint256"
        },
        {
          "internalType": "bool",
          "name": "validIndex",
          "type": "bool"
        }
      ],
      "stateMutability": "view",
      "type": "function",
      "constant": true
    }
  ],
  "bytecode": "0x608060405234801561001057600080fd5b50336000806101000a81548173ffffffffffffffffffffffffffffffffffffffff021916908373ffffffffffffffffffffffffffffffffffffffff1602179055503373ffffffffffffffffffffffffffffffffffffffff16600073ffffffffffffffffffffffffffffffffffffffff167f8be0079c531659141344cd1fd0a4f28419497f9722a3daafe3b4186f6b6457e060405160405180910390a361220e806100bb6000396000f3fe608060405234801561001057600080fd5b50600436106100cf5760003560e01c806386c17a751161008c578063b06173e911610066578063b06173e9146102fe578063b1c4907914610348578063e5932c40146103ac578063f2fde38b146103f0576100cf565b806386c17a751461028c5780638da5cb5b146102c0578063a4ece52c146102f4576100cf565b806302329a29146100d457806327199d41146101045780635ac44282146101845780635c975abb1461021e578063686c0fcb1461023e578063715018a614610282575b600080fd5b610102600480360360208110156100ea57600080fd5b81019080803515159060200190929190505050610434565b005b610182600480360360c081101561011a57600080fd5b81019080803562ffffff169060200190929190803560ff169060200190929190803573ffffffffffffffffffffffffffffffffffffffff1690602001909291908035906020019092919080359060200190929190803515159060200190929190505050610512565b005b6101b06004803603602081101561019a57600080fd5b810190808035906020019092919050505061087c565b604051808873ffffffffffffffffffffffffffffffffffffffff1681526020018773ffffffffffffffffffffffffffffffffffffffff168152602001868152602001858152602001848152602001838152602001821515815260200197505050505050505060405180910390f35b6102266109d7565b60405180821515815260200191505060405180910390f35b6102806004803603602081101561025457600080fd5b81019080803573ffffffffffffffffffffffffffffffffffffffff1690602001909291905050506109ea565b005b61028a610aef565b005b610294610c6e565b604051808273ffffffffffffffffffffffffffffffffffffffff16815260200191505060405180910390f35b6102c8610c94565b604051808273ffffffffffffffffffffffffffffffffffffffff16815260200191505060405180910390f35b6102fc610cbd565b005b610306610fdc565b60405180888152602001878152602001868152602001858152602001848152602001831515815260200182815260200197505050505050505060405180910390f35b6103aa6004803603604081101561035e57600080fd5b81019080803573ffffffffffffffffffffffffffffffffffffffff169060200190929190803573ffffffffffffffffffffffffffffffffffffffff169060200190929190505050611037565b005b6103ee600480360360208110156103c257600080fd5b81019080803573ffffffffffffffffffffffffffffffffffffffff169060200190929190505050611aa5565b005b6104326004803603602081101561040657600080fd5b81019080803573ffffffffffffffffffffffffffffffffffffffff169060200190929190505050611baa565b005b3373ffffffffffffffffffffffffffffffffffffffff1660008054906101000a900473ffffffffffffffffffffffffffffffffffffffff1673ffffffffffffffffffffffffffffffffffffffff16146104f5576040517f08c379a00000000000000000000000000000000000000000000000000000000081526004018080602001828103825260208152602001807f4f776e61626c653a2063616c6c6572206973206e6f7420746865206f776e657281525060200191505060405180910390fd5b80600160146101000a81548160ff02191690831515021790555050565b3373ffffffffffffffffffffffffffffffffffffffff1660008054906101000a900473ffffffffffffffffffffffffffffffffffffffff1673ffffffffffffffffffffffffffffffffffffffff16146105d3576040517f08c379a00000000000000000000000000000000000000000000000000000000081526004018080602001828103825260208152602001807f4f776e61626c653a2063616c6c6572206973206e6f7420746865206f776e657281525060200191505060405180910390fd5b60078001805490508560ff161015610636576040517f08c379a000000000000000000000000000000000000000000000000000000000815260040180806020018281038252602281526020018061218d6022913960400191505060405180910390fd5b84600360000160036101000a81548160ff021916908360ff16021790555085600360000160006101000a81548162ffffff021916908362ffffff160217905550600073ffffffffffffffffffffffffffffffffffffffff16600360000160049054906101000a900473ffffffffffffffffffffffffffffffffffffffff1673ffffffffffffffffffffffffffffffffffffffff1614610800578373ffffffffffffffffffffffffffffffffffffffff16600360000160049054906101000a900473ffffffffffffffffffffffffffffffffffffffff1673ffffffffffffffffffffffffffffffffffffffff16148015610736575060006007800180549050145b8061074d5750600160149054906101000a900460ff165b6107a2576040517f08c379a000000000000000000000000000000000000000000000000000000000815260040180806020018281038252602a8152602001806121af602a913960400191505060405180910390fd5b6000806007800180549050116107b95760006107e2565b60078001600760060154815481106107cd57fe5b90600052602060002090600602016003015442035b90506003600201548102600760020160008282540192505081905550505b83600360000160046101000a81548173ffffffffffffffffffffffffffffffffffffffff021916908373ffffffffffffffffffffffffffffffffffffffff1602179055508260036001018190555081600360020181905550806003800160006101000a81548160ff021916908315150217905550505050505050565b600080600080600080600061088f6120e3565b88600780018054905011156109cb576007800189815481106108ad57fe5b90600052602060002090600602016040518060c00160405290816000820160009054906101000a900473ffffffffffffffffffffffffffffffffffffffff1673ffffffffffffffffffffffffffffffffffffffff1673ffffffffffffffffffffffffffffffffffffffff1681526020016001820160009054906101000a900473ffffffffffffffffffffffffffffffffffffffff1673ffffffffffffffffffffffffffffffffffffffff1673ffffffffffffffffffffffffffffffffffffffff168152602001600282015481526020016003820154815260200160048201548152602001600582015481525050905080600001519750806020015196508060400151955080606001519450806080015193508060a001519250600191505b50919395979092949650565b600160149054906101000a900460ff1681565b3373ffffffffffffffffffffffffffffffffffffffff1660008054906101000a900473ffffffffffffffffffffffffffffffffffffffff1673ffffffffffffffffffffffffffffffffffffffff1614610aab576040517f08c379a00000000000000000000000000000000000000000000000000000000081526004018080602001828103825260208152602001807f4f776e61626c653a2063616c6c6572206973206e6f7420746865206f776e657281525060200191505060405180910390fd5b80600160006101000a81548173ffffffffffffffffffffffffffffffffffffffff021916908373ffffffffffffffffffffffffffffffffffffffff16021790555050565b3373ffffffffffffffffffffffffffffffffffffffff1660008054906101000a900473ffffffffffffffffffffffffffffffffffffffff1673ffffffffffffffffffffffffffffffffffffffff1614610bb0576040517f08c379a00000000000000000000000000000000000000000000000000000000081526004018080602001828103825260208152602001807f4f776e61626c653a2063616c6c6572206973206e6f7420746865206f776e657281525060200191505060405180910390fd5b600073ffffffffffffffffffffffffffffffffffffffff1660008054906101000a900473ffffffffffffffffffffffffffffffffffffffff1673ffffffffffffffffffffffffffffffffffffffff167f8be0079c531659141344cd1fd0a4f28419497f9722a3daafe3b4186f6b6457e060405160405180910390a360008060006101000a81548173ffffffffffffffffffffffffffffffffffffffff021916908373ffffffffffffffffffffffffffffffffffffffff160217905550565b600160009054906101000a900473ffffffffffffffffffffffffffffffffffffffff1681565b60008060009054906101000a900473ffffffffffffffffffffffffffffffffffffffff16905090565b3373ffffffffffffffffffffffffffffffffffffffff1660008054906101000a900473ffffffffffffffffffffffffffffffffffffffff1673ffffffffffffffffffffffffffffffffffffffff1614610d7e576040517f08c379a00000000000000000000000000000000000000000000000000000000081526004018080602001828103825260208152602001807f4f776e61626c653a2063616c6c6572206973206e6f7420746865206f776e657281525060200191505060405180910390fd5b600160149054906101000a900460ff16610e00576040517f08c379a00000000000000000000000000000000000000000000000000000000081526004018080602001828103825260208152602001807f4c49515549442051554555453a2063757272656e746c7920756e70617573656481525060200191505060405180910390fd5b610f096007800160076006015481548110610e1757fe5b90600052602060002090600602016040518060c00160405290816000820160009054906101000a900473ffffffffffffffffffffffffffffffffffffffff1673ffffffffffffffffffffffffffffffffffffffff1673ffffffffffffffffffffffffffffffffffffffff1681526020016001820160009054906101000a900473ffffffffffffffffffffffffffffffffffffffff1673ffffffffffffffffffffffffffffffffffffffff1673ffffffffffffffffffffffffffffffffffffffff168152602001600282015481526020016003820154815260200160048201548152602001600582015481525050611dae565b60078001805480610f1657fe5b6001900381819060005260206000209060060201600080820160006101000a81549073ffffffffffffffffffffffffffffffffffffffff02191690556001820160006101000a81549073ffffffffffffffffffffffffffffffffffffffff02191690556002820160009055600382016000905560048201600090556005820160009055505090556000600780018054905090508060076006015481610fb757fe5b066007600601819055508060076005015481610fcf57fe5b0660076005018190555050565b60008060008060008060006007800180549050600760050154600760060154600760000154600760010154600760030160009054906101000a900460ff16600360020154965096509650965096509650965090919293949596565b600160009054906101000a900473ffffffffffffffffffffffffffffffffffffffff1673ffffffffffffffffffffffffffffffffffffffff163373ffffffffffffffffffffffffffffffffffffffff16146110dd576040517f08c379a000000000000000000000000000000000000000000000000000000000815260040180806020018281038252602181526020018061216c6021913960400191505060405180910390fd5b600160149054906101000a900460ff1615611160576040517f08c379a000000000000000000000000000000000000000000000000000000000815260040180806020018281038252601e8152602001807f4c49515549442051554555453a2063757272656e746c7920706175736564000081525060200191505060405180910390fd5b600082905060008173ffffffffffffffffffffffffffffffffffffffff166370a08231600160009054906101000a900473ffffffffffffffffffffffffffffffffffffffff166040518263ffffffff1660e01b8152600401808273ffffffffffffffffffffffffffffffffffffffff16815260200191505060206040518083038186803b1580156111f057600080fd5b505afa158015611204573d6000803e3d6000fd5b505050506040513d602081101561121a57600080fd5b810190808051906020019092919050505090508173ffffffffffffffffffffffffffffffffffffffff166323b872dd600160009054906101000a900473ffffffffffffffffffffffffffffffffffffffff1630846040518463ffffffff1660e01b8152600401808473ffffffffffffffffffffffffffffffffffffffff1681526020018373ffffffffffffffffffffffffffffffffffffffff1681526020018281526020019350505050602060405180830381600087803b1580156112de57600080fd5b505af11580156112f2573d6000803e3d6000fd5b505050506040513d602081101561130857600080fd5b8101908080519060200190929190505050506000429050600080600780018054905011156114de57600780016007600601548154811061134457fe5b90600052602060002090600602016003015482039050600360000160039054906101000a900460ff1660ff166001820162093a808161137f57fe5b048161138757fe5b04600760000160008282540192505081905550600360000160039054906101000a900460ff1660ff166007800180549050141561143d576000600360000160039054906101000a900460ff1660ff16600160078001600760050154815481106113ec57fe5b9060005260206000209060060201600401540162093a808161140a57fe5b048161141257fe5b0490506000600760000154905081811061142e57818103611431565b60005b60076000018190555050505b6003800160009054906101000a900460ff161580156114795750600360000160009054906101000a900462ffffff1662ffffff16600760000154115b80156114a05750600360000160039054906101000a900460ff1660ff166007800180549050145b156114d1576031600760010154106114b95760316114c3565b6001600760010154015b6007600101819055506114dd565b60006007600101819055505b5b600760030160009054906101000a900460ff1615611561576003600201548102600760020160008282540192505081905550600360000160009054906101000a900462ffffff1662ffffff166007600001541115611560576000600760030160006101000a81548160ff02191690831515021790555060006007600401819055505b5b600360000160009054906101000a900462ffffff1662ffffff1660076000015410801561159e5750600760030160009054906101000a900460ff16155b80156115b1575060006007800180549050115b1561160857600060076004015414156115d35742600760040181905550611607565b60036001015460076004015442031115611606576001600760030160006101000a81548160ff0219169083151502179055505b5b5b600360000160039054906101000a900460ff1660ff166007800180549050141561173c576000600780016007600501548154811061164257fe5b90600052602060002090600602016040518060c00160405290816000820160009054906101000a900473ffffffffffffffffffffffffffffffffffffffff1673ffffffffffffffffffffffffffffffffffffffff1673ffffffffffffffffffffffffffffffffffffffff1681526020016001820160009054906101000a900473ffffffffffffffffffffffffffffffffffffffff1673ffffffffffffffffffffffffffffffffffffffff1673ffffffffffffffffffffffffffffffffffffffff168152602001600282015481526020016003820154815260200160048201548152602001600582015481525050905061173a81611dae565b505b60006040518060c001604052808773ffffffffffffffffffffffffffffffffffffffff1681526020018873ffffffffffffffffffffffffffffffffffffffff168152602001606460076001015487028161179257fe5b048603815260200142815260200160006007800180549050146117b557836117ba565b62093a805b81526020016007600201548152509050806020015173ffffffffffffffffffffffffffffffffffffffff167f4a74ae91e499b2d53903823b34945415649403f62238bbe2054d71e2363cd1de82604001518360000151604051808381526020018273ffffffffffffffffffffffffffffffffffffffff1681526020019250505060405180910390a2600360000160039054906101000a900460ff1660ff1660078001805490501015611965576007800181908060018154018082558091505060019003906000526020600020906006020160009091909190915060008201518160000160006101000a81548173ffffffffffffffffffffffffffffffffffffffff021916908373ffffffffffffffffffffffffffffffffffffffff16021790555060208201518160010160006101000a81548173ffffffffffffffffffffffffffffffffffffffff021916908373ffffffffffffffffffffffffffffffffffffffff16021790555060408201518160020155606082015181600301556080820151816004015560a0820151816005015550506001600780018054905003600760060181905550611a9c565b611989600760060154600360000160039054906101000a900460ff1660ff166120cc565b6007600601819055506119b6600760050154600360000160039054906101000a900460ff1660ff166120cc565b6007600501819055508060078001600760060154815481106119d457fe5b906000526020600020906006020160008201518160000160006101000a81548173ffffffffffffffffffffffffffffffffffffffff021916908373ffffffffffffffffffffffffffffffffffffffff16021790555060208201518160010160006101000a81548173ffffffffffffffffffffffffffffffffffffffff021916908373ffffffffffffffffffffffffffffffffffffffff16021790555060408201518160020155606082015181600301556080820151816004015560a082015181600501559050505b50505050505050565b3373ffffffffffffffffffffffffffffffffffffffff1660008054906101000a900473ffffffffffffffffffffffffffffffffffffffff1673ffffffffffffffffffffffffffffffffffffffff1614611b66576040517f08c379a00000000000000000000000000000000000000000000000000000000081526004018080602001828103825260208152602001807f4f776e61626c653a2063616c6c6572206973206e6f7420746865206f776e657281525060200191505060405180910390fd5b80600260006101000a81548173ffffffffffffffffffffffffffffffffffffffff021916908373ffffffffffffffffffffffffffffffffffffffff16021790555050565b3373ffffffffffffffffffffffffffffffffffffffff1660008054906101000a900473ffffffffffffffffffffffffffffffffffffffff1673ffffffffffffffffffffffffffffffffffffffff1614611c6b576040517f08c379a00000000000000000000000000000000000000000000000000000000081526004018080602001828103825260208152602001807f4f776e61626c653a2063616c6c6572206973206e6f7420746865206f776e657281525060200191505060405180910390fd5b600073ffffffffffffffffffffffffffffffffffffffff168173ffffffffffffffffffffffffffffffffffffffff161415611cf1576040517f08c379a00000000000000000000000000000000000000000000000000000000081526004018080602001828103825260268152602001806121466026913960400191505060405180910390fd5b8073ffffffffffffffffffffffffffffffffffffffff1660008054906101000a900473ffffffffffffffffffffffffffffffffffffffff1673ffffffffffffffffffffffffffffffffffffffff167f8be0079c531659141344cd1fd0a4f28419497f9722a3daafe3b4186f6b6457e060405160405180910390a3806000806101000a81548173ffffffffffffffffffffffffffffffffffffffff021916908373ffffffffffffffffffffffffffffffffffffffff16021790555050565b806020015173ffffffffffffffffffffffffffffffffffffffff1663a9059cbb826000015183604001516040518363ffffffff1660e01b8152600401808373ffffffffffffffffffffffffffffffffffffffff16815260200182815260200192505050602060405180830381600087803b158015611e2b57600080fd5b505af1158015611e3f573d6000803e3d6000fd5b505050506040513d6020811015611e5557600080fd5b81019080805190602001909291905050505060008160a00151600760020154039050600081111561205057600260009054906101000a900473ffffffffffffffffffffffffffffffffffffffff1673ffffffffffffffffffffffffffffffffffffffff1663f5e64818600360000160049054906101000a900473ffffffffffffffffffffffffffffffffffffffff16836040518363ffffffff1660e01b8152600401808373ffffffffffffffffffffffffffffffffffffffff16815260200182815260200192505050602060405180830381600087803b158015611f3857600080fd5b505af1158015611f4c573d6000803e3d6000fd5b505050506040513d6020811015611f6257600080fd5b81019080805190602001909291905050501561204f57600360000160049054906101000a900473ffffffffffffffffffffffffffffffffffffffff1673ffffffffffffffffffffffffffffffffffffffff1663a9059cbb8360000151836040518363ffffffff1660e01b8152600401808373ffffffffffffffffffffffffffffffffffffffff16815260200182815260200192505050602060405180830381600087803b15801561201257600080fd5b505af1158015612026573d6000803e3d6000fd5b505050506040513d602081101561203c57600080fd5b8101908080519060200190929190505050505b5b816020015173ffffffffffffffffffffffffffffffffffffffff167f026b78e6f21420c4acfa497265c98ba0d143d851f672cb7548d57cb17d41631983604001518460000151604051808381526020018273ffffffffffffffffffffffffffffffffffffffff1681526020019250505060405180910390a25050565b60008160018401816120da57fe5b06905092915050565b6040518060c00160405280600073ffffffffffffffffffffffffffffffffffffffff168152602001600073ffffffffffffffffffffffffffffffffffffffff16815260200160008152602001600081526020016000815260200160008152509056fe4f776e61626c653a206e6577206f776e657220697320746865207a65726f20616464726573734c49515549442051554555453a20726573747269637465642066756e6374696f6e4c49515549442051554555453a20706f7020717565756520746f20726573697a652e4c49515549442051554555453a2045796520616464726573732063757272656e746c79206c6f636b6564a26469706673582212209462ccd8d43c3dd2fc03ef3c9208097c88199a9054b962244e89a088e2066a1164736f6c63430007060033",
  "immutableReferences": {},
  "source": "// SPDX-License-Identifier: MIT\npragma solidity ^0.7.6;\nimport \"../uniswapv2/interfaces/IUniswapV2Pair.sol\";\nimport \"../openzeppelin/Ownable.sol\";\nimport \"../openzeppelin/IERC20.sol\";\nimport \"../facades/RewardLike.sol\";\n\n/*\nRULES:\n1. A queue that has been stagnant for a set period of time starts rewarding EYE per queue place. Will use Nimrodel logic for this\n2. We measure queue velocity by taking a moving average. If it exceeds a threshold, new LP entrants are burnt. The burn increases for each entrant underwhich it exceeds the threshold\n3. The queue is fixed in length but can be resized by admin. This is likely just a temporary measure. \n*/\ncontract LiquidQueue is Ownable {\n    address public mintingModule;\n    bool public paused; // only for alpha queue.\n    event queued(address indexed lp, uint256 amount, address holder);\n    event popped(address indexed lp, uint256 amount, address holder);\n    RewardLike rewardContract;\n\n    modifier onlyMintingModule {\n        require(\n            msg.sender == mintingModule,\n            \"LIQUID QUEUE: restricted function\"\n        );\n        _;\n    }\n\n    modifier mustBeUnpaused {\n        require(!paused, \"LIQUID QUEUE: currently paused\");\n        _;\n    }\n\n    modifier mustBePaused {\n        require(paused, \"LIQUID QUEUE: currently unpaused\");\n        _;\n    }\n\n    struct Batch {\n        address recipient;\n        address LP;\n        uint256 amount;\n        uint256 joinTimeStamp;\n        uint256 durationSinceLast;\n        uint256 eyeHeightAtJoin;\n    }\n\n    struct QueueState {\n        uint256 velocity; //joins per week\n        uint256 burnRatio;\n        uint256 eyeHeight;\n        bool eyeActive;\n        uint256 criticalVelocityStart;\n        uint256 lastIndex; //old batches pop off the queue from here\n        uint256 entryIndex; //new batches go here\n        Batch[] queue;\n        uint256 eyeStagnantDuration;\n    }\n\n    struct QueueConfig {\n        uint24 targetVelocity;\n        uint8 size;\n        address eye;\n        uint256 stagnationRewardTimeout;\n        uint256 eyeReward;\n        bool LPburnDisabled; // if behodler's listing of LPs is enough incentive to not unwind then no need for LP burning\n    }\n\n    QueueConfig queueConfig;\n    QueueState queueState;\n\n    function setReward(address r) public onlyOwner {\n        rewardContract = RewardLike(r);\n    }\n\n    function pause(bool paws) public onlyOwner {\n        paused = paws; // pores\n    }\n\n    function setMintingModule(address m) public onlyOwner {\n        mintingModule = m;\n    }\n\n    function configure(\n        uint24 targetVelocity,\n        uint8 size,\n        address eye,\n        uint256 stagnationRewardTimeout,\n        uint256 eyeReward,\n        bool LPburnDisabled\n    ) public onlyOwner {\n        require(\n            size >= queueState.queue.length,\n            \"LIQUID QUEUE: pop queue to resize.\"\n        );\n        queueConfig.size = size;\n        queueConfig.targetVelocity = targetVelocity;\n        if (queueConfig.eye != address(0)) {\n            require(\n                (queueConfig.eye == eye && queueState.queue.length == 0) ||\n                    paused,\n                \"LIQUID QUEUE: Eye address currently locked\"\n            );\n            uint256 durationSinceLast =\n                queueState.queue.length > 0\n                    ? block.timestamp -\n                        queueState.queue[queueState.entryIndex].joinTimeStamp\n                    : 0;\n            queueState.eyeHeight += durationSinceLast * queueConfig.eyeReward;\n        }\n        queueConfig.eye = eye;\n        queueConfig.stagnationRewardTimeout = stagnationRewardTimeout;\n        queueConfig.eyeReward = eyeReward;\n        queueConfig.LPburnDisabled = LPburnDisabled;\n    }\n\n    //take reward, advance queue structure, pop out end of queue. External users must enter through MintingModule.purchaseLP\n    function join(address LP, address recipient)\n        public\n        onlyMintingModule\n        mustBeUnpaused\n    {\n        //pull in the minted LP from the minting module\n        IUniswapV2Pair pair = IUniswapV2Pair(LP);\n        uint256 balance = pair.balanceOf(mintingModule);\n        pair.transferFrom(mintingModule, address(this), balance);\n\n        //calculate current velocity. If it is high, turn off LP burn.\n        uint256 newEntryTimeStamp = block.timestamp;\n        uint256 durationSinceLast = 0;\n        if (queueState.queue.length > 0) {\n            durationSinceLast =\n                newEntryTimeStamp -\n                queueState.queue[queueState.entryIndex].joinTimeStamp;\n            queueState.velocity +=\n                ((1 weeks) / (durationSinceLast + 1)) /\n                queueConfig.size;\n            if (queueState.queue.length == queueConfig.size) {\n                uint256 leavingVelocity =\n                    ((1 weeks) /\n                        (queueState.queue[queueState.lastIndex]\n                            .durationSinceLast + 1)) / queueConfig.size;\n                uint256 existingVelocity = queueState.velocity;\n                queueState.velocity = existingVelocity < leavingVelocity\n                    ? 0 //queueState.velocity\n                    : existingVelocity - leavingVelocity;\n            }\n\n            //set LP burn ratio for next preson to leave\n            if (\n                !queueConfig.LPburnDisabled &&\n                queueState.velocity > queueConfig.targetVelocity &&\n                queueState.queue.length == queueConfig.size\n            ) {\n                queueState.burnRatio = queueState.burnRatio < 49\n                    ? queueState.burnRatio + 1\n                    : 49;\n            } else {\n                queueState.burnRatio = 0;\n            }\n        }\n\n        //if eye rewards are active but velocity picks up, disable eye rewards\n        if (queueState.eyeActive) {\n            queueState.eyeHeight += durationSinceLast * queueConfig.eyeReward;\n            if (queueState.velocity > queueConfig.targetVelocity) {\n                queueState.eyeActive = false;\n                queueState.criticalVelocityStart = 0;\n            }\n        }\n\n        //if velocity falls below target, after timeout set eye rewards to active\n        if (\n            queueState.velocity < queueConfig.targetVelocity &&\n            !queueState.eyeActive &&\n            queueState.queue.length > 0\n        ) {\n            if (queueState.criticalVelocityStart == 0)\n                queueState.criticalVelocityStart = block.timestamp;\n            else if (\n                block.timestamp - queueState.criticalVelocityStart >\n                queueConfig.stagnationRewardTimeout\n            ) {\n                queueState.eyeActive = true;\n            }\n        }\n\n        if (queueState.queue.length == queueConfig.size) {\n            Batch memory leaver = queueState.queue[queueState.lastIndex];\n            payLeaver(leaver);\n        }\n\n        Batch memory joiner =\n            Batch({\n                recipient: recipient,\n                LP: LP,\n                amount: balance - ((balance * queueState.burnRatio) / 100),\n                joinTimeStamp: block.timestamp,\n                durationSinceLast: queueState.queue.length == 0\n                    ? (1 weeks)\n                    : durationSinceLast,\n                eyeHeightAtJoin: queueState.eyeHeight\n            });\n\n        emit queued(joiner.LP, joiner.amount, joiner.recipient);\n        if (queueState.queue.length < queueConfig.size) {\n            queueState.queue.push(joiner);\n            queueState.entryIndex = queueState.queue.length - 1;\n        } else {\n            queueState.entryIndex = circleIncrement(\n                queueState.entryIndex,\n                queueConfig.size\n            );\n            queueState.lastIndex = circleIncrement(\n                queueState.lastIndex,\n                queueConfig.size\n            );\n            queueState.queue[queueState.entryIndex] = joiner;\n        }\n    }\n\n    //Only use this if you're planning on destroying or resetting the queue entirely\n    //Note: to save gas, pop removes the latest batch in the queue, not the oldest batch\n    function pop() public onlyOwner mustBePaused {\n        payLeaver(queueState.queue[queueState.entryIndex]);\n        queueState.queue.pop();\n        uint256 newLength = queueState.queue.length;\n        queueState.entryIndex = queueState.entryIndex % newLength;\n        queueState.lastIndex = queueState.lastIndex % newLength;\n    }\n\n    function getQueueData()\n        public\n        view\n        returns (\n            uint256 length,\n            uint256 last,\n            uint256 entryIndex,\n            uint256 velocity,\n            uint256 burnRatio,\n            bool eyeActive,\n            uint256 eyeReward\n        )\n    {\n        return (\n            queueState.queue.length,\n            queueState.lastIndex,\n            queueState.entryIndex,\n            queueState.velocity,\n            queueState.burnRatio,\n            queueState.eyeActive,\n            queueConfig.eyeReward\n        );\n    }\n\n    function getBatch(uint256 index)\n        external\n        view\n        returns (\n            address recipient,\n            address LP,\n            uint256 amount,\n            uint256 joinTimeStamp,\n            uint256 durationSinceLast,\n            uint256 eyeHeightAtJoin,\n            bool validIndex\n        )\n    {\n        Batch memory batch;\n        if (queueState.queue.length > index) {\n            batch = queueState.queue[index];\n            recipient = batch.recipient;\n            LP = batch.LP;\n            amount = batch.amount;\n            joinTimeStamp = batch.joinTimeStamp;\n            durationSinceLast = batch.durationSinceLast;\n            eyeHeightAtJoin = batch.eyeHeightAtJoin;\n            validIndex = true;\n        }\n    }\n\n    function payLeaver(Batch memory leaver) internal {\n        IERC20(leaver.LP).transfer(leaver.recipient, leaver.amount);\n        uint256 eyeReward = (queueState.eyeHeight - leaver.eyeHeightAtJoin); //no need for overflow check. eyeHeightAtJoin can't be greater than eyeHeight\n        if (eyeReward > 0) {\n            //don't fail if unable to pay staking reward.\n            if (\n                rewardContract.requestSlowQueueReward(\n                    queueConfig.eye,\n                    eyeReward\n                )\n            ) IERC20(queueConfig.eye).transfer(leaver.recipient, eyeReward);\n        }\n        emit popped(leaver.LP, leaver.amount, leaver.recipient);\n    }\n\n    function circleIncrement(uint256 value, uint256 max)\n        internal\n        pure\n        returns (uint256)\n    {\n        return (value + 1) % max;\n    }\n}\n",
  "sourcePath": "/home/justin/weidai ecosystem/LiquidQueue/contracts/phase1/LiquidQueue.sol",
  "compiler": {
    "name": "solc",
    "version": "0.7.6+commit.7338295f.Emscripten.clang"
  },
  "schemaVersion": "3.3.3",
  "updatedAt": "2021-04-04T00:12:50.700Z",
  "networkType": "ethereum",
  "devdoc": {
    "kind": "dev",
    "methods": {
      "renounceOwnership()": {
        "details": "Leaves the contract without owner. It will not be possible to call `onlyOwner` functions anymore. Can only be called by the current owner. NOTE: Renouncing ownership will leave the contract without an owner, thereby removing any functionality that is only available to the owner."
      },
      "transferOwnership(address)": {
        "details": "Transfers ownership of the contract to a new account (`newOwner`). Can only be called by the current owner."
      }
    },
    "version": 1
  },
  "userdoc": {
    "kind": "user",
    "methods": {},
    "version": 1
  }
}