{
  "contractName": "MintingModule",
  "abi": [
    {
      "inputs": [
        {
          "internalType": "address",
          "name": "dai",
          "type": "address"
        },
        {
          "internalType": "address",
          "name": "scx",
          "type": "address"
        },
        {
          "internalType": "address",
          "name": "eye",
          "type": "address"
        },
        {
          "internalType": "address",
          "name": "router",
          "type": "address"
        },
        {
          "internalType": "address",
          "name": "factory",
          "type": "address"
        },
        {
          "internalType": "address",
          "name": "queue",
          "type": "address"
        }
      ],
      "stateMutability": "nonpayable",
      "type": "constructor"
    },
    {
      "anonymous": false,
      "inputs": [
        {
          "indexed": true,
          "internalType": "address",
          "name": "previousOwner",
          "type": "address"
        },
        {
          "indexed": true,
          "internalType": "address",
          "name": "newOwner",
          "type": "address"
        }
      ],
      "name": "OwnershipTransferred",
      "type": "event"
    },
    {
      "inputs": [
        {
          "internalType": "address",
          "name": "",
          "type": "address"
        }
      ],
      "name": "inputOutputToken",
      "outputs": [
        {
          "internalType": "address",
          "name": "",
          "type": "address"
        }
      ],
      "stateMutability": "view",
      "type": "function"
    },
    {
      "inputs": [
        {
          "internalType": "address",
          "name": "",
          "type": "address"
        }
      ],
      "name": "inputTokenTilting",
      "outputs": [
        {
          "internalType": "address",
          "name": "",
          "type": "address"
        }
      ],
      "stateMutability": "view",
      "type": "function"
    },
    {
      "inputs": [],
      "name": "owner",
      "outputs": [
        {
          "internalType": "address",
          "name": "",
          "type": "address"
        }
      ],
      "stateMutability": "view",
      "type": "function"
    },
    {
      "inputs": [],
      "name": "renounceOwnership",
      "outputs": [],
      "stateMutability": "nonpayable",
      "type": "function"
    },
    {
      "inputs": [],
      "name": "sluiceGate",
      "outputs": [
        {
          "internalType": "contract SluiceGateLike",
          "name": "",
          "type": "address"
        }
      ],
      "stateMutability": "view",
      "type": "function"
    },
    {
      "inputs": [],
      "name": "tiltPercentage",
      "outputs": [
        {
          "internalType": "uint8",
          "name": "",
          "type": "uint8"
        }
      ],
      "stateMutability": "view",
      "type": "function"
    },
    {
      "inputs": [
        {
          "internalType": "address",
          "name": "newOwner",
          "type": "address"
        }
      ],
      "name": "transferOwnership",
      "outputs": [],
      "stateMutability": "nonpayable",
      "type": "function"
    },
    {
      "inputs": [
        {
          "internalType": "address",
          "name": "factory",
          "type": "address"
        },
        {
          "internalType": "address",
          "name": "router",
          "type": "address"
        },
        {
          "internalType": "address",
          "name": "reward",
          "type": "address"
        },
        {
          "internalType": "uint8",
          "name": "_tiltPercentage",
          "type": "uint8"
        }
      ],
      "name": "seed",
      "outputs": [],
      "stateMutability": "nonpayable",
      "type": "function"
    },
    {
      "inputs": [
        {
          "internalType": "address",
          "name": "input",
          "type": "address"
        },
        {
          "internalType": "address",
          "name": "output",
          "type": "address"
        },
        {
          "internalType": "address",
          "name": "tilting",
          "type": "address"
        }
      ],
      "name": "mapTokens",
      "outputs": [],
      "stateMutability": "nonpayable",
      "type": "function"
    },
    {
      "inputs": [
        {
          "internalType": "address",
          "name": "s",
          "type": "address"
        }
      ],
      "name": "setSluiceGate",
      "outputs": [],
      "stateMutability": "nonpayable",
      "type": "function"
    },
    {
      "inputs": [
        {
          "internalType": "address",
          "name": "inputToken",
          "type": "address"
        },
        {
          "internalType": "uint256",
          "name": "amount",
          "type": "uint256"
        }
      ],
      "name": "purchaseLP",
      "outputs": [],
      "stateMutability": "payable",
      "type": "function"
    }
  ],
  "bytecode": "0x60806040523480156200001157600080fd5b50604051620029e5380380620029e5833981810160405260c08110156200003757600080fd5b81019080805190602001909291908051906020019092919080519060200190929190805190602001909291908051906020019092919080519060200190929190505050336000806101000a81548173ffffffffffffffffffffffffffffffffffffffff021916908373ffffffffffffffffffffffffffffffffffffffff1602179055503373ffffffffffffffffffffffffffffffffffffffff16600073ffffffffffffffffffffffffffffffffffffffff167f8be0079c531659141344cd1fd0a4f28419497f9722a3daafe3b4186f6b6457e060405160405180910390a382600260006101000a81548173ffffffffffffffffffffffffffffffffffffffff021916908373ffffffffffffffffffffffffffffffffffffffff16021790555081600160006101000a81548173ffffffffffffffffffffffffffffffffffffffff021916908373ffffffffffffffffffffffffffffffffffffffff1602179055506000600260009054906101000a900473ffffffffffffffffffffffffffffffffffffffff1673ffffffffffffffffffffffffffffffffffffffff1663ad5c46486040518163ffffffff1660e01b815260040160206040518083038186803b1580156200020257600080fd5b505afa15801562000217573d6000803e3d6000fd5b505050506040513d60208110156200022e57600080fd5b8101908080519060200190929190505050905062000254878687620002f760201b60201c565b62000267818788620002f760201b60201c565b6200027a868688620002f760201b60201c565b6200028d858788620002f760201b60201c565b81600560006101000a81548173ffffffffffffffffffffffffffffffffffffffff021916908373ffffffffffffffffffffffffffffffffffffffff160217905550601e600560156101000a81548160ff021916908360ff16021790555050505050505050620006bd565b3373ffffffffffffffffffffffffffffffffffffffff1660008054906101000a900473ffffffffffffffffffffffffffffffffffffffff1673ffffffffffffffffffffffffffffffffffffffff1614620003b9576040517f08c379a00000000000000000000000000000000000000000000000000000000081526004018080602001828103825260208152602001807f4f776e61626c653a2063616c6c6572206973206e6f7420746865206f776e657281525060200191505060405180910390fd5b80600660008573ffffffffffffffffffffffffffffffffffffffff1673ffffffffffffffffffffffffffffffffffffffff16815260200190815260200160002060006101000a81548173ffffffffffffffffffffffffffffffffffffffff021916908373ffffffffffffffffffffffffffffffffffffffff16021790555081600760008573ffffffffffffffffffffffffffffffffffffffff1673ffffffffffffffffffffffffffffffffffffffff16815260200190815260200160002060006101000a81548173ffffffffffffffffffffffffffffffffffffffff021916908373ffffffffffffffffffffffffffffffffffffffff160217905550600073ffffffffffffffffffffffffffffffffffffffff16600160009054906101000a900473ffffffffffffffffffffffffffffffffffffffff1673ffffffffffffffffffffffffffffffffffffffff1663e6a4390585856040518363ffffffff1660e01b8152600401808373ffffffffffffffffffffffffffffffffffffffff1681526020018273ffffffffffffffffffffffffffffffffffffffff1681526020019250505060206040518083038186803b1580156200057557600080fd5b505afa1580156200058a573d6000803e3d6000fd5b505050506040513d6020811015620005a157600080fd5b810190808051906020019092919050505073ffffffffffffffffffffffffffffffffffffffff161415620006b857600160009054906101000a900473ffffffffffffffffffffffffffffffffffffffff1673ffffffffffffffffffffffffffffffffffffffff1663c9c6539684846040518363ffffffff1660e01b8152600401808373ffffffffffffffffffffffffffffffffffffffff1681526020018273ffffffffffffffffffffffffffffffffffffffff16815260200192505050602060405180830381600087803b1580156200067957600080fd5b505af11580156200068e573d6000803e3d6000fd5b505050506040513d6020811015620006a557600080fd5b8101908080519060200190929190505050505b505050565b61231880620006cd6000396000f3fe60806040526004361061009c5760003560e01c806396c2fa981161006457806396c2fa98146102a3578063c7e40ef41461031e578063c835fd141461035f578063c8692da21461038d578063ca25dae5146103db578063f2fde38b1461042c5761009c565b8063715018a6146100a15780638cb8cf2d146100b85780638da5cb5b14610156578063911497dd1461019757806394e7aa9914610212575b600080fd5b3480156100ad57600080fd5b506100b661047d565b005b3480156100c457600080fd5b50610154600480360360808110156100db57600080fd5b81019080803573ffffffffffffffffffffffffffffffffffffffff169060200190929190803573ffffffffffffffffffffffffffffffffffffffff169060200190929190803573ffffffffffffffffffffffffffffffffffffffff169060200190929190803560ff1690602001909291905050506105fc565b005b34801561016257600080fd5b5061016b61080c565b604051808273ffffffffffffffffffffffffffffffffffffffff16815260200191505060405180910390f35b3480156101a357600080fd5b506101e6600480360360208110156101ba57600080fd5b81019080803573ffffffffffffffffffffffffffffffffffffffff169060200190929190505050610835565b604051808273ffffffffffffffffffffffffffffffffffffffff16815260200191505060405180910390f35b34801561021e57600080fd5b506102a16004803603606081101561023557600080fd5b81019080803573ffffffffffffffffffffffffffffffffffffffff169060200190929190803573ffffffffffffffffffffffffffffffffffffffff169060200190929190803573ffffffffffffffffffffffffffffffffffffffff169060200190929190505050610868565b005b3480156102af57600080fd5b506102f2600480360360208110156102c657600080fd5b81019080803573ffffffffffffffffffffffffffffffffffffffff169060200190929190505050610c26565b604051808273ffffffffffffffffffffffffffffffffffffffff16815260200191505060405180910390f35b34801561032a57600080fd5b50610333610c59565b604051808273ffffffffffffffffffffffffffffffffffffffff16815260200191505060405180910390f35b34801561036b57600080fd5b50610374610c7f565b604051808260ff16815260200191505060405180910390f35b6103d9600480360360408110156103a357600080fd5b81019080803573ffffffffffffffffffffffffffffffffffffffff16906020019092919080359060200190929190505050610c92565b005b3480156103e757600080fd5b5061042a600480360360208110156103fe57600080fd5b81019080803573ffffffffffffffffffffffffffffffffffffffff169060200190929190505050611193565b005b34801561043857600080fd5b5061047b6004803603602081101561044f57600080fd5b81019080803573ffffffffffffffffffffffffffffffffffffffff169060200190929190505050611298565b005b3373ffffffffffffffffffffffffffffffffffffffff1660008054906101000a900473ffffffffffffffffffffffffffffffffffffffff1673ffffffffffffffffffffffffffffffffffffffff161461053e576040517f08c379a00000000000000000000000000000000000000000000000000000000081526004018080602001828103825260208152602001807f4f776e61626c653a2063616c6c6572206973206e6f7420746865206f776e657281525060200191505060405180910390fd5b600073ffffffffffffffffffffffffffffffffffffffff1660008054906101000a900473ffffffffffffffffffffffffffffffffffffffff1673ffffffffffffffffffffffffffffffffffffffff167f8be0079c531659141344cd1fd0a4f28419497f9722a3daafe3b4186f6b6457e060405160405180910390a360008060006101000a81548173ffffffffffffffffffffffffffffffffffffffff021916908373ffffffffffffffffffffffffffffffffffffffff160217905550565b3373ffffffffffffffffffffffffffffffffffffffff1660008054906101000a900473ffffffffffffffffffffffffffffffffffffffff1673ffffffffffffffffffffffffffffffffffffffff16146106bd576040517f08c379a00000000000000000000000000000000000000000000000000000000081526004018080602001828103825260208152602001807f4f776e61626c653a2063616c6c6572206973206e6f7420746865206f776e657281525060200191505060405180910390fd5b83600160006101000a81548173ffffffffffffffffffffffffffffffffffffffff021916908373ffffffffffffffffffffffffffffffffffffffff16021790555081600360006101000a81548173ffffffffffffffffffffffffffffffffffffffff021916908373ffffffffffffffffffffffffffffffffffffffff16021790555082600260006101000a81548173ffffffffffffffffffffffffffffffffffffffff021916908373ffffffffffffffffffffffffffffffffffffffff1602179055506064600560159054906101000a900460ff1660ff16106107eb576040517f08c379a000000000000000000000000000000000000000000000000000000000815260040180806020018281038252602f8152602001806121f6602f913960400191505060405180910390fd5b80600560156101000a81548160ff021916908360ff16021790555050505050565b60008060009054906101000a900473ffffffffffffffffffffffffffffffffffffffff16905090565b60066020528060005260406000206000915054906101000a900473ffffffffffffffffffffffffffffffffffffffff1681565b3373ffffffffffffffffffffffffffffffffffffffff1660008054906101000a900473ffffffffffffffffffffffffffffffffffffffff1673ffffffffffffffffffffffffffffffffffffffff1614610929576040517f08c379a00000000000000000000000000000000000000000000000000000000081526004018080602001828103825260208152602001807f4f776e61626c653a2063616c6c6572206973206e6f7420746865206f776e657281525060200191505060405180910390fd5b80600660008573ffffffffffffffffffffffffffffffffffffffff1673ffffffffffffffffffffffffffffffffffffffff16815260200190815260200160002060006101000a81548173ffffffffffffffffffffffffffffffffffffffff021916908373ffffffffffffffffffffffffffffffffffffffff16021790555081600760008573ffffffffffffffffffffffffffffffffffffffff1673ffffffffffffffffffffffffffffffffffffffff16815260200190815260200160002060006101000a81548173ffffffffffffffffffffffffffffffffffffffff021916908373ffffffffffffffffffffffffffffffffffffffff160217905550600073ffffffffffffffffffffffffffffffffffffffff16600160009054906101000a900473ffffffffffffffffffffffffffffffffffffffff1673ffffffffffffffffffffffffffffffffffffffff1663e6a4390585856040518363ffffffff1660e01b8152600401808373ffffffffffffffffffffffffffffffffffffffff1681526020018273ffffffffffffffffffffffffffffffffffffffff1681526020019250505060206040518083038186803b158015610ae457600080fd5b505afa158015610af8573d6000803e3d6000fd5b505050506040513d6020811015610b0e57600080fd5b810190808051906020019092919050505073ffffffffffffffffffffffffffffffffffffffff161415610c2157600160009054906101000a900473ffffffffffffffffffffffffffffffffffffffff1673ffffffffffffffffffffffffffffffffffffffff1663c9c6539684846040518363ffffffff1660e01b8152600401808373ffffffffffffffffffffffffffffffffffffffff1681526020018273ffffffffffffffffffffffffffffffffffffffff16815260200192505050602060405180830381600087803b158015610be457600080fd5b505af1158015610bf8573d6000803e3d6000fd5b505050506040513d6020811015610c0e57600080fd5b8101908080519060200190929190505050505b505050565b60076020528060005260406000206000915054906101000a900473ffffffffffffffffffffffffffffffffffffffff1681565b600460009054906101000a900473ffffffffffffffffffffffffffffffffffffffff1681565b600560159054906101000a900460ff1681565b600560149054906101000a900460ff1615610d15576040517f08c379a000000000000000000000000000000000000000000000000000000000815260040180806020018281038252601e8152602001807f4c49515549442051554555453a207265656e7472616e6379206775617264000081525060200191505060405180910390fd5b6001600560146101000a81548160ff021916908315150217905550600073ffffffffffffffffffffffffffffffffffffffff16600460009054906101000a900473ffffffffffffffffffffffffffffffffffffffff1673ffffffffffffffffffffffffffffffffffffffff161480610e4f5750600460009054906101000a900473ffffffffffffffffffffffffffffffffffffffff1673ffffffffffffffffffffffffffffffffffffffff16639b19251a336040518263ffffffff1660e01b8152600401808273ffffffffffffffffffffffffffffffffffffffff168152602001915050602060405180830381600087803b158015610e1357600080fd5b505af1158015610e27573d6000803e3d6000fd5b505050506040513d6020811015610e3d57600080fd5b81019080805190602001909291905050505b610ea4576040517f08c379a00000000000000000000000000000000000000000000000000000000081526004018080602001828103825260248152602001806122466024913960400191505060405180910390fd5b600034111561109d576000600260009054906101000a900473ffffffffffffffffffffffffffffffffffffffff1673ffffffffffffffffffffffffffffffffffffffff1663ad5c46486040518163ffffffff1660e01b815260040160206040518083038186803b158015610f1757600080fd5b505afa158015610f2b573d6000803e3d6000fd5b505050506040513d6020811015610f4157600080fd5b810190808051906020019092919050505090508073ffffffffffffffffffffffffffffffffffffffff168373ffffffffffffffffffffffffffffffffffffffff1614610fd8576040517f08c379a00000000000000000000000000000000000000000000000000000000081526004018080602001828103825260368152602001806121c06036913960400191505060405180910390fd5b813414611030576040517f08c379a000000000000000000000000000000000000000000000000000000000815260040180806020018281038252602f81526020018061228d602f913960400191505060405180910390fd5b60008190508073ffffffffffffffffffffffffffffffffffffffff1663d0e30db0346040518263ffffffff1660e01b81526004016000604051808303818588803b15801561107d57600080fd5b505af1158015611091573d6000803e3d6000fd5b50505050505050611169565b8173ffffffffffffffffffffffffffffffffffffffff166323b872dd3330846040518463ffffffff1660e01b8152600401808473ffffffffffffffffffffffffffffffffffffffff1681526020018373ffffffffffffffffffffffffffffffffffffffff1681526020018281526020019350505050602060405180830381600087803b15801561112c57600080fd5b505af1158015611140573d6000803e3d6000fd5b505050506040513d602081101561115657600080fd5b8101908080519060200190929190505050505b61117482823361149c565b6000600560146101000a81548160ff0219169083151502179055505050565b3373ffffffffffffffffffffffffffffffffffffffff1660008054906101000a900473ffffffffffffffffffffffffffffffffffffffff1673ffffffffffffffffffffffffffffffffffffffff1614611254576040517f08c379a00000000000000000000000000000000000000000000000000000000081526004018080602001828103825260208152602001807f4f776e61626c653a2063616c6c6572206973206e6f7420746865206f776e657281525060200191505060405180910390fd5b80600460006101000a81548173ffffffffffffffffffffffffffffffffffffffff021916908373ffffffffffffffffffffffffffffffffffffffff16021790555050565b3373ffffffffffffffffffffffffffffffffffffffff1660008054906101000a900473ffffffffffffffffffffffffffffffffffffffff1673ffffffffffffffffffffffffffffffffffffffff1614611359576040517f08c379a00000000000000000000000000000000000000000000000000000000081526004018080602001828103825260208152602001807f4f776e61626c653a2063616c6c6572206973206e6f7420746865206f776e657281525060200191505060405180910390fd5b600073ffffffffffffffffffffffffffffffffffffffff168173ffffffffffffffffffffffffffffffffffffffff1614156113df576040517f08c379a000000000000000000000000000000000000000000000000000000000815260040180806020018281038252602681526020018061219a6026913960400191505060405180910390fd5b8073ffffffffffffffffffffffffffffffffffffffff1660008054906101000a900473ffffffffffffffffffffffffffffffffffffffff1673ffffffffffffffffffffffffffffffffffffffff167f8be0079c531659141344cd1fd0a4f28419497f9722a3daafe3b4186f6b6457e060405160405180910390a3806000806101000a81548173ffffffffffffffffffffffffffffffffffffffff021916908373ffffffffffffffffffffffffffffffffffffffff16021790555050565b6000600760008573ffffffffffffffffffffffffffffffffffffffff1673ffffffffffffffffffffffffffffffffffffffff16815260200190815260200160002060009054906101000a900473ffffffffffffffffffffffffffffffffffffffff169050600073ffffffffffffffffffffffffffffffffffffffff168173ffffffffffffffffffffffffffffffffffffffff161415611586576040517f08c379a00000000000000000000000000000000000000000000000000000000081526004018080602001828103825260278152602001806122bc6027913960400191505060405180910390fd5b61158e612128565b600160009054906101000a900473ffffffffffffffffffffffffffffffffffffffff1673ffffffffffffffffffffffffffffffffffffffff1663e6a4390586846040518363ffffffff1660e01b8152600401808373ffffffffffffffffffffffffffffffffffffffff1681526020018273ffffffffffffffffffffffffffffffffffffffff1681526020019250505060206040518083038186803b15801561163557600080fd5b505afa158015611649573d6000803e3d6000fd5b505050506040513d602081101561165f57600080fd5b8101908080519060200190929190505050816080019073ffffffffffffffffffffffffffffffffffffffff16908173ffffffffffffffffffffffffffffffffffffffff16815250508173ffffffffffffffffffffffffffffffffffffffff168573ffffffffffffffffffffffffffffffffffffffff16106116e15781856116e4565b84825b82600001836020018273ffffffffffffffffffffffffffffffffffffffff1673ffffffffffffffffffffffffffffffffffffffff168152508273ffffffffffffffffffffffffffffffffffffffff1673ffffffffffffffffffffffffffffffffffffffff168152505050600080826080015173ffffffffffffffffffffffffffffffffffffffff16630902f1ac6040518163ffffffff1660e01b815260040160606040518083038186803b15801561179b57600080fd5b505afa1580156117af573d6000803e3d6000fd5b505050506040513d60608110156117c557600080fd5b81019080805190602001909291908051906020019092919080519060200190929190505050506dffffffffffffffffffffffffffff1691506dffffffffffffffffffffffffffff169150826000015173ffffffffffffffffffffffffffffffffffffffff168773ffffffffffffffffffffffffffffffffffffffff161461184c578061184e565b815b836040018181525050826000015173ffffffffffffffffffffffffffffffffffffffff168773ffffffffffffffffffffffffffffffffffffffff16146118945781611896565b805b8360600181815250506000600260009054906101000a900473ffffffffffffffffffffffffffffffffffffffff1673ffffffffffffffffffffffffffffffffffffffff1663ad615dec88866040015187606001516040518463ffffffff1660e01b815260040180848152602001838152602001828152602001935050505060206040518083038186803b15801561192c57600080fd5b505afa158015611940573d6000803e3d6000fd5b505050506040513d602081101561195657600080fd5b810190808051906020019092919050505090506000600660008a73ffffffffffffffffffffffffffffffffffffffff1673ffffffffffffffffffffffffffffffffffffffff16815260200190815260200160002060009054906101000a900473ffffffffffffffffffffffffffffffffffffffff1690508573ffffffffffffffffffffffffffffffffffffffff168173ffffffffffffffffffffffffffffffffffffffff161480611a3257508873ffffffffffffffffffffffffffffffffffffffff168173ffffffffffffffffffffffffffffffffffffffff16145b611a87576040517f08c379a000000000000000000000000000000000000000000000000000000000815260040180806020018281038252602381526020018061226a6023913960400191505060405180910390fd5b60008973ffffffffffffffffffffffffffffffffffffffff168273ffffffffffffffffffffffffffffffffffffffff1614611ad457600560159054906101000a900460ff16606403611ae8565b600560159054906101000a900460ff166064015b60ff1690506000611b156064611b078487611f9290919063ffffffff16565b61201890919063ffffffff16565b9050600360009054906101000a900473ffffffffffffffffffffffffffffffffffffffff1673ffffffffffffffffffffffffffffffffffffffff1663f8f5ca3a89836040518363ffffffff1660e01b8152600401808373ffffffffffffffffffffffffffffffffffffffff16815260200182815260200192505050600060405180830381600087803b158015611baa57600080fd5b505af1158015611bbe573d6000803e3d6000fd5b505050508a73ffffffffffffffffffffffffffffffffffffffff1663a9059cbb88608001518c6040518363ffffffff1660e01b8152600401808373ffffffffffffffffffffffffffffffffffffffff16815260200182815260200192505050602060405180830381600087803b158015611c3757600080fd5b505af1158015611c4b573d6000803e3d6000fd5b505050506040513d6020811015611c6157600080fd5b8101908080519060200190929190505050508773ffffffffffffffffffffffffffffffffffffffff1663a9059cbb8860800151836040518363ffffffff1660e01b8152600401808373ffffffffffffffffffffffffffffffffffffffff16815260200182815260200192505050602060405180830381600087803b158015611ce857600080fd5b505af1158015611cfc573d6000803e3d6000fd5b505050506040513d6020811015611d1257600080fd5b810190808051906020019092919050505050866080015173ffffffffffffffffffffffffffffffffffffffff16636a627842306040518263ffffffff1660e01b8152600401808273ffffffffffffffffffffffffffffffffffffffff168152602001915050602060405180830381600087803b158015611d9157600080fd5b505af1158015611da5573d6000803e3d6000fd5b505050506040513d6020811015611dbb57600080fd5b810190808051906020019092919050505050866080015173ffffffffffffffffffffffffffffffffffffffff1663095ea7b3600560009054906101000a900473ffffffffffffffffffffffffffffffffffffffff167fffffffffffffffffffffffffffffffffffffffffffffffffffffffffffffffff6040518363ffffffff1660e01b8152600401808373ffffffffffffffffffffffffffffffffffffffff16815260200182815260200192505050602060405180830381600087803b158015611e8457600080fd5b505af1158015611e98573d6000803e3d6000fd5b505050506040513d6020811015611eae57600080fd5b810190808051906020019092919050505050600560009054906101000a900473ffffffffffffffffffffffffffffffffffffffff1673ffffffffffffffffffffffffffffffffffffffff1663b1c4907988608001518b6040518363ffffffff1660e01b8152600401808373ffffffffffffffffffffffffffffffffffffffff1681526020018273ffffffffffffffffffffffffffffffffffffffff16815260200192505050600060405180830381600087803b158015611f6d57600080fd5b505af1158015611f81573d6000803e3d6000fd5b505050505050505050505050505050565b600080831415611fa55760009050612012565b6000828402905082848281611fb657fe5b041461200d576040517f08c379a00000000000000000000000000000000000000000000000000000000081526004018080602001828103825260218152602001806122256021913960400191505060405180910390fd5b809150505b92915050565b600061205a83836040518060400160405280601a81526020017f536166654d6174683a206469766973696f6e206279207a65726f000000000000815250612062565b905092915050565b6000808311829061210e576040517f08c379a00000000000000000000000000000000000000000000000000000000081526004018080602001828103825283818151815260200191508051906020019080838360005b838110156120d35780820151818401526020810190506120b8565b50505050905090810190601f1680156121005780820380516001836020036101000a031916815260200191505b509250505060405180910390fd5b50600083858161211a57fe5b049050809150509392505050565b6040518060a00160405280600073ffffffffffffffffffffffffffffffffffffffff168152602001600073ffffffffffffffffffffffffffffffffffffffff1681526020016000815260200160008152602001600073ffffffffffffffffffffffffffffffffffffffff168152509056fe4f776e61626c653a206e6577206f776e657220697320746865207a65726f20616464726573734c49515549442051554555453a20706f736974697665206574682076616c7565207265717569726573205745544820616464726573734c49515549442051554555453a2074696c742070657263656e74616765206265747765656e203120616e6420313030536166654d6174683a206d756c7469706c69636174696f6e206f766572666c6f774c49515549442051554555453a20666f7262696464656e2c20636c6f73656420626574614c49515549442051554555453a20696e76616c69642074696c74656420746f6b656e2e4c49515549442051554555453a206574682076616c7565206d757374206d6174636820696e70757420616d6f756e744c49515549442051554555453a20696e70757420746f6b656e206e6f7420737570706f72746564a26469706673582212209d4a4998ae07dfad84da35e24edaa5ed831c40a71819519005cd10a51dfd8eed64736f6c63430007060033",
  "immutableReferences": {},
  "source": "// SPDX-License-Identifier: MIT\npragma solidity ^0.7.6;\nimport \"../openzeppelin/Ownable.sol\";\nimport \"../openzeppelin/IERC20.sol\";\nimport \"../openzeppelin/SafeMath.sol\";\nimport \"../uniswapv2/interfaces/IUniswapV2Factory.sol\";\nimport \"../uniswapv2/interfaces/IUniswapV2Router02.sol\";\nimport \"../uniswapv2/interfaces/IUniswapV2Pair.sol\";\nimport \"../uniswapv2/WETH.sol\";\nimport \"../uniswapv2/libraries/UniswapV2Library.sol\";\nimport \"../facades/RewardLike.sol\";\nimport \"../facades/SluiceGateLike.sol\";\n\nabstract contract LiquidQueueLike {\n    function join(address LP, address recipient) public virtual;\n}\n\ncontract MintingModule is Ownable {\n    using SafeMath for uint256;\n\n    struct UniswapValues {\n        address token0;\n        address token1;\n        uint256 reserveA;\n        uint256 reserveB;\n        IUniswapV2Pair pair;\n    }\n\n    IUniswapV2Factory uniswapFactory;\n    IUniswapV2Router02 uniswapRouter;\n\n    RewardLike rewardContract;\n    SluiceGateLike public sluiceGate;\n    address liquidQueue;\n    bool locked;\n    uint8 public tiltPercentage;\n    mapping(address => address) public inputTokenTilting; // eg inputTokenTilting[address(EYE)] == address(SCX)\n    mapping(address => address) public inputOutputToken; // eg inputOutputToken(address(dai)) == address (EYE)\n\n    modifier lock {\n        require(!locked, \"LIQUID QUEUE: reentrancy guard\");\n        locked = true;\n        _;\n        locked = false;\n    }\n\n    modifier gateKeep {\n        require(\n            address(sluiceGate) == address(0) ||\n                sluiceGate.whitelist(msg.sender),\n            \"LIQUID QUEUE: forbidden, closed beta\"\n        );\n        _;\n    }\n\n    function seed(\n        address factory,\n        address router,\n        address reward,\n        uint8 _tiltPercentage\n    ) public onlyOwner {\n        uniswapFactory = IUniswapV2Factory(factory);\n        rewardContract = RewardLike(reward);\n        uniswapRouter = IUniswapV2Router02(router);\n        require(\n            tiltPercentage < 100,\n            \"LIQUID QUEUE: tilt percentage between 1 and 100\"\n        );\n        tiltPercentage = _tiltPercentage;\n    }\n\n    constructor(\n        address dai,\n        address scx,\n        address eye,\n        address router,\n        address factory,\n        address queue\n    ) {\n        uniswapRouter = IUniswapV2Router02(router);\n        uniswapFactory = IUniswapV2Factory(factory);\n        address weth = uniswapRouter.WETH();\n        mapTokens(dai, eye, eye);\n        mapTokens(weth, scx, scx);\n        mapTokens(scx, eye, scx);\n        mapTokens(eye, scx, scx);\n        liquidQueue = queue;\n        tiltPercentage = 30;\n    }\n\n    function mapTokens(\n        address input,\n        address output,\n        address tilting\n    ) public onlyOwner {\n        inputTokenTilting[input] = tilting;\n        inputOutputToken[input] = output;\n        if (uniswapFactory.getPair(input, output) == address(0)) {\n            uniswapFactory.createPair(input, output);\n        }\n    }\n\n    function setSluiceGate(address s) public onlyOwner {\n        sluiceGate = SluiceGateLike(s);\n    }\n\n    //Entry point for an external user into the Liquid Queue\n    function purchaseLP(address inputToken, uint256 amount)\n        public\n        payable\n        lock\n        gateKeep\n    {\n        if (msg.value > 0) {\n            address wethAddress = uniswapRouter.WETH();\n            require(\n                inputToken == wethAddress,\n                \"LIQUID QUEUE: positive eth value requires WETH address\"\n            );\n            require(\n                msg.value == amount,\n                \"LIQUID QUEUE: eth value must match input amount\"\n            );\n            WETH weth = WETH(wethAddress);\n            weth.deposit{value: msg.value}();\n        } else {\n            IERC20(inputToken).transferFrom(msg.sender, address(this), amount);\n        }\n        purchaseLPFor(inputToken, amount, msg.sender);\n    }\n\n    function purchaseLPFor(\n        address inputToken,\n        uint256 amount,\n        address recipient\n    ) internal {\n        address outputToken = inputOutputToken[inputToken];\n        require(\n            outputToken != address(0),\n            \"LIQUID QUEUE: input token not supported\"\n        );\n\n        //The next section fetches a quote from uniswap so we know what the ratios should be in the absence of tilting.\n        UniswapValues memory VARS;\n\n        VARS.pair = IUniswapV2Pair(\n            uniswapFactory.getPair(inputToken, outputToken)\n        );\n        (VARS.token0, VARS.token1) = inputToken < outputToken\n            ? (inputToken, outputToken)\n            : (outputToken, inputToken);\n        (uint256 reserve1, uint256 reserve2, ) = VARS.pair.getReserves();\n        VARS.reserveA = inputToken == VARS.token0 ? reserve1 : reserve2;\n        VARS.reserveB = inputToken == VARS.token0 ? reserve2 : reserve1;\n\n        uint256 expectedOutputToken =\n            uniswapRouter.quote(amount, VARS.reserveA, VARS.reserveB);\n\n        address tiltedToken = inputTokenTilting[inputToken];\n        require(\n            tiltedToken == outputToken || tiltedToken == inputToken,\n            \"LIQUID QUEUE: invalid tilted token.\"\n        );\n\n        uint256 tiltAdjustment =\n            tiltedToken == inputToken\n                ? 100 + tiltPercentage\n                : 100 - tiltPercentage;\n\n        uint256 outputAmount = expectedOutputToken.mul(tiltAdjustment).div(100);\n        rewardContract.requestReward(outputToken, outputAmount);\n\n        IERC20(inputToken).transfer(address(VARS.pair), amount);\n        IERC20(outputToken).transfer(address(VARS.pair), outputAmount);\n\n        VARS.pair.mint(address(this));\n        VARS.pair.approve(liquidQueue, uint256(-1));\n\n        LiquidQueueLike(liquidQueue).join(address(VARS.pair), recipient);\n    }\n}\n",
  "sourcePath": "/home/justin/weidai ecosystem/LiquidQueue/contracts/phase1/MintingModule.sol",
  "compiler": {
    "name": "solc",
    "version": "0.7.6+commit.7338295f.Emscripten.clang"
  },
  "schemaVersion": "3.3.3",
  "updatedAt": "2021-04-05T05:39:15.603Z",
  "devdoc": {
    "kind": "dev",
    "methods": {
      "renounceOwnership()": {
        "details": "Leaves the contract without owner. It will not be possible to call `onlyOwner` functions anymore. Can only be called by the current owner. NOTE: Renouncing ownership will leave the contract without an owner, thereby removing any functionality that is only available to the owner."
      },
      "transferOwnership(address)": {
        "details": "Transfers ownership of the contract to a new account (`newOwner`). Can only be called by the current owner."
      }
    },
    "version": 1
  },
  "userdoc": {
    "kind": "user",
    "methods": {},
    "version": 1
  }
}