{
  "contractName": "SluiceGate",
  "abi": [
    {
      "inputs": [
        {
          "internalType": "address",
          "name": "scx_eye",
          "type": "address"
        },
        {
          "internalType": "address",
          "name": "eye_eth",
          "type": "address"
        },
        {
          "internalType": "address",
          "name": "eye",
          "type": "address"
        }
      ],
      "stateMutability": "nonpayable",
      "type": "constructor"
    },
    {
      "anonymous": false,
      "inputs": [
        {
          "indexed": true,
          "internalType": "address",
          "name": "previousOwner",
          "type": "address"
        },
        {
          "indexed": true,
          "internalType": "address",
          "name": "newOwner",
          "type": "address"
        }
      ],
      "name": "OwnershipTransferred",
      "type": "event"
    },
    {
      "inputs": [
        {
          "internalType": "address",
          "name": "",
          "type": "address"
        },
        {
          "internalType": "address",
          "name": "",
          "type": "address"
        }
      ],
      "name": "LPstake",
      "outputs": [
        {
          "internalType": "uint256",
          "name": "",
          "type": "uint256"
        }
      ],
      "stateMutability": "view",
      "type": "function",
      "constant": true
    },
    {
      "inputs": [],
      "name": "owner",
      "outputs": [
        {
          "internalType": "address",
          "name": "",
          "type": "address"
        }
      ],
      "stateMutability": "view",
      "type": "function",
      "constant": true
    },
    {
      "inputs": [],
      "name": "renounceOwnership",
      "outputs": [],
      "stateMutability": "nonpayable",
      "type": "function"
    },
    {
      "inputs": [
        {
          "internalType": "address",
          "name": "newOwner",
          "type": "address"
        }
      ],
      "name": "transferOwnership",
      "outputs": [],
      "stateMutability": "nonpayable",
      "type": "function"
    },
    {
      "inputs": [
        {
          "internalType": "address",
          "name": "",
          "type": "address"
        }
      ],
      "name": "whitelist",
      "outputs": [
        {
          "internalType": "bool",
          "name": "",
          "type": "bool"
        }
      ],
      "stateMutability": "view",
      "type": "function",
      "constant": true
    },
    {
      "inputs": [
        {
          "internalType": "address",
          "name": "lp",
          "type": "address"
        },
        {
          "internalType": "uint8",
          "name": "index",
          "type": "uint8"
        },
        {
          "internalType": "uint256",
          "name": "required",
          "type": "uint256"
        }
      ],
      "name": "configureLPs",
      "outputs": [],
      "stateMutability": "nonpayable",
      "type": "function"
    },
    {
      "inputs": [
        {
          "internalType": "address",
          "name": "lp",
          "type": "address"
        }
      ],
      "name": "betaApply",
      "outputs": [],
      "stateMutability": "nonpayable",
      "type": "function"
    },
    {
      "inputs": [
        {
          "internalType": "address",
          "name": "lp",
          "type": "address"
        }
      ],
      "name": "unstake",
      "outputs": [],
      "stateMutability": "nonpayable",
      "type": "function"
    }
  ],
  "bytecode": "0x608060405234801561001057600080fd5b506040516116bd3803806116bd8339818101604052606081101561003357600080fd5b81019080805190602001909291908051906020019092919080519060200190929190505050336000806101000a81548173ffffffffffffffffffffffffffffffffffffffff021916908373ffffffffffffffffffffffffffffffffffffffff1602179055503373ffffffffffffffffffffffffffffffffffffffff16600073ffffffffffffffffffffffffffffffffffffffff167f8be0079c531659141344cd1fd0a4f28419497f9722a3daafe3b4186f6b6457e060405160405180910390a382600360006003811061010257fe5b6003020160000160006101000a81548173ffffffffffffffffffffffffffffffffffffffff021916908373ffffffffffffffffffffffffffffffffffffffff1602179055506000600360006003811061015757fe5b600302016001018190555080600360006003811061017157fe5b6003020160020160006101000a81548173ffffffffffffffffffffffffffffffffffffffff021916908373ffffffffffffffffffffffffffffffffffffffff1602179055508160036001600381106101c557fe5b6003020160000160006101000a81548173ffffffffffffffffffffffffffffffffffffffff021916908373ffffffffffffffffffffffffffffffffffffffff160217905550670de0b6b3a76400006103e802600360016003811061022557fe5b600302016001018190555080600360016003811061023f57fe5b6003020160020160006101000a81548173ffffffffffffffffffffffffffffffffffffffff021916908373ffffffffffffffffffffffffffffffffffffffff160217905550505050611427806102966000396000f3fe608060405234801561001057600080fd5b50600436106100885760003560e01c80638f0003e01161005b5780638f0003e01461019e5780639b19251a146101e2578063f2888dbb1461023c578063f2fde38b1461028057610088565b80635c5ca7f71461008d578063707d3501146100e8578063715018a6146101605780638da5cb5b1461016a575b600080fd5b6100e6600480360360608110156100a357600080fd5b81019080803573ffffffffffffffffffffffffffffffffffffffff169060200190929190803560ff169060200190929190803590602001909291905050506102c4565b005b61014a600480360360408110156100fe57600080fd5b81019080803573ffffffffffffffffffffffffffffffffffffffff169060200190929190803573ffffffffffffffffffffffffffffffffffffffff1690602001909291905050506103fc565b6040518082815260200191505060405180910390f35b610168610421565b005b6101726105a0565b604051808273ffffffffffffffffffffffffffffffffffffffff16815260200191505060405180910390f35b6101e0600480360360208110156101b457600080fd5b81019080803573ffffffffffffffffffffffffffffffffffffffff1690602001909291905050506105c9565b005b610224600480360360208110156101f857600080fd5b81019080803573ffffffffffffffffffffffffffffffffffffffff169060200190929190505050610d26565b60405180821515815260200191505060405180910390f35b61027e6004803603602081101561025257600080fd5b81019080803573ffffffffffffffffffffffffffffffffffffffff169060200190929190505050610d46565b005b6102c26004803603602081101561029657600080fd5b81019080803573ffffffffffffffffffffffffffffffffffffffff169060200190929190505050611010565b005b3373ffffffffffffffffffffffffffffffffffffffff1660008054906101000a900473ffffffffffffffffffffffffffffffffffffffff1673ffffffffffffffffffffffffffffffffffffffff1614610385576040517f08c379a00000000000000000000000000000000000000000000000000000000081526004018080602001828103825260208152602001807f4f776e61626c653a2063616c6c6572206973206e6f7420746865206f776e657281525060200191505060405180910390fd5b8260038360ff166003811061039657fe5b6003020160000160006101000a81548173ffffffffffffffffffffffffffffffffffffffff021916908373ffffffffffffffffffffffffffffffffffffffff1602179055508060038360ff16600381106103ec57fe5b6003020160010181905550505050565b6001602052816000526040600020602052806000526040600020600091509150505481565b3373ffffffffffffffffffffffffffffffffffffffff1660008054906101000a900473ffffffffffffffffffffffffffffffffffffffff1673ffffffffffffffffffffffffffffffffffffffff16146104e2576040517f08c379a00000000000000000000000000000000000000000000000000000000081526004018080602001828103825260208152602001807f4f776e61626c653a2063616c6c6572206973206e6f7420746865206f776e657281525060200191505060405180910390fd5b600073ffffffffffffffffffffffffffffffffffffffff1660008054906101000a900473ffffffffffffffffffffffffffffffffffffffff1673ffffffffffffffffffffffffffffffffffffffff167f8be0079c531659141344cd1fd0a4f28419497f9722a3daafe3b4186f6b6457e060405160405180910390a360008060006101000a81548173ffffffffffffffffffffffffffffffffffffffff021916908373ffffffffffffffffffffffffffffffffffffffff160217905550565b60008060009054906101000a900473ffffffffffffffffffffffffffffffffffffffff16905090565b6000805b6003811015610cad576000600382600381106105e557fe5b6003020160000160009054906101000a900473ffffffffffffffffffffffffffffffffffffffff1690508373ffffffffffffffffffffffffffffffffffffffff168173ffffffffffffffffffffffffffffffffffffffff161415610c9f576001925060008173ffffffffffffffffffffffffffffffffffffffff166370a08231336040518263ffffffff1660e01b8152600401808273ffffffffffffffffffffffffffffffffffffffff16815260200191505060206040518083038186803b1580156106b057600080fd5b505afa1580156106c4573d6000803e3d6000fd5b505050506040513d60208110156106da57600080fd5b810190808051906020019092919050505090506000600384600381106106fc57fe5b60030201600101541480156107115750600081115b156108dc578173ffffffffffffffffffffffffffffffffffffffff166323b872dd3330600a858161073e57fe5b046040518463ffffffff1660e01b8152600401808473ffffffffffffffffffffffffffffffffffffffff1681526020018373ffffffffffffffffffffffffffffffffffffffff1681526020018281526020019350505050602060405180830381600087803b1580156107af57600080fd5b505af11580156107c3573d6000803e3d6000fd5b505050506040513d60208110156107d957600080fd5b810190808051906020019092919050505050600a81816107f557fe5b04600160003373ffffffffffffffffffffffffffffffffffffffff1673ffffffffffffffffffffffffffffffffffffffff16815260200190815260200160002060008473ffffffffffffffffffffffffffffffffffffffff1673ffffffffffffffffffffffffffffffffffffffff168152602001908152602001600020600082825401925050819055506001600260003373ffffffffffffffffffffffffffffffffffffffff1673ffffffffffffffffffffffffffffffffffffffff16815260200190815260200160002060006101000a81548160ff021916908315150217905550610c96565b6000600384600381106108eb57fe5b60030201600101541115610c95576001935060008273ffffffffffffffffffffffffffffffffffffffff166318160ddd6040518163ffffffff1660e01b815260040160206040518083038186803b15801561094557600080fd5b505afa158015610959573d6000803e3d6000fd5b505050506040513d602081101561096f57600080fd5b8101908080519060200190929190505050905060006003856003811061099157fe5b6003020160020160009054906101000a900473ffffffffffffffffffffffffffffffffffffffff1673ffffffffffffffffffffffffffffffffffffffff166370a08231856040518263ffffffff1660e01b8152600401808273ffffffffffffffffffffffffffffffffffffffff16815260200191505060206040518083038186803b158015610a1f57600080fd5b505afa158015610a33573d6000803e3d6000fd5b505050506040513d6020811015610a4957600080fd5b81019080805190602001909291905050509050600081610a8e670de0b6b3a764000060038960038110610a7857fe5b600302016001015461121490919063ffffffff16565b81610a9557fe5b049050600067016345785d8a0000610ad0670de0b6b3a7640000610ac2878661121490919063ffffffff16565b61129a90919063ffffffff16565b039050808510610c90578573ffffffffffffffffffffffffffffffffffffffff166323b872dd3330846040518463ffffffff1660e01b8152600401808473ffffffffffffffffffffffffffffffffffffffff1681526020018373ffffffffffffffffffffffffffffffffffffffff1681526020018281526020019350505050602060405180830381600087803b158015610b6957600080fd5b505af1158015610b7d573d6000803e3d6000fd5b505050506040513d6020811015610b9357600080fd5b8101908080519060200190929190505050610bad57600080fd5b80600160003373ffffffffffffffffffffffffffffffffffffffff1673ffffffffffffffffffffffffffffffffffffffff16815260200190815260200160002060008873ffffffffffffffffffffffffffffffffffffffff1673ffffffffffffffffffffffffffffffffffffffff168152602001908152602001600020600082825401925050819055506001600260003373ffffffffffffffffffffffffffffffffffffffff1673ffffffffffffffffffffffffffffffffffffffff16815260200190815260200160002060006101000a81548160ff0219169083151502179055505b505050505b5b50505050610d23565b5080806001019150506105cd565b5080610d21576040517f08c379a000000000000000000000000000000000000000000000000000000000815260040180806020018281038252601b8152602001807f4c49515549442051554555453a20696e76616c696420746f6b656e000000000081525060200191505060405180910390fd5b505b50565b60026020528060005260406000206000915054906101000a900460ff1681565b6000600260003373ffffffffffffffffffffffffffffffffffffffff1673ffffffffffffffffffffffffffffffffffffffff16815260200190815260200160002060006101000a81548160ff0219169083151502179055506000600160003373ffffffffffffffffffffffffffffffffffffffff1673ffffffffffffffffffffffffffffffffffffffff16815260200190815260200160002060008373ffffffffffffffffffffffffffffffffffffffff1673ffffffffffffffffffffffffffffffffffffffff1681526020019081526020016000205490506000600160003373ffffffffffffffffffffffffffffffffffffffff1673ffffffffffffffffffffffffffffffffffffffff16815260200190815260200160002060008473ffffffffffffffffffffffffffffffffffffffff1673ffffffffffffffffffffffffffffffffffffffff16815260200190815260200160002081905550600082905060008173ffffffffffffffffffffffffffffffffffffffff166370a08231306040518263ffffffff1660e01b8152600401808273ffffffffffffffffffffffffffffffffffffffff16815260200191505060206040518083038186803b158015610f0f57600080fd5b505afa158015610f23573d6000803e3d6000fd5b505050506040513d6020811015610f3957600080fd5b81019080805190602001909291905050509050828111610f595780610f5b565b825b92508373ffffffffffffffffffffffffffffffffffffffff1663a9059cbb33856040518363ffffffff1660e01b8152600401808373ffffffffffffffffffffffffffffffffffffffff16815260200182815260200192505050602060405180830381600087803b158015610fce57600080fd5b505af1158015610fe2573d6000803e3d6000fd5b505050506040513d6020811015610ff857600080fd5b81019080805190602001909291905050505050505050565b3373ffffffffffffffffffffffffffffffffffffffff1660008054906101000a900473ffffffffffffffffffffffffffffffffffffffff1673ffffffffffffffffffffffffffffffffffffffff16146110d1576040517f08c379a00000000000000000000000000000000000000000000000000000000081526004018080602001828103825260208152602001807f4f776e61626c653a2063616c6c6572206973206e6f7420746865206f776e657281525060200191505060405180910390fd5b600073ffffffffffffffffffffffffffffffffffffffff168173ffffffffffffffffffffffffffffffffffffffff161415611157576040517f08c379a00000000000000000000000000000000000000000000000000000000081526004018080602001828103825260268152602001806113ab6026913960400191505060405180910390fd5b8073ffffffffffffffffffffffffffffffffffffffff1660008054906101000a900473ffffffffffffffffffffffffffffffffffffffff1673ffffffffffffffffffffffffffffffffffffffff167f8be0079c531659141344cd1fd0a4f28419497f9722a3daafe3b4186f6b6457e060405160405180910390a3806000806101000a81548173ffffffffffffffffffffffffffffffffffffffff021916908373ffffffffffffffffffffffffffffffffffffffff16021790555050565b6000808314156112275760009050611294565b600082840290508284828161123857fe5b041461128f576040517f08c379a00000000000000000000000000000000000000000000000000000000081526004018080602001828103825260218152602001806113d16021913960400191505060405180910390fd5b809150505b92915050565b60006112dc83836040518060400160405280601a81526020017f536166654d6174683a206469766973696f6e206279207a65726f0000000000008152506112e4565b905092915050565b60008083118290611390576040517f08c379a00000000000000000000000000000000000000000000000000000000081526004018080602001828103825283818151815260200191508051906020019080838360005b8381101561135557808201518184015260208101905061133a565b50505050905090810190601f1680156113825780820380516001836020036101000a031916815260200191505b509250505060405180910390fd5b50600083858161139c57fe5b04905080915050939250505056fe4f776e61626c653a206e6577206f776e657220697320746865207a65726f2061646472657373536166654d6174683a206d756c7469706c69636174696f6e206f766572666c6f77a2646970667358221220e39c7b6a1c5b73f10e0cd801f149f1dd76b4209478e3e2a23538eb511e22eeb964736f6c63430007060033",
  "immutableReferences": {},
  "source": "// SPDX-License-Identifier: MIT\npragma solidity ^0.7.6;\nimport \"../uniswapv2/interfaces/IUniswapV2Pair.sol\";\nimport \"../openzeppelin/Ownable.sol\";\nimport \"../openzeppelin/IERC20.sol\";\nimport \"../openzeppelin/SafeMath.sol\";\n\ncontract SluiceGate is Ownable {\n    using SafeMath for uint256;\n    mapping(address => mapping(address => uint256)) public LPstake; //user=>LP=>balance\n    mapping(address => bool) public whitelist;\n    struct LPRequirement {\n        IERC20 LP;\n        uint256 required;\n        address tokenToCheck;\n    }\n\n    uint256 constant ONE = 1e18;\n\n    LPRequirement[3] LPs;\n\n    constructor(\n        address scx_eye,\n        address eye_eth,\n        address eye\n    ) {\n        LPs[0].LP = IERC20(scx_eye);\n        LPs[0].required = 0;\n        LPs[0].tokenToCheck = eye;\n        LPs[1].LP = IERC20(eye_eth);\n        LPs[1].required = 1000 * ONE;\n        LPs[1].tokenToCheck = eye;\n    }\n\n    function configureLPs(\n        address lp,\n        uint8 index,\n        uint256 required\n    ) public onlyOwner {\n        LPs[index].LP = IERC20(lp);\n        LPs[index].required = required;\n    }\n\n    function betaApply(address lp) public {\n        bool found = false;\n        for (uint256 i = 0; i < 3; i++) {\n            IERC20 currentLP = LPs[i].LP;\n            if (address(currentLP) == lp) {\n                found = true;\n                uint256 balance = currentLP.balanceOf(msg.sender);\n                if (LPs[i].required == 0 && balance > 0) {\n                    currentLP.transferFrom(\n                        msg.sender,\n                        address(this),\n                        balance / 10\n                    ); // take 10% deposit\n                    LPstake[msg.sender][address(currentLP)] += balance / 10;\n                    whitelist[msg.sender] = true;\n                } else if (LPs[i].required > 0) {\n                    found = true;\n                    uint256 totalSupply = currentLP.totalSupply();\n                    uint256 balanceOfUnderlyingToken =\n                        IERC20(LPs[i].tokenToCheck).balanceOf(\n                            address(currentLP)\n                        );\n                    uint256 requiredShare =\n                        (LPs[i].required.mul(ONE)) / balanceOfUnderlyingToken;\n                    uint256 lptokenBalanceRequired =\n                        requiredShare.mul(totalSupply).div(ONE) - 1e17;\n                    //  require(balance>=lptok)\n                    if (balance >= lptokenBalanceRequired) {\n                        require(\n                            currentLP.transferFrom(\n                                msg.sender,\n                                address(this),\n                                lptokenBalanceRequired\n                            )\n                        );\n                        LPstake[msg.sender][\n                            address(currentLP)\n                        ] += lptokenBalanceRequired;\n                        whitelist[msg.sender] = true;\n                    }\n                }\n\n                return;\n            }\n        }\n        require(found, \"LIQUID QUEUE: invalid token\");\n    }\n\n    function unstake(address lp) public {\n        whitelist[msg.sender] = false;\n        uint256 balance = LPstake[msg.sender][lp];\n        LPstake[msg.sender][lp] = 0; // prevent reentrancy\n        IERC20 pair = IERC20(lp);\n        uint256 remainingBalance = pair.balanceOf(address(this));\n        balance = remainingBalance > balance ? balance : remainingBalance;\n\n        IERC20(lp).transfer(msg.sender, balance);\n    }\n}\n",
  "sourcePath": "/home/justin/weidai ecosystem/LiquidQueue/contracts/phase1/SluiceGate.sol",
  "compiler": {
    "name": "solc",
    "version": "0.7.6+commit.7338295f.Emscripten.clang"
  },
  "schemaVersion": "3.3.3",
  "updatedAt": "2021-04-10T15:40:26.261Z",
  "networkType": "ethereum",
  "devdoc": {
    "kind": "dev",
    "methods": {
      "renounceOwnership()": {
        "details": "Leaves the contract without owner. It will not be possible to call `onlyOwner` functions anymore. Can only be called by the current owner. NOTE: Renouncing ownership will leave the contract without an owner, thereby removing any functionality that is only available to the owner."
      },
      "transferOwnership(address)": {
        "details": "Transfers ownership of the contract to a new account (`newOwner`). Can only be called by the current owner."
      }
    },
    "version": 1
  },
  "userdoc": {
    "kind": "user",
    "methods": {},
    "version": 1
  }
}