{
  "contractName": "Behodler",
  "abi": [
    {
      "inputs": [],
      "stateMutability": "nonpayable",
      "type": "constructor"
    },
    {
      "anonymous": false,
      "inputs": [
        {
          "indexed": true,
          "internalType": "address",
          "name": "owner",
          "type": "address"
        },
        {
          "indexed": true,
          "internalType": "address",
          "name": "spender",
          "type": "address"
        },
        {
          "indexed": false,
          "internalType": "uint256",
          "name": "value",
          "type": "uint256"
        }
      ],
      "name": "Approval",
      "type": "event"
    },
    {
      "anonymous": false,
      "inputs": [
        {
          "indexed": false,
          "internalType": "uint256",
          "name": "value",
          "type": "uint256"
        }
      ],
      "name": "Burn",
      "type": "event"
    },
    {
      "anonymous": false,
      "inputs": [
        {
          "indexed": false,
          "internalType": "address",
          "name": "sender",
          "type": "address"
        },
        {
          "indexed": false,
          "internalType": "address",
          "name": "token",
          "type": "address"
        },
        {
          "indexed": false,
          "internalType": "uint256",
          "name": "tokenValue",
          "type": "uint256"
        },
        {
          "indexed": false,
          "internalType": "uint256",
          "name": "scx",
          "type": "uint256"
        }
      ],
      "name": "LiquidityAdded",
      "type": "event"
    },
    {
      "anonymous": false,
      "inputs": [
        {
          "indexed": false,
          "internalType": "address",
          "name": "recipient",
          "type": "address"
        },
        {
          "indexed": false,
          "internalType": "address",
          "name": "token",
          "type": "address"
        },
        {
          "indexed": false,
          "internalType": "uint256",
          "name": "tokenValue",
          "type": "uint256"
        },
        {
          "indexed": false,
          "internalType": "uint256",
          "name": "scx",
          "type": "uint256"
        }
      ],
      "name": "LiquidityWithdrawn",
      "type": "event"
    },
    {
      "anonymous": false,
      "inputs": [
        {
          "indexed": false,
          "internalType": "address",
          "name": "sender",
          "type": "address"
        },
        {
          "indexed": false,
          "internalType": "address",
          "name": "recipient",
          "type": "address"
        },
        {
          "indexed": false,
          "internalType": "uint256",
          "name": "value",
          "type": "uint256"
        }
      ],
      "name": "Mint",
      "type": "event"
    },
    {
      "anonymous": false,
      "inputs": [
        {
          "indexed": true,
          "internalType": "address",
          "name": "previousOwner",
          "type": "address"
        },
        {
          "indexed": true,
          "internalType": "address",
          "name": "newOwner",
          "type": "address"
        }
      ],
      "name": "OwnershipTransferred",
      "type": "event"
    },
    {
      "anonymous": false,
      "inputs": [
        {
          "indexed": false,
          "internalType": "address",
          "name": "sender",
          "type": "address"
        },
        {
          "indexed": false,
          "internalType": "address",
          "name": "inputToken",
          "type": "address"
        },
        {
          "indexed": false,
          "internalType": "address",
          "name": "outputToken",
          "type": "address"
        },
        {
          "indexed": false,
          "internalType": "uint256",
          "name": "inputValue",
          "type": "uint256"
        },
        {
          "indexed": false,
          "internalType": "uint256",
          "name": "outputValue",
          "type": "uint256"
        }
      ],
      "name": "Swap",
      "type": "event"
    },
    {
      "anonymous": false,
      "inputs": [
        {
          "indexed": true,
          "internalType": "address",
          "name": "from",
          "type": "address"
        },
        {
          "indexed": true,
          "internalType": "address",
          "name": "to",
          "type": "address"
        },
        {
          "indexed": false,
          "internalType": "uint256",
          "name": "value",
          "type": "uint256"
        }
      ],
      "name": "Transfer",
      "type": "event"
    },
    {
      "inputs": [],
      "name": "Lachesis",
      "outputs": [
        {
          "internalType": "address",
          "name": "",
          "type": "address"
        }
      ],
      "stateMutability": "view",
      "type": "function",
      "constant": true
    },
    {
      "inputs": [],
      "name": "MIN_LIQUIDITY",
      "outputs": [
        {
          "internalType": "uint256",
          "name": "",
          "type": "uint256"
        }
      ],
      "stateMutability": "view",
      "type": "function",
      "constant": true
    },
    {
      "inputs": [],
      "name": "Weth",
      "outputs": [
        {
          "internalType": "address",
          "name": "",
          "type": "address"
        }
      ],
      "stateMutability": "view",
      "type": "function",
      "constant": true
    },
    {
      "inputs": [
        {
          "internalType": "address",
          "name": "owner",
          "type": "address"
        },
        {
          "internalType": "address",
          "name": "spender",
          "type": "address"
        }
      ],
      "name": "allowance",
      "outputs": [
        {
          "internalType": "uint256",
          "name": "",
          "type": "uint256"
        }
      ],
      "stateMutability": "view",
      "type": "function",
      "constant": true
    },
    {
      "inputs": [
        {
          "internalType": "address",
          "name": "spender",
          "type": "address"
        },
        {
          "internalType": "uint256",
          "name": "amount",
          "type": "uint256"
        }
      ],
      "name": "approve",
      "outputs": [
        {
          "internalType": "bool",
          "name": "",
          "type": "bool"
        }
      ],
      "stateMutability": "nonpayable",
      "type": "function"
    },
    {
      "inputs": [],
      "name": "arbiter",
      "outputs": [
        {
          "internalType": "contract FlashLoanArbiter",
          "name": "",
          "type": "address"
        }
      ],
      "stateMutability": "view",
      "type": "function",
      "constant": true
    },
    {
      "inputs": [
        {
          "internalType": "address",
          "name": "account",
          "type": "address"
        }
      ],
      "name": "balanceOf",
      "outputs": [
        {
          "internalType": "uint256",
          "name": "",
          "type": "uint256"
        }
      ],
      "stateMutability": "view",
      "type": "function",
      "constant": true
    },
    {
      "inputs": [
        {
          "internalType": "uint256",
          "name": "value",
          "type": "uint256"
        }
      ],
      "name": "burn",
      "outputs": [
        {
          "internalType": "bool",
          "name": "",
          "type": "bool"
        }
      ],
      "stateMutability": "nonpayable",
      "type": "function"
    },
    {
      "inputs": [],
      "name": "config",
      "outputs": [
        {
          "internalType": "uint256",
          "name": "transferFee",
          "type": "uint256"
        },
        {
          "internalType": "uint256",
          "name": "burnFee",
          "type": "uint256"
        },
        {
          "internalType": "address",
          "name": "feeDestination",
          "type": "address"
        }
      ],
      "stateMutability": "view",
      "type": "function",
      "constant": true
    },
    {
      "inputs": [
        {
          "internalType": "uint256",
          "name": "transferFee",
          "type": "uint256"
        },
        {
          "internalType": "uint256",
          "name": "burnFee",
          "type": "uint256"
        },
        {
          "internalType": "address",
          "name": "feeDestination",
          "type": "address"
        }
      ],
      "name": "configureScarcity",
      "outputs": [],
      "stateMutability": "nonpayable",
      "type": "function"
    },
    {
      "inputs": [],
      "name": "decimals",
      "outputs": [
        {
          "internalType": "uint8",
          "name": "",
          "type": "uint8"
        }
      ],
      "stateMutability": "pure",
      "type": "function",
      "constant": true
    },
    {
      "inputs": [],
      "name": "getConfiguration",
      "outputs": [
        {
          "internalType": "uint256",
          "name": "",
          "type": "uint256"
        },
        {
          "internalType": "uint256",
          "name": "",
          "type": "uint256"
        },
        {
          "internalType": "address",
          "name": "",
          "type": "address"
        }
      ],
      "stateMutability": "view",
      "type": "function",
      "constant": true
    },
    {
      "inputs": [
        {
          "internalType": "address",
          "name": "recipient",
          "type": "address"
        },
        {
          "internalType": "uint256",
          "name": "value",
          "type": "uint256"
        }
      ],
      "name": "migrateMint",
      "outputs": [],
      "stateMutability": "nonpayable",
      "type": "function"
    },
    {
      "inputs": [],
      "name": "migrator",
      "outputs": [
        {
          "internalType": "address",
          "name": "",
          "type": "address"
        }
      ],
      "stateMutability": "view",
      "type": "function",
      "constant": true
    },
    {
      "inputs": [],
      "name": "name",
      "outputs": [
        {
          "internalType": "string",
          "name": "",
          "type": "string"
        }
      ],
      "stateMutability": "pure",
      "type": "function",
      "constant": true
    },
    {
      "inputs": [],
      "name": "owner",
      "outputs": [
        {
          "internalType": "address",
          "name": "",
          "type": "address"
        }
      ],
      "stateMutability": "view",
      "type": "function",
      "constant": true
    },
    {
      "inputs": [],
      "name": "renounceOwnership",
      "outputs": [],
      "stateMutability": "nonpayable",
      "type": "function"
    },
    {
      "inputs": [
        {
          "internalType": "address",
          "name": "m",
          "type": "address"
        }
      ],
      "name": "setMigrator",
      "outputs": [],
      "stateMutability": "nonpayable",
      "type": "function"
    },
    {
      "inputs": [],
      "name": "symbol",
      "outputs": [
        {
          "internalType": "string",
          "name": "",
          "type": "string"
        }
      ],
      "stateMutability": "pure",
      "type": "function",
      "constant": true
    },
    {
      "inputs": [
        {
          "internalType": "address",
          "name": "",
          "type": "address"
        }
      ],
      "name": "tokenBurnable",
      "outputs": [
        {
          "internalType": "bool",
          "name": "",
          "type": "bool"
        }
      ],
      "stateMutability": "view",
      "type": "function",
      "constant": true
    },
    {
      "inputs": [],
      "name": "totalSupply",
      "outputs": [
        {
          "internalType": "uint256",
          "name": "",
          "type": "uint256"
        }
      ],
      "stateMutability": "view",
      "type": "function",
      "constant": true
    },
    {
      "inputs": [
        {
          "internalType": "address",
          "name": "recipient",
          "type": "address"
        },
        {
          "internalType": "uint256",
          "name": "amount",
          "type": "uint256"
        }
      ],
      "name": "transfer",
      "outputs": [
        {
          "internalType": "bool",
          "name": "",
          "type": "bool"
        }
      ],
      "stateMutability": "nonpayable",
      "type": "function"
    },
    {
      "inputs": [
        {
          "internalType": "address",
          "name": "sender",
          "type": "address"
        },
        {
          "internalType": "address",
          "name": "recipient",
          "type": "address"
        },
        {
          "internalType": "uint256",
          "name": "amount",
          "type": "uint256"
        }
      ],
      "name": "transferFrom",
      "outputs": [
        {
          "internalType": "bool",
          "name": "",
          "type": "bool"
        }
      ],
      "stateMutability": "nonpayable",
      "type": "function"
    },
    {
      "inputs": [
        {
          "internalType": "address",
          "name": "newOwner",
          "type": "address"
        }
      ],
      "name": "transferOwnership",
      "outputs": [],
      "stateMutability": "nonpayable",
      "type": "function"
    },
    {
      "inputs": [
        {
          "internalType": "address",
          "name": "",
          "type": "address"
        }
      ],
      "name": "validTokens",
      "outputs": [
        {
          "internalType": "bool",
          "name": "",
          "type": "bool"
        }
      ],
      "stateMutability": "view",
      "type": "function",
      "constant": true
    },
    {
      "inputs": [
        {
          "internalType": "address",
          "name": "",
          "type": "address"
        }
      ],
      "name": "whiteListUsers",
      "outputs": [
        {
          "internalType": "bool",
          "name": "",
          "type": "bool"
        }
      ],
      "stateMutability": "view",
      "type": "function",
      "constant": true
    },
    {
      "inputs": [
        {
          "internalType": "uint8",
          "name": "swapPrecisionFactor",
          "type": "uint8"
        },
        {
          "internalType": "uint8",
          "name": "maxLiquidityExit",
          "type": "uint8"
        }
      ],
      "name": "setSafetParameters",
      "outputs": [],
      "stateMutability": "nonpayable",
      "type": "function"
    },
    {
      "inputs": [],
      "name": "getMaxLiquidityExit",
      "outputs": [
        {
          "internalType": "uint8",
          "name": "",
          "type": "uint8"
        }
      ],
      "stateMutability": "view",
      "type": "function",
      "constant": true
    },
    {
      "inputs": [
        {
          "internalType": "address",
          "name": "weth",
          "type": "address"
        },
        {
          "internalType": "address",
          "name": "lachesis",
          "type": "address"
        },
        {
          "internalType": "address",
          "name": "flashLoanArbiter",
          "type": "address"
        },
        {
          "internalType": "address",
          "name": "_pyroTokenLiquidityReceiver",
          "type": "address"
        },
        {
          "internalType": "address",
          "name": "weidaiReserve",
          "type": "address"
        },
        {
          "internalType": "address",
          "name": "dai",
          "type": "address"
        }
      ],
      "name": "seed",
      "outputs": [],
      "stateMutability": "nonpayable",
      "type": "function"
    },
    {
      "inputs": [
        {
          "internalType": "address",
          "name": "inputToken",
          "type": "address"
        },
        {
          "internalType": "address",
          "name": "outputToken",
          "type": "address"
        },
        {
          "internalType": "uint256",
          "name": "inputAmount",
          "type": "uint256"
        },
        {
          "internalType": "uint256",
          "name": "outputAmount",
          "type": "uint256"
        }
      ],
      "name": "swap",
      "outputs": [
        {
          "internalType": "bool",
          "name": "success",
          "type": "bool"
        }
      ],
      "stateMutability": "payable",
      "type": "function",
      "payable": true
    },
    {
      "inputs": [
        {
          "internalType": "address",
          "name": "inputToken",
          "type": "address"
        },
        {
          "internalType": "uint256",
          "name": "amount",
          "type": "uint256"
        }
      ],
      "name": "addLiquidity",
      "outputs": [
        {
          "internalType": "uint256",
          "name": "deltaSCX",
          "type": "uint256"
        }
      ],
      "stateMutability": "payable",
      "type": "function",
      "payable": true
    },
    {
      "inputs": [
        {
          "internalType": "address",
          "name": "outputToken",
          "type": "address"
        },
        {
          "internalType": "uint256",
          "name": "tokensToRelease",
          "type": "uint256"
        }
      ],
      "name": "withdrawLiquidity",
      "outputs": [
        {
          "internalType": "uint256",
          "name": "deltaSCX",
          "type": "uint256"
        }
      ],
      "stateMutability": "payable",
      "type": "function",
      "payable": true
    },
    {
      "inputs": [
        {
          "internalType": "address",
          "name": "outputToken",
          "type": "address"
        },
        {
          "internalType": "uint256",
          "name": "tokensToRelease",
          "type": "uint256"
        },
        {
          "internalType": "uint256",
          "name": "scx",
          "type": "uint256"
        },
        {
          "internalType": "uint256",
          "name": "passes",
          "type": "uint256"
        }
      ],
      "name": "withdrawLiquidityFindSCX",
      "outputs": [
        {
          "internalType": "uint256",
          "name": "",
          "type": "uint256"
        }
      ],
      "stateMutability": "view",
      "type": "function",
      "constant": true
    },
    {
      "inputs": [
        {
          "internalType": "uint256",
          "name": "amount",
          "type": "uint256"
        },
        {
          "internalType": "address",
          "name": "flashLoanContract",
          "type": "address"
        }
      ],
      "name": "grantFlashLoan",
      "outputs": [],
      "stateMutability": "nonpayable",
      "type": "function"
    },
    {
      "inputs": [
        {
          "internalType": "address",
          "name": "user",
          "type": "address"
        },
        {
          "internalType": "bool",
          "name": "whiteList",
          "type": "bool"
        }
      ],
      "name": "setWhiteListUser",
      "outputs": [],
      "stateMutability": "nonpayable",
      "type": "function"
    },
    {
      "inputs": [
        {
          "internalType": "address",
          "name": "token",
          "type": "address"
        },
        {
          "internalType": "bool",
          "name": "valid",
          "type": "bool"
        },
        {
          "internalType": "bool",
          "name": "burnable",
          "type": "bool"
        }
      ],
      "name": "setValidToken",
      "outputs": [],
      "stateMutability": "nonpayable",
      "type": "function"
    }
  ],
  "bytecode": "0x60806040523480156200001157600080fd5b50336000806101000a81548173ffffffffffffffffffffffffffffffffffffffff021916908373ffffffffffffffffffffffffffffffffffffffff1602179055503373ffffffffffffffffffffffffffffffffffffffff16600073ffffffffffffffffffffffffffffffffffffffff167f8be0079c531659141344cd1fd0a4f28419497f9722a3daafe3b4186f6b6457e060405160405180910390a3601e600a60000160006101000a81548160ff021916908360ff160217905550605a600a60000160016101000a81548160ff021916908360ff16021790555060005b60038160ff1610156200013b57600160108260ff16600381106200010e57fe5b602091828204019190066101000a81548160ff0219169083151502179055508080600101915050620000ee565b506155c3806200014c6000396000f3fe60806040526004361061020e5760003560e01c806370a0823111610118578063a9059cbb116100a0578063e22bcf841161006f578063e22bcf8414610d66578063e2fc9d0014610dcd578063f2fde38b14610e36578063fe02915614610e87578063fe25e00a14610f155761020e565b8063a9059cbb14610bae578063d2cb010014610c1f578063dd62ed3e14610c7a578063e12fb1b914610cff5761020e565b80637b12a62c116100e75780637b12a62c14610a075780637cd07e4714610a355780638da5cb5b14610a7657806395d89b4114610ab7578063a451a2c114610b475761020e565b806370a08231146108b9578063715018a61461091e57806372c3fdd91461093557806379502c55146109b85761020e565b806323cf31181161019b57806342966c681161016a57806342966c681461067b578063475c4fdd146106cc57806356688700146107bd578063572861bc1461081f5780636bd50cef1461086a5761020e565b806323cf31181461055e578063313ce567146105af578063349849a3146105dd5780633f40d3a31461061e5761020e565b806307d44e1a116101e257806307d44e1a146103c5578063095ea7b31461040657806318160ddd1461047757806321b77d63146104a257806323b872dd146104cd5761020e565b80627ed4fe146102135780630319f4c61461027857806306d47de9146102d357806306fdde0314610335575b600080fd5b34801561021f57600080fd5b506102766004803603606081101561023657600080fd5b810190808035906020019092919080359060200190929190803573ffffffffffffffffffffffffffffffffffffffff169060200190929190505050610f56565b005b34801561028457600080fd5b506102d16004803603604081101561029b57600080fd5b8101908080359060200190929190803573ffffffffffffffffffffffffffffffffffffffff16906020019092919050505061108e565b005b61031f600480360360408110156102e957600080fd5b81019080803573ffffffffffffffffffffffffffffffffffffffff16906020019092919080359060200190929190505050611351565b6040518082815260200191505060405180910390f35b34801561034157600080fd5b5061034a611c92565b6040518080602001828103825283818151815260200191508051906020019080838360005b8381101561038a57808201518184015260208101905061036f565b50505050905090810190601f1680156103b75780820380516001836020036101000a031916815260200191505b509250505060405180910390f35b3480156103d157600080fd5b506103da611ccf565b604051808273ffffffffffffffffffffffffffffffffffffffff16815260200191505060405180910390f35b34801561041257600080fd5b5061045f6004803603604081101561042957600080fd5b81019080803573ffffffffffffffffffffffffffffffffffffffff16906020019092919080359060200190929190505050611cf5565b60405180821515815260200191505060405180910390f35b34801561048357600080fd5b5061048c611d0c565b6040518082815260200191505060405180910390f35b3480156104ae57600080fd5b506104b7611d16565b6040518082815260200191505060405180910390f35b3480156104d957600080fd5b50610546600480360360608110156104f057600080fd5b81019080803573ffffffffffffffffffffffffffffffffffffffff169060200190929190803573ffffffffffffffffffffffffffffffffffffffff16906020019092919080359060200190929190505050611d1f565b60405180821515815260200191505060405180910390f35b34801561056a57600080fd5b506105ad6004803603602081101561058157600080fd5b81019080803573ffffffffffffffffffffffffffffffffffffffff169060200190929190505050611dea565b005b3480156105bb57600080fd5b506105c4611eef565b604051808260ff16815260200191505060405180910390f35b3480156105e957600080fd5b506105f2611ef8565b604051808273ffffffffffffffffffffffffffffffffffffffff16815260200191505060405180910390f35b34801561062a57600080fd5b506106796004803603604081101561064157600080fd5b81019080803573ffffffffffffffffffffffffffffffffffffffff169060200190929190803515159060200190929190505050611f1e565b005b34801561068757600080fd5b506106b46004803603602081101561069e57600080fd5b810190808035906020019092919050505061203a565b60405180821515815260200191505060405180910390f35b3480156106d857600080fd5b506107bb600480360360c08110156106ef57600080fd5b81019080803573ffffffffffffffffffffffffffffffffffffffff169060200190929190803573ffffffffffffffffffffffffffffffffffffffff169060200190929190803573ffffffffffffffffffffffffffffffffffffffff169060200190929190803573ffffffffffffffffffffffffffffffffffffffff169060200190929190803573ffffffffffffffffffffffffffffffffffffffff169060200190929190803573ffffffffffffffffffffffffffffffffffffffff16906020019092919050505061204f565b005b610809600480360360408110156107d357600080fd5b81019080803573ffffffffffffffffffffffffffffffffffffffff169060200190929190803590602001909291905050506122a4565b6040518082815260200191505060405180910390f35b34801561082b57600080fd5b506108686004803603604081101561084257600080fd5b81019080803560ff169060200190929190803560ff169060200190929190505050612adc565b005b34801561087657600080fd5b5061087f612bdd565b604051808481526020018381526020018273ffffffffffffffffffffffffffffffffffffffff168152602001935050505060405180910390f35b3480156108c557600080fd5b50610908600480360360208110156108dc57600080fd5b81019080803573ffffffffffffffffffffffffffffffffffffffff169060200190929190505050612c1f565b6040518082815260200191505060405180910390f35b34801561092a57600080fd5b50610933612c68565b005b34801561094157600080fd5b506109a26004803603608081101561095857600080fd5b81019080803573ffffffffffffffffffffffffffffffffffffffff169060200190929190803590602001909291908035906020019092919080359060200190929190505050612de7565b6040518082815260200191505060405180910390f35b3480156109c457600080fd5b506109cd613034565b604051808481526020018381526020018273ffffffffffffffffffffffffffffffffffffffff168152602001935050505060405180910390f35b348015610a1357600080fd5b50610a1c61306c565b604051808260ff16815260200191505060405180910390f35b348015610a4157600080fd5b50610a4a613086565b604051808273ffffffffffffffffffffffffffffffffffffffff16815260200191505060405180910390f35b348015610a8257600080fd5b50610a8b6130ac565b604051808273ffffffffffffffffffffffffffffffffffffffff16815260200191505060405180910390f35b348015610ac357600080fd5b50610acc6130d5565b6040518080602001828103825283818151815260200191508051906020019080838360005b83811015610b0c578082015181840152602081019050610af1565b50505050905090810190601f168015610b395780820380516001836020036101000a031916815260200191505b509250505060405180910390f35b348015610b5357600080fd5b50610b9660048036036020811015610b6a57600080fd5b81019080803573ffffffffffffffffffffffffffffffffffffffff169060200190929190505050613112565b60405180821515815260200191505060405180910390f35b348015610bba57600080fd5b50610c0760048036036040811015610bd157600080fd5b81019080803573ffffffffffffffffffffffffffffffffffffffff16906020019092919080359060200190929190505050613132565b60405180821515815260200191505060405180910390f35b348015610c2b57600080fd5b50610c7860048036036040811015610c4257600080fd5b81019080803573ffffffffffffffffffffffffffffffffffffffff16906020019092919080359060200190929190505050613149565b005b348015610c8657600080fd5b50610ce960048036036040811015610c9d57600080fd5b81019080803573ffffffffffffffffffffffffffffffffffffffff169060200190929190803573ffffffffffffffffffffffffffffffffffffffff1690602001909291905050506131fd565b6040518082815260200191505060405180910390f35b348015610d0b57600080fd5b50610d4e60048036036020811015610d2257600080fd5b81019080803573ffffffffffffffffffffffffffffffffffffffff169060200190929190505050613284565b60405180821515815260200191505060405180910390f35b348015610d7257600080fd5b50610db560048036036020811015610d8957600080fd5b81019080803573ffffffffffffffffffffffffffffffffffffffff1690602001909291905050506132a4565b60405180821515815260200191505060405180910390f35b348015610dd957600080fd5b50610e3460048036036060811015610df057600080fd5b81019080803573ffffffffffffffffffffffffffffffffffffffff1690602001909291908035151590602001909291908035151590602001909291905050506132c4565b005b348015610e4257600080fd5b50610e8560048036036020811015610e5957600080fd5b81019080803573ffffffffffffffffffffffffffffffffffffffff1690602001909291905050506133d1565b005b610efd60048036036080811015610e9d57600080fd5b81019080803573ffffffffffffffffffffffffffffffffffffffff169060200190929190803573ffffffffffffffffffffffffffffffffffffffff16906020019092919080359060200190929190803590602001909291905050506135d5565b60405180821515815260200191505060405180910390f35b348015610f2157600080fd5b50610f2a61427b565b604051808273ffffffffffffffffffffffffffffffffffffffff16815260200191505060405180910390f35b3373ffffffffffffffffffffffffffffffffffffffff1660008054906101000a900473ffffffffffffffffffffffffffffffffffffffff1673ffffffffffffffffffffffffffffffffffffffff1614611017576040517f08c379a00000000000000000000000000000000000000000000000000000000081526004018080602001828103825260208152602001807f4f776e61626c653a2063616c6c6572206973206e6f7420746865206f776e657281525060200191505060405180910390fd5b6103e8600560010154600560000154011061103157600080fd5b826005600001819055508160056001018190555080600560020160006101000a81548173ffffffffffffffffffffffffffffffffffffffff021916908373ffffffffffffffffffffffffffffffffffffffff160217905550505050565b600e60009054906101000a900473ffffffffffffffffffffffffffffffffffffffff1673ffffffffffffffffffffffffffffffffffffffff16630e7fc864336040518263ffffffff1660e01b8152600401808273ffffffffffffffffffffffffffffffffffffffff168152602001915050602060405180830381600087803b15801561111957600080fd5b505af115801561112d573d6000803e3d6000fd5b505050506040513d602081101561114357600080fd5b81019080805190602001909291905050506111a9576040517f08c379a000000000000000000000000000000000000000000000000000000000815260040180806020018281038252602181526020018061548e6021913960400191505060405180910390fd5b6111fb82600160008473ffffffffffffffffffffffffffffffffffffffff1673ffffffffffffffffffffffffffffffffffffffff168152602001908152602001600020546142a190919063ffffffff16565b600160008373ffffffffffffffffffffffffffffffffffffffff1673ffffffffffffffffffffffffffffffffffffffff168152602001908152602001600020819055508073ffffffffffffffffffffffffffffffffffffffff1663614619546040518163ffffffff1660e01b8152600401600060405180830381600087803b15801561128657600080fd5b505af115801561129a573d6000803e3d6000fd5b5050505061130a826040518060600160405280602481526020016154f760249139600160008573ffffffffffffffffffffffffffffffffffffffff1673ffffffffffffffffffffffffffffffffffffffff168152602001908152602001600020546143299092919063ffffffff16565b600160008373ffffffffffffffffffffffffffffffffffffffff1673ffffffffffffffffffffffffffffffffffffffff168152602001908152602001600020819055505050565b600082600034111561144957600b60009054906101000a900473ffffffffffffffffffffffffffffffffffffffff1673ffffffffffffffffffffffffffffffffffffffff168173ffffffffffffffffffffffffffffffffffffffff1614611403576040517f08c379a00000000000000000000000000000000000000000000000000000000081526004018080602001828103825260298152602001806153fa6029913960400191505060405180910390fd5b30600f60006101000a81548173ffffffffffffffffffffffffffffffffffffffff021916908373ffffffffffffffffffffffffffffffffffffffff16021790555061148b565b33600f60006101000a81548173ffffffffffffffffffffffffffffffffffffffff021916908373ffffffffffffffffffffffffffffffffffffffff1602179055505b83601360003373ffffffffffffffffffffffffffffffffffffffff1673ffffffffffffffffffffffffffffffffffffffff16815260200190815260200160002060009054906101000a900460ff168061152d5750601260008273ffffffffffffffffffffffffffffffffffffffff1673ffffffffffffffffffffffffffffffffffffffff16815260200190815260200160002060009054906101000a900460ff165b806115be5750600073ffffffffffffffffffffffffffffffffffffffff168173ffffffffffffffffffffffffffffffffffffffff16141580156115bd5750600b60009054906101000a900473ffffffffffffffffffffffffffffffffffffffff1673ffffffffffffffffffffffffffffffffffffffff168173ffffffffffffffffffffffffffffffffffffffff16145b5b611630576040517f08c379a00000000000000000000000000000000000000000000000000000000081526004018080602001828103825260178152602001807f4245484f444c45523a20746f6b656e20696e76616c696400000000000000000081525060200191505060405180910390fd5b6002600081600281111561164057fe5b90506010816003811061164f57fe5b602091828204019190069054906101000a900460ff166116ba576040517f08c379a000000000000000000000000000000000000000000000000000000000815260040180806020018281038252602281526020018061546c6022913960400191505060405180910390fd5b6000601082600381106116c957fe5b602091828204019190066101000a81548160ff02191690831515021790555060008773ffffffffffffffffffffffffffffffffffffffff1673__AddressBalanceCheck___________________63eedc966a90916040518263ffffffff1660e01b8152600401808273ffffffffffffffffffffffffffffffffffffffff16815260200191505060206040518083038186803b15801561176757600080fd5b505af415801561177b573d6000803e3d6000fd5b505050506040513d602081101561179157600080fd5b8101908080519060200190929190505050905060006117b988836143e990919063ffffffff16565b905064e8d4a510008111611835576040517f08c379a00000000000000000000000000000000000000000000000000000000081526004018080602001828103825260178152602001807f4245484f444c45523a206d696e206c697175696469747900000000000000000081525060200191505060405180910390fd5b600a60000160019054906101000a900460ff1660ff166118718361186360648c61443390919063ffffffff16565b6144b990919063ffffffff16565b11156118c8576040517f08c379a000000000000000000000000000000000000000000000000000000000815260040180806020018281038252602981526020018061551b6029913960400191505060405180910390fd5b60006118d383614503565b905060006118e083614503565b9050600183116118f15760006118f3565b805b820398506000600160003373ffffffffffffffffffffffffffffffffffffffff1673ffffffffffffffffffffffffffffffffffffffff168152602001908152602001600020549050808a1115611966576000818b03905060008b61271083028161195957fe5b04141561196457819a505b505b611970338b61461e565b600b60009054906101000a900473ffffffffffffffffffffffffffffffffffffffff1673ffffffffffffffffffffffffffffffffffffffff168c73ffffffffffffffffffffffffffffffffffffffff161415611b1e57600b60009054906101000a900473ffffffffffffffffffffffffffffffffffffffff1673ffffffffffffffffffffffffffffffffffffffff16632e1a7d4d8c6040518263ffffffff1660e01b815260040180828152602001915050600060405180830381600087803b158015611a3b57600080fd5b505af1158015611a4f573d6000803e3d6000fd5b50505050600033905060008173ffffffffffffffffffffffffffffffffffffffff168d60405180600001905060006040518083038185875af1925050503d8060008114611ab8576040519150601f19603f3d011682016040523d82523d6000602084013e611abd565b606091505b5050905080611b17576040517f08c379a00000000000000000000000000000000000000000000000000000000081526004018080602001828103825260248152602001806154af6024913960400191505060405180910390fd5b5050611bda565b8b73ffffffffffffffffffffffffffffffffffffffff1673__AddressBalanceCheck___________________63078d3b799091338e6040518463ffffffff1660e01b8152600401808473ffffffffffffffffffffffffffffffffffffffff1681526020018373ffffffffffffffffffffffffffffffffffffffff168152602001828152602001935050505060006040518083038186803b158015611bc157600080fd5b505af4158015611bd5573d6000803e3d6000fd5b505050505b7fba0b893b2f314a229997e335266881b5ac6b290bd350d2c23cc57160b77882b8338d8d8d604051808573ffffffffffffffffffffffffffffffffffffffff1681526020018473ffffffffffffffffffffffffffffffffffffffff16815260200183815260200182815260200194505050505060405180910390a15050505050600160108260038110611c6957fe5b602091828204019190066101000a81548160ff0219169083151502179055505050505092915050565b60606040518060400160405280600881526020017f5363617263697479000000000000000000000000000000000000000000000000815250905090565b600c60009054906101000a900473ffffffffffffffffffffffffffffffffffffffff1681565b6000611d02338484614740565b6001905092915050565b6000600354905090565b64e8d4a5100081565b6000611d2c848484614937565b611ddf8433611dda8560405180606001604052806028815260200161544460289139600260008b73ffffffffffffffffffffffffffffffffffffffff1673ffffffffffffffffffffffffffffffffffffffff16815260200190815260200160002060003373ffffffffffffffffffffffffffffffffffffffff1673ffffffffffffffffffffffffffffffffffffffff168152602001908152602001600020546143299092919063ffffffff16565b614740565b600190509392505050565b3373ffffffffffffffffffffffffffffffffffffffff1660008054906101000a900473ffffffffffffffffffffffffffffffffffffffff1673ffffffffffffffffffffffffffffffffffffffff1614611eab576040517f08c379a00000000000000000000000000000000000000000000000000000000081526004018080602001828103825260208152602001807f4f776e61626c653a2063616c6c6572206973206e6f7420746865206f776e657281525060200191505060405180910390fd5b80600460006101000a81548173ffffffffffffffffffffffffffffffffffffffff021916908373ffffffffffffffffffffffffffffffffffffffff16021790555050565b60006012905090565b600b60009054906101000a900473ffffffffffffffffffffffffffffffffffffffff1681565b3373ffffffffffffffffffffffffffffffffffffffff1660008054906101000a900473ffffffffffffffffffffffffffffffffffffffff1673ffffffffffffffffffffffffffffffffffffffff1614611fdf576040517f08c379a00000000000000000000000000000000000000000000000000000000081526004018080602001828103825260208152602001807f4f776e61626c653a2063616c6c6572206973206e6f7420746865206f776e657281525060200191505060405180910390fd5b80601360008473ffffffffffffffffffffffffffffffffffffffff1673ffffffffffffffffffffffffffffffffffffffff16815260200190815260200160002060006101000a81548160ff0219169083151502179055505050565b6000612046338361461e565b60019050919050565b3373ffffffffffffffffffffffffffffffffffffffff1660008054906101000a900473ffffffffffffffffffffffffffffffffffffffff1673ffffffffffffffffffffffffffffffffffffffff1614612110576040517f08c379a00000000000000000000000000000000000000000000000000000000081526004018080602001828103825260208152602001807f4f776e61626c653a2063616c6c6572206973206e6f7420746865206f776e657281525060200191505060405180910390fd5b85600b60006101000a81548173ffffffffffffffffffffffffffffffffffffffff021916908373ffffffffffffffffffffffffffffffffffffffff16021790555084600c60006101000a81548173ffffffffffffffffffffffffffffffffffffffff021916908373ffffffffffffffffffffffffffffffffffffffff16021790555083600e60006101000a81548173ffffffffffffffffffffffffffffffffffffffff021916908373ffffffffffffffffffffffffffffffffffffffff16021790555082600d60006101000a81548173ffffffffffffffffffffffffffffffffffffffff021916908373ffffffffffffffffffffffffffffffffffffffff16021790555081600860010160006101000a81548173ffffffffffffffffffffffffffffffffffffffff021916908373ffffffffffffffffffffffffffffffffffffffff16021790555080600860000160006101000a81548173ffffffffffffffffffffffffffffffffffffffff021916908373ffffffffffffffffffffffffffffffffffffffff160217905550505050505050565b600082600034111561239c57600b60009054906101000a900473ffffffffffffffffffffffffffffffffffffffff1673ffffffffffffffffffffffffffffffffffffffff168173ffffffffffffffffffffffffffffffffffffffff1614612356576040517f08c379a00000000000000000000000000000000000000000000000000000000081526004018080602001828103825260298152602001806153fa6029913960400191505060405180910390fd5b30600f60006101000a81548173ffffffffffffffffffffffffffffffffffffffff021916908373ffffffffffffffffffffffffffffffffffffffff1602179055506123de565b33600f60006101000a81548173ffffffffffffffffffffffffffffffffffffffff021916908373ffffffffffffffffffffffffffffffffffffffff1602179055505b83601360003373ffffffffffffffffffffffffffffffffffffffff1673ffffffffffffffffffffffffffffffffffffffff16815260200190815260200160002060009054906101000a900460ff16806124805750601260008273ffffffffffffffffffffffffffffffffffffffff1673ffffffffffffffffffffffffffffffffffffffff16815260200190815260200160002060009054906101000a900460ff165b806125115750600073ffffffffffffffffffffffffffffffffffffffff168173ffffffffffffffffffffffffffffffffffffffff16141580156125105750600b60009054906101000a900473ffffffffffffffffffffffffffffffffffffffff1673ffffffffffffffffffffffffffffffffffffffff168173ffffffffffffffffffffffffffffffffffffffff16145b5b612583576040517f08c379a00000000000000000000000000000000000000000000000000000000081526004018080602001828103825260178152602001807f4245484f444c45523a20746f6b656e20696e76616c696400000000000000000081525060200191505060405180910390fd5b6001600081600281111561259357fe5b9050601081600381106125a257fe5b602091828204019190069054906101000a900460ff1661260d576040517f08c379a000000000000000000000000000000000000000000000000000000000815260040180806020018281038252602281526020018061546c6022913960400191505060405180910390fd5b60006010826003811061261c57fe5b602091828204019190066101000a81548160ff021916908315150217905550600061270a8873ffffffffffffffffffffffffffffffffffffffff1673__AddressBalanceCheck___________________637fed018f909164e8d4a510006040518363ffffffff1660e01b8152600401808373ffffffffffffffffffffffffffffffffffffffff1681526020018281526020019250505060206040518083038186803b1580156126ca57600080fd5b505af41580156126de573d6000803e3d6000fd5b505050506040513d60208110156126f457600080fd5b8101908080519060200190929190505050614da8565b600f0b9050600b60009054906101000a900473ffffffffffffffffffffffffffffffffffffffff1673ffffffffffffffffffffffffffffffffffffffff168873ffffffffffffffffffffffffffffffffffffffff161415612845578634146127bd576040517f08c379a00000000000000000000000000000000000000000000000000000000081526004018080602001828103825260218152602001806155446021913960400191505060405180910390fd5b600b60009054906101000a900473ffffffffffffffffffffffffffffffffffffffff1673ffffffffffffffffffffffffffffffffffffffff1663d0e30db0346040518263ffffffff1660e01b81526004016000604051808303818588803b15801561282757600080fd5b505af115801561283b573d6000803e3d6000fd5b5050505050612923565b8773ffffffffffffffffffffffffffffffffffffffff1673__AddressBalanceCheck___________________63e4652f499091600f60009054906101000a900473ffffffffffffffffffffffffffffffffffffffff168a6040518463ffffffff1660e01b8152600401808473ffffffffffffffffffffffffffffffffffffffff1681526020018373ffffffffffffffffffffffffffffffffffffffff168152602001828152602001935050505060006040518083038186803b15801561290a57600080fd5b505af415801561291e573d6000803e3d6000fd5b505050505b600061296061295b64e8d4a5100061294d61293e8d8d614dcb565b8c6143e990919063ffffffff16565b6144b990919063ffffffff16565b614da8565b600f0b9050600061297a82846142a190919063ffffffff16565b905064e8d4a510008110156129f7576040517f08c379a00000000000000000000000000000000000000000000000000000000081526004018080602001828103825260188152602001807f4245484f444c45523a206d696e206c69717569646974792e000000000000000081525060200191505060405180910390fd5b60018311612a06576000612a10565b612a0f83614503565b5b612a1982614503565b039750612a2633896150af565b7f36f3b2e1a21c19137dd82ec243b0708a1d26b3d1fa1dc49c44c4c366a5878138338b8b8b604051808573ffffffffffffffffffffffffffffffffffffffff1681526020018473ffffffffffffffffffffffffffffffffffffffff16815260200183815260200182815260200194505050505060405180910390a1505050600160108260038110612ab357fe5b602091828204019190066101000a81548160ff0219169083151502179055505050505092915050565b3373ffffffffffffffffffffffffffffffffffffffff1660008054906101000a900473ffffffffffffffffffffffffffffffffffffffff1673ffffffffffffffffffffffffffffffffffffffff1614612b9d576040517f08c379a00000000000000000000000000000000000000000000000000000000081526004018080602001828103825260208152602001807f4f776e61626c653a2063616c6c6572206973206e6f7420746865206f776e657281525060200191505060405180910390fd5b81600a60000160006101000a81548160ff021916908360ff16021790555080600a60000160016101000a81548160ff021916908360ff1602179055505050565b6000806000600560000154600560010154600560020160009054906101000a900473ffffffffffffffffffffffffffffffffffffffff16925092509250909192565b6000600160008373ffffffffffffffffffffffffffffffffffffffff1673ffffffffffffffffffffffffffffffffffffffff168152602001908152602001600020549050919050565b3373ffffffffffffffffffffffffffffffffffffffff1660008054906101000a900473ffffffffffffffffffffffffffffffffffffffff1673ffffffffffffffffffffffffffffffffffffffff1614612d29576040517f08c379a00000000000000000000000000000000000000000000000000000000081526004018080602001828103825260208152602001807f4f776e61626c653a2063616c6c6572206973206e6f7420746865206f776e657281525060200191505060405180910390fd5b600073ffffffffffffffffffffffffffffffffffffffff1660008054906101000a900473ffffffffffffffffffffffffffffffffffffffff1673ffffffffffffffffffffffffffffffffffffffff167f8be0079c531659141344cd1fd0a4f28419497f9722a3daafe3b4186f6b6457e060405160405180910390a360008060006101000a81548173ffffffffffffffffffffffffffffffffffffffff021916908373ffffffffffffffffffffffffffffffffffffffff160217905550565b6000808573ffffffffffffffffffffffffffffffffffffffff1673__AddressBalanceCheck___________________63eedc966a90916040518263ffffffff1660e01b8152600401808273ffffffffffffffffffffffffffffffffffffffff16815260200191505060206040518083038186803b158015612e6757600080fd5b505af4158015612e7b573d6000803e3d6000fd5b505050506040513d6020811015612e9157600080fd5b810190808051906020019092919050505090506000805b848110156130255760008873ffffffffffffffffffffffffffffffffffffffff1673__AddressBalanceCheck___________________63eedc966a90916040518263ffffffff1660e01b8152600401808273ffffffffffffffffffffffffffffffffffffffff16815260200191505060206040518083038186803b158015612f2f57600080fd5b505af4158015612f43573d6000803e3d6000fd5b505050506040513d6020811015612f5957600080fd5b810190808051906020019092919050505090506000612f8189836143e990919063ffffffff16565b90506000612f8e83614503565b90506000612f9b83614503565b9050600060018411612fae576000612fb0565b815b830390506000818c0390506000811415612fd5578c995050505050505050505061302c565b6000811215612fe95760018d039850612ff0565b60018d0197505b876002898b0381612ffd57fe5b04019c50858d1161300e578c613010565b855b9c505050505050508080600101915050612ea8565b5085925050505b949350505050565b60058060000154908060010154908060020160009054906101000a900473ffffffffffffffffffffffffffffffffffffffff16905083565b6000600a60000160019054906101000a900460ff16905090565b600460009054906101000a900473ffffffffffffffffffffffffffffffffffffffff1681565b60008060009054906101000a900473ffffffffffffffffffffffffffffffffffffffff16905090565b60606040518060400160405280600381526020017f5343580000000000000000000000000000000000000000000000000000000000815250905090565b60116020528060005260406000206000915054906101000a900460ff1681565b600061313f338484614937565b6001905092915050565b600460009054906101000a900473ffffffffffffffffffffffffffffffffffffffff1673ffffffffffffffffffffffffffffffffffffffff163373ffffffffffffffffffffffffffffffffffffffff16146131ef576040517f08c379a00000000000000000000000000000000000000000000000000000000081526004018080602001828103825260218152602001806153436021913960400191505060405180910390fd5b6131f982826150af565b5050565b6000600260008473ffffffffffffffffffffffffffffffffffffffff1673ffffffffffffffffffffffffffffffffffffffff16815260200190815260200160002060008373ffffffffffffffffffffffffffffffffffffffff1673ffffffffffffffffffffffffffffffffffffffff16815260200190815260200160002054905092915050565b60126020528060005260406000206000915054906101000a900460ff1681565b60136020528060005260406000206000915054906101000a900460ff1681565b600c60009054906101000a900473ffffffffffffffffffffffffffffffffffffffff1673ffffffffffffffffffffffffffffffffffffffff163373ffffffffffffffffffffffffffffffffffffffff161461331e57600080fd5b81601260008573ffffffffffffffffffffffffffffffffffffffff1673ffffffffffffffffffffffffffffffffffffffff16815260200190815260200160002060006101000a81548160ff02191690831515021790555080601160008573ffffffffffffffffffffffffffffffffffffffff1673ffffffffffffffffffffffffffffffffffffffff16815260200190815260200160002060006101000a81548160ff021916908315150217905550505050565b3373ffffffffffffffffffffffffffffffffffffffff1660008054906101000a900473ffffffffffffffffffffffffffffffffffffffff1673ffffffffffffffffffffffffffffffffffffffff1614613492576040517f08c379a00000000000000000000000000000000000000000000000000000000081526004018080602001828103825260208152602001807f4f776e61626c653a2063616c6c6572206973206e6f7420746865206f776e657281525060200191505060405180910390fd5b600073ffffffffffffffffffffffffffffffffffffffff168173ffffffffffffffffffffffffffffffffffffffff161415613518576040517f08c379a00000000000000000000000000000000000000000000000000000000081526004018080602001828103825260268152602001806153646026913960400191505060405180910390fd5b8073ffffffffffffffffffffffffffffffffffffffff1660008054906101000a900473ffffffffffffffffffffffffffffffffffffffff1673ffffffffffffffffffffffffffffffffffffffff167f8be0079c531659141344cd1fd0a4f28419497f9722a3daafe3b4186f6b6457e060405160405180910390a3806000806101000a81548173ffffffffffffffffffffffffffffffffffffffff021916908373ffffffffffffffffffffffffffffffffffffffff16021790555050565b60008460003411156136cd57600b60009054906101000a900473ffffffffffffffffffffffffffffffffffffffff1673ffffffffffffffffffffffffffffffffffffffff168173ffffffffffffffffffffffffffffffffffffffff1614613687576040517f08c379a00000000000000000000000000000000000000000000000000000000081526004018080602001828103825260298152602001806153fa6029913960400191505060405180910390fd5b30600f60006101000a81548173ffffffffffffffffffffffffffffffffffffffff021916908373ffffffffffffffffffffffffffffffffffffffff16021790555061370f565b33600f60006101000a81548173ffffffffffffffffffffffffffffffffffffffff021916908373ffffffffffffffffffffffffffffffffffffffff1602179055505b85601360003373ffffffffffffffffffffffffffffffffffffffff1673ffffffffffffffffffffffffffffffffffffffff16815260200190815260200160002060009054906101000a900460ff16806137b15750601260008273ffffffffffffffffffffffffffffffffffffffff1673ffffffffffffffffffffffffffffffffffffffff16815260200190815260200160002060009054906101000a900460ff165b806138425750600073ffffffffffffffffffffffffffffffffffffffff168173ffffffffffffffffffffffffffffffffffffffff16141580156138415750600b60009054906101000a900473ffffffffffffffffffffffffffffffffffffffff1673ffffffffffffffffffffffffffffffffffffffff168173ffffffffffffffffffffffffffffffffffffffff16145b5b6138b4576040517f08c379a00000000000000000000000000000000000000000000000000000000081526004018080602001828103825260178152602001807f4245484f444c45523a20746f6b656e20696e76616c696400000000000000000081525060200191505060405180910390fd5b6000808160028111156138c357fe5b9050601081600381106138d257fe5b602091828204019190069054906101000a900460ff1661393d576040517f08c379a000000000000000000000000000000000000000000000000000000000815260040180806020018281038252602281526020018061546c6022913960400191505060405180910390fd5b60006010826003811061394c57fe5b602091828204019190066101000a81548160ff02191690831515021790555060008973ffffffffffffffffffffffffffffffffffffffff1673__AddressBalanceCheck___________________63eedc966a90916040518263ffffffff1660e01b8152600401808273ffffffffffffffffffffffffffffffffffffffff16815260200191505060206040518083038186803b1580156139ea57600080fd5b505af41580156139fe573d6000803e3d6000fd5b505050506040513d6020811015613a1457600080fd5b81019080805190602001909291905050509050600b60009054906101000a900473ffffffffffffffffffffffffffffffffffffffff1673ffffffffffffffffffffffffffffffffffffffff168a73ffffffffffffffffffffffffffffffffffffffff161415613b5d57873414613ad5576040517f08c379a00000000000000000000000000000000000000000000000000000000081526004018080602001828103825260218152602001806155446021913960400191505060405180910390fd5b600b60009054906101000a900473ffffffffffffffffffffffffffffffffffffffff1673ffffffffffffffffffffffffffffffffffffffff1663d0e30db0346040518263ffffffff1660e01b81526004016000604051808303818588803b158015613b3f57600080fd5b505af1158015613b53573d6000803e3d6000fd5b5050505050613c3b565b8973ffffffffffffffffffffffffffffffffffffffff1673__AddressBalanceCheck___________________63e4652f499091600f60009054906101000a900473ffffffffffffffffffffffffffffffffffffffff168b6040518463ffffffff1660e01b8152600401808473ffffffffffffffffffffffffffffffffffffffff1681526020018373ffffffffffffffffffffffffffffffffffffffff168152602001828152602001935050505060006040518083038186803b158015613c2257600080fd5b505af4158015613c36573d6000803e3d6000fd5b505050505b6000613c59613c4a8c8b614dcb565b8a6143e990919063ffffffff16565b905060008a73ffffffffffffffffffffffffffffffffffffffff1673__AddressBalanceCheck___________________63eedc966a90916040518263ffffffff1660e01b8152600401808273ffffffffffffffffffffffffffffffffffffffff16815260200191505060206040518083038186803b158015613cda57600080fd5b505af4158015613cee573d6000803e3d6000fd5b505050506040513d6020811015613d0457600080fd5b81019080805190602001909291905050509050600a60000160019054906101000a900460ff1660ff16613d5382613d4560648d61443390919063ffffffff16565b6144b990919063ffffffff16565b1115613daa576040517f08c379a000000000000000000000000000000000000000000000000000000000815260040180806020018281038252602981526020018061551b6029913960400191505060405180910390fd5b6000613dbf83856142a190919063ffffffff16565b90506000613dd68b846143e990919063ffffffff16565b90506000613e0583600a60000160009054906101000a900460ff1660ff1688901b6144b990919063ffffffff16565b90506000613e3485600a60000160009054906101000a900460ff1660ff1685901b6144b990919063ffffffff16565b905060008214158015613e4657508082145b613eb8576040517f08c379a00000000000000000000000000000000000000000000000000000000081526004018080602001828103825260198152602001807f4245484f444c45523a207377617020696e76617269616e742e0000000000000081525060200191505060405180910390fd5b505064e8d4a51000811015613f35576040517f08c379a00000000000000000000000000000000000000000000000000000000081526004018080602001828103825260188152602001807f4245484f444c45523a206d696e206c69717569646974792e000000000000000081525060200191505060405180910390fd5b600b60009054906101000a900473ffffffffffffffffffffffffffffffffffffffff1673ffffffffffffffffffffffffffffffffffffffff168d73ffffffffffffffffffffffffffffffffffffffff1614156140e357600b60009054906101000a900473ffffffffffffffffffffffffffffffffffffffff1673ffffffffffffffffffffffffffffffffffffffff16632e1a7d4d8c6040518263ffffffff1660e01b815260040180828152602001915050600060405180830381600087803b15801561400057600080fd5b505af1158015614014573d6000803e3d6000fd5b50505050600033905060008173ffffffffffffffffffffffffffffffffffffffff168d60405180600001905060006040518083038185875af1925050503d806000811461407d576040519150601f19603f3d011682016040523d82523d6000602084013e614082565b606091505b50509050806140dc576040517f08c379a00000000000000000000000000000000000000000000000000000000081526004018080602001828103825260248152602001806154af6024913960400191505060405180910390fd5b505061419f565b8c73ffffffffffffffffffffffffffffffffffffffff1673__AddressBalanceCheck___________________63078d3b799091338e6040518463ffffffff1660e01b8152600401808473ffffffffffffffffffffffffffffffffffffffff1681526020018373ffffffffffffffffffffffffffffffffffffffff168152602001828152602001935050505060006040518083038186803b15801561418657600080fd5b505af415801561419a573d6000803e3d6000fd5b505050505b7fcd3829a3813dc3cdd188fd3d01dcf3268c16be2fdd2dd21d0665418816e46062338f8f8f8f604051808673ffffffffffffffffffffffffffffffffffffffff1681526020018573ffffffffffffffffffffffffffffffffffffffff1681526020018473ffffffffffffffffffffffffffffffffffffffff1681526020018381526020018281526020019550505050505060405180910390a160019950505050505060016010826003811061425057fe5b602091828204019190066101000a81548160ff02191690831515021790555050505050949350505050565b600e60009054906101000a900473ffffffffffffffffffffffffffffffffffffffff1681565b60008082840190508381101561431f576040517f08c379a000000000000000000000000000000000000000000000000000000000815260040180806020018281038252601b8152602001807f536166654d6174683a206164646974696f6e206f766572666c6f77000000000081525060200191505060405180910390fd5b8091505092915050565b60008383111582906143d6576040517f08c379a00000000000000000000000000000000000000000000000000000000081526004018080602001828103825283818151815260200191508051906020019080838360005b8381101561439b578082015181840152602081019050614380565b50505050905090810190601f1680156143c85780820380516001836020036101000a031916815260200191505b509250505060405180910390fd5b5060008385039050809150509392505050565b600061442b83836040518060400160405280601e81526020017f536166654d6174683a207375627472616374696f6e206f766572666c6f770000815250614329565b905092915050565b60008083141561444657600090506144b3565b600082840290508284828161445757fe5b04146144ae576040517f08c379a00000000000000000000000000000000000000000000000000000000081526004018080602001828103825260218152602001806154236021913960400191505060405180910390fd5b809150505b92915050565b60006144fb83836040518060400160405280601a81526020017f536166654d6174683a206469766973696f6e206279207a65726f0000000000008152506151d6565b905092915050565b600080821161451157600080fd5b60008083905068010000000000000000811061453557604081901c90506040820191505b640100000000811061454f57602081901c90506020820191505b62010000811061456757601081901c90506010820191505b610100811061457e57600881901c90506008820191505b6010811061459457600481901c90506004820191505b600481106145aa57600281901c90506002820191505b600281106145b9576001820191505b60006040808403901b9050600083607f0386901b9050600067800000000000000090505b6000811115614611578182029150600060ff83901c905080607f0183901c92508082028401935050600181901c90506145dd565b5081945050505050919050565b6146a7816040518060400160405280601c81526020017f53434152434954593a20696e73756666696369656e742066756e647300000000815250600160008673ffffffffffffffffffffffffffffffffffffffff1673ffffffffffffffffffffffffffffffffffffffff168152602001908152602001600020546143299092919063ffffffff16565b600160008473ffffffffffffffffffffffffffffffffffffffff1673ffffffffffffffffffffffffffffffffffffffff168152602001908152602001600020819055506146ff816003546143e990919063ffffffff16565b6003819055507fb90306ad06b2a6ff86ddc9327db583062895ef6540e62dc50add009db5b356eb816040518082815260200191505060405180910390a15050565b600073ffffffffffffffffffffffffffffffffffffffff168373ffffffffffffffffffffffffffffffffffffffff1614156147c6576040517f08c379a00000000000000000000000000000000000000000000000000000000081526004018080602001828103825260248152602001806154d36024913960400191505060405180910390fd5b600073ffffffffffffffffffffffffffffffffffffffff168273ffffffffffffffffffffffffffffffffffffffff16141561484c576040517f08c379a000000000000000000000000000000000000000000000000000000000815260040180806020018281038252602281526020018061538a6022913960400191505060405180910390fd5b80600260008573ffffffffffffffffffffffffffffffffffffffff1673ffffffffffffffffffffffffffffffffffffffff16815260200190815260200160002060008473ffffffffffffffffffffffffffffffffffffffff1673ffffffffffffffffffffffffffffffffffffffff168152602001908152602001600020819055508173ffffffffffffffffffffffffffffffffffffffff168373ffffffffffffffffffffffffffffffffffffffff167f8c5be1e5ebec7d5bd14f71427d1e84f3dd0314c0f7b2291e5b200ac8c7c3b925836040518082815260200191505060405180910390a3505050565b600073ffffffffffffffffffffffffffffffffffffffff168373ffffffffffffffffffffffffffffffffffffffff1614156149bd576040517f08c379a00000000000000000000000000000000000000000000000000000000081526004018080602001828103825260288152602001806153ac6028913960400191505060405180910390fd5b600073ffffffffffffffffffffffffffffffffffffffff168273ffffffffffffffffffffffffffffffffffffffff161415614a43576040517f08c379a00000000000000000000000000000000000000000000000000000000081526004018080602001828103825260268152602001806153d46026913960400191505060405180910390fd5b6000614a716103e8614a638460056000015461443390919063ffffffff16565b6144b990919063ffffffff16565b90506000614aa16103e8614a938560056001015461443390919063ffffffff16565b6144b990919063ffffffff16565b9050614ab8816003546143e990919063ffffffff16565b6003819055507fb90306ad06b2a6ff86ddc9327db583062895ef6540e62dc50add009db5b356eb816040518082815260200191505060405180910390a1614b6c8260016000600560020160009054906101000a900473ffffffffffffffffffffffffffffffffffffffff1673ffffffffffffffffffffffffffffffffffffffff1673ffffffffffffffffffffffffffffffffffffffff168152602001908152602001600020546142a190919063ffffffff16565b60016000600560020160009054906101000a900473ffffffffffffffffffffffffffffffffffffffff1673ffffffffffffffffffffffffffffffffffffffff1673ffffffffffffffffffffffffffffffffffffffff16815260200190815260200160002081905550614c408360405180606001604052806029815260200161556560299139600160008973ffffffffffffffffffffffffffffffffffffffff1673ffffffffffffffffffffffffffffffffffffffff168152602001908152602001600020546143299092919063ffffffff16565b600160008773ffffffffffffffffffffffffffffffffffffffff1673ffffffffffffffffffffffffffffffffffffffff16815260200190815260200160002081905550614cf9614cab614c9c83856142a190919063ffffffff16565b856143e990919063ffffffff16565b600160008773ffffffffffffffffffffffffffffffffffffffff1673ffffffffffffffffffffffffffffffffffffffff168152602001908152602001600020546142a190919063ffffffff16565b600160008673ffffffffffffffffffffffffffffffffffffffff1673ffffffffffffffffffffffffffffffffffffffff168152602001908152602001600020819055508373ffffffffffffffffffffffffffffffffffffffff168573ffffffffffffffffffffffffffffffffffffffff167fddf252ad1be2c89b69c2b068fc378daa952ba7f163c4a11628f55a4df523b3ef856040518082815260200191505060405180910390a35050505050565b6000677fffffffffffffff821115614dbf57600080fd5b604082901b9050919050565b6000601160008473ffffffffffffffffffffffffffffffffffffffff1673ffffffffffffffffffffffffffffffffffffffff16815260200190815260200160002060009054906101000a900460ff1615614e3057614e29838361529c565b90506150a9565b600860000160009054906101000a900473ffffffffffffffffffffffffffffffffffffffff1673ffffffffffffffffffffffffffffffffffffffff168373ffffffffffffffffffffffffffffffffffffffff161415614f9c57614eb56103e8614ea78460056001015461443390919063ffffffff16565b6144b990919063ffffffff16565b90508273ffffffffffffffffffffffffffffffffffffffff1673__AddressBalanceCheck___________________63078d3b799091600860010160009054906101000a900473ffffffffffffffffffffffffffffffffffffffff16846040518463ffffffff1660e01b8152600401808473ffffffffffffffffffffffffffffffffffffffff1681526020018373ffffffffffffffffffffffffffffffffffffffff168152602001828152602001935050505060006040518083038186803b158015614f7f57600080fd5b505af4158015614f93573d6000803e3d6000fd5b505050506150a8565b614fc86103e8614fba8460056001015461443390919063ffffffff16565b6144b990919063ffffffff16565b90508273ffffffffffffffffffffffffffffffffffffffff1673__AddressBalanceCheck___________________63078d3b799091600d60009054906101000a900473ffffffffffffffffffffffffffffffffffffffff16846040518463ffffffff1660e01b8152600401808473ffffffffffffffffffffffffffffffffffffffff1681526020018373ffffffffffffffffffffffffffffffffffffffff168152602001828152602001935050505060006040518083038186803b15801561508f57600080fd5b505af41580156150a3573d6000803e3d6000fd5b505050505b5b92915050565b61510181600160008573ffffffffffffffffffffffffffffffffffffffff1673ffffffffffffffffffffffffffffffffffffffff168152602001908152602001600020546142a190919063ffffffff16565b600160008473ffffffffffffffffffffffffffffffffffffffff1673ffffffffffffffffffffffffffffffffffffffff16815260200190815260200160002081905550615159816003546142a190919063ffffffff16565b6003819055507fab8530f87dc9b59234c4623bf917212bb2536d647574c8e7e5da92c2ede0c9f8338383604051808473ffffffffffffffffffffffffffffffffffffffff1681526020018373ffffffffffffffffffffffffffffffffffffffff168152602001828152602001935050505060405180910390a15050565b60008083118290615282576040517f08c379a00000000000000000000000000000000000000000000000000000000081526004018080602001828103825283818151815260200191508051906020019080838360005b8381101561524757808201518184015260208101905061522c565b50505050905090810190601f1680156152745780820380516001836020036101000a031916815260200191505b509250505060405180910390fd5b50600083858161528e57fe5b049050809150509392505050565b6000806152cb6103e86152bd8560056001015461443390919063ffffffff16565b6144b990919063ffffffff16565b90508373ffffffffffffffffffffffffffffffffffffffff166342966c68826040518263ffffffff1660e01b815260040180828152602001915050600060405180830381600087803b15801561532057600080fd5b505af1158015615334573d6000803e3d6000fd5b50505050809150509291505056fe53434152434954593a204d6967726174696f6e20636f6e7472616374206f6e6c794f776e61626c653a206e6577206f776e657220697320746865207a65726f206164647265737345524332303a20617070726f766520746f20746865207a65726f206164647265737353636172636974793a207472616e736665722066726f6d20746865207a65726f206164647265737353636172636974793a207472616e7366657220746f20746865207a65726f20616464726573734245484f444c45523a20457468206f6e6c792076616c696420666f722057657468207472616465732e536166654d6174683a206d756c7469706c69636174696f6e206f766572666c6f7745524332303a207472616e7366657220616d6f756e74206578636565647320616c6c6f77616e63654245484f444c45523a205265656e7472616e6379206775617264206163746976652e4245484f444c45523a2063616e6e6f7420626f72726f7720666c6173686c6f616e4245484f444c45523a20556e7772617070696e67206f662057657468206661696c65642e45524332303a20617070726f76652066726f6d20746865207a65726f20616464726573734245484f444c45523a20466c6173686c6f616e2072657061796d656e74206661696c65644245484f444c45523a206c6971756964697479207769746864726177616c20746f6f206c617267652e4245484f444c45523a20496e73756666696369656e742045746865722073656e7453636172636974793a207472616e7366657220616d6f756e7420657863656564732062616c616e6365a2646970667358221220597ad4eab00a7e1b54cc302a1263473749b6cf59ea1e33a38353f0254de2e01e64736f6c63430007010033",
  "immutableReferences": {},
  "source": "// SPDX-License-Identifier: MIT\npragma solidity ^0.7.1;\n\nimport \"./openzeppelin/Ownable.sol\";\nimport \"./Scarcity.sol\";\nimport \"./facades/LachesisLike.sol\";\nimport \"./facades/Burnable.sol\";\nimport \"./openzeppelin/SafeMath.sol\";\nimport \"./openzeppelin/IERC20.sol\";\nimport \"./flashLoans/FlashLoanReceiver.sol\";\nimport \"./flashLoans/FlashLoanArbiter.sol\";\n\ninterface IWeth {\n    function deposit() external payable;\n\n    function withdraw(uint256 value) external;\n}\n\nlibrary AddressBalanceCheck {\n    function tokenBalance(address token) public view returns (uint256) {\n        return IERC20(token).balanceOf(address(this));\n    }\n\n    function shiftedBalance(address token, uint256 factor)\n        public\n        view\n        returns (uint256)\n    {\n        return IERC20(token).balanceOf(address(this)) / factor;\n    }\n\n    function transferIn(\n        address token,\n        address sender,\n        uint256 value\n    ) public {\n        IERC20(token).transferFrom(sender, address(this), value);\n    }\n\n    function transferOut(\n        address token,\n        address recipient,\n        uint256 value\n    ) public {\n        IERC20(token).transfer(recipient, value);\n    }\n}\n\n/*To following code is sourced from the ABDK library for assistance in dealing with precision logarithms in Ethereum.\n * ABDK Math 64.64 Smart Contract Library.  Copyright  2019 by ABDK Consulting.\n * Author: Mikhail Vladimirov <mikhail.vladimirov@gmail.com>\n * Source: https://github.com/abdk-consulting/abdk-libraries-solidity/blob/master/ABDKMath64x64.sol#L366\n */\nlibrary ABDK {\n    /*\n     * Minimum value signed 64.64-bit fixed point number may have.\n     */\n    int128 private constant MIN_64x64 = -0x80000000000000000000000000000000;\n\n    /*\n     * Maximum value signed 64.64-bit fixed point number may have.\n     */\n    int128 private constant MAX_64x64 = 0x7FFFFFFFFFFFFFFFFFFFFFFFFFFFFFFF;\n\n    /**\n     * Convert unsigned 256-bit integer number into signed 64.64-bit fixed point\n     * number.  Revert on overflow.\n     *\n     * @param x unsigned 256-bit integer number\n     * @return signed 64.64-bit fixed point number\n     */\n    function fromUInt(uint256 x) internal pure returns (int128) {\n        require(x <= 0x7FFFFFFFFFFFFFFF);\n        return int128(x << 64);\n    }\n\n    /**\n     * Calculate x + y.  Revert on overflow.\n     *\n     * @param x signed 64.64-bit fixed point number\n     * @param y signed 64.64-bit fixed point number\n     * @return signed 64.64-bit fixed point number\n     */\n    function add(int128 x, int128 y) internal pure returns (int128) {\n        int256 result = int256(x) + y;\n        require(result >= MIN_64x64 && result <= MAX_64x64);\n        return int128(result);\n    }\n\n    /**\n     * Calculate binary logarithm of x.  Revert if x <= 0.\n     *\n     * @param x signed 64.64-bit fixed point number\n     * @return signed 64.64-bit fixed point number\n     */\n    function log_2(uint256 x) internal pure returns (uint256) {\n        require(x > 0);\n\n        uint256 msb = 0;\n        uint256 xc = x;\n        if (xc >= 0x10000000000000000) {\n            xc >>= 64;\n            msb += 64;\n        }\n        if (xc >= 0x100000000) {\n            xc >>= 32;\n            msb += 32;\n        }\n        if (xc >= 0x10000) {\n            xc >>= 16;\n            msb += 16;\n        }\n        if (xc >= 0x100) {\n            xc >>= 8;\n            msb += 8;\n        }\n        if (xc >= 0x10) {\n            xc >>= 4;\n            msb += 4;\n        }\n        if (xc >= 0x4) {\n            xc >>= 2;\n            msb += 2;\n        }\n        if (xc >= 0x2) msb += 1; // No need to shift xc anymore\n\n        uint256 result = (msb - 64) << 64;\n        uint256 ux = uint256(x) << uint256(127 - msb);\n        for (uint256 bit = 0x8000000000000000; bit > 0; bit >>= 1) {\n            ux *= ux;\n            uint256 b = ux >> 255;\n            ux >>= 127 + b;\n            result += bit * b;\n        }\n\n        return result;\n    }\n}\n\n/*\n\tBehodler orchestrates trades using an omnischedule bonding curve.\n\tThe name is inspired by the Beholder of D&D, a monster with multiple arms ending in eyes peering in all directions.\n\tThe Behodler is a smart contract that can see the prices of all tokens simultaneously without need for composition or delay.\n\tThe hodl part of Behodler refers to the fact that with every trade of a token pair, the liquidity pool of each token held by Behodler increases\n\n    Behodler 1 performed square root calculations which are gas intensive for fixed point arithmetic algorithms.\n    To save gas, Behodler2 never performs square root calculations. It just checks the numbers passed in by the user and reverts if needs be.\n    This techique is called invariant checking and offloads maximum calculation to clients while guaranteeing no cheating is possible.\n    In Behodler 1 some operations were duplicated. For instance, a swap was a scarcity purchase followed by a scarcity sale. Instead, cutting out\n    the middle scarcity allows the factor scaling to be dropped altogether.\n\n    By bringing Scarcity, Janus, Kharon and Behodler together in one contract, Behodler 2 avoids the EXT_CALL gas fees and can take gas saving shortcuts with Scarcity\n    transfers. The drawback to this approach is less flexibility with fees in the way that Kharon allowed.\n\n    Behodler 2 now has Flashloan support. Instead of charging a liquidity growing fee, Behodler 2 requires the user fulfil some requirement\n    such as holding an NFT or staking Scarcity. This allows for zero fee flash loans that are front runner resistant and\n    allows a secondary flashloan market to evolve.\n */\ncontract Behodler is Scarcity {\n    using SafeMath for uint256;\n    using ABDK for int128;\n    using ABDK for uint256;\n    using AddressBalanceCheck for address;\n\n    event LiquidityAdded(\n        address sender,\n        address token,\n        uint256 tokenValue,\n        uint256 scx\n    );\n    event LiquidityWithdrawn(\n        address recipient,\n        address token,\n        uint256 tokenValue,\n        uint256 scx\n    );\n    event Swap(\n        address sender,\n        address inputToken,\n        address outputToken,\n        uint256 inputValue,\n        uint256 outputValue\n    );\n\n    struct WeidaiTokens {\n        address dai;\n        address reserve;\n    }\n\n    struct PrecisionFactors {\n        uint8 swapPrecisionFactor;\n        uint8 maxLiquidityExit; //percentage as number between 1 and 100\n    }\n\n    WeidaiTokens WD;\n    PrecisionFactors safetyParameters;\n    address public Weth;\n    address public Lachesis;\n    address pyroTokenLiquidityReceiver;\n    FlashLoanArbiter public arbiter;\n    address private inputSender;\n    bool[3] unlocked;\n\n    constructor() {\n        safetyParameters.swapPrecisionFactor = 30; //approximately a billion\n        safetyParameters.maxLiquidityExit = 90;\n        for (uint8 i = 0; i < 3; i++) unlocked[i] = true;\n    }\n\n    function setSafetParameters(\n        uint8 swapPrecisionFactor,\n        uint8 maxLiquidityExit\n    ) public onlyOwner {\n        safetyParameters.swapPrecisionFactor = swapPrecisionFactor;\n        safetyParameters.maxLiquidityExit = maxLiquidityExit;\n    }\n\n    function getMaxLiquidityExit() public view returns (uint8) {\n        return safetyParameters.maxLiquidityExit;\n    }\n\n    function seed(\n        address weth,\n        address lachesis,\n        address flashLoanArbiter,\n        address _pyroTokenLiquidityReceiver,\n        address weidaiReserve,\n        address dai\n    ) public onlyOwner {\n        Weth = weth;\n        Lachesis = lachesis;\n        arbiter = FlashLoanArbiter(flashLoanArbiter);\n        pyroTokenLiquidityReceiver = _pyroTokenLiquidityReceiver;\n        WD.reserve = weidaiReserve;\n        WD.dai = dai;\n    }\n\n    //Logarithmic growth can get quite flat beyond the first chunk. We divide input amounts by\n    uint256 public constant MIN_LIQUIDITY = 1e12;\n\n    mapping(address => bool) public tokenBurnable;\n    mapping(address => bool) public validTokens;\n    mapping(address => bool) public whiteListUsers; // can trade on tokens that are disabled\n\n    modifier onlyLachesis {\n        require(msg.sender == Lachesis);\n        _;\n    }\n\n    modifier onlyValidToken(address token) {\n        require(\n            whiteListUsers[msg.sender] ||\n                validTokens[token] ||\n                (token != address(0) && token == Weth),\n            \"BEHODLER: token invalid\"\n        );\n        _;\n    }\n\n    modifier determineSender(address inputToken) {\n        if (msg.value > 0) {\n            require(\n                inputToken == Weth,\n                \"BEHODLER: Eth only valid for Weth trades.\"\n            );\n            inputSender = address(this);\n        } else {\n            inputSender = msg.sender;\n        }\n        _;\n    }\n\n    enum Slot {Swap, Add, Withdraw}\n\n    modifier lock(Slot slot) {\n        uint256 index = uint256(slot);\n        require(unlocked[index], \"BEHODLER: Reentrancy guard active.\");\n        unlocked[index] = false;\n        _;\n        unlocked[index] = true;\n    }\n\n    /*\n   Let config.burnFee be b.\n    Let F = 1-b\n    Let input token be I and Output token be O\n    _i is initial and _f is final. Eg. I_i is initial input token balance\n    The swap equation, when simplified, is given by\n    F(I_f - I_i) = (O_i - O_f)/(F)\n    However, the gradient of square root becomes untenable when\n    the value of tokens diverge too much. The gradient favours the addition of low\n    value tokens disportionately. A gradient that favours tokens equally is given by\n    a log. The lowest gas implementation is base 2.\n    The new swap equation is thus\n    log(I_f) - log(I_i) = log(O_i) - log(O_f)\n\n    Technical note on ETH handling: we don't duplicate functions for accepting Eth as an input. Instead we wrap on receipt\n    and apply a reentrancy guard. The determineSender modifier fixes an isse in Behodler 1 which required the user to approve\n    both sending and receiving Eth because of the nature of Weth deposit and withdraw functionality.\n */\n    function swap(\n        address inputToken,\n        address outputToken,\n        uint256 inputAmount,\n        uint256 outputAmount\n    )\n        public\n        payable\n        determineSender(inputToken)\n        onlyValidToken(inputToken)\n        lock(Slot.Swap)\n        returns (bool success)\n    {\n        uint256 initialInputBalance = inputToken.tokenBalance();\n        if (inputToken == Weth) {\n            require(\n                msg.value == inputAmount,\n                \"BEHODLER: Insufficient Ether sent\"\n            );\n            IWeth(Weth).deposit{value: msg.value}();\n        } else {\n            inputToken.transferIn(inputSender, inputAmount);\n        }\n\n        uint256 netInputAmount =\n            inputAmount.sub(burnToken(inputToken, inputAmount));\n        uint256 initialOutputBalance = outputToken.tokenBalance();\n        require(\n            outputAmount.mul(100).div(initialOutputBalance) <=\n                safetyParameters.maxLiquidityExit,\n            \"BEHODLER: liquidity withdrawal too large.\"\n        );\n        uint256 finalInputBalance = initialInputBalance.add(netInputAmount);\n        uint256 finalOutputBalance = initialOutputBalance.sub(outputAmount);\n\n        //new scope to avoid stack too deep errors.\n        {\n            //if the input balance after adding input liquidity is 1073741824 bigger than the initial balance, we revert.\n            uint256 inputRatio =\n                (initialInputBalance << safetyParameters.swapPrecisionFactor)\n                    .div(finalInputBalance);\n            uint256 outputRatio =\n                (finalOutputBalance << safetyParameters.swapPrecisionFactor)\n                    .div(initialOutputBalance);\n\n            require(\n                inputRatio != 0 && inputRatio == outputRatio,\n                \"BEHODLER: swap invariant.\"\n            );\n        }\n\n        require(\n            finalOutputBalance >= MIN_LIQUIDITY,\n            \"BEHODLER: min liquidity.\"\n        );\n\n        if (outputToken == Weth) {\n            IWeth(Weth).withdraw(outputAmount);\n            address payable sender = msg.sender;\n            (bool unwrapped, ) = sender.call{value: outputAmount}(\"\");\n            require(unwrapped, \"BEHODLER: Unwrapping of Weth failed.\");\n        } else {\n            outputToken.transferOut(msg.sender, outputAmount);\n        }\n\n        emit Swap(\n            msg.sender,\n            inputToken,\n            outputToken,\n            inputAmount,\n            outputAmount\n        );\n        success = true;\n    }\n\n    /*\n        SCX = log(FinalBalance) - log(InitialBalance)\n\n        The choice of base for the log isn't relevant from a mathematical point of view\n        but from a computational point of view, base 2 is the cheapest for obvious reasons.\n        \"What I told you was true, from a certain point of view.\" - Obi-Wan Kenobi\n     */\n    function addLiquidity(address inputToken, uint256 amount)\n        public\n        payable\n        determineSender(inputToken)\n        onlyValidToken(inputToken)\n        lock(Slot.Add)\n        returns (uint256 deltaSCX)\n    {\n        uint256 initialBalance =\n            uint256(inputToken.shiftedBalance(MIN_LIQUIDITY).fromUInt());\n\n        if (inputToken == Weth) {\n            require(msg.value == amount, \"BEHODLER: Insufficient Ether sent\");\n            IWeth(Weth).deposit{value: msg.value}();\n        } else {\n            inputToken.transferIn(inputSender, amount);\n        }\n        uint256 netInputAmount =\n            uint256(\n                amount\n                    .sub(burnToken(inputToken, amount))\n                    .div(MIN_LIQUIDITY)\n                    .fromUInt()\n            );\n\n        uint256 finalBalance = uint256(initialBalance.add(netInputAmount));\n\n        require(\n            uint256(finalBalance) >= MIN_LIQUIDITY,\n            \"BEHODLER: min liquidity.\"\n        );\n        deltaSCX = uint256(\n            finalBalance.log_2() -\n                (initialBalance > 1 ? initialBalance.log_2() : 0)\n        );\n        mint(msg.sender, deltaSCX);\n        emit LiquidityAdded(msg.sender, inputToken, amount, deltaSCX);\n    }\n\n    /*\n        SCX =  log(InitialBalance) - log(FinalBalance)\n        tokensToRelease = InitialBalance -FinalBalance\n        =>FinalBalance =  InitialBalance - tokensToRelease\n        Then apply logs and deduct SCX from msg.sender\n\n        The choice of base for the log isn't relevant from a mathematical point of view\n        but from a computational point of view, base 2 is the cheapest for obvious reasons.\n        \"From my point of view, the Jedi are evil\" - Darth Vader\n     */\n    function withdrawLiquidity(address outputToken, uint256 tokensToRelease)\n        public\n        payable\n        determineSender(outputToken)\n        onlyValidToken(outputToken)\n        lock(Slot.Withdraw)\n        returns (uint256 deltaSCX)\n    {\n        uint256 initialBalance = outputToken.tokenBalance();\n        uint256 finalBalance = initialBalance.sub(tokensToRelease);\n        require(finalBalance > MIN_LIQUIDITY, \"BEHODLER: min liquidity\");\n        require(\n            tokensToRelease.mul(100).div(initialBalance) <=\n                safetyParameters.maxLiquidityExit,\n            \"BEHODLER: liquidity withdrawal too large.\"\n        );\n\n        uint256 logInitial = initialBalance.log_2();\n        uint256 logFinal = finalBalance.log_2();\n\n        deltaSCX = logInitial - (finalBalance > 1 ? logFinal : 0);\n        uint256 scxBalance = balances[msg.sender];\n\n        if (deltaSCX > scxBalance) {\n            //rounding errors in scx creation and destruction. Err on the side of holders\n            uint256 difference = deltaSCX - scxBalance;\n            if ((difference * 10000) / deltaSCX == 0) deltaSCX = scxBalance;\n        }\n        burn(msg.sender, deltaSCX);\n\n        if (outputToken == Weth) {\n            IWeth(Weth).withdraw(tokensToRelease);\n            address payable sender = msg.sender;\n            (bool unwrapped, ) = sender.call{value: tokensToRelease}(\"\");\n            require(unwrapped, \"BEHODLER: Unwrapping of Weth failed.\");\n        } else {\n            outputToken.transferOut(msg.sender, tokensToRelease);\n        }\n        emit LiquidityWithdrawn(\n            msg.sender,\n            outputToken,\n            tokensToRelease,\n            deltaSCX\n        );\n    }\n\n    /*\n        SCX =  log(InitialBalance) - log(FinalBalance)\n        tokensToRelease = InitialBalance -FinalBalance\n        =>FinalBalance =  InitialBalance - tokensToRelease\n        Then apply logs and deduct SCX from msg.sender\n\n        The choice of base for the log isn't relevant from a mathematical point of view\n        but from a computational point of view, base 2 is the cheapest for obvious reasons.\n        \"From my point of view, the Jedi are evil\" - Darth Vader\n     */\n    function withdrawLiquidityFindSCX(\n        address outputToken,\n        uint256 tokensToRelease,\n        uint256 scx,\n        uint256 passes\n    ) public view returns (uint256) {\n        uint256 upperBoundary = outputToken.tokenBalance();\n        uint256 lowerBoundary = 0;\n\n        for (uint256 i = 0; i < passes; i++) {\n            uint256 initialBalance = outputToken.tokenBalance();\n            uint256 finalBalance = initialBalance.sub(tokensToRelease);\n\n            uint256 logInitial = initialBalance.log_2();\n            uint256 logFinal = finalBalance.log_2();\n\n            int256 deltaSCX =\n                int256(logInitial - (finalBalance > 1 ? logFinal : 0));\n            int256 difference = int256(scx) - deltaSCX;\n            // if (difference**2 < 1000000) return tokensToRelease;\n            if (difference == 0) return tokensToRelease;\n            if (difference < 0) {\n                // too many tokens requested\n                upperBoundary = tokensToRelease - 1;\n            } else {\n                //too few tokens requested\n                lowerBoundary = tokensToRelease + 1;\n            }\n            tokensToRelease =\n                ((upperBoundary - lowerBoundary) / 2) +\n                lowerBoundary; //bitshift\n            tokensToRelease = tokensToRelease > initialBalance\n                ? initialBalance\n                : tokensToRelease;\n        }\n        return tokensToRelease;\n    }\n\n    //TODO: possibly comply with the flash loan standard https://eips.ethereum.org/EIPS/eip-3156\n    // - however, the more I reflect on this, the less keen I am due to gas and simplicity\n    //example: a user must hold 10% of SCX total supply or user must hold an NFT\n    //The initial arbiter will have no constraints.\n    //The flashloan system on behodler is inverted. Instead of being able to borrow any individual token,\n    //the borrower asks for SCX. Theoretically you can borrow more SCX than currently exists so long\n    //as you can think of a clever way to pay it back.\n    //Note: Borrower doesn't have to send scarcity back, they just need to have high enough balance.\n    function grantFlashLoan(uint256 amount, address flashLoanContract) public {\n        require(\n            arbiter.canBorrow(msg.sender),\n            \"BEHODLER: cannot borrow flashloan\"\n        );\n        balances[flashLoanContract] = balances[flashLoanContract].add(amount);\n        FlashLoanReceiver(flashLoanContract).execute();\n        balances[flashLoanContract] = balances[flashLoanContract].sub(\n            amount,\n            \"BEHODLER: Flashloan repayment failed\"\n        );\n    }\n\n    //useful for when we want the ability to add tokens without trading. For instance, the initial liquidity queueing event.\n    function setWhiteListUser(address user, bool whiteList) public onlyOwner {\n        whiteListUsers[user] = whiteList;\n    }\n\n    function burnToken(address token, uint256 amount)\n        private\n        returns (uint256 burnt)\n    {\n        if (tokenBurnable[token]) burnt = burnFee(token, amount);\n        else if (token == WD.dai) {\n            burnt = config.burnFee.mul(amount).div(1000);\n            token.transferOut(WD.reserve, burnt);\n        } else {\n            burnt = config.burnFee.mul(amount).div(1000);\n            token.transferOut(pyroTokenLiquidityReceiver, burnt);\n        }\n    }\n\n    function setValidToken(\n        address token,\n        bool valid,\n        bool burnable\n    ) public onlyLachesis {\n        validTokens[token] = valid;\n        tokenBurnable[token] = burnable;\n    }\n}\n",
  "sourcePath": "/home/justin/weidai ecosystem/behodler2/contracts/Behodler.sol",
  "compiler": {
    "name": "solc",
    "version": "0.7.1+commit.f4a555be.Emscripten.clang"
  },
  "schemaVersion": "3.3.3",
  "updatedAt": "2021-01-31T10:28:29.917Z",
  "networkType": "ethereum",
  "devdoc": {
    "kind": "dev",
    "methods": {
      "renounceOwnership()": {
        "details": "Leaves the contract without owner. It will not be possible to call `onlyOwner` functions anymore. Can only be called by the current owner. NOTE: Renouncing ownership will leave the contract without an owner, thereby removing any functionality that is only available to the owner."
      },
      "transferOwnership(address)": {
        "details": "Transfers ownership of the contract to a new account (`newOwner`). Can only be called by the current owner."
      }
    },
    "version": 1
  },
  "userdoc": {
    "kind": "user",
    "methods": {},
    "version": 1
  }
}