{
  "contractName": "Behodler",
  "abi": [
    {
      "inputs": [],
      "stateMutability": "nonpayable",
      "type": "constructor"
    },
    {
      "anonymous": false,
      "inputs": [
        {
          "indexed": true,
          "internalType": "address",
          "name": "owner",
          "type": "address"
        },
        {
          "indexed": true,
          "internalType": "address",
          "name": "spender",
          "type": "address"
        },
        {
          "indexed": false,
          "internalType": "uint256",
          "name": "value",
          "type": "uint256"
        }
      ],
      "name": "Approval",
      "type": "event"
    },
    {
      "anonymous": false,
      "inputs": [
        {
          "indexed": false,
          "internalType": "uint256",
          "name": "value",
          "type": "uint256"
        }
      ],
      "name": "Burn",
      "type": "event"
    },
    {
      "anonymous": false,
      "inputs": [
        {
          "indexed": false,
          "internalType": "address",
          "name": "sender",
          "type": "address"
        },
        {
          "indexed": false,
          "internalType": "address",
          "name": "token",
          "type": "address"
        },
        {
          "indexed": false,
          "internalType": "uint256",
          "name": "tokenValue",
          "type": "uint256"
        },
        {
          "indexed": false,
          "internalType": "uint256",
          "name": "scx",
          "type": "uint256"
        }
      ],
      "name": "LiquidityAdded",
      "type": "event"
    },
    {
      "anonymous": false,
      "inputs": [
        {
          "indexed": false,
          "internalType": "address",
          "name": "recipient",
          "type": "address"
        },
        {
          "indexed": false,
          "internalType": "address",
          "name": "token",
          "type": "address"
        },
        {
          "indexed": false,
          "internalType": "uint256",
          "name": "tokenValue",
          "type": "uint256"
        },
        {
          "indexed": false,
          "internalType": "uint256",
          "name": "scx",
          "type": "uint256"
        }
      ],
      "name": "LiquidityWithdrawn",
      "type": "event"
    },
    {
      "anonymous": false,
      "inputs": [
        {
          "indexed": false,
          "internalType": "address",
          "name": "sender",
          "type": "address"
        },
        {
          "indexed": false,
          "internalType": "address",
          "name": "recipient",
          "type": "address"
        },
        {
          "indexed": false,
          "internalType": "uint256",
          "name": "value",
          "type": "uint256"
        }
      ],
      "name": "Mint",
      "type": "event"
    },
    {
      "anonymous": false,
      "inputs": [
        {
          "indexed": true,
          "internalType": "address",
          "name": "previousOwner",
          "type": "address"
        },
        {
          "indexed": true,
          "internalType": "address",
          "name": "newOwner",
          "type": "address"
        }
      ],
      "name": "OwnershipTransferred",
      "type": "event"
    },
    {
      "anonymous": false,
      "inputs": [
        {
          "indexed": false,
          "internalType": "address",
          "name": "sender",
          "type": "address"
        },
        {
          "indexed": false,
          "internalType": "address",
          "name": "inputToken",
          "type": "address"
        },
        {
          "indexed": false,
          "internalType": "address",
          "name": "outputToken",
          "type": "address"
        },
        {
          "indexed": false,
          "internalType": "uint256",
          "name": "inputValue",
          "type": "uint256"
        },
        {
          "indexed": false,
          "internalType": "uint256",
          "name": "outputValue",
          "type": "uint256"
        }
      ],
      "name": "Swap",
      "type": "event"
    },
    {
      "anonymous": false,
      "inputs": [
        {
          "indexed": true,
          "internalType": "address",
          "name": "from",
          "type": "address"
        },
        {
          "indexed": true,
          "internalType": "address",
          "name": "to",
          "type": "address"
        },
        {
          "indexed": false,
          "internalType": "uint256",
          "name": "value",
          "type": "uint256"
        }
      ],
      "name": "Transfer",
      "type": "event"
    },
    {
      "inputs": [],
      "name": "Lachesis",
      "outputs": [
        {
          "internalType": "address",
          "name": "",
          "type": "address"
        }
      ],
      "stateMutability": "view",
      "type": "function",
      "constant": true
    },
    {
      "inputs": [],
      "name": "MIN_LIQUIDITY",
      "outputs": [
        {
          "internalType": "uint256",
          "name": "",
          "type": "uint256"
        }
      ],
      "stateMutability": "view",
      "type": "function",
      "constant": true
    },
    {
      "inputs": [],
      "name": "Weth",
      "outputs": [
        {
          "internalType": "address",
          "name": "",
          "type": "address"
        }
      ],
      "stateMutability": "view",
      "type": "function",
      "constant": true
    },
    {
      "inputs": [
        {
          "internalType": "address",
          "name": "owner",
          "type": "address"
        },
        {
          "internalType": "address",
          "name": "spender",
          "type": "address"
        }
      ],
      "name": "allowance",
      "outputs": [
        {
          "internalType": "uint256",
          "name": "",
          "type": "uint256"
        }
      ],
      "stateMutability": "view",
      "type": "function",
      "constant": true
    },
    {
      "inputs": [
        {
          "internalType": "address",
          "name": "spender",
          "type": "address"
        },
        {
          "internalType": "uint256",
          "name": "amount",
          "type": "uint256"
        }
      ],
      "name": "approve",
      "outputs": [
        {
          "internalType": "bool",
          "name": "",
          "type": "bool"
        }
      ],
      "stateMutability": "nonpayable",
      "type": "function"
    },
    {
      "inputs": [],
      "name": "arbiter",
      "outputs": [
        {
          "internalType": "contract FlashLoanArbiter",
          "name": "",
          "type": "address"
        }
      ],
      "stateMutability": "view",
      "type": "function",
      "constant": true
    },
    {
      "inputs": [
        {
          "internalType": "address",
          "name": "account",
          "type": "address"
        }
      ],
      "name": "balanceOf",
      "outputs": [
        {
          "internalType": "uint256",
          "name": "",
          "type": "uint256"
        }
      ],
      "stateMutability": "view",
      "type": "function",
      "constant": true
    },
    {
      "inputs": [
        {
          "internalType": "uint256",
          "name": "value",
          "type": "uint256"
        }
      ],
      "name": "burn",
      "outputs": [
        {
          "internalType": "bool",
          "name": "",
          "type": "bool"
        }
      ],
      "stateMutability": "nonpayable",
      "type": "function"
    },
    {
      "inputs": [],
      "name": "config",
      "outputs": [
        {
          "internalType": "uint256",
          "name": "transferFee",
          "type": "uint256"
        },
        {
          "internalType": "uint256",
          "name": "burnFee",
          "type": "uint256"
        },
        {
          "internalType": "address",
          "name": "feeDestination",
          "type": "address"
        }
      ],
      "stateMutability": "view",
      "type": "function",
      "constant": true
    },
    {
      "inputs": [
        {
          "internalType": "uint256",
          "name": "transferFee",
          "type": "uint256"
        },
        {
          "internalType": "uint256",
          "name": "burnFee",
          "type": "uint256"
        },
        {
          "internalType": "address",
          "name": "feeDestination",
          "type": "address"
        }
      ],
      "name": "configureScarcity",
      "outputs": [],
      "stateMutability": "nonpayable",
      "type": "function"
    },
    {
      "inputs": [],
      "name": "decimals",
      "outputs": [
        {
          "internalType": "uint8",
          "name": "",
          "type": "uint8"
        }
      ],
      "stateMutability": "pure",
      "type": "function",
      "constant": true
    },
    {
      "inputs": [],
      "name": "getConfiguration",
      "outputs": [
        {
          "internalType": "uint256",
          "name": "",
          "type": "uint256"
        },
        {
          "internalType": "uint256",
          "name": "",
          "type": "uint256"
        },
        {
          "internalType": "address",
          "name": "",
          "type": "address"
        }
      ],
      "stateMutability": "view",
      "type": "function",
      "constant": true
    },
    {
      "inputs": [
        {
          "internalType": "address",
          "name": "recipient",
          "type": "address"
        },
        {
          "internalType": "uint256",
          "name": "value",
          "type": "uint256"
        }
      ],
      "name": "migrateMint",
      "outputs": [],
      "stateMutability": "nonpayable",
      "type": "function"
    },
    {
      "inputs": [],
      "name": "migrator",
      "outputs": [
        {
          "internalType": "address",
          "name": "",
          "type": "address"
        }
      ],
      "stateMutability": "view",
      "type": "function",
      "constant": true
    },
    {
      "inputs": [],
      "name": "name",
      "outputs": [
        {
          "internalType": "string",
          "name": "",
          "type": "string"
        }
      ],
      "stateMutability": "pure",
      "type": "function",
      "constant": true
    },
    {
      "inputs": [],
      "name": "owner",
      "outputs": [
        {
          "internalType": "address",
          "name": "",
          "type": "address"
        }
      ],
      "stateMutability": "view",
      "type": "function",
      "constant": true
    },
    {
      "inputs": [],
      "name": "renounceOwnership",
      "outputs": [],
      "stateMutability": "nonpayable",
      "type": "function"
    },
    {
      "inputs": [
        {
          "internalType": "address",
          "name": "m",
          "type": "address"
        }
      ],
      "name": "setMigrator",
      "outputs": [],
      "stateMutability": "nonpayable",
      "type": "function"
    },
    {
      "inputs": [],
      "name": "symbol",
      "outputs": [
        {
          "internalType": "string",
          "name": "",
          "type": "string"
        }
      ],
      "stateMutability": "pure",
      "type": "function",
      "constant": true
    },
    {
      "inputs": [
        {
          "internalType": "address",
          "name": "",
          "type": "address"
        }
      ],
      "name": "tokenBurnable",
      "outputs": [
        {
          "internalType": "bool",
          "name": "",
          "type": "bool"
        }
      ],
      "stateMutability": "view",
      "type": "function",
      "constant": true
    },
    {
      "inputs": [],
      "name": "totalSupply",
      "outputs": [
        {
          "internalType": "uint256",
          "name": "",
          "type": "uint256"
        }
      ],
      "stateMutability": "view",
      "type": "function",
      "constant": true
    },
    {
      "inputs": [
        {
          "internalType": "address",
          "name": "recipient",
          "type": "address"
        },
        {
          "internalType": "uint256",
          "name": "amount",
          "type": "uint256"
        }
      ],
      "name": "transfer",
      "outputs": [
        {
          "internalType": "bool",
          "name": "",
          "type": "bool"
        }
      ],
      "stateMutability": "nonpayable",
      "type": "function"
    },
    {
      "inputs": [
        {
          "internalType": "address",
          "name": "sender",
          "type": "address"
        },
        {
          "internalType": "address",
          "name": "recipient",
          "type": "address"
        },
        {
          "internalType": "uint256",
          "name": "amount",
          "type": "uint256"
        }
      ],
      "name": "transferFrom",
      "outputs": [
        {
          "internalType": "bool",
          "name": "",
          "type": "bool"
        }
      ],
      "stateMutability": "nonpayable",
      "type": "function"
    },
    {
      "inputs": [
        {
          "internalType": "address",
          "name": "newOwner",
          "type": "address"
        }
      ],
      "name": "transferOwnership",
      "outputs": [],
      "stateMutability": "nonpayable",
      "type": "function"
    },
    {
      "inputs": [
        {
          "internalType": "address",
          "name": "",
          "type": "address"
        }
      ],
      "name": "validTokens",
      "outputs": [
        {
          "internalType": "bool",
          "name": "",
          "type": "bool"
        }
      ],
      "stateMutability": "view",
      "type": "function",
      "constant": true
    },
    {
      "inputs": [
        {
          "internalType": "address",
          "name": "",
          "type": "address"
        }
      ],
      "name": "whiteListUsers",
      "outputs": [
        {
          "internalType": "bool",
          "name": "",
          "type": "bool"
        }
      ],
      "stateMutability": "view",
      "type": "function",
      "constant": true
    },
    {
      "inputs": [
        {
          "internalType": "uint8",
          "name": "swapPrecisionFactor",
          "type": "uint8"
        },
        {
          "internalType": "uint8",
          "name": "maxLiquidityExit",
          "type": "uint8"
        }
      ],
      "name": "setSafetParameters",
      "outputs": [],
      "stateMutability": "nonpayable",
      "type": "function"
    },
    {
      "inputs": [],
      "name": "getMaxLiquidityExit",
      "outputs": [
        {
          "internalType": "uint8",
          "name": "",
          "type": "uint8"
        }
      ],
      "stateMutability": "view",
      "type": "function",
      "constant": true
    },
    {
      "inputs": [
        {
          "internalType": "address",
          "name": "weth",
          "type": "address"
        },
        {
          "internalType": "address",
          "name": "lachesis",
          "type": "address"
        },
        {
          "internalType": "address",
          "name": "flashLoanArbiter",
          "type": "address"
        },
        {
          "internalType": "address",
          "name": "_pyroTokenLiquidityReceiver",
          "type": "address"
        },
        {
          "internalType": "address",
          "name": "weidaiReserve",
          "type": "address"
        },
        {
          "internalType": "address",
          "name": "dai",
          "type": "address"
        },
        {
          "internalType": "address",
          "name": "weiDai",
          "type": "address"
        }
      ],
      "name": "seed",
      "outputs": [],
      "stateMutability": "nonpayable",
      "type": "function"
    },
    {
      "inputs": [
        {
          "internalType": "address",
          "name": "inputToken",
          "type": "address"
        },
        {
          "internalType": "address",
          "name": "outputToken",
          "type": "address"
        },
        {
          "internalType": "uint256",
          "name": "inputAmount",
          "type": "uint256"
        },
        {
          "internalType": "uint256",
          "name": "outputAmount",
          "type": "uint256"
        }
      ],
      "name": "swap",
      "outputs": [
        {
          "internalType": "bool",
          "name": "success",
          "type": "bool"
        }
      ],
      "stateMutability": "payable",
      "type": "function",
      "payable": true
    },
    {
      "inputs": [
        {
          "internalType": "address",
          "name": "inputToken",
          "type": "address"
        },
        {
          "internalType": "uint256",
          "name": "amount",
          "type": "uint256"
        }
      ],
      "name": "addLiquidity",
      "outputs": [
        {
          "internalType": "uint256",
          "name": "deltaSCX",
          "type": "uint256"
        }
      ],
      "stateMutability": "payable",
      "type": "function",
      "payable": true
    },
    {
      "inputs": [
        {
          "internalType": "address",
          "name": "outputToken",
          "type": "address"
        },
        {
          "internalType": "uint256",
          "name": "tokensToRelease",
          "type": "uint256"
        }
      ],
      "name": "withdrawLiquidity",
      "outputs": [
        {
          "internalType": "uint256",
          "name": "deltaSCX",
          "type": "uint256"
        }
      ],
      "stateMutability": "payable",
      "type": "function",
      "payable": true
    },
    {
      "inputs": [
        {
          "internalType": "address",
          "name": "outputToken",
          "type": "address"
        },
        {
          "internalType": "uint256",
          "name": "tokensToRelease",
          "type": "uint256"
        },
        {
          "internalType": "uint256",
          "name": "scx",
          "type": "uint256"
        },
        {
          "internalType": "uint256",
          "name": "passes",
          "type": "uint256"
        }
      ],
      "name": "withdrawLiquidityFindSCX",
      "outputs": [
        {
          "internalType": "uint256",
          "name": "",
          "type": "uint256"
        }
      ],
      "stateMutability": "view",
      "type": "function",
      "constant": true
    },
    {
      "inputs": [
        {
          "internalType": "uint256",
          "name": "amount",
          "type": "uint256"
        },
        {
          "internalType": "address",
          "name": "flashLoanContract",
          "type": "address"
        }
      ],
      "name": "grantFlashLoan",
      "outputs": [],
      "stateMutability": "nonpayable",
      "type": "function"
    },
    {
      "inputs": [
        {
          "internalType": "address",
          "name": "user",
          "type": "address"
        },
        {
          "internalType": "bool",
          "name": "whiteList",
          "type": "bool"
        }
      ],
      "name": "setWhiteListUser",
      "outputs": [],
      "stateMutability": "nonpayable",
      "type": "function"
    },
    {
      "inputs": [
        {
          "internalType": "address",
          "name": "token",
          "type": "address"
        },
        {
          "internalType": "bool",
          "name": "valid",
          "type": "bool"
        },
        {
          "internalType": "bool",
          "name": "burnable",
          "type": "bool"
        }
      ],
      "name": "setValidToken",
      "outputs": [],
      "stateMutability": "nonpayable",
      "type": "function"
    }
  ],
  "bytecode": "0x60806040523480156200001157600080fd5b50336000806101000a81548173ffffffffffffffffffffffffffffffffffffffff021916908373ffffffffffffffffffffffffffffffffffffffff1602179055503373ffffffffffffffffffffffffffffffffffffffff16600073ffffffffffffffffffffffffffffffffffffffff167f8be0079c531659141344cd1fd0a4f28419497f9722a3daafe3b4186f6b6457e060405160405180910390a3601e600b60000160006101000a81548160ff021916908360ff160217905550605a600b60000160016101000a81548160ff021916908360ff16021790555060005b60038160ff1610156200013b57600160118260ff16600381106200010e57fe5b602091828204019190066101000a81548160ff0219169083151502179055508080600101915050620000ee565b50615946806200014c6000396000f3fe60806040526004361061020e5760003560e01c806370a0823111610118578063a9059cbb116100a0578063e22bcf841161006f578063e22bcf8414610d86578063e2fc9d0014610ded578063f2fde38b14610e56578063fe02915614610ea7578063fe25e00a14610f355761020e565b8063a9059cbb14610bce578063d2cb010014610c3f578063dd62ed3e14610c9a578063e12fb1b914610d1f5761020e565b80637b12a62c116100e75780637b12a62c14610a275780637cd07e4714610a555780638da5cb5b14610a9657806395d89b4114610ad7578063a451a2c114610b675761020e565b806370a08231146108d9578063715018a61461093e57806372c3fdd91461095557806379502c55146109d85761020e565b806323cf31181161019b57806342966c681161016a57806342966c681461067b57806356688700146106cc578063572861bc1461072e5780636bd50cef146107795780636d3405f1146107c85761020e565b806323cf31181461055e578063313ce567146105af578063349849a3146105dd5780633f40d3a31461061e5761020e565b806307d44e1a116101e257806307d44e1a146103c5578063095ea7b31461040657806318160ddd1461047757806321b77d63146104a257806323b872dd146104cd5761020e565b80627ed4fe146102135780630319f4c61461027857806306d47de9146102d357806306fdde0314610335575b600080fd5b34801561021f57600080fd5b506102766004803603606081101561023657600080fd5b810190808035906020019092919080359060200190929190803573ffffffffffffffffffffffffffffffffffffffff169060200190929190505050610f76565b005b34801561028457600080fd5b506102d16004803603604081101561029b57600080fd5b8101908080359060200190929190803573ffffffffffffffffffffffffffffffffffffffff1690602001909291905050506110ae565b005b61031f600480360360408110156102e957600080fd5b81019080803573ffffffffffffffffffffffffffffffffffffffff16906020019092919080359060200190929190505050611392565b6040518082815260200191505060405180910390f35b34801561034157600080fd5b5061034a611c31565b6040518080602001828103825283818151815260200191508051906020019080838360005b8381101561038a57808201518184015260208101905061036f565b50505050905090810190601f1680156103b75780820380516001836020036101000a031916815260200191505b509250505060405180910390f35b3480156103d157600080fd5b506103da611c6e565b604051808273ffffffffffffffffffffffffffffffffffffffff16815260200191505060405180910390f35b34801561041257600080fd5b5061045f6004803603604081101561042957600080fd5b81019080803573ffffffffffffffffffffffffffffffffffffffff16906020019092919080359060200190929190505050611c94565b60405180821515815260200191505060405180910390f35b34801561048357600080fd5b5061048c611cab565b6040518082815260200191505060405180910390f35b3480156104ae57600080fd5b506104b7611cb5565b6040518082815260200191505060405180910390f35b3480156104d957600080fd5b50610546600480360360608110156104f057600080fd5b81019080803573ffffffffffffffffffffffffffffffffffffffff169060200190929190803573ffffffffffffffffffffffffffffffffffffffff16906020019092919080359060200190929190505050611cbe565b60405180821515815260200191505060405180910390f35b34801561056a57600080fd5b506105ad6004803603602081101561058157600080fd5b81019080803573ffffffffffffffffffffffffffffffffffffffff169060200190929190505050611d89565b005b3480156105bb57600080fd5b506105c4611e8e565b604051808260ff16815260200191505060405180910390f35b3480156105e957600080fd5b506105f2611e97565b604051808273ffffffffffffffffffffffffffffffffffffffff16815260200191505060405180910390f35b34801561062a57600080fd5b506106796004803603604081101561064157600080fd5b81019080803573ffffffffffffffffffffffffffffffffffffffff169060200190929190803515159060200190929190505050611ebd565b005b34801561068757600080fd5b506106b46004803603602081101561069e57600080fd5b8101908080359060200190929190505050611fd9565b60405180821515815260200191505060405180910390f35b610718600480360360408110156106e257600080fd5b81019080803573ffffffffffffffffffffffffffffffffffffffff16906020019092919080359060200190929190505050611fee565b6040518082815260200191505060405180910390f35b34801561073a57600080fd5b506107776004803603604081101561075157600080fd5b81019080803560ff169060200190929190803560ff1690602001909291905050506129d3565b005b34801561078557600080fd5b5061078e612ad4565b604051808481526020018381526020018273ffffffffffffffffffffffffffffffffffffffff168152602001935050505060405180910390f35b3480156107d457600080fd5b506108d7600480360360e08110156107eb57600080fd5b81019080803573ffffffffffffffffffffffffffffffffffffffff169060200190929190803573ffffffffffffffffffffffffffffffffffffffff169060200190929190803573ffffffffffffffffffffffffffffffffffffffff169060200190929190803573ffffffffffffffffffffffffffffffffffffffff169060200190929190803573ffffffffffffffffffffffffffffffffffffffff169060200190929190803573ffffffffffffffffffffffffffffffffffffffff169060200190929190803573ffffffffffffffffffffffffffffffffffffffff169060200190929190505050612b16565b005b3480156108e557600080fd5b50610928600480360360208110156108fc57600080fd5b81019080803573ffffffffffffffffffffffffffffffffffffffff169060200190929190505050612db0565b6040518082815260200191505060405180910390f35b34801561094a57600080fd5b50610953612df9565b005b34801561096157600080fd5b506109c26004803603608081101561097857600080fd5b81019080803573ffffffffffffffffffffffffffffffffffffffff169060200190929190803590602001909291908035906020019092919080359060200190929190505050612f78565b6040518082815260200191505060405180910390f35b3480156109e457600080fd5b506109ed6131c5565b604051808481526020018381526020018273ffffffffffffffffffffffffffffffffffffffff168152602001935050505060405180910390f35b348015610a3357600080fd5b50610a3c6131fd565b604051808260ff16815260200191505060405180910390f35b348015610a6157600080fd5b50610a6a613217565b604051808273ffffffffffffffffffffffffffffffffffffffff16815260200191505060405180910390f35b348015610aa257600080fd5b50610aab61323d565b604051808273ffffffffffffffffffffffffffffffffffffffff16815260200191505060405180910390f35b348015610ae357600080fd5b50610aec613266565b6040518080602001828103825283818151815260200191508051906020019080838360005b83811015610b2c578082015181840152602081019050610b11565b50505050905090810190601f168015610b595780820380516001836020036101000a031916815260200191505b509250505060405180910390f35b348015610b7357600080fd5b50610bb660048036036020811015610b8a57600080fd5b81019080803573ffffffffffffffffffffffffffffffffffffffff1690602001909291905050506132a3565b60405180821515815260200191505060405180910390f35b348015610bda57600080fd5b50610c2760048036036040811015610bf157600080fd5b81019080803573ffffffffffffffffffffffffffffffffffffffff169060200190929190803590602001909291905050506132c3565b60405180821515815260200191505060405180910390f35b348015610c4b57600080fd5b50610c9860048036036040811015610c6257600080fd5b81019080803573ffffffffffffffffffffffffffffffffffffffff169060200190929190803590602001909291905050506132da565b005b348015610ca657600080fd5b50610d0960048036036040811015610cbd57600080fd5b81019080803573ffffffffffffffffffffffffffffffffffffffff169060200190929190803573ffffffffffffffffffffffffffffffffffffffff16906020019092919050505061338e565b6040518082815260200191505060405180910390f35b348015610d2b57600080fd5b50610d6e60048036036020811015610d4257600080fd5b81019080803573ffffffffffffffffffffffffffffffffffffffff169060200190929190505050613415565b60405180821515815260200191505060405180910390f35b348015610d9257600080fd5b50610dd560048036036020811015610da957600080fd5b81019080803573ffffffffffffffffffffffffffffffffffffffff169060200190929190505050613435565b60405180821515815260200191505060405180910390f35b348015610df957600080fd5b50610e5460048036036060811015610e1057600080fd5b81019080803573ffffffffffffffffffffffffffffffffffffffff169060200190929190803515159060200190929190803515159060200190929190505050613455565b005b348015610e6257600080fd5b50610ea560048036036020811015610e7957600080fd5b81019080803573ffffffffffffffffffffffffffffffffffffffff169060200190929190505050613562565b005b610f1d60048036036080811015610ebd57600080fd5b81019080803573ffffffffffffffffffffffffffffffffffffffff169060200190929190803573ffffffffffffffffffffffffffffffffffffffff1690602001909291908035906020019092919080359060200190929190505050613766565b60405180821515815260200191505060405180910390f35b348015610f4157600080fd5b50610f4a614517565b604051808273ffffffffffffffffffffffffffffffffffffffff16815260200191505060405180910390f35b3373ffffffffffffffffffffffffffffffffffffffff1660008054906101000a900473ffffffffffffffffffffffffffffffffffffffff1673ffffffffffffffffffffffffffffffffffffffff1614611037576040517f08c379a00000000000000000000000000000000000000000000000000000000081526004018080602001828103825260208152602001807f4f776e61626c653a2063616c6c6572206973206e6f7420746865206f776e657281525060200191505060405180910390fd5b6103e8600560010154600560000154011061105157600080fd5b826005600001819055508160056001018190555080600560020160006101000a81548173ffffffffffffffffffffffffffffffffffffffff021916908373ffffffffffffffffffffffffffffffffffffffff160217905550505050565b600f60009054906101000a900473ffffffffffffffffffffffffffffffffffffffff1673ffffffffffffffffffffffffffffffffffffffff16630e7fc864336040518263ffffffff1660e01b8152600401808273ffffffffffffffffffffffffffffffffffffffff168152602001915050602060405180830381600087803b15801561113957600080fd5b505af115801561114d573d6000803e3d6000fd5b505050506040513d602081101561116357600080fd5b81019080805190602001909291905050506111c9576040517f08c379a00000000000000000000000000000000000000000000000000000000081526004018080602001828103825260218152602001806158356021913960400191505060405180910390fd5b61121b82600160008473ffffffffffffffffffffffffffffffffffffffff1673ffffffffffffffffffffffffffffffffffffffff1681526020019081526020016000205461453d90919063ffffffff16565b600160008373ffffffffffffffffffffffffffffffffffffffff1673ffffffffffffffffffffffffffffffffffffffff168152602001908152602001600020819055508073ffffffffffffffffffffffffffffffffffffffff16634b64e492336040518263ffffffff1660e01b8152600401808273ffffffffffffffffffffffffffffffffffffffff168152602001915050600060405180830381600087803b1580156112c757600080fd5b505af11580156112db573d6000803e3d6000fd5b5050505061134b8260405180606001604052806024815260200161587a60249139600160008573ffffffffffffffffffffffffffffffffffffffff1673ffffffffffffffffffffffffffffffffffffffff168152602001908152602001600020546145c59092919063ffffffff16565b600160008373ffffffffffffffffffffffffffffffffffffffff1673ffffffffffffffffffffffffffffffffffffffff168152602001908152602001600020819055505050565b600082600034111561148a57600c60009054906101000a900473ffffffffffffffffffffffffffffffffffffffff1673ffffffffffffffffffffffffffffffffffffffff168173ffffffffffffffffffffffffffffffffffffffff1614611444576040517f08c379a00000000000000000000000000000000000000000000000000000000081526004018080602001828103825260298152602001806157a16029913960400191505060405180910390fd5b30601060006101000a81548173ffffffffffffffffffffffffffffffffffffffff021916908373ffffffffffffffffffffffffffffffffffffffff1602179055506114cc565b33601060006101000a81548173ffffffffffffffffffffffffffffffffffffffff021916908373ffffffffffffffffffffffffffffffffffffffff1602179055505b83601460003373ffffffffffffffffffffffffffffffffffffffff1673ffffffffffffffffffffffffffffffffffffffff16815260200190815260200160002060009054906101000a900460ff168061156e5750601360008273ffffffffffffffffffffffffffffffffffffffff1673ffffffffffffffffffffffffffffffffffffffff16815260200190815260200160002060009054906101000a900460ff165b806115ff5750600073ffffffffffffffffffffffffffffffffffffffff168173ffffffffffffffffffffffffffffffffffffffff16141580156115fe5750600c60009054906101000a900473ffffffffffffffffffffffffffffffffffffffff1673ffffffffffffffffffffffffffffffffffffffff168173ffffffffffffffffffffffffffffffffffffffff16145b5b611671576040517f08c379a00000000000000000000000000000000000000000000000000000000081526004018080602001828103825260178152602001807f4245484f444c45523a20746f6b656e20696e76616c696400000000000000000081525060200191505060405180910390fd5b6002600081600281111561168157fe5b90506011816003811061169057fe5b602091828204019190069054906101000a900460ff166116fb576040517f08c379a00000000000000000000000000000000000000000000000000000000081526004018080602001828103825260228152602001806158136022913960400191505060405180910390fd5b60006011826003811061170a57fe5b602091828204019190066101000a81548160ff02191690831515021790555060008773ffffffffffffffffffffffffffffffffffffffff1673__AddressBalanceCheck___________________63eedc966a90916040518263ffffffff1660e01b8152600401808273ffffffffffffffffffffffffffffffffffffffff16815260200191505060206040518083038186803b1580156117a857600080fd5b505af41580156117bc573d6000803e3d6000fd5b505050506040513d60208110156117d257600080fd5b8101908080519060200190929190505050905060006117fa888361468590919063ffffffff16565b905064e8d4a510008111611876576040517f08c379a00000000000000000000000000000000000000000000000000000000081526004018080602001828103825260178152602001807f4245484f444c45523a206d696e206c697175696469747900000000000000000081525060200191505060405180910390fd5b600b60000160019054906101000a900460ff1660ff166118b2836118a460648c6146cf90919063ffffffff16565b61475590919063ffffffff16565b1115611909576040517f08c379a000000000000000000000000000000000000000000000000000000000815260040180806020018281038252602981526020018061589e6029913960400191505060405180910390fd5b60006119148361479f565b905060006119218361479f565b905060018311611932576000611934565b805b820398506000600160003373ffffffffffffffffffffffffffffffffffffffff1673ffffffffffffffffffffffffffffffffffffffff168152602001908152602001600020549050808a11156119a7576000818b03905060008b61271083028161199a57fe5b0414156119a557819a505b505b6119b1338b6148ba565b600c60009054906101000a900473ffffffffffffffffffffffffffffffffffffffff1673ffffffffffffffffffffffffffffffffffffffff168c73ffffffffffffffffffffffffffffffffffffffff161415611abd576000339050600c60009054906101000a900473ffffffffffffffffffffffffffffffffffffffff1673ffffffffffffffffffffffffffffffffffffffff1663205c2878828e6040518363ffffffff1660e01b8152600401808373ffffffffffffffffffffffffffffffffffffffff16815260200182815260200192505050600060405180830381600087803b158015611a9f57600080fd5b505af1158015611ab3573d6000803e3d6000fd5b5050505050611b79565b8b73ffffffffffffffffffffffffffffffffffffffff1673__AddressBalanceCheck___________________63078d3b799091338e6040518463ffffffff1660e01b8152600401808473ffffffffffffffffffffffffffffffffffffffff1681526020018373ffffffffffffffffffffffffffffffffffffffff168152602001828152602001935050505060006040518083038186803b158015611b6057600080fd5b505af4158015611b74573d6000803e3d6000fd5b505050505b7fba0b893b2f314a229997e335266881b5ac6b290bd350d2c23cc57160b77882b8338d8d8d604051808573ffffffffffffffffffffffffffffffffffffffff1681526020018473ffffffffffffffffffffffffffffffffffffffff16815260200183815260200182815260200194505050505060405180910390a15050505050600160118260038110611c0857fe5b602091828204019190066101000a81548160ff0219169083151502179055505050505092915050565b60606040518060400160405280600881526020017f5363617263697479000000000000000000000000000000000000000000000000815250905090565b600d60009054906101000a900473ffffffffffffffffffffffffffffffffffffffff1681565b6000611ca13384846149dc565b6001905092915050565b6000600354905090565b64e8d4a5100081565b6000611ccb848484614bd3565b611d7e8433611d79856040518060600160405280602881526020016157eb60289139600260008b73ffffffffffffffffffffffffffffffffffffffff1673ffffffffffffffffffffffffffffffffffffffff16815260200190815260200160002060003373ffffffffffffffffffffffffffffffffffffffff1673ffffffffffffffffffffffffffffffffffffffff168152602001908152602001600020546145c59092919063ffffffff16565b6149dc565b600190509392505050565b3373ffffffffffffffffffffffffffffffffffffffff1660008054906101000a900473ffffffffffffffffffffffffffffffffffffffff1673ffffffffffffffffffffffffffffffffffffffff1614611e4a576040517f08c379a00000000000000000000000000000000000000000000000000000000081526004018080602001828103825260208152602001807f4f776e61626c653a2063616c6c6572206973206e6f7420746865206f776e657281525060200191505060405180910390fd5b80600460006101000a81548173ffffffffffffffffffffffffffffffffffffffff021916908373ffffffffffffffffffffffffffffffffffffffff16021790555050565b60006012905090565b600c60009054906101000a900473ffffffffffffffffffffffffffffffffffffffff1681565b3373ffffffffffffffffffffffffffffffffffffffff1660008054906101000a900473ffffffffffffffffffffffffffffffffffffffff1673ffffffffffffffffffffffffffffffffffffffff1614611f7e576040517f08c379a00000000000000000000000000000000000000000000000000000000081526004018080602001828103825260208152602001807f4f776e61626c653a2063616c6c6572206973206e6f7420746865206f776e657281525060200191505060405180910390fd5b80601460008473ffffffffffffffffffffffffffffffffffffffff1673ffffffffffffffffffffffffffffffffffffffff16815260200190815260200160002060006101000a81548160ff0219169083151502179055505050565b6000611fe533836148ba565b60019050919050565b60008260003411156120e657600c60009054906101000a900473ffffffffffffffffffffffffffffffffffffffff1673ffffffffffffffffffffffffffffffffffffffff168173ffffffffffffffffffffffffffffffffffffffff16146120a0576040517f08c379a00000000000000000000000000000000000000000000000000000000081526004018080602001828103825260298152602001806157a16029913960400191505060405180910390fd5b30601060006101000a81548173ffffffffffffffffffffffffffffffffffffffff021916908373ffffffffffffffffffffffffffffffffffffffff160217905550612128565b33601060006101000a81548173ffffffffffffffffffffffffffffffffffffffff021916908373ffffffffffffffffffffffffffffffffffffffff1602179055505b83601460003373ffffffffffffffffffffffffffffffffffffffff1673ffffffffffffffffffffffffffffffffffffffff16815260200190815260200160002060009054906101000a900460ff16806121ca5750601360008273ffffffffffffffffffffffffffffffffffffffff1673ffffffffffffffffffffffffffffffffffffffff16815260200190815260200160002060009054906101000a900460ff165b8061225b5750600073ffffffffffffffffffffffffffffffffffffffff168173ffffffffffffffffffffffffffffffffffffffff161415801561225a5750600c60009054906101000a900473ffffffffffffffffffffffffffffffffffffffff1673ffffffffffffffffffffffffffffffffffffffff168173ffffffffffffffffffffffffffffffffffffffff16145b5b6122cd576040517f08c379a00000000000000000000000000000000000000000000000000000000081526004018080602001828103825260178152602001807f4245484f444c45523a20746f6b656e20696e76616c696400000000000000000081525060200191505060405180910390fd5b600160008160028111156122dd57fe5b9050601181600381106122ec57fe5b602091828204019190069054906101000a900460ff16612357576040517f08c379a00000000000000000000000000000000000000000000000000000000081526004018080602001828103825260228152602001806158136022913960400191505060405180910390fd5b60006011826003811061236657fe5b602091828204019190066101000a81548160ff02191690831515021790555060006124548873ffffffffffffffffffffffffffffffffffffffff1673__AddressBalanceCheck___________________637fed018f909164e8d4a510006040518363ffffffff1660e01b8152600401808373ffffffffffffffffffffffffffffffffffffffff1681526020018281526020019250505060206040518083038186803b15801561241457600080fd5b505af4158015612428573d6000803e3d6000fd5b505050506040513d602081101561243e57600080fd5b8101908080519060200190929190505050615044565b600f0b9050600c60009054906101000a900473ffffffffffffffffffffffffffffffffffffffff1673ffffffffffffffffffffffffffffffffffffffff168873ffffffffffffffffffffffffffffffffffffffff16141561273c5786600c60009054906101000a900473ffffffffffffffffffffffffffffffffffffffff1673ffffffffffffffffffffffffffffffffffffffff166370a08231336040518263ffffffff1660e01b8152600401808273ffffffffffffffffffffffffffffffffffffffff16815260200191505060206040518083038186803b15801561253957600080fd5b505afa15801561254d573d6000803e3d6000fd5b505050506040513d602081101561256357600080fd5b81019080805190602001909291905050501061265b57600c60009054906101000a900473ffffffffffffffffffffffffffffffffffffffff1673ffffffffffffffffffffffffffffffffffffffff1673__AddressBalanceCheck___________________63e4652f499091338a6040518463ffffffff1660e01b8152600401808473ffffffffffffffffffffffffffffffffffffffff1681526020018373ffffffffffffffffffffffffffffffffffffffff168152602001828152602001935050505060006040518083038186803b15801561263e57600080fd5b505af4158015612652573d6000803e3d6000fd5b50505050612737565b8634146126b3576040517f08c379a00000000000000000000000000000000000000000000000000000000081526004018080602001828103825260218152602001806158c76021913960400191505060405180910390fd5b600c60009054906101000a900473ffffffffffffffffffffffffffffffffffffffff1673ffffffffffffffffffffffffffffffffffffffff1663d0e30db0346040518263ffffffff1660e01b81526004016000604051808303818588803b15801561271d57600080fd5b505af1158015612731573d6000803e3d6000fd5b50505050505b61281a565b8773ffffffffffffffffffffffffffffffffffffffff1673__AddressBalanceCheck___________________63e4652f499091601060009054906101000a900473ffffffffffffffffffffffffffffffffffffffff168a6040518463ffffffff1660e01b8152600401808473ffffffffffffffffffffffffffffffffffffffff1681526020018373ffffffffffffffffffffffffffffffffffffffff168152602001828152602001935050505060006040518083038186803b15801561280157600080fd5b505af4158015612815573d6000803e3d6000fd5b505050505b600061285761285264e8d4a510006128446128358d8d615067565b8c61468590919063ffffffff16565b61475590919063ffffffff16565b615044565b600f0b90506000612871828461453d90919063ffffffff16565b905064e8d4a510008110156128ee576040517f08c379a00000000000000000000000000000000000000000000000000000000081526004018080602001828103825260188152602001807f4245484f444c45523a206d696e206c69717569646974792e000000000000000081525060200191505060405180910390fd5b600183116128fd576000612907565b6129068361479f565b5b6129108261479f565b03975061291d33896153ba565b7f36f3b2e1a21c19137dd82ec243b0708a1d26b3d1fa1dc49c44c4c366a5878138338b8b8b604051808573ffffffffffffffffffffffffffffffffffffffff1681526020018473ffffffffffffffffffffffffffffffffffffffff16815260200183815260200182815260200194505050505060405180910390a15050506001601182600381106129aa57fe5b602091828204019190066101000a81548160ff0219169083151502179055505050505092915050565b3373ffffffffffffffffffffffffffffffffffffffff1660008054906101000a900473ffffffffffffffffffffffffffffffffffffffff1673ffffffffffffffffffffffffffffffffffffffff1614612a94576040517f08c379a00000000000000000000000000000000000000000000000000000000081526004018080602001828103825260208152602001807f4f776e61626c653a2063616c6c6572206973206e6f7420746865206f776e657281525060200191505060405180910390fd5b81600b60000160006101000a81548160ff021916908360ff16021790555080600b60000160016101000a81548160ff021916908360ff1602179055505050565b6000806000600560000154600560010154600560020160009054906101000a900473ffffffffffffffffffffffffffffffffffffffff16925092509250909192565b3373ffffffffffffffffffffffffffffffffffffffff1660008054906101000a900473ffffffffffffffffffffffffffffffffffffffff1673ffffffffffffffffffffffffffffffffffffffff1614612bd7576040517f08c379a00000000000000000000000000000000000000000000000000000000081526004018080602001828103825260208152602001807f4f776e61626c653a2063616c6c6572206973206e6f7420746865206f776e657281525060200191505060405180910390fd5b86600c60006101000a81548173ffffffffffffffffffffffffffffffffffffffff021916908373ffffffffffffffffffffffffffffffffffffffff16021790555085600d60006101000a81548173ffffffffffffffffffffffffffffffffffffffff021916908373ffffffffffffffffffffffffffffffffffffffff16021790555084600f60006101000a81548173ffffffffffffffffffffffffffffffffffffffff021916908373ffffffffffffffffffffffffffffffffffffffff16021790555083600e60006101000a81548173ffffffffffffffffffffffffffffffffffffffff021916908373ffffffffffffffffffffffffffffffffffffffff16021790555082600860010160006101000a81548173ffffffffffffffffffffffffffffffffffffffff021916908373ffffffffffffffffffffffffffffffffffffffff16021790555081600860000160006101000a81548173ffffffffffffffffffffffffffffffffffffffff021916908373ffffffffffffffffffffffffffffffffffffffff16021790555080600860020160006101000a81548173ffffffffffffffffffffffffffffffffffffffff021916908373ffffffffffffffffffffffffffffffffffffffff16021790555050505050505050565b6000600160008373ffffffffffffffffffffffffffffffffffffffff1673ffffffffffffffffffffffffffffffffffffffff168152602001908152602001600020549050919050565b3373ffffffffffffffffffffffffffffffffffffffff1660008054906101000a900473ffffffffffffffffffffffffffffffffffffffff1673ffffffffffffffffffffffffffffffffffffffff1614612eba576040517f08c379a00000000000000000000000000000000000000000000000000000000081526004018080602001828103825260208152602001807f4f776e61626c653a2063616c6c6572206973206e6f7420746865206f776e657281525060200191505060405180910390fd5b600073ffffffffffffffffffffffffffffffffffffffff1660008054906101000a900473ffffffffffffffffffffffffffffffffffffffff1673ffffffffffffffffffffffffffffffffffffffff167f8be0079c531659141344cd1fd0a4f28419497f9722a3daafe3b4186f6b6457e060405160405180910390a360008060006101000a81548173ffffffffffffffffffffffffffffffffffffffff021916908373ffffffffffffffffffffffffffffffffffffffff160217905550565b6000808573ffffffffffffffffffffffffffffffffffffffff1673__AddressBalanceCheck___________________63eedc966a90916040518263ffffffff1660e01b8152600401808273ffffffffffffffffffffffffffffffffffffffff16815260200191505060206040518083038186803b158015612ff857600080fd5b505af415801561300c573d6000803e3d6000fd5b505050506040513d602081101561302257600080fd5b810190808051906020019092919050505090506000805b848110156131b65760008873ffffffffffffffffffffffffffffffffffffffff1673__AddressBalanceCheck___________________63eedc966a90916040518263ffffffff1660e01b8152600401808273ffffffffffffffffffffffffffffffffffffffff16815260200191505060206040518083038186803b1580156130c057600080fd5b505af41580156130d4573d6000803e3d6000fd5b505050506040513d60208110156130ea57600080fd5b810190808051906020019092919050505090506000613112898361468590919063ffffffff16565b9050600061311f8361479f565b9050600061312c8361479f565b905060006001841161313f576000613141565b815b830390506000818c0390506000811415613166578c99505050505050505050506131bd565b600081121561317a5760018d039850613181565b60018d0197505b876002898b038161318e57fe5b04019c50858d1161319f578c6131a1565b855b9c505050505050508080600101915050613039565b5085925050505b949350505050565b60058060000154908060010154908060020160009054906101000a900473ffffffffffffffffffffffffffffffffffffffff16905083565b6000600b60000160019054906101000a900460ff16905090565b600460009054906101000a900473ffffffffffffffffffffffffffffffffffffffff1681565b60008060009054906101000a900473ffffffffffffffffffffffffffffffffffffffff16905090565b60606040518060400160405280600381526020017f5343580000000000000000000000000000000000000000000000000000000000815250905090565b60126020528060005260406000206000915054906101000a900460ff1681565b60006132d0338484614bd3565b6001905092915050565b600460009054906101000a900473ffffffffffffffffffffffffffffffffffffffff1673ffffffffffffffffffffffffffffffffffffffff163373ffffffffffffffffffffffffffffffffffffffff1614613380576040517f08c379a00000000000000000000000000000000000000000000000000000000081526004018080602001828103825260218152602001806156ea6021913960400191505060405180910390fd5b61338a82826153ba565b5050565b6000600260008473ffffffffffffffffffffffffffffffffffffffff1673ffffffffffffffffffffffffffffffffffffffff16815260200190815260200160002060008373ffffffffffffffffffffffffffffffffffffffff1673ffffffffffffffffffffffffffffffffffffffff16815260200190815260200160002054905092915050565b60136020528060005260406000206000915054906101000a900460ff1681565b60146020528060005260406000206000915054906101000a900460ff1681565b600d60009054906101000a900473ffffffffffffffffffffffffffffffffffffffff1673ffffffffffffffffffffffffffffffffffffffff163373ffffffffffffffffffffffffffffffffffffffff16146134af57600080fd5b81601360008573ffffffffffffffffffffffffffffffffffffffff1673ffffffffffffffffffffffffffffffffffffffff16815260200190815260200160002060006101000a81548160ff02191690831515021790555080601260008573ffffffffffffffffffffffffffffffffffffffff1673ffffffffffffffffffffffffffffffffffffffff16815260200190815260200160002060006101000a81548160ff021916908315150217905550505050565b3373ffffffffffffffffffffffffffffffffffffffff1660008054906101000a900473ffffffffffffffffffffffffffffffffffffffff1673ffffffffffffffffffffffffffffffffffffffff1614613623576040517f08c379a00000000000000000000000000000000000000000000000000000000081526004018080602001828103825260208152602001807f4f776e61626c653a2063616c6c6572206973206e6f7420746865206f776e657281525060200191505060405180910390fd5b600073ffffffffffffffffffffffffffffffffffffffff168173ffffffffffffffffffffffffffffffffffffffff1614156136a9576040517f08c379a000000000000000000000000000000000000000000000000000000000815260040180806020018281038252602681526020018061570b6026913960400191505060405180910390fd5b8073ffffffffffffffffffffffffffffffffffffffff1660008054906101000a900473ffffffffffffffffffffffffffffffffffffffff1673ffffffffffffffffffffffffffffffffffffffff167f8be0079c531659141344cd1fd0a4f28419497f9722a3daafe3b4186f6b6457e060405160405180910390a3806000806101000a81548173ffffffffffffffffffffffffffffffffffffffff021916908373ffffffffffffffffffffffffffffffffffffffff16021790555050565b600084600034111561385e57600c60009054906101000a900473ffffffffffffffffffffffffffffffffffffffff1673ffffffffffffffffffffffffffffffffffffffff168173ffffffffffffffffffffffffffffffffffffffff1614613818576040517f08c379a00000000000000000000000000000000000000000000000000000000081526004018080602001828103825260298152602001806157a16029913960400191505060405180910390fd5b30601060006101000a81548173ffffffffffffffffffffffffffffffffffffffff021916908373ffffffffffffffffffffffffffffffffffffffff1602179055506138a0565b33601060006101000a81548173ffffffffffffffffffffffffffffffffffffffff021916908373ffffffffffffffffffffffffffffffffffffffff1602179055505b85601460003373ffffffffffffffffffffffffffffffffffffffff1673ffffffffffffffffffffffffffffffffffffffff16815260200190815260200160002060009054906101000a900460ff16806139425750601360008273ffffffffffffffffffffffffffffffffffffffff1673ffffffffffffffffffffffffffffffffffffffff16815260200190815260200160002060009054906101000a900460ff165b806139d35750600073ffffffffffffffffffffffffffffffffffffffff168173ffffffffffffffffffffffffffffffffffffffff16141580156139d25750600c60009054906101000a900473ffffffffffffffffffffffffffffffffffffffff1673ffffffffffffffffffffffffffffffffffffffff168173ffffffffffffffffffffffffffffffffffffffff16145b5b613a45576040517f08c379a00000000000000000000000000000000000000000000000000000000081526004018080602001828103825260178152602001807f4245484f444c45523a20746f6b656e20696e76616c696400000000000000000081525060200191505060405180910390fd5b600080816002811115613a5457fe5b905060118160038110613a6357fe5b602091828204019190069054906101000a900460ff16613ace576040517f08c379a00000000000000000000000000000000000000000000000000000000081526004018080602001828103825260228152602001806158136022913960400191505060405180910390fd5b600060118260038110613add57fe5b602091828204019190066101000a81548160ff02191690831515021790555060008973ffffffffffffffffffffffffffffffffffffffff1673__AddressBalanceCheck___________________63eedc966a90916040518263ffffffff1660e01b8152600401808273ffffffffffffffffffffffffffffffffffffffff16815260200191505060206040518083038186803b158015613b7b57600080fd5b505af4158015613b8f573d6000803e3d6000fd5b505050506040513d6020811015613ba557600080fd5b81019080805190602001909291905050509050600c60009054906101000a900473ffffffffffffffffffffffffffffffffffffffff1673ffffffffffffffffffffffffffffffffffffffff168a73ffffffffffffffffffffffffffffffffffffffff161415613e9b5787600c60009054906101000a900473ffffffffffffffffffffffffffffffffffffffff1673ffffffffffffffffffffffffffffffffffffffff166370a08231336040518263ffffffff1660e01b8152600401808273ffffffffffffffffffffffffffffffffffffffff16815260200191505060206040518083038186803b158015613c9857600080fd5b505afa158015613cac573d6000803e3d6000fd5b505050506040513d6020811015613cc257600080fd5b810190808051906020019092919050505010613dba57600c60009054906101000a900473ffffffffffffffffffffffffffffffffffffffff1673ffffffffffffffffffffffffffffffffffffffff1673__AddressBalanceCheck___________________63e4652f499091338b6040518463ffffffff1660e01b8152600401808473ffffffffffffffffffffffffffffffffffffffff1681526020018373ffffffffffffffffffffffffffffffffffffffff168152602001828152602001935050505060006040518083038186803b158015613d9d57600080fd5b505af4158015613db1573d6000803e3d6000fd5b50505050613e96565b873414613e12576040517f08c379a00000000000000000000000000000000000000000000000000000000081526004018080602001828103825260218152602001806158c76021913960400191505060405180910390fd5b600c60009054906101000a900473ffffffffffffffffffffffffffffffffffffffff1673ffffffffffffffffffffffffffffffffffffffff1663d0e30db0346040518263ffffffff1660e01b81526004016000604051808303818588803b158015613e7c57600080fd5b505af1158015613e90573d6000803e3d6000fd5b50505050505b613f79565b8973ffffffffffffffffffffffffffffffffffffffff1673__AddressBalanceCheck___________________63e4652f499091601060009054906101000a900473ffffffffffffffffffffffffffffffffffffffff168b6040518463ffffffff1660e01b8152600401808473ffffffffffffffffffffffffffffffffffffffff1681526020018373ffffffffffffffffffffffffffffffffffffffff168152602001828152602001935050505060006040518083038186803b158015613f6057600080fd5b505af4158015613f74573d6000803e3d6000fd5b505050505b6000613f97613f888c8b615067565b8a61468590919063ffffffff16565b905060008a73ffffffffffffffffffffffffffffffffffffffff1673__AddressBalanceCheck___________________63eedc966a90916040518263ffffffff1660e01b8152600401808273ffffffffffffffffffffffffffffffffffffffff16815260200191505060206040518083038186803b15801561401857600080fd5b505af415801561402c573d6000803e3d6000fd5b505050506040513d602081101561404257600080fd5b81019080805190602001909291905050509050600b60000160019054906101000a900460ff1660ff166140918261408360648d6146cf90919063ffffffff16565b61475590919063ffffffff16565b11156140e8576040517f08c379a000000000000000000000000000000000000000000000000000000000815260040180806020018281038252602981526020018061589e6029913960400191505060405180910390fd5b60006140fd838561453d90919063ffffffff16565b905060006141148b8461468590919063ffffffff16565b9050600061414383600b60000160009054906101000a900460ff1660ff1688901b61475590919063ffffffff16565b9050600061417285600b60000160009054906101000a900460ff1660ff1685901b61475590919063ffffffff16565b90506000821415801561418457508082145b6141f6576040517f08c379a00000000000000000000000000000000000000000000000000000000081526004018080602001828103825260198152602001807f4245484f444c45523a207377617020696e76617269616e742e0000000000000081525060200191505060405180910390fd5b505064e8d4a51000811015614273576040517f08c379a00000000000000000000000000000000000000000000000000000000081526004018080602001828103825260188152602001807f4245484f444c45523a206d696e206c69717569646974792e000000000000000081525060200191505060405180910390fd5b600c60009054906101000a900473ffffffffffffffffffffffffffffffffffffffff1673ffffffffffffffffffffffffffffffffffffffff168d73ffffffffffffffffffffffffffffffffffffffff16141561437f576000339050600c60009054906101000a900473ffffffffffffffffffffffffffffffffffffffff1673ffffffffffffffffffffffffffffffffffffffff1663205c2878828e6040518363ffffffff1660e01b8152600401808373ffffffffffffffffffffffffffffffffffffffff16815260200182815260200192505050600060405180830381600087803b15801561436157600080fd5b505af1158015614375573d6000803e3d6000fd5b505050505061443b565b8c73ffffffffffffffffffffffffffffffffffffffff1673__AddressBalanceCheck___________________63078d3b799091338e6040518463ffffffff1660e01b8152600401808473ffffffffffffffffffffffffffffffffffffffff1681526020018373ffffffffffffffffffffffffffffffffffffffff168152602001828152602001935050505060006040518083038186803b15801561442257600080fd5b505af4158015614436573d6000803e3d6000fd5b505050505b7fcd3829a3813dc3cdd188fd3d01dcf3268c16be2fdd2dd21d0665418816e46062338f8f8f8f604051808673ffffffffffffffffffffffffffffffffffffffff1681526020018573ffffffffffffffffffffffffffffffffffffffff1681526020018473ffffffffffffffffffffffffffffffffffffffff1681526020018381526020018281526020019550505050505060405180910390a16001995050505050506001601182600381106144ec57fe5b602091828204019190066101000a81548160ff02191690831515021790555050505050949350505050565b600f60009054906101000a900473ffffffffffffffffffffffffffffffffffffffff1681565b6000808284019050838110156145bb576040517f08c379a000000000000000000000000000000000000000000000000000000000815260040180806020018281038252601b8152602001807f536166654d6174683a206164646974696f6e206f766572666c6f77000000000081525060200191505060405180910390fd5b8091505092915050565b6000838311158290614672576040517f08c379a00000000000000000000000000000000000000000000000000000000081526004018080602001828103825283818151815260200191508051906020019080838360005b8381101561463757808201518184015260208101905061461c565b50505050905090810190601f1680156146645780820380516001836020036101000a031916815260200191505b509250505060405180910390fd5b5060008385039050809150509392505050565b60006146c783836040518060400160405280601e81526020017f536166654d6174683a207375627472616374696f6e206f766572666c6f7700008152506145c5565b905092915050565b6000808314156146e2576000905061474f565b60008284029050828482816146f357fe5b041461474a576040517f08c379a00000000000000000000000000000000000000000000000000000000081526004018080602001828103825260218152602001806157ca6021913960400191505060405180910390fd5b809150505b92915050565b600061479783836040518060400160405280601a81526020017f536166654d6174683a206469766973696f6e206279207a65726f0000000000008152506154e1565b905092915050565b60008082116147ad57600080fd5b6000808390506801000000000000000081106147d157604081901c90506040820191505b64010000000081106147eb57602081901c90506020820191505b62010000811061480357601081901c90506010820191505b610100811061481a57600881901c90506008820191505b6010811061483057600481901c90506004820191505b6004811061484657600281901c90506002820191505b60028110614855576001820191505b60006040808403901b9050600083607f0386901b9050600067800000000000000090505b60008111156148ad578182029150600060ff83901c905080607f0183901c92508082028401935050600181901c9050614879565b5081945050505050919050565b614943816040518060400160405280601c81526020017f53434152434954593a20696e73756666696369656e742066756e647300000000815250600160008673ffffffffffffffffffffffffffffffffffffffff1673ffffffffffffffffffffffffffffffffffffffff168152602001908152602001600020546145c59092919063ffffffff16565b600160008473ffffffffffffffffffffffffffffffffffffffff1673ffffffffffffffffffffffffffffffffffffffff1681526020019081526020016000208190555061499b8160035461468590919063ffffffff16565b6003819055507fb90306ad06b2a6ff86ddc9327db583062895ef6540e62dc50add009db5b356eb816040518082815260200191505060405180910390a15050565b600073ffffffffffffffffffffffffffffffffffffffff168373ffffffffffffffffffffffffffffffffffffffff161415614a62576040517f08c379a00000000000000000000000000000000000000000000000000000000081526004018080602001828103825260248152602001806158566024913960400191505060405180910390fd5b600073ffffffffffffffffffffffffffffffffffffffff168273ffffffffffffffffffffffffffffffffffffffff161415614ae8576040517f08c379a00000000000000000000000000000000000000000000000000000000081526004018080602001828103825260228152602001806157316022913960400191505060405180910390fd5b80600260008573ffffffffffffffffffffffffffffffffffffffff1673ffffffffffffffffffffffffffffffffffffffff16815260200190815260200160002060008473ffffffffffffffffffffffffffffffffffffffff1673ffffffffffffffffffffffffffffffffffffffff168152602001908152602001600020819055508173ffffffffffffffffffffffffffffffffffffffff168373ffffffffffffffffffffffffffffffffffffffff167f8c5be1e5ebec7d5bd14f71427d1e84f3dd0314c0f7b2291e5b200ac8c7c3b925836040518082815260200191505060405180910390a3505050565b600073ffffffffffffffffffffffffffffffffffffffff168373ffffffffffffffffffffffffffffffffffffffff161415614c59576040517f08c379a00000000000000000000000000000000000000000000000000000000081526004018080602001828103825260288152602001806157536028913960400191505060405180910390fd5b600073ffffffffffffffffffffffffffffffffffffffff168273ffffffffffffffffffffffffffffffffffffffff161415614cdf576040517f08c379a000000000000000000000000000000000000000000000000000000000815260040180806020018281038252602681526020018061577b6026913960400191505060405180910390fd5b6000614d0d6103e8614cff846005600001546146cf90919063ffffffff16565b61475590919063ffffffff16565b90506000614d3d6103e8614d2f856005600101546146cf90919063ffffffff16565b61475590919063ffffffff16565b9050614d548160035461468590919063ffffffff16565b6003819055507fb90306ad06b2a6ff86ddc9327db583062895ef6540e62dc50add009db5b356eb816040518082815260200191505060405180910390a1614e088260016000600560020160009054906101000a900473ffffffffffffffffffffffffffffffffffffffff1673ffffffffffffffffffffffffffffffffffffffff1673ffffffffffffffffffffffffffffffffffffffff1681526020019081526020016000205461453d90919063ffffffff16565b60016000600560020160009054906101000a900473ffffffffffffffffffffffffffffffffffffffff1673ffffffffffffffffffffffffffffffffffffffff1673ffffffffffffffffffffffffffffffffffffffff16815260200190815260200160002081905550614edc836040518060600160405280602981526020016158e860299139600160008973ffffffffffffffffffffffffffffffffffffffff1673ffffffffffffffffffffffffffffffffffffffff168152602001908152602001600020546145c59092919063ffffffff16565b600160008773ffffffffffffffffffffffffffffffffffffffff1673ffffffffffffffffffffffffffffffffffffffff16815260200190815260200160002081905550614f95614f47614f38838561453d90919063ffffffff16565b8561468590919063ffffffff16565b600160008773ffffffffffffffffffffffffffffffffffffffff1673ffffffffffffffffffffffffffffffffffffffff1681526020019081526020016000205461453d90919063ffffffff16565b600160008673ffffffffffffffffffffffffffffffffffffffff1673ffffffffffffffffffffffffffffffffffffffff168152602001908152602001600020819055508373ffffffffffffffffffffffffffffffffffffffff168573ffffffffffffffffffffffffffffffffffffffff167fddf252ad1be2c89b69c2b068fc378daa952ba7f163c4a11628f55a4df523b3ef856040518082815260200191505060405180910390a35050505050565b6000677fffffffffffffff82111561505b57600080fd5b604082901b9050919050565b6000600860020160009054906101000a900473ffffffffffffffffffffffffffffffffffffffff1673ffffffffffffffffffffffffffffffffffffffff168373ffffffffffffffffffffffffffffffffffffffff1614156150d5576150ce838360016155a7565b90506153b4565b601260008473ffffffffffffffffffffffffffffffffffffffff1673ffffffffffffffffffffffffffffffffffffffff16815260200190815260200160002060009054906101000a900460ff161561513a57615133838360006155a7565b90506153b3565b600860000160009054906101000a900473ffffffffffffffffffffffffffffffffffffffff1673ffffffffffffffffffffffffffffffffffffffff168373ffffffffffffffffffffffffffffffffffffffff1614156152a6576151bf6103e86151b1846005600101546146cf90919063ffffffff16565b61475590919063ffffffff16565b90508273ffffffffffffffffffffffffffffffffffffffff1673__AddressBalanceCheck___________________63078d3b799091600860010160009054906101000a900473ffffffffffffffffffffffffffffffffffffffff16846040518463ffffffff1660e01b8152600401808473ffffffffffffffffffffffffffffffffffffffff1681526020018373ffffffffffffffffffffffffffffffffffffffff168152602001828152602001935050505060006040518083038186803b15801561528957600080fd5b505af415801561529d573d6000803e3d6000fd5b505050506153b2565b6152d26103e86152c4846005600101546146cf90919063ffffffff16565b61475590919063ffffffff16565b90508273ffffffffffffffffffffffffffffffffffffffff1673__AddressBalanceCheck___________________63078d3b799091600e60009054906101000a900473ffffffffffffffffffffffffffffffffffffffff16846040518463ffffffff1660e01b8152600401808473ffffffffffffffffffffffffffffffffffffffff1681526020018373ffffffffffffffffffffffffffffffffffffffff168152602001828152602001935050505060006040518083038186803b15801561539957600080fd5b505af41580156153ad573d6000803e3d6000fd5b505050505b5b5b92915050565b61540c81600160008573ffffffffffffffffffffffffffffffffffffffff1673ffffffffffffffffffffffffffffffffffffffff1681526020019081526020016000205461453d90919063ffffffff16565b600160008473ffffffffffffffffffffffffffffffffffffffff1673ffffffffffffffffffffffffffffffffffffffff168152602001908152602001600020819055506154648160035461453d90919063ffffffff16565b6003819055507fab8530f87dc9b59234c4623bf917212bb2536d647574c8e7e5da92c2ede0c9f8338383604051808473ffffffffffffffffffffffffffffffffffffffff1681526020018373ffffffffffffffffffffffffffffffffffffffff168152602001828152602001935050505060405180910390a15050565b6000808311829061558d576040517f08c379a00000000000000000000000000000000000000000000000000000000081526004018080602001828103825283818151815260200191508051906020019080838360005b83811015615552578082015181840152602081019050615537565b50505050905090810190601f16801561557f5780820380516001836020036101000a031916815260200191505b509250505060405180910390fd5b50600083858161559957fe5b049050809150509392505050565b6000806155d66103e86155c8866005600101546146cf90919063ffffffff16565b61475590919063ffffffff16565b905060008590508315615671578073ffffffffffffffffffffffffffffffffffffffff16639dc29fac30846040518363ffffffff1660e01b8152600401808373ffffffffffffffffffffffffffffffffffffffff16815260200182815260200192505050600060405180830381600087803b15801561565457600080fd5b505af1158015615668573d6000803e3d6000fd5b505050506156dd565b8073ffffffffffffffffffffffffffffffffffffffff166342966c68836040518263ffffffff1660e01b815260040180828152602001915050600060405180830381600087803b1580156156c457600080fd5b505af11580156156d8573d6000803e3d6000fd5b505050505b8192505050939250505056fe53434152434954593a204d6967726174696f6e20636f6e7472616374206f6e6c794f776e61626c653a206e6577206f776e657220697320746865207a65726f206164647265737345524332303a20617070726f766520746f20746865207a65726f206164647265737353636172636974793a207472616e736665722066726f6d20746865207a65726f206164647265737353636172636974793a207472616e7366657220746f20746865207a65726f20616464726573734245484f444c45523a20457468206f6e6c792076616c696420666f722057657468207472616465732e536166654d6174683a206d756c7469706c69636174696f6e206f766572666c6f7745524332303a207472616e7366657220616d6f756e74206578636565647320616c6c6f77616e63654245484f444c45523a205265656e7472616e6379206775617264206163746976652e4245484f444c45523a2063616e6e6f7420626f72726f7720666c6173686c6f616e45524332303a20617070726f76652066726f6d20746865207a65726f20616464726573734245484f444c45523a20466c6173686c6f616e2072657061796d656e74206661696c65644245484f444c45523a206c6971756964697479207769746864726177616c20746f6f206c617267652e4245484f444c45523a20496e73756666696369656e742045746865722073656e7453636172636974793a207472616e7366657220616d6f756e7420657863656564732062616c616e6365a2646970667358221220221e581010a167162bb263c57481f00edd686bde512228d66e92b13044398f4564736f6c63430007060033",
  "immutableReferences": {},
  "source": "// SPDX-License-Identifier: MIT\npragma solidity ^0.7.6;\n\nimport \"./openzeppelin/Ownable.sol\";\nimport \"./Scarcity.sol\";\nimport \"./facades/LachesisLike.sol\";\nimport \"./facades/Burnable.sol\";\nimport \"./openzeppelin/SafeMath.sol\";\nimport \"./openzeppelin/IERC20.sol\";\nimport \"./flashLoans/FlashLoanReceiver.sol\";\nimport \"./flashLoans/FlashLoanArbiter.sol\";\nimport \"./WETH10.sol\";\n\nlibrary AddressBalanceCheck {\n    function tokenBalance(address token) public view returns (uint256) {\n        return IERC20(token).balanceOf(address(this));\n    }\n\n    function shiftedBalance(address token, uint256 factor)\n        public\n        view\n        returns (uint256)\n    {\n        return IERC20(token).balanceOf(address(this)) / factor;\n    }\n\n    function transferIn(\n        address token,\n        address sender,\n        uint256 value\n    ) public {\n        IERC20(token).transferFrom(sender, address(this), value);\n    }\n\n    function transferOut(\n        address token,\n        address recipient,\n        uint256 value\n    ) public {\n        IERC20(token).transfer(recipient, value);\n    }\n}\n\n/*To following code is sourced from the ABDK library for assistance in dealing with precision logarithms in Ethereum.\n * ABDK Math 64.64 Smart Contract Library.  Copyright  2019 by ABDK Consulting.\n * Author: Mikhail Vladimirov <mikhail.vladimirov@gmail.com>\n * Source: https://github.com/abdk-consulting/abdk-libraries-solidity/blob/master/ABDKMath64x64.sol#L366\n */\nlibrary ABDK {\n    /*\n     * Minimum value signed 64.64-bit fixed point number may have.\n     */\n    int128 private constant MIN_64x64 = -0x80000000000000000000000000000000;\n\n    /*\n     * Maximum value signed 64.64-bit fixed point number may have.\n     */\n    int128 private constant MAX_64x64 = 0x7FFFFFFFFFFFFFFFFFFFFFFFFFFFFFFF;\n\n    /**\n     * Convert unsigned 256-bit integer number into signed 64.64-bit fixed point\n     * number.  Revert on overflow.\n     *\n     * @param x unsigned 256-bit integer number\n     * @return signed 64.64-bit fixed point number\n     */\n    function fromUInt(uint256 x) internal pure returns (int128) {\n        require(x <= 0x7FFFFFFFFFFFFFFF);\n        return int128(x << 64);\n    }\n\n    /**\n     * Calculate x + y.  Revert on overflow.\n     *\n     * @param x signed 64.64-bit fixed point number\n     * @param y signed 64.64-bit fixed point number\n     * @return signed 64.64-bit fixed point number\n     */\n    function add(int128 x, int128 y) internal pure returns (int128) {\n        int256 result = int256(x) + y;\n        require(result >= MIN_64x64 && result <= MAX_64x64);\n        return int128(result);\n    }\n\n    /**\n     * Calculate binary logarithm of x.  Revert if x <= 0.\n     *\n     * @param x signed 64.64-bit fixed point number\n     * @return signed 64.64-bit fixed point number\n     */\n    function log_2(uint256 x) internal pure returns (uint256) {\n        require(x > 0);\n\n        uint256 msb = 0;\n        uint256 xc = x;\n        if (xc >= 0x10000000000000000) {\n            xc >>= 64;\n            msb += 64;\n        }\n        if (xc >= 0x100000000) {\n            xc >>= 32;\n            msb += 32;\n        }\n        if (xc >= 0x10000) {\n            xc >>= 16;\n            msb += 16;\n        }\n        if (xc >= 0x100) {\n            xc >>= 8;\n            msb += 8;\n        }\n        if (xc >= 0x10) {\n            xc >>= 4;\n            msb += 4;\n        }\n        if (xc >= 0x4) {\n            xc >>= 2;\n            msb += 2;\n        }\n        if (xc >= 0x2) msb += 1; // No need to shift xc anymore\n\n        uint256 result = (msb - 64) << 64;\n        uint256 ux = uint256(x) << uint256(127 - msb);\n        for (uint256 bit = 0x8000000000000000; bit > 0; bit >>= 1) {\n            ux *= ux;\n            uint256 b = ux >> 255;\n            ux >>= 127 + b;\n            result += bit * b;\n        }\n\n        return result;\n    }\n}\n\n/*\n\tBehodler orchestrates trades using an omnischedule bonding curve.\n\tThe name is inspired by the Beholder of D&D, a monster with multiple arms ending in eyes peering in all directions.\n\tThe Behodler is a smart contract that can see the prices of all tokens simultaneously without need for composition or delay.\n\tThe hodl part of Behodler refers to the fact that with every trade of a token pair, the liquidity pool of each token held by Behodler increases\n\n    Behodler 1 performed square root calculations which are gas intensive for fixed point arithmetic algorithms.\n    To save gas, Behodler2 never performs square root calculations. It just checks the numbers passed in by the user and reverts if needs be.\n    This techique is called invariant checking and offloads maximum calculation to clients while guaranteeing no cheating is possible.\n    In Behodler 1 some operations were duplicated. For instance, a swap was a scarcity purchase followed by a scarcity sale. Instead, cutting out\n    the middle scarcity allows the factor scaling to be dropped altogether.\n\n    By bringing Scarcity, Janus, Kharon and Behodler together in one contract, Behodler 2 avoids the EXT_CALL gas fees and can take gas saving shortcuts with Scarcity\n    transfers. The drawback to this approach is less flexibility with fees in the way that Kharon allowed.\n\n    Behodler 2 now has Flashloan support. Instead of charging a liquidity growing fee, Behodler 2 requires the user fulfil some requirement\n    such as holding an NFT or staking Scarcity. This allows for zero fee flash loans that are front runner resistant and\n    allows a secondary flashloan market to evolve.\n */\ncontract Behodler is Scarcity {\n    using SafeMath for uint256;\n    using ABDK for int128;\n    using ABDK for uint256;\n    using AddressBalanceCheck for address;\n\n    event LiquidityAdded(\n        address sender,\n        address token,\n        uint256 tokenValue,\n        uint256 scx\n    );\n    event LiquidityWithdrawn(\n        address recipient,\n        address token,\n        uint256 tokenValue,\n        uint256 scx\n    );\n    event Swap(\n        address sender,\n        address inputToken,\n        address outputToken,\n        uint256 inputValue,\n        uint256 outputValue\n    );\n\n    struct WeidaiTokens {\n        address dai;\n        address reserve;\n        address weiDai;\n    }\n\n    struct PrecisionFactors {\n        uint8 swapPrecisionFactor;\n        uint8 maxLiquidityExit; //percentage as number between 1 and 100\n    }\n\n    WeidaiTokens WD;\n    PrecisionFactors safetyParameters;\n    address public Weth;\n    address public Lachesis;\n    address pyroTokenLiquidityReceiver;\n    FlashLoanArbiter public arbiter;\n    address private inputSender;\n    bool[3] unlocked;\n\n    constructor() {\n        safetyParameters.swapPrecisionFactor = 30; //approximately a billion\n        safetyParameters.maxLiquidityExit = 90;\n        for (uint8 i = 0; i < 3; i++) unlocked[i] = true;\n    }\n\n    function setSafetParameters(\n        uint8 swapPrecisionFactor,\n        uint8 maxLiquidityExit\n    ) external onlyOwner {\n        safetyParameters.swapPrecisionFactor = swapPrecisionFactor;\n        safetyParameters.maxLiquidityExit = maxLiquidityExit;\n    }\n\n    function getMaxLiquidityExit() public view returns (uint8) {\n        return safetyParameters.maxLiquidityExit;\n    }\n\n    function seed(\n        address weth,\n        address lachesis,\n        address flashLoanArbiter,\n        address _pyroTokenLiquidityReceiver,\n        address weidaiReserve,\n        address dai,\n        address weiDai\n    ) external onlyOwner {\n        Weth = weth;\n        Lachesis = lachesis;\n        arbiter = FlashLoanArbiter(flashLoanArbiter);\n        pyroTokenLiquidityReceiver = _pyroTokenLiquidityReceiver;\n        WD.reserve = weidaiReserve;\n        WD.dai = dai;\n        WD.weiDai = weiDai;\n    }\n\n    //Logarithmic growth can get quite flat beyond the first chunk. We divide input amounts by\n    uint256 public constant MIN_LIQUIDITY = 1e12;\n\n    mapping(address => bool) public tokenBurnable;\n    mapping(address => bool) public validTokens;\n    mapping(address => bool) public whiteListUsers; // can trade on tokens that are disabled\n\n    modifier onlyLachesis {\n        require(msg.sender == Lachesis);\n        _;\n    }\n\n    modifier onlyValidToken(address token) {\n        require(\n            whiteListUsers[msg.sender] ||\n                validTokens[token] ||\n                (token != address(0) && token == Weth),\n            \"BEHODLER: token invalid\"\n        );\n        _;\n    }\n\n    modifier determineSender(address inputToken) {\n        if (msg.value > 0) {\n            require(\n                inputToken == Weth,\n                \"BEHODLER: Eth only valid for Weth trades.\"\n            );\n            inputSender = address(this);\n        } else {\n            inputSender = msg.sender;\n        }\n        _;\n    }\n\n    enum Slot {Swap, Add, Withdraw}\n\n    modifier lock(Slot slot) {\n        uint256 index = uint256(slot);\n        require(unlocked[index], \"BEHODLER: Reentrancy guard active.\");\n        unlocked[index] = false;\n        _;\n        unlocked[index] = true;\n    }\n\n    /*\n   Let config.burnFee be b.\n    Let F = 1-b\n    Let input token be I and Output token be O\n    _i is initial and _f is final. Eg. I_i is initial input token balance\n    The swap equation, when simplified, is given by\n    F(I_f - I_i) = (O_i - O_f)/(F)\n    However, the gradient of square root becomes untenable when\n    the value of tokens diverge too much. The gradient favours the addition of low\n    value tokens disportionately. A gradient that favours tokens equally is given by\n    a log. The lowest gas implementation is base 2.\n    The new swap equation is thus\n    log(I_f) - log(I_i) = log(O_i) - log(O_f)\n\n    Technical note on ETH handling: we don't duplicate functions for accepting Eth as an input. Instead we wrap on receipt\n    and apply a reentrancy guard. The determineSender modifier fixes an isse in Behodler 1 which required the user to approve\n    both sending and receiving Eth because of the nature of Weth deposit and withdraw functionality.\n */\n    function swap(\n        address inputToken,\n        address outputToken,\n        uint256 inputAmount,\n        uint256 outputAmount\n    )\n        external\n        payable\n        determineSender(inputToken)\n        onlyValidToken(inputToken)\n        lock(Slot.Swap)\n        returns (bool success)\n    {\n        uint256 initialInputBalance = inputToken.tokenBalance();\n        if (inputToken == Weth) {\n            if (IERC20(Weth).balanceOf(msg.sender) >= inputAmount) {\n                Weth.transferIn(msg.sender, inputAmount);\n            } else {\n                require(\n                    msg.value == inputAmount,\n                    \"BEHODLER: Insufficient Ether sent\"\n                );\n                IWETH10(Weth).deposit{value: msg.value}();\n            }\n        } else {\n            inputToken.transferIn(inputSender, inputAmount);\n        }\n\n        uint256 netInputAmount =\n            inputAmount.sub(burnToken(inputToken, inputAmount));\n        uint256 initialOutputBalance = outputToken.tokenBalance();\n        require(\n            outputAmount.mul(100).div(initialOutputBalance) <=\n                safetyParameters.maxLiquidityExit,\n            \"BEHODLER: liquidity withdrawal too large.\"\n        );\n        uint256 finalInputBalance = initialInputBalance.add(netInputAmount);\n        uint256 finalOutputBalance = initialOutputBalance.sub(outputAmount);\n\n        //new scope to avoid stack too deep errors.\n        {\n            //if the input balance after adding input liquidity is 1073741824 bigger than the initial balance, we revert.\n            uint256 inputRatio =\n                (initialInputBalance << safetyParameters.swapPrecisionFactor)\n                    .div(finalInputBalance);\n            uint256 outputRatio =\n                (finalOutputBalance << safetyParameters.swapPrecisionFactor)\n                    .div(initialOutputBalance);\n\n            require(\n                inputRatio != 0 && inputRatio == outputRatio,\n                \"BEHODLER: swap invariant.\"\n            );\n        }\n\n        require(\n            finalOutputBalance >= MIN_LIQUIDITY,\n            \"BEHODLER: min liquidity.\"\n        );\n\n        if (outputToken == Weth) {\n            address payable sender = msg.sender;\n            IWETH10(Weth).withdrawTo(sender, outputAmount);\n        } else {\n            outputToken.transferOut(msg.sender, outputAmount);\n        }\n\n        emit Swap(\n            msg.sender,\n            inputToken,\n            outputToken,\n            inputAmount,\n            outputAmount\n        );\n        success = true;\n    }\n\n    /*\n        SCX = log(FinalBalance) - log(InitialBalance)\n\n        The choice of base for the log isn't relevant from a mathematical point of view\n        but from a computational point of view, base 2 is the cheapest for obvious reasons.\n        \"What I told you was true, from a certain point of view.\" - Obi-Wan Kenobi\n     */\n    function addLiquidity(address inputToken, uint256 amount)\n        external\n        payable\n        determineSender(inputToken)\n        onlyValidToken(inputToken)\n        lock(Slot.Add)\n        returns (uint256 deltaSCX)\n    {\n        uint256 initialBalance =\n            uint256(inputToken.shiftedBalance(MIN_LIQUIDITY).fromUInt());\n        if (inputToken == Weth) {\n            if (IERC20(Weth).balanceOf(msg.sender) >= amount) {\n                Weth.transferIn(msg.sender, amount);\n            } else {\n                require(\n                    msg.value == amount,\n                    \"BEHODLER: Insufficient Ether sent\"\n                );\n                IWETH10(Weth).deposit{value: msg.value}();\n            }\n        } else {\n            inputToken.transferIn(inputSender, amount);\n        }\n        uint256 netInputAmount =\n            uint256(\n                amount\n                    .sub(burnToken(inputToken, amount))\n                    .div(MIN_LIQUIDITY)\n                    .fromUInt()\n            );\n\n        uint256 finalBalance = uint256(initialBalance.add(netInputAmount));\n        require(\n            uint256(finalBalance) >= MIN_LIQUIDITY,\n            \"BEHODLER: min liquidity.\"\n        );\n        deltaSCX = uint256(\n            finalBalance.log_2() -\n                (initialBalance > 1 ? initialBalance.log_2() : 0)\n        );\n        mint(msg.sender, deltaSCX);\n        emit LiquidityAdded(msg.sender, inputToken, amount, deltaSCX);\n    }\n\n    /*\n        SCX =  log(InitialBalance) - log(FinalBalance)\n        tokensToRelease = InitialBalance -FinalBalance\n        =>FinalBalance =  InitialBalance - tokensToRelease\n        Then apply logs and deduct SCX from msg.sender\n\n        The choice of base for the log isn't relevant from a mathematical point of view\n        but from a computational point of view, base 2 is the cheapest for obvious reasons.\n        \"From my point of view, the Jedi are evil\" - Darth Vader\n     */\n    function withdrawLiquidity(address outputToken, uint256 tokensToRelease)\n        external\n        payable\n        determineSender(outputToken)\n        onlyValidToken(outputToken)\n        lock(Slot.Withdraw)\n        returns (uint256 deltaSCX)\n    {\n        uint256 initialBalance = outputToken.tokenBalance();\n        uint256 finalBalance = initialBalance.sub(tokensToRelease);\n        require(finalBalance > MIN_LIQUIDITY, \"BEHODLER: min liquidity\");\n        require(\n            tokensToRelease.mul(100).div(initialBalance) <=\n                safetyParameters.maxLiquidityExit,\n            \"BEHODLER: liquidity withdrawal too large.\"\n        );\n\n        uint256 logInitial = initialBalance.log_2();\n        uint256 logFinal = finalBalance.log_2();\n\n        deltaSCX = logInitial - (finalBalance > 1 ? logFinal : 0);\n        uint256 scxBalance = balances[msg.sender];\n\n        if (deltaSCX > scxBalance) {\n            //rounding errors in scx creation and destruction. Err on the side of holders\n            uint256 difference = deltaSCX - scxBalance;\n            if ((difference * 10000) / deltaSCX == 0) deltaSCX = scxBalance;\n        }\n        burn(msg.sender, deltaSCX);\n\n        if (outputToken == Weth) {\n            address payable sender = msg.sender;\n            IWETH10(Weth).withdrawTo(sender, tokensToRelease);\n        } else {\n            outputToken.transferOut(msg.sender, tokensToRelease);\n        }\n        emit LiquidityWithdrawn(\n            msg.sender,\n            outputToken,\n            tokensToRelease,\n            deltaSCX\n        );\n    }\n\n    /*\n        SCX =  log(InitialBalance) - log(FinalBalance)\n        tokensToRelease = InitialBalance -FinalBalance\n        =>FinalBalance =  InitialBalance - tokensToRelease\n        Then apply logs and deduct SCX from msg.sender\n\n        The choice of base for the log isn't relevant from a mathematical point of view\n        but from a computational point of view, base 2 is the cheapest for obvious reasons.\n        \"From my point of view, the Jedi are evil\" - Darth Vader\n     */\n    function withdrawLiquidityFindSCX(\n        address outputToken,\n        uint256 tokensToRelease,\n        uint256 scx,\n        uint256 passes\n    ) external view returns (uint256) {\n        uint256 upperBoundary = outputToken.tokenBalance();\n        uint256 lowerBoundary = 0;\n\n        for (uint256 i = 0; i < passes; i++) {\n            uint256 initialBalance = outputToken.tokenBalance();\n            uint256 finalBalance = initialBalance.sub(tokensToRelease);\n\n            uint256 logInitial = initialBalance.log_2();\n            uint256 logFinal = finalBalance.log_2();\n\n            int256 deltaSCX =\n                int256(logInitial - (finalBalance > 1 ? logFinal : 0));\n            int256 difference = int256(scx) - deltaSCX;\n            // if (difference**2 < 1000000) return tokensToRelease;\n            if (difference == 0) return tokensToRelease;\n            if (difference < 0) {\n                // too many tokens requested\n                upperBoundary = tokensToRelease - 1;\n            } else {\n                //too few tokens requested\n                lowerBoundary = tokensToRelease + 1;\n            }\n            tokensToRelease =\n                ((upperBoundary - lowerBoundary) / 2) +\n                lowerBoundary; //bitshift\n            tokensToRelease = tokensToRelease > initialBalance\n                ? initialBalance\n                : tokensToRelease;\n        }\n        return tokensToRelease;\n    }\n\n    //TODO: possibly comply with the flash loan standard https://eips.ethereum.org/EIPS/eip-3156\n    // - however, the more I reflect on this, the less keen I am due to gas and simplicity\n    //example: a user must hold 10% of SCX total supply or user must hold an NFT\n    //The initial arbiter will have no constraints.\n    //The flashloan system on behodler is inverted. Instead of being able to borrow any individual token,\n    //the borrower asks for SCX. Theoretically you can borrow more SCX than currently exists so long\n    //as you can think of a clever way to pay it back.\n    //Note: Borrower doesn't have to send scarcity back, they just need to have high enough balance.\n    function grantFlashLoan(uint256 amount, address flashLoanContract)\n        external\n    {\n        require(\n            arbiter.canBorrow(msg.sender),\n            \"BEHODLER: cannot borrow flashloan\"\n        );\n        balances[flashLoanContract] = balances[flashLoanContract].add(amount);\n        FlashLoanReceiver(flashLoanContract).execute(msg.sender); \n        balances[flashLoanContract] = balances[flashLoanContract].sub(\n            amount,\n            \"BEHODLER: Flashloan repayment failed\"\n        );\n    }\n\n    //useful for when we want the ability to add tokens without trading. For instance, the initial liquidity queueing event.\n    function setWhiteListUser(address user, bool whiteList) external onlyOwner {\n        whiteListUsers[user] = whiteList;\n    }\n\n    function burnToken(address token, uint256 amount)\n        private\n        returns (uint256 burnt)\n    {\n        if (token == WD.weiDai) {\n            burnt = applyBurnFee(token, amount, true);\n        } else if (tokenBurnable[token])\n            burnt = applyBurnFee(token, amount, false);\n        else if (token == WD.dai) {\n            burnt = config.burnFee.mul(amount).div(1000);\n            token.transferOut(WD.reserve, burnt);\n        } else {\n            burnt = config.burnFee.mul(amount).div(1000);\n            token.transferOut(pyroTokenLiquidityReceiver, burnt);\n        }\n    }\n\n    function setValidToken(\n        address token,\n        bool valid,\n        bool burnable\n    ) external onlyLachesis {\n        validTokens[token] = valid;\n        tokenBurnable[token] = burnable;\n    }\n}\n",
  "sourcePath": "/home/justin/weidai ecosystem/behodler2/contracts/Behodler.sol",
  "compiler": {
    "name": "solc",
    "version": "0.7.6+commit.7338295f.Emscripten.clang"
  },
  "schemaVersion": "3.3.3",
  "updatedAt": "2021-05-02T07:47:52.104Z",
  "networkType": "ethereum",
  "devdoc": {
    "kind": "dev",
    "methods": {
      "renounceOwnership()": {
        "details": "Leaves the contract without owner. It will not be possible to call `onlyOwner` functions anymore. Can only be called by the current owner. NOTE: Renouncing ownership will leave the contract without an owner, thereby removing any functionality that is only available to the owner."
      },
      "transferOwnership(address)": {
        "details": "Transfers ownership of the contract to a new account (`newOwner`). Can only be called by the current owner."
      }
    },
    "version": 1
  },
  "userdoc": {
    "kind": "user",
    "methods": {},
    "version": 1
  }
}