{
  "contractName": "Behodler",
  "abi": [
    {
      "inputs": [],
      "stateMutability": "nonpayable",
      "type": "constructor"
    },
    {
      "anonymous": false,
      "inputs": [
        {
          "indexed": true,
          "internalType": "address",
          "name": "owner",
          "type": "address"
        },
        {
          "indexed": true,
          "internalType": "address",
          "name": "spender",
          "type": "address"
        },
        {
          "indexed": false,
          "internalType": "uint256",
          "name": "value",
          "type": "uint256"
        }
      ],
      "name": "Approval",
      "type": "event"
    },
    {
      "anonymous": false,
      "inputs": [
        {
          "indexed": false,
          "internalType": "uint256",
          "name": "value",
          "type": "uint256"
        }
      ],
      "name": "Burn",
      "type": "event"
    },
    {
      "anonymous": false,
      "inputs": [
        {
          "indexed": false,
          "internalType": "address",
          "name": "sender",
          "type": "address"
        },
        {
          "indexed": false,
          "internalType": "address",
          "name": "token",
          "type": "address"
        },
        {
          "indexed": false,
          "internalType": "uint256",
          "name": "tokenValue",
          "type": "uint256"
        },
        {
          "indexed": false,
          "internalType": "uint256",
          "name": "scx",
          "type": "uint256"
        }
      ],
      "name": "LiquidityAdded",
      "type": "event"
    },
    {
      "anonymous": false,
      "inputs": [
        {
          "indexed": false,
          "internalType": "address",
          "name": "recipient",
          "type": "address"
        },
        {
          "indexed": false,
          "internalType": "address",
          "name": "token",
          "type": "address"
        },
        {
          "indexed": false,
          "internalType": "uint256",
          "name": "tokenValue",
          "type": "uint256"
        },
        {
          "indexed": false,
          "internalType": "uint256",
          "name": "scx",
          "type": "uint256"
        }
      ],
      "name": "LiquidityWithdrawn",
      "type": "event"
    },
    {
      "anonymous": false,
      "inputs": [
        {
          "indexed": false,
          "internalType": "address",
          "name": "sender",
          "type": "address"
        },
        {
          "indexed": false,
          "internalType": "address",
          "name": "recipient",
          "type": "address"
        },
        {
          "indexed": false,
          "internalType": "uint256",
          "name": "value",
          "type": "uint256"
        }
      ],
      "name": "Mint",
      "type": "event"
    },
    {
      "anonymous": false,
      "inputs": [
        {
          "indexed": true,
          "internalType": "address",
          "name": "previousOwner",
          "type": "address"
        },
        {
          "indexed": true,
          "internalType": "address",
          "name": "newOwner",
          "type": "address"
        }
      ],
      "name": "OwnershipTransferred",
      "type": "event"
    },
    {
      "anonymous": false,
      "inputs": [
        {
          "indexed": false,
          "internalType": "address",
          "name": "sender",
          "type": "address"
        },
        {
          "indexed": false,
          "internalType": "address",
          "name": "inputToken",
          "type": "address"
        },
        {
          "indexed": false,
          "internalType": "address",
          "name": "outputToken",
          "type": "address"
        },
        {
          "indexed": false,
          "internalType": "uint256",
          "name": "inputValue",
          "type": "uint256"
        },
        {
          "indexed": false,
          "internalType": "uint256",
          "name": "outputValue",
          "type": "uint256"
        }
      ],
      "name": "Swap",
      "type": "event"
    },
    {
      "anonymous": false,
      "inputs": [
        {
          "indexed": true,
          "internalType": "address",
          "name": "from",
          "type": "address"
        },
        {
          "indexed": true,
          "internalType": "address",
          "name": "to",
          "type": "address"
        },
        {
          "indexed": false,
          "internalType": "uint256",
          "name": "value",
          "type": "uint256"
        }
      ],
      "name": "Transfer",
      "type": "event"
    },
    {
      "inputs": [],
      "name": "Lachesis",
      "outputs": [
        {
          "internalType": "address",
          "name": "",
          "type": "address"
        }
      ],
      "stateMutability": "view",
      "type": "function",
      "constant": true
    },
    {
      "inputs": [],
      "name": "MIN_LIQUIDITY",
      "outputs": [
        {
          "internalType": "uint256",
          "name": "",
          "type": "uint256"
        }
      ],
      "stateMutability": "view",
      "type": "function",
      "constant": true
    },
    {
      "inputs": [],
      "name": "Weth",
      "outputs": [
        {
          "internalType": "address",
          "name": "",
          "type": "address"
        }
      ],
      "stateMutability": "view",
      "type": "function",
      "constant": true
    },
    {
      "inputs": [
        {
          "internalType": "address",
          "name": "owner",
          "type": "address"
        },
        {
          "internalType": "address",
          "name": "spender",
          "type": "address"
        }
      ],
      "name": "allowance",
      "outputs": [
        {
          "internalType": "uint256",
          "name": "",
          "type": "uint256"
        }
      ],
      "stateMutability": "view",
      "type": "function",
      "constant": true
    },
    {
      "inputs": [
        {
          "internalType": "address",
          "name": "spender",
          "type": "address"
        },
        {
          "internalType": "uint256",
          "name": "amount",
          "type": "uint256"
        }
      ],
      "name": "approve",
      "outputs": [
        {
          "internalType": "bool",
          "name": "",
          "type": "bool"
        }
      ],
      "stateMutability": "nonpayable",
      "type": "function"
    },
    {
      "inputs": [],
      "name": "arbiter",
      "outputs": [
        {
          "internalType": "contract FlashLoanArbiter",
          "name": "",
          "type": "address"
        }
      ],
      "stateMutability": "view",
      "type": "function",
      "constant": true
    },
    {
      "inputs": [
        {
          "internalType": "address",
          "name": "account",
          "type": "address"
        }
      ],
      "name": "balanceOf",
      "outputs": [
        {
          "internalType": "uint256",
          "name": "",
          "type": "uint256"
        }
      ],
      "stateMutability": "view",
      "type": "function",
      "constant": true
    },
    {
      "inputs": [
        {
          "internalType": "uint256",
          "name": "value",
          "type": "uint256"
        }
      ],
      "name": "burn",
      "outputs": [
        {
          "internalType": "bool",
          "name": "",
          "type": "bool"
        }
      ],
      "stateMutability": "nonpayable",
      "type": "function"
    },
    {
      "inputs": [],
      "name": "config",
      "outputs": [
        {
          "internalType": "uint256",
          "name": "transferFee",
          "type": "uint256"
        },
        {
          "internalType": "uint256",
          "name": "burnFee",
          "type": "uint256"
        },
        {
          "internalType": "address",
          "name": "feeDestination",
          "type": "address"
        }
      ],
      "stateMutability": "view",
      "type": "function",
      "constant": true
    },
    {
      "inputs": [
        {
          "internalType": "uint256",
          "name": "transferFee",
          "type": "uint256"
        },
        {
          "internalType": "uint256",
          "name": "burnFee",
          "type": "uint256"
        },
        {
          "internalType": "address",
          "name": "feeDestination",
          "type": "address"
        }
      ],
      "name": "configureScarcity",
      "outputs": [],
      "stateMutability": "nonpayable",
      "type": "function"
    },
    {
      "inputs": [],
      "name": "decimals",
      "outputs": [
        {
          "internalType": "uint8",
          "name": "",
          "type": "uint8"
        }
      ],
      "stateMutability": "pure",
      "type": "function",
      "constant": true
    },
    {
      "inputs": [],
      "name": "getConfiguration",
      "outputs": [
        {
          "internalType": "uint256",
          "name": "",
          "type": "uint256"
        },
        {
          "internalType": "uint256",
          "name": "",
          "type": "uint256"
        },
        {
          "internalType": "address",
          "name": "",
          "type": "address"
        }
      ],
      "stateMutability": "view",
      "type": "function",
      "constant": true
    },
    {
      "inputs": [
        {
          "internalType": "address",
          "name": "recipient",
          "type": "address"
        },
        {
          "internalType": "uint256",
          "name": "value",
          "type": "uint256"
        }
      ],
      "name": "migrateMint",
      "outputs": [],
      "stateMutability": "nonpayable",
      "type": "function"
    },
    {
      "inputs": [],
      "name": "migrator",
      "outputs": [
        {
          "internalType": "address",
          "name": "",
          "type": "address"
        }
      ],
      "stateMutability": "view",
      "type": "function",
      "constant": true
    },
    {
      "inputs": [],
      "name": "name",
      "outputs": [
        {
          "internalType": "string",
          "name": "",
          "type": "string"
        }
      ],
      "stateMutability": "pure",
      "type": "function",
      "constant": true
    },
    {
      "inputs": [],
      "name": "owner",
      "outputs": [
        {
          "internalType": "address",
          "name": "",
          "type": "address"
        }
      ],
      "stateMutability": "view",
      "type": "function",
      "constant": true
    },
    {
      "inputs": [],
      "name": "renounceOwnership",
      "outputs": [],
      "stateMutability": "nonpayable",
      "type": "function"
    },
    {
      "inputs": [
        {
          "internalType": "address",
          "name": "m",
          "type": "address"
        }
      ],
      "name": "setMigrator",
      "outputs": [],
      "stateMutability": "nonpayable",
      "type": "function"
    },
    {
      "inputs": [],
      "name": "symbol",
      "outputs": [
        {
          "internalType": "string",
          "name": "",
          "type": "string"
        }
      ],
      "stateMutability": "pure",
      "type": "function",
      "constant": true
    },
    {
      "inputs": [
        {
          "internalType": "address",
          "name": "",
          "type": "address"
        }
      ],
      "name": "tokenBurnable",
      "outputs": [
        {
          "internalType": "bool",
          "name": "",
          "type": "bool"
        }
      ],
      "stateMutability": "view",
      "type": "function",
      "constant": true
    },
    {
      "inputs": [],
      "name": "totalSupply",
      "outputs": [
        {
          "internalType": "uint256",
          "name": "",
          "type": "uint256"
        }
      ],
      "stateMutability": "view",
      "type": "function",
      "constant": true
    },
    {
      "inputs": [
        {
          "internalType": "address",
          "name": "recipient",
          "type": "address"
        },
        {
          "internalType": "uint256",
          "name": "amount",
          "type": "uint256"
        }
      ],
      "name": "transfer",
      "outputs": [
        {
          "internalType": "bool",
          "name": "",
          "type": "bool"
        }
      ],
      "stateMutability": "nonpayable",
      "type": "function"
    },
    {
      "inputs": [
        {
          "internalType": "address",
          "name": "sender",
          "type": "address"
        },
        {
          "internalType": "address",
          "name": "recipient",
          "type": "address"
        },
        {
          "internalType": "uint256",
          "name": "amount",
          "type": "uint256"
        }
      ],
      "name": "transferFrom",
      "outputs": [
        {
          "internalType": "bool",
          "name": "",
          "type": "bool"
        }
      ],
      "stateMutability": "nonpayable",
      "type": "function"
    },
    {
      "inputs": [
        {
          "internalType": "address",
          "name": "newOwner",
          "type": "address"
        }
      ],
      "name": "transferOwnership",
      "outputs": [],
      "stateMutability": "nonpayable",
      "type": "function"
    },
    {
      "inputs": [
        {
          "internalType": "address",
          "name": "",
          "type": "address"
        }
      ],
      "name": "validTokens",
      "outputs": [
        {
          "internalType": "bool",
          "name": "",
          "type": "bool"
        }
      ],
      "stateMutability": "view",
      "type": "function",
      "constant": true
    },
    {
      "inputs": [
        {
          "internalType": "address",
          "name": "",
          "type": "address"
        }
      ],
      "name": "whiteListUsers",
      "outputs": [
        {
          "internalType": "bool",
          "name": "",
          "type": "bool"
        }
      ],
      "stateMutability": "view",
      "type": "function",
      "constant": true
    },
    {
      "inputs": [
        {
          "internalType": "uint8",
          "name": "swapPrecisionFactor",
          "type": "uint8"
        },
        {
          "internalType": "uint8",
          "name": "maxLiquidityExit",
          "type": "uint8"
        }
      ],
      "name": "setSafetParameters",
      "outputs": [],
      "stateMutability": "nonpayable",
      "type": "function"
    },
    {
      "inputs": [],
      "name": "getMaxLiquidityExit",
      "outputs": [
        {
          "internalType": "uint8",
          "name": "",
          "type": "uint8"
        }
      ],
      "stateMutability": "view",
      "type": "function",
      "constant": true
    },
    {
      "inputs": [
        {
          "internalType": "address",
          "name": "weth",
          "type": "address"
        },
        {
          "internalType": "address",
          "name": "lachesis",
          "type": "address"
        },
        {
          "internalType": "address",
          "name": "flashLoanArbiter",
          "type": "address"
        },
        {
          "internalType": "address",
          "name": "_pyroTokenLiquidityReceiver",
          "type": "address"
        },
        {
          "internalType": "address",
          "name": "weidaiReserve",
          "type": "address"
        },
        {
          "internalType": "address",
          "name": "dai",
          "type": "address"
        },
        {
          "internalType": "address",
          "name": "weiDai",
          "type": "address"
        }
      ],
      "name": "seed",
      "outputs": [],
      "stateMutability": "nonpayable",
      "type": "function"
    },
    {
      "inputs": [
        {
          "internalType": "address",
          "name": "inputToken",
          "type": "address"
        },
        {
          "internalType": "address",
          "name": "outputToken",
          "type": "address"
        },
        {
          "internalType": "uint256",
          "name": "inputAmount",
          "type": "uint256"
        },
        {
          "internalType": "uint256",
          "name": "outputAmount",
          "type": "uint256"
        }
      ],
      "name": "swap",
      "outputs": [
        {
          "internalType": "bool",
          "name": "success",
          "type": "bool"
        }
      ],
      "stateMutability": "payable",
      "type": "function",
      "payable": true
    },
    {
      "inputs": [
        {
          "internalType": "address",
          "name": "inputToken",
          "type": "address"
        },
        {
          "internalType": "uint256",
          "name": "amount",
          "type": "uint256"
        }
      ],
      "name": "addLiquidity",
      "outputs": [
        {
          "internalType": "uint256",
          "name": "deltaSCX",
          "type": "uint256"
        }
      ],
      "stateMutability": "payable",
      "type": "function",
      "payable": true
    },
    {
      "inputs": [
        {
          "internalType": "address",
          "name": "outputToken",
          "type": "address"
        },
        {
          "internalType": "uint256",
          "name": "tokensToRelease",
          "type": "uint256"
        }
      ],
      "name": "withdrawLiquidity",
      "outputs": [
        {
          "internalType": "uint256",
          "name": "deltaSCX",
          "type": "uint256"
        }
      ],
      "stateMutability": "payable",
      "type": "function",
      "payable": true
    },
    {
      "inputs": [
        {
          "internalType": "address",
          "name": "outputToken",
          "type": "address"
        },
        {
          "internalType": "uint256",
          "name": "tokensToRelease",
          "type": "uint256"
        },
        {
          "internalType": "uint256",
          "name": "scx",
          "type": "uint256"
        },
        {
          "internalType": "uint256",
          "name": "passes",
          "type": "uint256"
        }
      ],
      "name": "withdrawLiquidityFindSCX",
      "outputs": [
        {
          "internalType": "uint256",
          "name": "",
          "type": "uint256"
        }
      ],
      "stateMutability": "view",
      "type": "function",
      "constant": true
    },
    {
      "inputs": [
        {
          "internalType": "uint256",
          "name": "amount",
          "type": "uint256"
        },
        {
          "internalType": "address",
          "name": "flashLoanContract",
          "type": "address"
        }
      ],
      "name": "grantFlashLoan",
      "outputs": [],
      "stateMutability": "nonpayable",
      "type": "function"
    },
    {
      "inputs": [
        {
          "internalType": "address",
          "name": "user",
          "type": "address"
        },
        {
          "internalType": "bool",
          "name": "whiteList",
          "type": "bool"
        }
      ],
      "name": "setWhiteListUser",
      "outputs": [],
      "stateMutability": "nonpayable",
      "type": "function"
    },
    {
      "inputs": [
        {
          "internalType": "address",
          "name": "token",
          "type": "address"
        },
        {
          "internalType": "bool",
          "name": "valid",
          "type": "bool"
        },
        {
          "internalType": "bool",
          "name": "burnable",
          "type": "bool"
        }
      ],
      "name": "setValidToken",
      "outputs": [],
      "stateMutability": "nonpayable",
      "type": "function"
    }
  ],
  "bytecode": "0x60806040523480156200001157600080fd5b50336000806101000a81548173ffffffffffffffffffffffffffffffffffffffff021916908373ffffffffffffffffffffffffffffffffffffffff1602179055503373ffffffffffffffffffffffffffffffffffffffff16600073ffffffffffffffffffffffffffffffffffffffff167f8be0079c531659141344cd1fd0a4f28419497f9722a3daafe3b4186f6b6457e060405160405180910390a3601e600b60000160006101000a81548160ff021916908360ff160217905550605a600b60000160016101000a81548160ff021916908360ff16021790555060005b60038160ff1610156200013b57600160118260ff16600381106200010e57fe5b602091828204019190066101000a81548160ff0219169083151502179055508080600101915050620000ee565b50615a8d806200014c6000396000f3fe60806040526004361061020e5760003560e01c806370a0823111610118578063a9059cbb116100a0578063e22bcf841161006f578063e22bcf8414610d86578063e2fc9d0014610ded578063f2fde38b14610e56578063fe02915614610ea7578063fe25e00a14610f355761020e565b8063a9059cbb14610bce578063d2cb010014610c3f578063dd62ed3e14610c9a578063e12fb1b914610d1f5761020e565b80637b12a62c116100e75780637b12a62c14610a275780637cd07e4714610a555780638da5cb5b14610a9657806395d89b4114610ad7578063a451a2c114610b675761020e565b806370a08231146108d9578063715018a61461093e57806372c3fdd91461095557806379502c55146109d85761020e565b806323cf31181161019b57806342966c681161016a57806342966c681461067b57806356688700146106cc578063572861bc1461072e5780636bd50cef146107795780636d3405f1146107c85761020e565b806323cf31181461055e578063313ce567146105af578063349849a3146105dd5780633f40d3a31461061e5761020e565b806307d44e1a116101e257806307d44e1a146103c5578063095ea7b31461040657806318160ddd1461047757806321b77d63146104a257806323b872dd146104cd5761020e565b80627ed4fe146102135780630319f4c61461027857806306d47de9146102d357806306fdde0314610335575b600080fd5b34801561021f57600080fd5b506102766004803603606081101561023657600080fd5b810190808035906020019092919080359060200190929190803573ffffffffffffffffffffffffffffffffffffffff169060200190929190505050610f76565b005b34801561028457600080fd5b506102d16004803603604081101561029b57600080fd5b8101908080359060200190929190803573ffffffffffffffffffffffffffffffffffffffff1690602001909291905050506110ae565b005b61031f600480360360408110156102e957600080fd5b81019080803573ffffffffffffffffffffffffffffffffffffffff16906020019092919080359060200190929190505050611371565b6040518082815260200191505060405180910390f35b34801561034157600080fd5b5061034a611cb2565b6040518080602001828103825283818151815260200191508051906020019080838360005b8381101561038a57808201518184015260208101905061036f565b50505050905090810190601f1680156103b75780820380516001836020036101000a031916815260200191505b509250505060405180910390f35b3480156103d157600080fd5b506103da611cef565b604051808273ffffffffffffffffffffffffffffffffffffffff16815260200191505060405180910390f35b34801561041257600080fd5b5061045f6004803603604081101561042957600080fd5b81019080803573ffffffffffffffffffffffffffffffffffffffff16906020019092919080359060200190929190505050611d15565b60405180821515815260200191505060405180910390f35b34801561048357600080fd5b5061048c611d2c565b6040518082815260200191505060405180910390f35b3480156104ae57600080fd5b506104b7611d36565b6040518082815260200191505060405180910390f35b3480156104d957600080fd5b50610546600480360360608110156104f057600080fd5b81019080803573ffffffffffffffffffffffffffffffffffffffff169060200190929190803573ffffffffffffffffffffffffffffffffffffffff16906020019092919080359060200190929190505050611d3f565b60405180821515815260200191505060405180910390f35b34801561056a57600080fd5b506105ad6004803603602081101561058157600080fd5b81019080803573ffffffffffffffffffffffffffffffffffffffff169060200190929190505050611e0a565b005b3480156105bb57600080fd5b506105c4611f0f565b604051808260ff16815260200191505060405180910390f35b3480156105e957600080fd5b506105f2611f18565b604051808273ffffffffffffffffffffffffffffffffffffffff16815260200191505060405180910390f35b34801561062a57600080fd5b506106796004803603604081101561064157600080fd5b81019080803573ffffffffffffffffffffffffffffffffffffffff169060200190929190803515159060200190929190505050611f3e565b005b34801561068757600080fd5b506106b46004803603602081101561069e57600080fd5b810190808035906020019092919050505061205a565b60405180821515815260200191505060405180910390f35b610718600480360360408110156106e257600080fd5b81019080803573ffffffffffffffffffffffffffffffffffffffff1690602001909291908035906020019092919050505061206f565b6040518082815260200191505060405180910390f35b34801561073a57600080fd5b506107776004803603604081101561075157600080fd5b81019080803560ff169060200190929190803560ff169060200190929190505050612a54565b005b34801561078557600080fd5b5061078e612b55565b604051808481526020018381526020018273ffffffffffffffffffffffffffffffffffffffff168152602001935050505060405180910390f35b3480156107d457600080fd5b506108d7600480360360e08110156107eb57600080fd5b81019080803573ffffffffffffffffffffffffffffffffffffffff169060200190929190803573ffffffffffffffffffffffffffffffffffffffff169060200190929190803573ffffffffffffffffffffffffffffffffffffffff169060200190929190803573ffffffffffffffffffffffffffffffffffffffff169060200190929190803573ffffffffffffffffffffffffffffffffffffffff169060200190929190803573ffffffffffffffffffffffffffffffffffffffff169060200190929190803573ffffffffffffffffffffffffffffffffffffffff169060200190929190505050612b97565b005b3480156108e557600080fd5b50610928600480360360208110156108fc57600080fd5b81019080803573ffffffffffffffffffffffffffffffffffffffff169060200190929190505050612e31565b6040518082815260200191505060405180910390f35b34801561094a57600080fd5b50610953612e7a565b005b34801561096157600080fd5b506109c26004803603608081101561097857600080fd5b81019080803573ffffffffffffffffffffffffffffffffffffffff169060200190929190803590602001909291908035906020019092919080359060200190929190505050612ff9565b6040518082815260200191505060405180910390f35b3480156109e457600080fd5b506109ed613246565b604051808481526020018381526020018273ffffffffffffffffffffffffffffffffffffffff168152602001935050505060405180910390f35b348015610a3357600080fd5b50610a3c61327e565b604051808260ff16815260200191505060405180910390f35b348015610a6157600080fd5b50610a6a613298565b604051808273ffffffffffffffffffffffffffffffffffffffff16815260200191505060405180910390f35b348015610aa257600080fd5b50610aab6132be565b604051808273ffffffffffffffffffffffffffffffffffffffff16815260200191505060405180910390f35b348015610ae357600080fd5b50610aec6132e7565b6040518080602001828103825283818151815260200191508051906020019080838360005b83811015610b2c578082015181840152602081019050610b11565b50505050905090810190601f168015610b595780820380516001836020036101000a031916815260200191505b509250505060405180910390f35b348015610b7357600080fd5b50610bb660048036036020811015610b8a57600080fd5b81019080803573ffffffffffffffffffffffffffffffffffffffff169060200190929190505050613324565b60405180821515815260200191505060405180910390f35b348015610bda57600080fd5b50610c2760048036036040811015610bf157600080fd5b81019080803573ffffffffffffffffffffffffffffffffffffffff16906020019092919080359060200190929190505050613344565b60405180821515815260200191505060405180910390f35b348015610c4b57600080fd5b50610c9860048036036040811015610c6257600080fd5b81019080803573ffffffffffffffffffffffffffffffffffffffff1690602001909291908035906020019092919050505061335b565b005b348015610ca657600080fd5b50610d0960048036036040811015610cbd57600080fd5b81019080803573ffffffffffffffffffffffffffffffffffffffff169060200190929190803573ffffffffffffffffffffffffffffffffffffffff16906020019092919050505061340f565b6040518082815260200191505060405180910390f35b348015610d2b57600080fd5b50610d6e60048036036020811015610d4257600080fd5b81019080803573ffffffffffffffffffffffffffffffffffffffff169060200190929190505050613496565b60405180821515815260200191505060405180910390f35b348015610d9257600080fd5b50610dd560048036036020811015610da957600080fd5b81019080803573ffffffffffffffffffffffffffffffffffffffff1690602001909291905050506134b6565b60405180821515815260200191505060405180910390f35b348015610df957600080fd5b50610e5460048036036060811015610e1057600080fd5b81019080803573ffffffffffffffffffffffffffffffffffffffff1690602001909291908035151590602001909291908035151590602001909291905050506134d6565b005b348015610e6257600080fd5b50610ea560048036036020811015610e7957600080fd5b81019080803573ffffffffffffffffffffffffffffffffffffffff1690602001909291905050506135e3565b005b610f1d60048036036080811015610ebd57600080fd5b81019080803573ffffffffffffffffffffffffffffffffffffffff169060200190929190803573ffffffffffffffffffffffffffffffffffffffff16906020019092919080359060200190929190803590602001909291905050506137e7565b60405180821515815260200191505060405180910390f35b348015610f4157600080fd5b50610f4a61463a565b604051808273ffffffffffffffffffffffffffffffffffffffff16815260200191505060405180910390f35b3373ffffffffffffffffffffffffffffffffffffffff1660008054906101000a900473ffffffffffffffffffffffffffffffffffffffff1673ffffffffffffffffffffffffffffffffffffffff1614611037576040517f08c379a00000000000000000000000000000000000000000000000000000000081526004018080602001828103825260208152602001807f4f776e61626c653a2063616c6c6572206973206e6f7420746865206f776e657281525060200191505060405180910390fd5b6103e8600560010154600560000154011061105157600080fd5b826005600001819055508160056001018190555080600560020160006101000a81548173ffffffffffffffffffffffffffffffffffffffff021916908373ffffffffffffffffffffffffffffffffffffffff160217905550505050565b600f60009054906101000a900473ffffffffffffffffffffffffffffffffffffffff1673ffffffffffffffffffffffffffffffffffffffff16630e7fc864336040518263ffffffff1660e01b8152600401808273ffffffffffffffffffffffffffffffffffffffff168152602001915050602060405180830381600087803b15801561113957600080fd5b505af115801561114d573d6000803e3d6000fd5b505050506040513d602081101561116357600080fd5b81019080805190602001909291905050506111c9576040517f08c379a00000000000000000000000000000000000000000000000000000000081526004018080602001828103825260218152602001806159586021913960400191505060405180910390fd5b61121b82600160008473ffffffffffffffffffffffffffffffffffffffff1673ffffffffffffffffffffffffffffffffffffffff1681526020019081526020016000205461466090919063ffffffff16565b600160008373ffffffffffffffffffffffffffffffffffffffff1673ffffffffffffffffffffffffffffffffffffffff168152602001908152602001600020819055508073ffffffffffffffffffffffffffffffffffffffff1663614619546040518163ffffffff1660e01b8152600401600060405180830381600087803b1580156112a657600080fd5b505af11580156112ba573d6000803e3d6000fd5b5050505061132a826040518060600160405280602481526020016159c160249139600160008573ffffffffffffffffffffffffffffffffffffffff1673ffffffffffffffffffffffffffffffffffffffff168152602001908152602001600020546146e89092919063ffffffff16565b600160008373ffffffffffffffffffffffffffffffffffffffff1673ffffffffffffffffffffffffffffffffffffffff168152602001908152602001600020819055505050565b600082600034111561146957600c60009054906101000a900473ffffffffffffffffffffffffffffffffffffffff1673ffffffffffffffffffffffffffffffffffffffff168173ffffffffffffffffffffffffffffffffffffffff1614611423576040517f08c379a00000000000000000000000000000000000000000000000000000000081526004018080602001828103825260298152602001806158c46029913960400191505060405180910390fd5b30601060006101000a81548173ffffffffffffffffffffffffffffffffffffffff021916908373ffffffffffffffffffffffffffffffffffffffff1602179055506114ab565b33601060006101000a81548173ffffffffffffffffffffffffffffffffffffffff021916908373ffffffffffffffffffffffffffffffffffffffff1602179055505b83601460003373ffffffffffffffffffffffffffffffffffffffff1673ffffffffffffffffffffffffffffffffffffffff16815260200190815260200160002060009054906101000a900460ff168061154d5750601360008273ffffffffffffffffffffffffffffffffffffffff1673ffffffffffffffffffffffffffffffffffffffff16815260200190815260200160002060009054906101000a900460ff165b806115de5750600073ffffffffffffffffffffffffffffffffffffffff168173ffffffffffffffffffffffffffffffffffffffff16141580156115dd5750600c60009054906101000a900473ffffffffffffffffffffffffffffffffffffffff1673ffffffffffffffffffffffffffffffffffffffff168173ffffffffffffffffffffffffffffffffffffffff16145b5b611650576040517f08c379a00000000000000000000000000000000000000000000000000000000081526004018080602001828103825260178152602001807f4245484f444c45523a20746f6b656e20696e76616c696400000000000000000081525060200191505060405180910390fd5b6002600081600281111561166057fe5b90506011816003811061166f57fe5b602091828204019190069054906101000a900460ff166116da576040517f08c379a00000000000000000000000000000000000000000000000000000000081526004018080602001828103825260228152602001806159366022913960400191505060405180910390fd5b6000601182600381106116e957fe5b602091828204019190066101000a81548160ff02191690831515021790555060008773ffffffffffffffffffffffffffffffffffffffff1673__AddressBalanceCheck___________________63eedc966a90916040518263ffffffff1660e01b8152600401808273ffffffffffffffffffffffffffffffffffffffff16815260200191505060206040518083038186803b15801561178757600080fd5b505af415801561179b573d6000803e3d6000fd5b505050506040513d60208110156117b157600080fd5b8101908080519060200190929190505050905060006117d988836147a890919063ffffffff16565b905064e8d4a510008111611855576040517f08c379a00000000000000000000000000000000000000000000000000000000081526004018080602001828103825260178152602001807f4245484f444c45523a206d696e206c697175696469747900000000000000000081525060200191505060405180910390fd5b600b60000160019054906101000a900460ff1660ff166118918361188360648c6147f290919063ffffffff16565b61487890919063ffffffff16565b11156118e8576040517f08c379a00000000000000000000000000000000000000000000000000000000081526004018080602001828103825260298152602001806159e56029913960400191505060405180910390fd5b60006118f3836148c2565b90506000611900836148c2565b905060018311611911576000611913565b805b820398506000600160003373ffffffffffffffffffffffffffffffffffffffff1673ffffffffffffffffffffffffffffffffffffffff168152602001908152602001600020549050808a1115611986576000818b03905060008b61271083028161197957fe5b04141561198457819a505b505b611990338b6149dd565b600c60009054906101000a900473ffffffffffffffffffffffffffffffffffffffff1673ffffffffffffffffffffffffffffffffffffffff168c73ffffffffffffffffffffffffffffffffffffffff161415611b3e57600c60009054906101000a900473ffffffffffffffffffffffffffffffffffffffff1673ffffffffffffffffffffffffffffffffffffffff16632e1a7d4d8c6040518263ffffffff1660e01b815260040180828152602001915050600060405180830381600087803b158015611a5b57600080fd5b505af1158015611a6f573d6000803e3d6000fd5b50505050600033905060008173ffffffffffffffffffffffffffffffffffffffff168d60405180600001905060006040518083038185875af1925050503d8060008114611ad8576040519150601f19603f3d011682016040523d82523d6000602084013e611add565b606091505b5050905080611b37576040517f08c379a00000000000000000000000000000000000000000000000000000000081526004018080602001828103825260248152602001806159796024913960400191505060405180910390fd5b5050611bfa565b8b73ffffffffffffffffffffffffffffffffffffffff1673__AddressBalanceCheck___________________63078d3b799091338e6040518463ffffffff1660e01b8152600401808473ffffffffffffffffffffffffffffffffffffffff1681526020018373ffffffffffffffffffffffffffffffffffffffff168152602001828152602001935050505060006040518083038186803b158015611be157600080fd5b505af4158015611bf5573d6000803e3d6000fd5b505050505b7fba0b893b2f314a229997e335266881b5ac6b290bd350d2c23cc57160b77882b8338d8d8d604051808573ffffffffffffffffffffffffffffffffffffffff1681526020018473ffffffffffffffffffffffffffffffffffffffff16815260200183815260200182815260200194505050505060405180910390a15050505050600160118260038110611c8957fe5b602091828204019190066101000a81548160ff0219169083151502179055505050505092915050565b60606040518060400160405280600881526020017f5363617263697479000000000000000000000000000000000000000000000000815250905090565b600d60009054906101000a900473ffffffffffffffffffffffffffffffffffffffff1681565b6000611d22338484614aff565b6001905092915050565b6000600354905090565b64e8d4a5100081565b6000611d4c848484614cf6565b611dff8433611dfa8560405180606001604052806028815260200161590e60289139600260008b73ffffffffffffffffffffffffffffffffffffffff1673ffffffffffffffffffffffffffffffffffffffff16815260200190815260200160002060003373ffffffffffffffffffffffffffffffffffffffff1673ffffffffffffffffffffffffffffffffffffffff168152602001908152602001600020546146e89092919063ffffffff16565b614aff565b600190509392505050565b3373ffffffffffffffffffffffffffffffffffffffff1660008054906101000a900473ffffffffffffffffffffffffffffffffffffffff1673ffffffffffffffffffffffffffffffffffffffff1614611ecb576040517f08c379a00000000000000000000000000000000000000000000000000000000081526004018080602001828103825260208152602001807f4f776e61626c653a2063616c6c6572206973206e6f7420746865206f776e657281525060200191505060405180910390fd5b80600460006101000a81548173ffffffffffffffffffffffffffffffffffffffff021916908373ffffffffffffffffffffffffffffffffffffffff16021790555050565b60006012905090565b600c60009054906101000a900473ffffffffffffffffffffffffffffffffffffffff1681565b3373ffffffffffffffffffffffffffffffffffffffff1660008054906101000a900473ffffffffffffffffffffffffffffffffffffffff1673ffffffffffffffffffffffffffffffffffffffff1614611fff576040517f08c379a00000000000000000000000000000000000000000000000000000000081526004018080602001828103825260208152602001807f4f776e61626c653a2063616c6c6572206973206e6f7420746865206f776e657281525060200191505060405180910390fd5b80601460008473ffffffffffffffffffffffffffffffffffffffff1673ffffffffffffffffffffffffffffffffffffffff16815260200190815260200160002060006101000a81548160ff0219169083151502179055505050565b600061206633836149dd565b60019050919050565b600082600034111561216757600c60009054906101000a900473ffffffffffffffffffffffffffffffffffffffff1673ffffffffffffffffffffffffffffffffffffffff168173ffffffffffffffffffffffffffffffffffffffff1614612121576040517f08c379a00000000000000000000000000000000000000000000000000000000081526004018080602001828103825260298152602001806158c46029913960400191505060405180910390fd5b30601060006101000a81548173ffffffffffffffffffffffffffffffffffffffff021916908373ffffffffffffffffffffffffffffffffffffffff1602179055506121a9565b33601060006101000a81548173ffffffffffffffffffffffffffffffffffffffff021916908373ffffffffffffffffffffffffffffffffffffffff1602179055505b83601460003373ffffffffffffffffffffffffffffffffffffffff1673ffffffffffffffffffffffffffffffffffffffff16815260200190815260200160002060009054906101000a900460ff168061224b5750601360008273ffffffffffffffffffffffffffffffffffffffff1673ffffffffffffffffffffffffffffffffffffffff16815260200190815260200160002060009054906101000a900460ff165b806122dc5750600073ffffffffffffffffffffffffffffffffffffffff168173ffffffffffffffffffffffffffffffffffffffff16141580156122db5750600c60009054906101000a900473ffffffffffffffffffffffffffffffffffffffff1673ffffffffffffffffffffffffffffffffffffffff168173ffffffffffffffffffffffffffffffffffffffff16145b5b61234e576040517f08c379a00000000000000000000000000000000000000000000000000000000081526004018080602001828103825260178152602001807f4245484f444c45523a20746f6b656e20696e76616c696400000000000000000081525060200191505060405180910390fd5b6001600081600281111561235e57fe5b90506011816003811061236d57fe5b602091828204019190069054906101000a900460ff166123d8576040517f08c379a00000000000000000000000000000000000000000000000000000000081526004018080602001828103825260228152602001806159366022913960400191505060405180910390fd5b6000601182600381106123e757fe5b602091828204019190066101000a81548160ff02191690831515021790555060006124d58873ffffffffffffffffffffffffffffffffffffffff1673__AddressBalanceCheck___________________637fed018f909164e8d4a510006040518363ffffffff1660e01b8152600401808373ffffffffffffffffffffffffffffffffffffffff1681526020018281526020019250505060206040518083038186803b15801561249557600080fd5b505af41580156124a9573d6000803e3d6000fd5b505050506040513d60208110156124bf57600080fd5b8101908080519060200190929190505050615167565b600f0b9050600c60009054906101000a900473ffffffffffffffffffffffffffffffffffffffff1673ffffffffffffffffffffffffffffffffffffffff168873ffffffffffffffffffffffffffffffffffffffff1614156127bd5786600c60009054906101000a900473ffffffffffffffffffffffffffffffffffffffff1673ffffffffffffffffffffffffffffffffffffffff166370a08231336040518263ffffffff1660e01b8152600401808273ffffffffffffffffffffffffffffffffffffffff16815260200191505060206040518083038186803b1580156125ba57600080fd5b505afa1580156125ce573d6000803e3d6000fd5b505050506040513d60208110156125e457600080fd5b8101908080519060200190929190505050106126dc57600c60009054906101000a900473ffffffffffffffffffffffffffffffffffffffff1673ffffffffffffffffffffffffffffffffffffffff1673__AddressBalanceCheck___________________63e4652f499091338a6040518463ffffffff1660e01b8152600401808473ffffffffffffffffffffffffffffffffffffffff1681526020018373ffffffffffffffffffffffffffffffffffffffff168152602001828152602001935050505060006040518083038186803b1580156126bf57600080fd5b505af41580156126d3573d6000803e3d6000fd5b505050506127b8565b863414612734576040517f08c379a0000000000000000000000000000000000000000000000000000000008152600401808060200182810382526021815260200180615a0e6021913960400191505060405180910390fd5b600c60009054906101000a900473ffffffffffffffffffffffffffffffffffffffff1673ffffffffffffffffffffffffffffffffffffffff1663d0e30db0346040518263ffffffff1660e01b81526004016000604051808303818588803b15801561279e57600080fd5b505af11580156127b2573d6000803e3d6000fd5b50505050505b61289b565b8773ffffffffffffffffffffffffffffffffffffffff1673__AddressBalanceCheck___________________63e4652f499091601060009054906101000a900473ffffffffffffffffffffffffffffffffffffffff168a6040518463ffffffff1660e01b8152600401808473ffffffffffffffffffffffffffffffffffffffff1681526020018373ffffffffffffffffffffffffffffffffffffffff168152602001828152602001935050505060006040518083038186803b15801561288257600080fd5b505af4158015612896573d6000803e3d6000fd5b505050505b60006128d86128d364e8d4a510006128c56128b68d8d61518a565b8c6147a890919063ffffffff16565b61487890919063ffffffff16565b615167565b600f0b905060006128f2828461466090919063ffffffff16565b905064e8d4a5100081101561296f576040517f08c379a00000000000000000000000000000000000000000000000000000000081526004018080602001828103825260188152602001807f4245484f444c45523a206d696e206c69717569646974792e000000000000000081525060200191505060405180910390fd5b6001831161297e576000612988565b612987836148c2565b5b612991826148c2565b03975061299e33896154dd565b7f36f3b2e1a21c19137dd82ec243b0708a1d26b3d1fa1dc49c44c4c366a5878138338b8b8b604051808573ffffffffffffffffffffffffffffffffffffffff1681526020018473ffffffffffffffffffffffffffffffffffffffff16815260200183815260200182815260200194505050505060405180910390a1505050600160118260038110612a2b57fe5b602091828204019190066101000a81548160ff0219169083151502179055505050505092915050565b3373ffffffffffffffffffffffffffffffffffffffff1660008054906101000a900473ffffffffffffffffffffffffffffffffffffffff1673ffffffffffffffffffffffffffffffffffffffff1614612b15576040517f08c379a00000000000000000000000000000000000000000000000000000000081526004018080602001828103825260208152602001807f4f776e61626c653a2063616c6c6572206973206e6f7420746865206f776e657281525060200191505060405180910390fd5b81600b60000160006101000a81548160ff021916908360ff16021790555080600b60000160016101000a81548160ff021916908360ff1602179055505050565b6000806000600560000154600560010154600560020160009054906101000a900473ffffffffffffffffffffffffffffffffffffffff16925092509250909192565b3373ffffffffffffffffffffffffffffffffffffffff1660008054906101000a900473ffffffffffffffffffffffffffffffffffffffff1673ffffffffffffffffffffffffffffffffffffffff1614612c58576040517f08c379a00000000000000000000000000000000000000000000000000000000081526004018080602001828103825260208152602001807f4f776e61626c653a2063616c6c6572206973206e6f7420746865206f776e657281525060200191505060405180910390fd5b86600c60006101000a81548173ffffffffffffffffffffffffffffffffffffffff021916908373ffffffffffffffffffffffffffffffffffffffff16021790555085600d60006101000a81548173ffffffffffffffffffffffffffffffffffffffff021916908373ffffffffffffffffffffffffffffffffffffffff16021790555084600f60006101000a81548173ffffffffffffffffffffffffffffffffffffffff021916908373ffffffffffffffffffffffffffffffffffffffff16021790555083600e60006101000a81548173ffffffffffffffffffffffffffffffffffffffff021916908373ffffffffffffffffffffffffffffffffffffffff16021790555082600860010160006101000a81548173ffffffffffffffffffffffffffffffffffffffff021916908373ffffffffffffffffffffffffffffffffffffffff16021790555081600860000160006101000a81548173ffffffffffffffffffffffffffffffffffffffff021916908373ffffffffffffffffffffffffffffffffffffffff16021790555080600860020160006101000a81548173ffffffffffffffffffffffffffffffffffffffff021916908373ffffffffffffffffffffffffffffffffffffffff16021790555050505050505050565b6000600160008373ffffffffffffffffffffffffffffffffffffffff1673ffffffffffffffffffffffffffffffffffffffff168152602001908152602001600020549050919050565b3373ffffffffffffffffffffffffffffffffffffffff1660008054906101000a900473ffffffffffffffffffffffffffffffffffffffff1673ffffffffffffffffffffffffffffffffffffffff1614612f3b576040517f08c379a00000000000000000000000000000000000000000000000000000000081526004018080602001828103825260208152602001807f4f776e61626c653a2063616c6c6572206973206e6f7420746865206f776e657281525060200191505060405180910390fd5b600073ffffffffffffffffffffffffffffffffffffffff1660008054906101000a900473ffffffffffffffffffffffffffffffffffffffff1673ffffffffffffffffffffffffffffffffffffffff167f8be0079c531659141344cd1fd0a4f28419497f9722a3daafe3b4186f6b6457e060405160405180910390a360008060006101000a81548173ffffffffffffffffffffffffffffffffffffffff021916908373ffffffffffffffffffffffffffffffffffffffff160217905550565b6000808573ffffffffffffffffffffffffffffffffffffffff1673__AddressBalanceCheck___________________63eedc966a90916040518263ffffffff1660e01b8152600401808273ffffffffffffffffffffffffffffffffffffffff16815260200191505060206040518083038186803b15801561307957600080fd5b505af415801561308d573d6000803e3d6000fd5b505050506040513d60208110156130a357600080fd5b810190808051906020019092919050505090506000805b848110156132375760008873ffffffffffffffffffffffffffffffffffffffff1673__AddressBalanceCheck___________________63eedc966a90916040518263ffffffff1660e01b8152600401808273ffffffffffffffffffffffffffffffffffffffff16815260200191505060206040518083038186803b15801561314157600080fd5b505af4158015613155573d6000803e3d6000fd5b505050506040513d602081101561316b57600080fd5b81019080805190602001909291905050509050600061319389836147a890919063ffffffff16565b905060006131a0836148c2565b905060006131ad836148c2565b90506000600184116131c05760006131c2565b815b830390506000818c03905060008114156131e7578c995050505050505050505061323e565b60008112156131fb5760018d039850613202565b60018d0197505b876002898b038161320f57fe5b04019c50858d11613220578c613222565b855b9c5050505050505080806001019150506130ba565b5085925050505b949350505050565b60058060000154908060010154908060020160009054906101000a900473ffffffffffffffffffffffffffffffffffffffff16905083565b6000600b60000160019054906101000a900460ff16905090565b600460009054906101000a900473ffffffffffffffffffffffffffffffffffffffff1681565b60008060009054906101000a900473ffffffffffffffffffffffffffffffffffffffff16905090565b60606040518060400160405280600381526020017f5343580000000000000000000000000000000000000000000000000000000000815250905090565b60126020528060005260406000206000915054906101000a900460ff1681565b6000613351338484614cf6565b6001905092915050565b600460009054906101000a900473ffffffffffffffffffffffffffffffffffffffff1673ffffffffffffffffffffffffffffffffffffffff163373ffffffffffffffffffffffffffffffffffffffff1614613401576040517f08c379a000000000000000000000000000000000000000000000000000000000815260040180806020018281038252602181526020018061580d6021913960400191505060405180910390fd5b61340b82826154dd565b5050565b6000600260008473ffffffffffffffffffffffffffffffffffffffff1673ffffffffffffffffffffffffffffffffffffffff16815260200190815260200160002060008373ffffffffffffffffffffffffffffffffffffffff1673ffffffffffffffffffffffffffffffffffffffff16815260200190815260200160002054905092915050565b60136020528060005260406000206000915054906101000a900460ff1681565b60146020528060005260406000206000915054906101000a900460ff1681565b600d60009054906101000a900473ffffffffffffffffffffffffffffffffffffffff1673ffffffffffffffffffffffffffffffffffffffff163373ffffffffffffffffffffffffffffffffffffffff161461353057600080fd5b81601360008573ffffffffffffffffffffffffffffffffffffffff1673ffffffffffffffffffffffffffffffffffffffff16815260200190815260200160002060006101000a81548160ff02191690831515021790555080601260008573ffffffffffffffffffffffffffffffffffffffff1673ffffffffffffffffffffffffffffffffffffffff16815260200190815260200160002060006101000a81548160ff021916908315150217905550505050565b3373ffffffffffffffffffffffffffffffffffffffff1660008054906101000a900473ffffffffffffffffffffffffffffffffffffffff1673ffffffffffffffffffffffffffffffffffffffff16146136a4576040517f08c379a00000000000000000000000000000000000000000000000000000000081526004018080602001828103825260208152602001807f4f776e61626c653a2063616c6c6572206973206e6f7420746865206f776e657281525060200191505060405180910390fd5b600073ffffffffffffffffffffffffffffffffffffffff168173ffffffffffffffffffffffffffffffffffffffff16141561372a576040517f08c379a000000000000000000000000000000000000000000000000000000000815260040180806020018281038252602681526020018061582e6026913960400191505060405180910390fd5b8073ffffffffffffffffffffffffffffffffffffffff1660008054906101000a900473ffffffffffffffffffffffffffffffffffffffff1673ffffffffffffffffffffffffffffffffffffffff167f8be0079c531659141344cd1fd0a4f28419497f9722a3daafe3b4186f6b6457e060405160405180910390a3806000806101000a81548173ffffffffffffffffffffffffffffffffffffffff021916908373ffffffffffffffffffffffffffffffffffffffff16021790555050565b60008460003411156138df57600c60009054906101000a900473ffffffffffffffffffffffffffffffffffffffff1673ffffffffffffffffffffffffffffffffffffffff168173ffffffffffffffffffffffffffffffffffffffff1614613899576040517f08c379a00000000000000000000000000000000000000000000000000000000081526004018080602001828103825260298152602001806158c46029913960400191505060405180910390fd5b30601060006101000a81548173ffffffffffffffffffffffffffffffffffffffff021916908373ffffffffffffffffffffffffffffffffffffffff160217905550613921565b33601060006101000a81548173ffffffffffffffffffffffffffffffffffffffff021916908373ffffffffffffffffffffffffffffffffffffffff1602179055505b85601460003373ffffffffffffffffffffffffffffffffffffffff1673ffffffffffffffffffffffffffffffffffffffff16815260200190815260200160002060009054906101000a900460ff16806139c35750601360008273ffffffffffffffffffffffffffffffffffffffff1673ffffffffffffffffffffffffffffffffffffffff16815260200190815260200160002060009054906101000a900460ff165b80613a545750600073ffffffffffffffffffffffffffffffffffffffff168173ffffffffffffffffffffffffffffffffffffffff1614158015613a535750600c60009054906101000a900473ffffffffffffffffffffffffffffffffffffffff1673ffffffffffffffffffffffffffffffffffffffff168173ffffffffffffffffffffffffffffffffffffffff16145b5b613ac6576040517f08c379a00000000000000000000000000000000000000000000000000000000081526004018080602001828103825260178152602001807f4245484f444c45523a20746f6b656e20696e76616c696400000000000000000081525060200191505060405180910390fd5b600080816002811115613ad557fe5b905060118160038110613ae457fe5b602091828204019190069054906101000a900460ff16613b4f576040517f08c379a00000000000000000000000000000000000000000000000000000000081526004018080602001828103825260228152602001806159366022913960400191505060405180910390fd5b600060118260038110613b5e57fe5b602091828204019190066101000a81548160ff02191690831515021790555060008973ffffffffffffffffffffffffffffffffffffffff1673__AddressBalanceCheck___________________63eedc966a90916040518263ffffffff1660e01b8152600401808273ffffffffffffffffffffffffffffffffffffffff16815260200191505060206040518083038186803b158015613bfc57600080fd5b505af4158015613c10573d6000803e3d6000fd5b505050506040513d6020811015613c2657600080fd5b81019080805190602001909291905050509050600c60009054906101000a900473ffffffffffffffffffffffffffffffffffffffff1673ffffffffffffffffffffffffffffffffffffffff168a73ffffffffffffffffffffffffffffffffffffffff161415613f1c5787600c60009054906101000a900473ffffffffffffffffffffffffffffffffffffffff1673ffffffffffffffffffffffffffffffffffffffff166370a08231336040518263ffffffff1660e01b8152600401808273ffffffffffffffffffffffffffffffffffffffff16815260200191505060206040518083038186803b158015613d1957600080fd5b505afa158015613d2d573d6000803e3d6000fd5b505050506040513d6020811015613d4357600080fd5b810190808051906020019092919050505010613e3b57600c60009054906101000a900473ffffffffffffffffffffffffffffffffffffffff1673ffffffffffffffffffffffffffffffffffffffff1673__AddressBalanceCheck___________________63e4652f499091338b6040518463ffffffff1660e01b8152600401808473ffffffffffffffffffffffffffffffffffffffff1681526020018373ffffffffffffffffffffffffffffffffffffffff168152602001828152602001935050505060006040518083038186803b158015613e1e57600080fd5b505af4158015613e32573d6000803e3d6000fd5b50505050613f17565b873414613e93576040517f08c379a0000000000000000000000000000000000000000000000000000000008152600401808060200182810382526021815260200180615a0e6021913960400191505060405180910390fd5b600c60009054906101000a900473ffffffffffffffffffffffffffffffffffffffff1673ffffffffffffffffffffffffffffffffffffffff1663d0e30db0346040518263ffffffff1660e01b81526004016000604051808303818588803b158015613efd57600080fd5b505af1158015613f11573d6000803e3d6000fd5b50505050505b613ffa565b8973ffffffffffffffffffffffffffffffffffffffff1673__AddressBalanceCheck___________________63e4652f499091601060009054906101000a900473ffffffffffffffffffffffffffffffffffffffff168b6040518463ffffffff1660e01b8152600401808473ffffffffffffffffffffffffffffffffffffffff1681526020018373ffffffffffffffffffffffffffffffffffffffff168152602001828152602001935050505060006040518083038186803b158015613fe157600080fd5b505af4158015613ff5573d6000803e3d6000fd5b505050505b60006140186140098c8b61518a565b8a6147a890919063ffffffff16565b905060008a73ffffffffffffffffffffffffffffffffffffffff1673__AddressBalanceCheck___________________63eedc966a90916040518263ffffffff1660e01b8152600401808273ffffffffffffffffffffffffffffffffffffffff16815260200191505060206040518083038186803b15801561409957600080fd5b505af41580156140ad573d6000803e3d6000fd5b505050506040513d60208110156140c357600080fd5b81019080805190602001909291905050509050600b60000160019054906101000a900460ff1660ff166141128261410460648d6147f290919063ffffffff16565b61487890919063ffffffff16565b1115614169576040517f08c379a00000000000000000000000000000000000000000000000000000000081526004018080602001828103825260298152602001806159e56029913960400191505060405180910390fd5b600061417e838561466090919063ffffffff16565b905060006141958b846147a890919063ffffffff16565b905060006141c483600b60000160009054906101000a900460ff1660ff1688901b61487890919063ffffffff16565b905060006141f385600b60000160009054906101000a900460ff1660ff1685901b61487890919063ffffffff16565b90506000821415801561420557508082145b614277576040517f08c379a00000000000000000000000000000000000000000000000000000000081526004018080602001828103825260198152602001807f4245484f444c45523a207377617020696e76617269616e742e0000000000000081525060200191505060405180910390fd5b505064e8d4a510008110156142f4576040517f08c379a00000000000000000000000000000000000000000000000000000000081526004018080602001828103825260188152602001807f4245484f444c45523a206d696e206c69717569646974792e000000000000000081525060200191505060405180910390fd5b600c60009054906101000a900473ffffffffffffffffffffffffffffffffffffffff1673ffffffffffffffffffffffffffffffffffffffff168d73ffffffffffffffffffffffffffffffffffffffff1614156144a257600c60009054906101000a900473ffffffffffffffffffffffffffffffffffffffff1673ffffffffffffffffffffffffffffffffffffffff16632e1a7d4d8c6040518263ffffffff1660e01b815260040180828152602001915050600060405180830381600087803b1580156143bf57600080fd5b505af11580156143d3573d6000803e3d6000fd5b50505050600033905060008173ffffffffffffffffffffffffffffffffffffffff168d60405180600001905060006040518083038185875af1925050503d806000811461443c576040519150601f19603f3d011682016040523d82523d6000602084013e614441565b606091505b505090508061449b576040517f08c379a00000000000000000000000000000000000000000000000000000000081526004018080602001828103825260248152602001806159796024913960400191505060405180910390fd5b505061455e565b8c73ffffffffffffffffffffffffffffffffffffffff1673__AddressBalanceCheck___________________63078d3b799091338e6040518463ffffffff1660e01b8152600401808473ffffffffffffffffffffffffffffffffffffffff1681526020018373ffffffffffffffffffffffffffffffffffffffff168152602001828152602001935050505060006040518083038186803b15801561454557600080fd5b505af4158015614559573d6000803e3d6000fd5b505050505b7fcd3829a3813dc3cdd188fd3d01dcf3268c16be2fdd2dd21d0665418816e46062338f8f8f8f604051808673ffffffffffffffffffffffffffffffffffffffff1681526020018573ffffffffffffffffffffffffffffffffffffffff1681526020018473ffffffffffffffffffffffffffffffffffffffff1681526020018381526020018281526020019550505050505060405180910390a160019950505050505060016011826003811061460f57fe5b602091828204019190066101000a81548160ff02191690831515021790555050505050949350505050565b600f60009054906101000a900473ffffffffffffffffffffffffffffffffffffffff1681565b6000808284019050838110156146de576040517f08c379a000000000000000000000000000000000000000000000000000000000815260040180806020018281038252601b8152602001807f536166654d6174683a206164646974696f6e206f766572666c6f77000000000081525060200191505060405180910390fd5b8091505092915050565b6000838311158290614795576040517f08c379a00000000000000000000000000000000000000000000000000000000081526004018080602001828103825283818151815260200191508051906020019080838360005b8381101561475a57808201518184015260208101905061473f565b50505050905090810190601f1680156147875780820380516001836020036101000a031916815260200191505b509250505060405180910390fd5b5060008385039050809150509392505050565b60006147ea83836040518060400160405280601e81526020017f536166654d6174683a207375627472616374696f6e206f766572666c6f7700008152506146e8565b905092915050565b6000808314156148055760009050614872565b600082840290508284828161481657fe5b041461486d576040517f08c379a00000000000000000000000000000000000000000000000000000000081526004018080602001828103825260218152602001806158ed6021913960400191505060405180910390fd5b809150505b92915050565b60006148ba83836040518060400160405280601a81526020017f536166654d6174683a206469766973696f6e206279207a65726f000000000000815250615604565b905092915050565b60008082116148d057600080fd5b6000808390506801000000000000000081106148f457604081901c90506040820191505b640100000000811061490e57602081901c90506020820191505b62010000811061492657601081901c90506010820191505b610100811061493d57600881901c90506008820191505b6010811061495357600481901c90506004820191505b6004811061496957600281901c90506002820191505b60028110614978576001820191505b60006040808403901b9050600083607f0386901b9050600067800000000000000090505b60008111156149d0578182029150600060ff83901c905080607f0183901c92508082028401935050600181901c905061499c565b5081945050505050919050565b614a66816040518060400160405280601c81526020017f53434152434954593a20696e73756666696369656e742066756e647300000000815250600160008673ffffffffffffffffffffffffffffffffffffffff1673ffffffffffffffffffffffffffffffffffffffff168152602001908152602001600020546146e89092919063ffffffff16565b600160008473ffffffffffffffffffffffffffffffffffffffff1673ffffffffffffffffffffffffffffffffffffffff16815260200190815260200160002081905550614abe816003546147a890919063ffffffff16565b6003819055507fb90306ad06b2a6ff86ddc9327db583062895ef6540e62dc50add009db5b356eb816040518082815260200191505060405180910390a15050565b600073ffffffffffffffffffffffffffffffffffffffff168373ffffffffffffffffffffffffffffffffffffffff161415614b85576040517f08c379a000000000000000000000000000000000000000000000000000000000815260040180806020018281038252602481526020018061599d6024913960400191505060405180910390fd5b600073ffffffffffffffffffffffffffffffffffffffff168273ffffffffffffffffffffffffffffffffffffffff161415614c0b576040517f08c379a00000000000000000000000000000000000000000000000000000000081526004018080602001828103825260228152602001806158546022913960400191505060405180910390fd5b80600260008573ffffffffffffffffffffffffffffffffffffffff1673ffffffffffffffffffffffffffffffffffffffff16815260200190815260200160002060008473ffffffffffffffffffffffffffffffffffffffff1673ffffffffffffffffffffffffffffffffffffffff168152602001908152602001600020819055508173ffffffffffffffffffffffffffffffffffffffff168373ffffffffffffffffffffffffffffffffffffffff167f8c5be1e5ebec7d5bd14f71427d1e84f3dd0314c0f7b2291e5b200ac8c7c3b925836040518082815260200191505060405180910390a3505050565b600073ffffffffffffffffffffffffffffffffffffffff168373ffffffffffffffffffffffffffffffffffffffff161415614d7c576040517f08c379a00000000000000000000000000000000000000000000000000000000081526004018080602001828103825260288152602001806158766028913960400191505060405180910390fd5b600073ffffffffffffffffffffffffffffffffffffffff168273ffffffffffffffffffffffffffffffffffffffff161415614e02576040517f08c379a000000000000000000000000000000000000000000000000000000000815260040180806020018281038252602681526020018061589e6026913960400191505060405180910390fd5b6000614e306103e8614e22846005600001546147f290919063ffffffff16565b61487890919063ffffffff16565b90506000614e606103e8614e52856005600101546147f290919063ffffffff16565b61487890919063ffffffff16565b9050614e77816003546147a890919063ffffffff16565b6003819055507fb90306ad06b2a6ff86ddc9327db583062895ef6540e62dc50add009db5b356eb816040518082815260200191505060405180910390a1614f2b8260016000600560020160009054906101000a900473ffffffffffffffffffffffffffffffffffffffff1673ffffffffffffffffffffffffffffffffffffffff1673ffffffffffffffffffffffffffffffffffffffff1681526020019081526020016000205461466090919063ffffffff16565b60016000600560020160009054906101000a900473ffffffffffffffffffffffffffffffffffffffff1673ffffffffffffffffffffffffffffffffffffffff1673ffffffffffffffffffffffffffffffffffffffff16815260200190815260200160002081905550614fff83604051806060016040528060298152602001615a2f60299139600160008973ffffffffffffffffffffffffffffffffffffffff1673ffffffffffffffffffffffffffffffffffffffff168152602001908152602001600020546146e89092919063ffffffff16565b600160008773ffffffffffffffffffffffffffffffffffffffff1673ffffffffffffffffffffffffffffffffffffffff168152602001908152602001600020819055506150b861506a61505b838561466090919063ffffffff16565b856147a890919063ffffffff16565b600160008773ffffffffffffffffffffffffffffffffffffffff1673ffffffffffffffffffffffffffffffffffffffff1681526020019081526020016000205461466090919063ffffffff16565b600160008673ffffffffffffffffffffffffffffffffffffffff1673ffffffffffffffffffffffffffffffffffffffff168152602001908152602001600020819055508373ffffffffffffffffffffffffffffffffffffffff168573ffffffffffffffffffffffffffffffffffffffff167fddf252ad1be2c89b69c2b068fc378daa952ba7f163c4a11628f55a4df523b3ef856040518082815260200191505060405180910390a35050505050565b6000677fffffffffffffff82111561517e57600080fd5b604082901b9050919050565b6000600860020160009054906101000a900473ffffffffffffffffffffffffffffffffffffffff1673ffffffffffffffffffffffffffffffffffffffff168373ffffffffffffffffffffffffffffffffffffffff1614156151f8576151f1838360016156ca565b90506154d7565b601260008473ffffffffffffffffffffffffffffffffffffffff1673ffffffffffffffffffffffffffffffffffffffff16815260200190815260200160002060009054906101000a900460ff161561525d57615256838360006156ca565b90506154d6565b600860000160009054906101000a900473ffffffffffffffffffffffffffffffffffffffff1673ffffffffffffffffffffffffffffffffffffffff168373ffffffffffffffffffffffffffffffffffffffff1614156153c9576152e26103e86152d4846005600101546147f290919063ffffffff16565b61487890919063ffffffff16565b90508273ffffffffffffffffffffffffffffffffffffffff1673__AddressBalanceCheck___________________63078d3b799091600860010160009054906101000a900473ffffffffffffffffffffffffffffffffffffffff16846040518463ffffffff1660e01b8152600401808473ffffffffffffffffffffffffffffffffffffffff1681526020018373ffffffffffffffffffffffffffffffffffffffff168152602001828152602001935050505060006040518083038186803b1580156153ac57600080fd5b505af41580156153c0573d6000803e3d6000fd5b505050506154d5565b6153f56103e86153e7846005600101546147f290919063ffffffff16565b61487890919063ffffffff16565b90508273ffffffffffffffffffffffffffffffffffffffff1673__AddressBalanceCheck___________________63078d3b799091600e60009054906101000a900473ffffffffffffffffffffffffffffffffffffffff16846040518463ffffffff1660e01b8152600401808473ffffffffffffffffffffffffffffffffffffffff1681526020018373ffffffffffffffffffffffffffffffffffffffff168152602001828152602001935050505060006040518083038186803b1580156154bc57600080fd5b505af41580156154d0573d6000803e3d6000fd5b505050505b5b5b92915050565b61552f81600160008573ffffffffffffffffffffffffffffffffffffffff1673ffffffffffffffffffffffffffffffffffffffff1681526020019081526020016000205461466090919063ffffffff16565b600160008473ffffffffffffffffffffffffffffffffffffffff1673ffffffffffffffffffffffffffffffffffffffff168152602001908152602001600020819055506155878160035461466090919063ffffffff16565b6003819055507fab8530f87dc9b59234c4623bf917212bb2536d647574c8e7e5da92c2ede0c9f8338383604051808473ffffffffffffffffffffffffffffffffffffffff1681526020018373ffffffffffffffffffffffffffffffffffffffff168152602001828152602001935050505060405180910390a15050565b600080831182906156b0576040517f08c379a00000000000000000000000000000000000000000000000000000000081526004018080602001828103825283818151815260200191508051906020019080838360005b8381101561567557808201518184015260208101905061565a565b50505050905090810190601f1680156156a25780820380516001836020036101000a031916815260200191505b509250505060405180910390fd5b5060008385816156bc57fe5b049050809150509392505050565b6000806156f96103e86156eb866005600101546147f290919063ffffffff16565b61487890919063ffffffff16565b905060008590508315615794578073ffffffffffffffffffffffffffffffffffffffff16639dc29fac30846040518363ffffffff1660e01b8152600401808373ffffffffffffffffffffffffffffffffffffffff16815260200182815260200192505050600060405180830381600087803b15801561577757600080fd5b505af115801561578b573d6000803e3d6000fd5b50505050615800565b8073ffffffffffffffffffffffffffffffffffffffff166342966c68836040518263ffffffff1660e01b815260040180828152602001915050600060405180830381600087803b1580156157e757600080fd5b505af11580156157fb573d6000803e3d6000fd5b505050505b8192505050939250505056fe53434152434954593a204d6967726174696f6e20636f6e7472616374206f6e6c794f776e61626c653a206e6577206f776e657220697320746865207a65726f206164647265737345524332303a20617070726f766520746f20746865207a65726f206164647265737353636172636974793a207472616e736665722066726f6d20746865207a65726f206164647265737353636172636974793a207472616e7366657220746f20746865207a65726f20616464726573734245484f444c45523a20457468206f6e6c792076616c696420666f722057657468207472616465732e536166654d6174683a206d756c7469706c69636174696f6e206f766572666c6f7745524332303a207472616e7366657220616d6f756e74206578636565647320616c6c6f77616e63654245484f444c45523a205265656e7472616e6379206775617264206163746976652e4245484f444c45523a2063616e6e6f7420626f72726f7720666c6173686c6f616e4245484f444c45523a20556e7772617070696e67206f662057657468206661696c65642e45524332303a20617070726f76652066726f6d20746865207a65726f20616464726573734245484f444c45523a20466c6173686c6f616e2072657061796d656e74206661696c65644245484f444c45523a206c6971756964697479207769746864726177616c20746f6f206c617267652e4245484f444c45523a20496e73756666696369656e742045746865722073656e7453636172636974793a207472616e7366657220616d6f756e7420657863656564732062616c616e6365a2646970667358221220eea3761fb5ab34f04bda1ee2dc0cf56c045ce21dd9e867d1220d5fbef8649fa564736f6c63430007010033",
  "immutableReferences": {},
  "source": "// SPDX-License-Identifier: MIT\npragma solidity ^0.7.1;\n\nimport \"./openzeppelin/Ownable.sol\";\nimport \"./Scarcity.sol\";\nimport \"./facades/LachesisLike.sol\";\nimport \"./facades/Burnable.sol\";\nimport \"./openzeppelin/SafeMath.sol\";\nimport \"./openzeppelin/IERC20.sol\";\nimport \"./flashLoans/FlashLoanReceiver.sol\";\nimport \"./flashLoans/FlashLoanArbiter.sol\";\n\ninterface IWeth {\n    function deposit() external payable;\n\n    function withdraw(uint256 value) external;\n}\n\nlibrary AddressBalanceCheck {\n    function tokenBalance(address token) public view returns (uint256) {\n        return IERC20(token).balanceOf(address(this));\n    }\n\n    function shiftedBalance(address token, uint256 factor)\n        public\n        view\n        returns (uint256)\n    {\n        return IERC20(token).balanceOf(address(this)) / factor;\n    }\n\n    function transferIn(\n        address token,\n        address sender,\n        uint256 value\n    ) public {\n        IERC20(token).transferFrom(sender, address(this), value);\n    }\n\n    function transferOut(\n        address token,\n        address recipient,\n        uint256 value\n    ) public {\n        IERC20(token).transfer(recipient, value);\n    }\n}\n\n/*To following code is sourced from the ABDK library for assistance in dealing with precision logarithms in Ethereum.\n * ABDK Math 64.64 Smart Contract Library.  Copyright  2019 by ABDK Consulting.\n * Author: Mikhail Vladimirov <mikhail.vladimirov@gmail.com>\n * Source: https://github.com/abdk-consulting/abdk-libraries-solidity/blob/master/ABDKMath64x64.sol#L366\n */\nlibrary ABDK {\n    /*\n     * Minimum value signed 64.64-bit fixed point number may have.\n     */\n    int128 private constant MIN_64x64 = -0x80000000000000000000000000000000;\n\n    /*\n     * Maximum value signed 64.64-bit fixed point number may have.\n     */\n    int128 private constant MAX_64x64 = 0x7FFFFFFFFFFFFFFFFFFFFFFFFFFFFFFF;\n\n    /**\n     * Convert unsigned 256-bit integer number into signed 64.64-bit fixed point\n     * number.  Revert on overflow.\n     *\n     * @param x unsigned 256-bit integer number\n     * @return signed 64.64-bit fixed point number\n     */\n    function fromUInt(uint256 x) internal pure returns (int128) {\n        require(x <= 0x7FFFFFFFFFFFFFFF);\n        return int128(x << 64);\n    }\n\n    /**\n     * Calculate x + y.  Revert on overflow.\n     *\n     * @param x signed 64.64-bit fixed point number\n     * @param y signed 64.64-bit fixed point number\n     * @return signed 64.64-bit fixed point number\n     */\n    function add(int128 x, int128 y) internal pure returns (int128) {\n        int256 result = int256(x) + y;\n        require(result >= MIN_64x64 && result <= MAX_64x64);\n        return int128(result);\n    }\n\n    /**\n     * Calculate binary logarithm of x.  Revert if x <= 0.\n     *\n     * @param x signed 64.64-bit fixed point number\n     * @return signed 64.64-bit fixed point number\n     */\n    function log_2(uint256 x) internal pure returns (uint256) {\n        require(x > 0);\n\n        uint256 msb = 0;\n        uint256 xc = x;\n        if (xc >= 0x10000000000000000) {\n            xc >>= 64;\n            msb += 64;\n        }\n        if (xc >= 0x100000000) {\n            xc >>= 32;\n            msb += 32;\n        }\n        if (xc >= 0x10000) {\n            xc >>= 16;\n            msb += 16;\n        }\n        if (xc >= 0x100) {\n            xc >>= 8;\n            msb += 8;\n        }\n        if (xc >= 0x10) {\n            xc >>= 4;\n            msb += 4;\n        }\n        if (xc >= 0x4) {\n            xc >>= 2;\n            msb += 2;\n        }\n        if (xc >= 0x2) msb += 1; // No need to shift xc anymore\n\n        uint256 result = (msb - 64) << 64;\n        uint256 ux = uint256(x) << uint256(127 - msb);\n        for (uint256 bit = 0x8000000000000000; bit > 0; bit >>= 1) {\n            ux *= ux;\n            uint256 b = ux >> 255;\n            ux >>= 127 + b;\n            result += bit * b;\n        }\n\n        return result;\n    }\n}\n\n/*\n\tBehodler orchestrates trades using an omnischedule bonding curve.\n\tThe name is inspired by the Beholder of D&D, a monster with multiple arms ending in eyes peering in all directions.\n\tThe Behodler is a smart contract that can see the prices of all tokens simultaneously without need for composition or delay.\n\tThe hodl part of Behodler refers to the fact that with every trade of a token pair, the liquidity pool of each token held by Behodler increases\n\n    Behodler 1 performed square root calculations which are gas intensive for fixed point arithmetic algorithms.\n    To save gas, Behodler2 never performs square root calculations. It just checks the numbers passed in by the user and reverts if needs be.\n    This techique is called invariant checking and offloads maximum calculation to clients while guaranteeing no cheating is possible.\n    In Behodler 1 some operations were duplicated. For instance, a swap was a scarcity purchase followed by a scarcity sale. Instead, cutting out\n    the middle scarcity allows the factor scaling to be dropped altogether.\n\n    By bringing Scarcity, Janus, Kharon and Behodler together in one contract, Behodler 2 avoids the EXT_CALL gas fees and can take gas saving shortcuts with Scarcity\n    transfers. The drawback to this approach is less flexibility with fees in the way that Kharon allowed.\n\n    Behodler 2 now has Flashloan support. Instead of charging a liquidity growing fee, Behodler 2 requires the user fulfil some requirement\n    such as holding an NFT or staking Scarcity. This allows for zero fee flash loans that are front runner resistant and\n    allows a secondary flashloan market to evolve.\n */\ncontract Behodler is Scarcity {\n    using SafeMath for uint256;\n    using ABDK for int128;\n    using ABDK for uint256;\n    using AddressBalanceCheck for address;\n\n    event LiquidityAdded(\n        address sender,\n        address token,\n        uint256 tokenValue,\n        uint256 scx\n    );\n    event LiquidityWithdrawn(\n        address recipient,\n        address token,\n        uint256 tokenValue,\n        uint256 scx\n    );\n    event Swap(\n        address sender,\n        address inputToken,\n        address outputToken,\n        uint256 inputValue,\n        uint256 outputValue\n    );\n\n    struct WeidaiTokens {\n        address dai;\n        address reserve;\n        address weiDai;\n    }\n\n    struct PrecisionFactors {\n        uint8 swapPrecisionFactor;\n        uint8 maxLiquidityExit; //percentage as number between 1 and 100\n    }\n\n    WeidaiTokens WD;\n    PrecisionFactors safetyParameters;\n    address public Weth;\n    address public Lachesis;\n    address pyroTokenLiquidityReceiver;\n    FlashLoanArbiter public arbiter;\n    address private inputSender;\n    bool[3] unlocked;\n\n    constructor() {\n        safetyParameters.swapPrecisionFactor = 30; //approximately a billion\n        safetyParameters.maxLiquidityExit = 90;\n        for (uint8 i = 0; i < 3; i++) unlocked[i] = true;\n    }\n\n    function setSafetParameters(\n        uint8 swapPrecisionFactor,\n        uint8 maxLiquidityExit\n    ) public onlyOwner {\n        safetyParameters.swapPrecisionFactor = swapPrecisionFactor;\n        safetyParameters.maxLiquidityExit = maxLiquidityExit;\n    }\n\n    function getMaxLiquidityExit() public view returns (uint8) {\n        return safetyParameters.maxLiquidityExit;\n    }\n\n    function seed(\n        address weth,\n        address lachesis,\n        address flashLoanArbiter,\n        address _pyroTokenLiquidityReceiver,\n        address weidaiReserve,\n        address dai,\n        address weiDai\n    ) public onlyOwner {\n        Weth = weth;\n        Lachesis = lachesis;\n        arbiter = FlashLoanArbiter(flashLoanArbiter);\n        pyroTokenLiquidityReceiver = _pyroTokenLiquidityReceiver;\n        WD.reserve = weidaiReserve;\n        WD.dai = dai;\n        WD.weiDai = weiDai;\n    }\n\n    //Logarithmic growth can get quite flat beyond the first chunk. We divide input amounts by\n    uint256 public constant MIN_LIQUIDITY = 1e12;\n\n    mapping(address => bool) public tokenBurnable;\n    mapping(address => bool) public validTokens;\n    mapping(address => bool) public whiteListUsers; // can trade on tokens that are disabled\n\n    modifier onlyLachesis {\n        require(msg.sender == Lachesis);\n        _;\n    }\n\n    modifier onlyValidToken(address token) {\n        require(\n            whiteListUsers[msg.sender] ||\n                validTokens[token] ||\n                (token != address(0) && token == Weth),\n            \"BEHODLER: token invalid\"\n        );\n        _;\n    }\n\n    modifier determineSender(address inputToken) {\n        if (msg.value > 0) {\n            require(\n                inputToken == Weth,\n                \"BEHODLER: Eth only valid for Weth trades.\"\n            );\n            inputSender = address(this);\n        } else {\n            inputSender = msg.sender;\n        }\n        _;\n    }\n\n    enum Slot {Swap, Add, Withdraw}\n\n    modifier lock(Slot slot) {\n        uint256 index = uint256(slot);\n        require(unlocked[index], \"BEHODLER: Reentrancy guard active.\");\n        unlocked[index] = false;\n        _;\n        unlocked[index] = true;\n    }\n\n    /*\n   Let config.burnFee be b.\n    Let F = 1-b\n    Let input token be I and Output token be O\n    _i is initial and _f is final. Eg. I_i is initial input token balance\n    The swap equation, when simplified, is given by\n    F(I_f - I_i) = (O_i - O_f)/(F)\n    However, the gradient of square root becomes untenable when\n    the value of tokens diverge too much. The gradient favours the addition of low\n    value tokens disportionately. A gradient that favours tokens equally is given by\n    a log. The lowest gas implementation is base 2.\n    The new swap equation is thus\n    log(I_f) - log(I_i) = log(O_i) - log(O_f)\n\n    Technical note on ETH handling: we don't duplicate functions for accepting Eth as an input. Instead we wrap on receipt\n    and apply a reentrancy guard. The determineSender modifier fixes an isse in Behodler 1 which required the user to approve\n    both sending and receiving Eth because of the nature of Weth deposit and withdraw functionality.\n */\n    function swap(\n        address inputToken,\n        address outputToken,\n        uint256 inputAmount,\n        uint256 outputAmount\n    )\n        public\n        payable\n        determineSender(inputToken)\n        onlyValidToken(inputToken)\n        lock(Slot.Swap)\n        returns (bool success)\n    {\n        uint256 initialInputBalance = inputToken.tokenBalance();\n        if (inputToken == Weth) {\n            if (IERC20(Weth).balanceOf(msg.sender) >= inputAmount) {\n                Weth.transferIn(msg.sender, inputAmount);\n            } else {\n                require(\n                    msg.value == inputAmount,\n                    \"BEHODLER: Insufficient Ether sent\"\n                );\n                IWeth(Weth).deposit{value: msg.value}();\n            }\n        } else {\n            inputToken.transferIn(inputSender, inputAmount);\n        }\n\n        uint256 netInputAmount =\n            inputAmount.sub(burnToken(inputToken, inputAmount));\n        uint256 initialOutputBalance = outputToken.tokenBalance();\n        require(\n            outputAmount.mul(100).div(initialOutputBalance) <=\n                safetyParameters.maxLiquidityExit,\n            \"BEHODLER: liquidity withdrawal too large.\"\n        );\n        uint256 finalInputBalance = initialInputBalance.add(netInputAmount);\n        uint256 finalOutputBalance = initialOutputBalance.sub(outputAmount);\n\n        //new scope to avoid stack too deep errors.\n        {\n            //if the input balance after adding input liquidity is 1073741824 bigger than the initial balance, we revert.\n            uint256 inputRatio =\n                (initialInputBalance << safetyParameters.swapPrecisionFactor)\n                    .div(finalInputBalance);\n            uint256 outputRatio =\n                (finalOutputBalance << safetyParameters.swapPrecisionFactor)\n                    .div(initialOutputBalance);\n\n            require(\n                inputRatio != 0 && inputRatio == outputRatio,\n                \"BEHODLER: swap invariant.\"\n            );\n        }\n\n        require(\n            finalOutputBalance >= MIN_LIQUIDITY,\n            \"BEHODLER: min liquidity.\"\n        );\n\n        if (outputToken == Weth) {\n            IWeth(Weth).withdraw(outputAmount);\n            address payable sender = msg.sender;\n            (bool unwrapped, ) = sender.call{value: outputAmount}(\"\");\n            require(unwrapped, \"BEHODLER: Unwrapping of Weth failed.\");\n        } else {\n            outputToken.transferOut(msg.sender, outputAmount);\n        }\n\n        emit Swap(\n            msg.sender,\n            inputToken,\n            outputToken,\n            inputAmount,\n            outputAmount\n        );\n        success = true;\n    }\n\n    /*\n        SCX = log(FinalBalance) - log(InitialBalance)\n\n        The choice of base for the log isn't relevant from a mathematical point of view\n        but from a computational point of view, base 2 is the cheapest for obvious reasons.\n        \"What I told you was true, from a certain point of view.\" - Obi-Wan Kenobi\n     */\n    function addLiquidity(address inputToken, uint256 amount)\n        public\n        payable\n        determineSender(inputToken)\n        onlyValidToken(inputToken)\n        lock(Slot.Add)\n        returns (uint256 deltaSCX)\n    {\n        uint256 initialBalance =\n            uint256(inputToken.shiftedBalance(MIN_LIQUIDITY).fromUInt());\n        if (inputToken == Weth) {\n            if (IERC20(Weth).balanceOf(msg.sender) >= amount) {\n                Weth.transferIn(msg.sender, amount);\n            } else {\n                require(\n                    msg.value == amount,\n                    \"BEHODLER: Insufficient Ether sent\"\n                );\n                IWeth(Weth).deposit{value: msg.value}();\n            }\n        } else {\n            inputToken.transferIn(inputSender, amount);\n        }\n        uint256 netInputAmount =\n            uint256(\n                amount\n                    .sub(burnToken(inputToken, amount))\n                    .div(MIN_LIQUIDITY)\n                    .fromUInt()\n            );\n\n        uint256 finalBalance = uint256(initialBalance.add(netInputAmount));\n        require(\n            uint256(finalBalance) >= MIN_LIQUIDITY,\n            \"BEHODLER: min liquidity.\"\n        );\n        deltaSCX = uint256(\n            finalBalance.log_2() -\n                (initialBalance > 1 ? initialBalance.log_2() : 0)\n        );\n        mint(msg.sender, deltaSCX);\n        emit LiquidityAdded(msg.sender, inputToken, amount, deltaSCX);\n    }\n\n    /*\n        SCX =  log(InitialBalance) - log(FinalBalance)\n        tokensToRelease = InitialBalance -FinalBalance\n        =>FinalBalance =  InitialBalance - tokensToRelease\n        Then apply logs and deduct SCX from msg.sender\n\n        The choice of base for the log isn't relevant from a mathematical point of view\n        but from a computational point of view, base 2 is the cheapest for obvious reasons.\n        \"From my point of view, the Jedi are evil\" - Darth Vader\n     */\n    function withdrawLiquidity(address outputToken, uint256 tokensToRelease)\n        public\n        payable\n        determineSender(outputToken)\n        onlyValidToken(outputToken)\n        lock(Slot.Withdraw)\n        returns (uint256 deltaSCX)\n    {\n        uint256 initialBalance = outputToken.tokenBalance();\n        uint256 finalBalance = initialBalance.sub(tokensToRelease);\n        require(finalBalance > MIN_LIQUIDITY, \"BEHODLER: min liquidity\");\n        require(\n            tokensToRelease.mul(100).div(initialBalance) <=\n                safetyParameters.maxLiquidityExit,\n            \"BEHODLER: liquidity withdrawal too large.\"\n        );\n\n        uint256 logInitial = initialBalance.log_2();\n        uint256 logFinal = finalBalance.log_2();\n\n        deltaSCX = logInitial - (finalBalance > 1 ? logFinal : 0);\n        uint256 scxBalance = balances[msg.sender];\n\n        if (deltaSCX > scxBalance) {\n            //rounding errors in scx creation and destruction. Err on the side of holders\n            uint256 difference = deltaSCX - scxBalance;\n            if ((difference * 10000) / deltaSCX == 0) deltaSCX = scxBalance;\n        }\n        burn(msg.sender, deltaSCX);\n\n        if (outputToken == Weth) {\n            IWeth(Weth).withdraw(tokensToRelease);\n            address payable sender = msg.sender;\n            (bool unwrapped, ) = sender.call{value: tokensToRelease}(\"\");\n            require(unwrapped, \"BEHODLER: Unwrapping of Weth failed.\");\n        } else {\n            outputToken.transferOut(msg.sender, tokensToRelease);\n        }\n        emit LiquidityWithdrawn(\n            msg.sender,\n            outputToken,\n            tokensToRelease,\n            deltaSCX\n        );\n    }\n\n    /*\n        SCX =  log(InitialBalance) - log(FinalBalance)\n        tokensToRelease = InitialBalance -FinalBalance\n        =>FinalBalance =  InitialBalance - tokensToRelease\n        Then apply logs and deduct SCX from msg.sender\n\n        The choice of base for the log isn't relevant from a mathematical point of view\n        but from a computational point of view, base 2 is the cheapest for obvious reasons.\n        \"From my point of view, the Jedi are evil\" - Darth Vader\n     */\n    function withdrawLiquidityFindSCX(\n        address outputToken,\n        uint256 tokensToRelease,\n        uint256 scx,\n        uint256 passes\n    ) public view returns (uint256) {\n        uint256 upperBoundary = outputToken.tokenBalance();\n        uint256 lowerBoundary = 0;\n\n        for (uint256 i = 0; i < passes; i++) {\n            uint256 initialBalance = outputToken.tokenBalance();\n            uint256 finalBalance = initialBalance.sub(tokensToRelease);\n\n            uint256 logInitial = initialBalance.log_2();\n            uint256 logFinal = finalBalance.log_2();\n\n            int256 deltaSCX =\n                int256(logInitial - (finalBalance > 1 ? logFinal : 0));\n            int256 difference = int256(scx) - deltaSCX;\n            // if (difference**2 < 1000000) return tokensToRelease;\n            if (difference == 0) return tokensToRelease;\n            if (difference < 0) {\n                // too many tokens requested\n                upperBoundary = tokensToRelease - 1;\n            } else {\n                //too few tokens requested\n                lowerBoundary = tokensToRelease + 1;\n            }\n            tokensToRelease =\n                ((upperBoundary - lowerBoundary) / 2) +\n                lowerBoundary; //bitshift\n            tokensToRelease = tokensToRelease > initialBalance\n                ? initialBalance\n                : tokensToRelease;\n        }\n        return tokensToRelease;\n    }\n\n    //TODO: possibly comply with the flash loan standard https://eips.ethereum.org/EIPS/eip-3156\n    // - however, the more I reflect on this, the less keen I am due to gas and simplicity\n    //example: a user must hold 10% of SCX total supply or user must hold an NFT\n    //The initial arbiter will have no constraints.\n    //The flashloan system on behodler is inverted. Instead of being able to borrow any individual token,\n    //the borrower asks for SCX. Theoretically you can borrow more SCX than currently exists so long\n    //as you can think of a clever way to pay it back.\n    //Note: Borrower doesn't have to send scarcity back, they just need to have high enough balance.\n    function grantFlashLoan(uint256 amount, address flashLoanContract) public {\n        require(\n            arbiter.canBorrow(msg.sender),\n            \"BEHODLER: cannot borrow flashloan\"\n        );\n        balances[flashLoanContract] = balances[flashLoanContract].add(amount);\n        FlashLoanReceiver(flashLoanContract).execute();\n        balances[flashLoanContract] = balances[flashLoanContract].sub(\n            amount,\n            \"BEHODLER: Flashloan repayment failed\"\n        );\n    }\n\n    //useful for when we want the ability to add tokens without trading. For instance, the initial liquidity queueing event.\n    function setWhiteListUser(address user, bool whiteList) public onlyOwner {\n        whiteListUsers[user] = whiteList;\n    }\n    \n    function burnToken(address token, uint256 amount)\n        private\n        returns (uint256 burnt)\n    {\n        if (token == WD.weiDai) {\n            burnt = applyBurnFee(token, amount, true);\n        } else if (tokenBurnable[token])\n            burnt = applyBurnFee(token, amount, false);\n        else if (token == WD.dai) {\n            burnt = config.burnFee.mul(amount).div(1000);\n            token.transferOut(WD.reserve, burnt);\n        } else {\n            burnt = config.burnFee.mul(amount).div(1000);\n            token.transferOut(pyroTokenLiquidityReceiver, burnt);\n        }\n    }\n\n    function setValidToken(\n        address token,\n        bool valid,\n        bool burnable\n    ) public onlyLachesis {\n        validTokens[token] = valid;\n        tokenBurnable[token] = burnable;\n    }\n}\n",
  "sourcePath": "/home/justin/weidai ecosystem/behodler2/contracts/Behodler.sol",
  "compiler": {
    "name": "solc",
    "version": "0.7.1+commit.f4a555be.Emscripten.clang"
  },
  "schemaVersion": "3.3.3",
  "updatedAt": "2021-02-11T23:42:52.008Z",
  "networkType": "ethereum",
  "devdoc": {
    "kind": "dev",
    "methods": {
      "renounceOwnership()": {
        "details": "Leaves the contract without owner. It will not be possible to call `onlyOwner` functions anymore. Can only be called by the current owner. NOTE: Renouncing ownership will leave the contract without an owner, thereby removing any functionality that is only available to the owner."
      },
      "transferOwnership(address)": {
        "details": "Transfers ownership of the contract to a new account (`newOwner`). Can only be called by the current owner."
      }
    },
    "version": 1
  },
  "userdoc": {
    "kind": "user",
    "methods": {},
    "version": 1
  }
}