{
  "contractName": "BehodlerPrice",
  "abi": [
    {
      "inputs": [],
      "name": "MIN_LIQUIDITY",
      "outputs": [
        {
          "internalType": "uint256",
          "name": "",
          "type": "uint256"
        }
      ],
      "stateMutability": "view",
      "type": "function",
      "constant": true
    },
    {
      "inputs": [
        {
          "internalType": "uint256",
          "name": "amountETH",
          "type": "uint256"
        },
        {
          "internalType": "uint256",
          "name": "ethInPool",
          "type": "uint256"
        },
        {
          "internalType": "uint256",
          "name": "burnFee",
          "type": "uint256"
        }
      ],
      "name": "addLiquidity",
      "outputs": [
        {
          "internalType": "uint256",
          "name": "deltaSCX",
          "type": "uint256"
        }
      ],
      "stateMutability": "pure",
      "type": "function",
      "constant": true
    }
  ],
  "bytecode": "0x608060405234801561001057600080fd5b506106b4806100206000396000f3fe608060405234801561001057600080fd5b50600436106100365760003560e01c806321b77d631461003b578063422f104314610059575b600080fd5b6100436100af565b6040518082815260200191505060405180910390f35b6100996004803603606081101561006f57600080fd5b810190808035906020019092919080359060200190929190803590602001909291905050506100b8565b6040518082815260200191505060405180910390f35b64e8d4a5100081565b6000806100d264e8d4a5100085816100cc57fe5b046101f7565b600f0b9050600061013161012c64e8d4a5100061011e61010f6103e86101018a8d61021a90919063ffffffff16565b6102a090919063ffffffff16565b8a6102ea90919063ffffffff16565b6102a090919063ffffffff16565b6101f7565b600f0b9050600061014b828461033490919063ffffffff16565b905064e8d4a510008110156101c8576040517f08c379a00000000000000000000000000000000000000000000000000000000081526004018080602001828103825260188152602001807f4245484f444c45523a206d696e206c69717569646974792e000000000000000081525060200191505060405180910390fd5b600183116101d75760006101e1565b6101e0836103bc565b5b6101ea826103bc565b0393505050509392505050565b6000677fffffffffffffff82111561020e57600080fd5b604082901b9050919050565b60008083141561022d576000905061029a565b600082840290508284828161023e57fe5b0414610295576040517f08c379a000000000000000000000000000000000000000000000000000000000815260040180806020018281038252602181526020018061065e6021913960400191505060405180910390fd5b809150505b92915050565b60006102e283836040518060400160405280601a81526020017f536166654d6174683a206469766973696f6e206279207a65726f0000000000008152506104d7565b905092915050565b600061032c83836040518060400160405280601e81526020017f536166654d6174683a207375627472616374696f6e206f766572666c6f77000081525061059d565b905092915050565b6000808284019050838110156103b2576040517f08c379a000000000000000000000000000000000000000000000000000000000815260040180806020018281038252601b8152602001807f536166654d6174683a206164646974696f6e206f766572666c6f77000000000081525060200191505060405180910390fd5b8091505092915050565b60008082116103ca57600080fd5b6000808390506801000000000000000081106103ee57604081901c90506040820191505b640100000000811061040857602081901c90506020820191505b62010000811061042057601081901c90506010820191505b610100811061043757600881901c90506008820191505b6010811061044d57600481901c90506004820191505b6004811061046357600281901c90506002820191505b60028110610472576001820191505b60006040808403901b9050600083607f0386901b9050600067800000000000000090505b60008111156104ca578182029150600060ff83901c905080607f0183901c92508082028401935050600181901c9050610496565b5081945050505050919050565b60008083118290610583576040517f08c379a00000000000000000000000000000000000000000000000000000000081526004018080602001828103825283818151815260200191508051906020019080838360005b8381101561054857808201518184015260208101905061052d565b50505050905090810190601f1680156105755780820380516001836020036101000a031916815260200191505b509250505060405180910390fd5b50600083858161058f57fe5b049050809150509392505050565b600083831115829061064a576040517f08c379a00000000000000000000000000000000000000000000000000000000081526004018080602001828103825283818151815260200191508051906020019080838360005b8381101561060f5780820151818401526020810190506105f4565b50505050905090810190601f16801561063c5780820380516001836020036101000a031916815260200191505b509250505060405180910390fd5b506000838503905080915050939250505056fe536166654d6174683a206d756c7469706c69636174696f6e206f766572666c6f77a2646970667358221220a533e39a14e3923d6d11ef4689c87cecdc21f2f96a21ce22da9a3f84e98af65c64736f6c63430007060033",
  "immutableReferences": {},
  "source": "// SPDX-License-Identifier: MIT\n\npragma solidity ^0.7.6;\n\nimport './ABDK.sol';\nimport './openzeppelin/SafeMath.sol';\n\ncontract BehodlerPrice {\n    using SafeMath for uint256;\n    using ABDK for int128;\n    using ABDK for uint256;\n\n    uint256 public constant MIN_LIQUIDITY = 1e12;\n    \n    function addLiquidity(\n        uint256 amountETH,\n        uint256 ethInPool,\n        uint256 burnFee\n    )\n        public\n        pure\n        returns (uint256 deltaSCX)\n    {\n        uint256 initialBalance = uint256((uint256(ethInPool / MIN_LIQUIDITY)).fromUInt());\n        uint256 netInputAmount =\n            uint256(\n                amountETH\n                    .sub(amountETH.mul(burnFee).div(1000))\n                    .div(MIN_LIQUIDITY)\n                    .fromUInt()\n            );\n        uint256 finalBalance = uint256(initialBalance.add(netInputAmount));\n        \n        require(\n            uint256(finalBalance) >= MIN_LIQUIDITY,\n            \"BEHODLER: min liquidity.\"\n        );\n\n        deltaSCX = uint256(\n            finalBalance.log_2() -\n                (initialBalance > 1 ? initialBalance.log_2() : 0)\n        );\n    }\n}",
  "sourcePath": "/Users/hieudeptrai/MyProjects/hibo/BehodlerPrice/contracts/BehodlerPrice.sol",
  "compiler": {
    "name": "solc",
    "version": "0.7.6+commit.7338295f.Emscripten.clang"
  },
  "schemaVersion": "3.3.4",
  "updatedAt": "2021-04-10T09:05:24.627Z",
  "networkType": "ethereum",
  "devdoc": {
    "kind": "dev",
    "methods": {},
    "version": 1
  },
  "userdoc": {
    "kind": "user",
    "methods": {},
    "version": 1
  }
}