{
  "contractName": "LiquidityReceiver",
  "abi": [
    {
      "inputs": [
        {
          "internalType": "address",
          "name": "",
          "type": "address"
        }
      ],
      "name": "baseTokenMapping",
      "outputs": [
        {
          "internalType": "address",
          "name": "",
          "type": "address"
        }
      ],
      "stateMutability": "view",
      "type": "function",
      "constant": true
    },
    {
      "inputs": [
        {
          "internalType": "address",
          "name": "baseToken",
          "type": "address"
        }
      ],
      "name": "registerPyroToken",
      "outputs": [],
      "stateMutability": "nonpayable",
      "type": "function"
    },
    {
      "inputs": [
        {
          "internalType": "address",
          "name": "pyroToken",
          "type": "address"
        }
      ],
      "name": "drain",
      "outputs": [],
      "stateMutability": "nonpayable",
      "type": "function"
    }
  ],
  "bytecode": "0x608060405234801561001057600080fd5b506122d5806100206000396000f3fe608060405234801561001057600080fd5b50600436106100415760003560e01c8063268157b914610046578063b1fcc8d3146100b4578063ece53132146100f8575b600080fd5b6100886004803603602081101561005c57600080fd5b81019080803573ffffffffffffffffffffffffffffffffffffffff16906020019092919050505061013c565b604051808273ffffffffffffffffffffffffffffffffffffffff16815260200191505060405180910390f35b6100f6600480360360208110156100ca57600080fd5b81019080803573ffffffffffffffffffffffffffffffffffffffff16906020019092919050505061016f565b005b61013a6004803603602081101561010e57600080fd5b81019080803573ffffffffffffffffffffffffffffffffffffffff16906020019092919050505061033f565b005b60006020528060005260406000206000915054906101000a900473ffffffffffffffffffffffffffffffffffffffff1681565b600073ffffffffffffffffffffffffffffffffffffffff166000808373ffffffffffffffffffffffffffffffffffffffff1673ffffffffffffffffffffffffffffffffffffffff16815260200190815260200160002060009054906101000a900473ffffffffffffffffffffffffffffffffffffffff1673ffffffffffffffffffffffffffffffffffffffff1614610252576040517f08c379a000000000000000000000000000000000000000000000000000000000815260040180806020018281038252602681526020018061227a6026913960400191505060405180910390fd5b6000813060405161026290610604565b808373ffffffffffffffffffffffffffffffffffffffff1681526020018273ffffffffffffffffffffffffffffffffffffffff16815260200192505050604051809103906000f0801580156102bb573d6000803e3d6000fd5b509050806000808473ffffffffffffffffffffffffffffffffffffffff1673ffffffffffffffffffffffffffffffffffffffff16815260200190815260200160002060006101000a81548173ffffffffffffffffffffffffffffffffffffffff021916908373ffffffffffffffffffffffffffffffffffffffff1602179055505050565b60008173ffffffffffffffffffffffffffffffffffffffff1663c55dae636040518163ffffffff1660e01b815260040160206040518083038186803b15801561038757600080fd5b505afa15801561039b573d6000803e3d6000fd5b505050506040513d60208110156103b157600080fd5b810190808051906020019092919050505090508173ffffffffffffffffffffffffffffffffffffffff166000808373ffffffffffffffffffffffffffffffffffffffff1673ffffffffffffffffffffffffffffffffffffffff16815260200190815260200160002060009054906101000a900473ffffffffffffffffffffffffffffffffffffffff1673ffffffffffffffffffffffffffffffffffffffff16146104a6576040517f08c379a00000000000000000000000000000000000000000000000000000000081526004018080602001828103825260238152602001806122576023913960400191505060405180910390fd5b600030905060008273ffffffffffffffffffffffffffffffffffffffff166370a08231836040518263ffffffff1660e01b8152600401808273ffffffffffffffffffffffffffffffffffffffff16815260200191505060206040518083038186803b15801561051457600080fd5b505afa158015610528573d6000803e3d6000fd5b505050506040513d602081101561053e57600080fd5b810190808051906020019092919050505090508273ffffffffffffffffffffffffffffffffffffffff1663a9059cbb85836040518363ffffffff1660e01b8152600401808373ffffffffffffffffffffffffffffffffffffffff16815260200182815260200192505050602060405180830381600087803b1580156105c257600080fd5b505af11580156105d6573d6000803e3d6000fd5b505050506040513d60208110156105ec57600080fd5b81019080805190602001909291905050505050505050565b611c45806106128339019056fe60806040523480156200001157600080fd5b5060405162001c4538038062001c45833981810160405260408110156200003757600080fd5b81019080805190602001909291908051906020019092919050505081600360006101000a81548173ffffffffffffffffffffffffffffffffffffffff021916908373ffffffffffffffffffffffffffffffffffffffff160217905550600360009054906101000a900473ffffffffffffffffffffffffffffffffffffffff1673ffffffffffffffffffffffffffffffffffffffff166306fdde036040518163ffffffff1660e01b8152600401600060405180830381600087803b158015620000fe57600080fd5b505af115801562000113573d6000803e3d6000fd5b505050506040513d6000823e3d601f19601f8201168201806040525060208110156200013e57600080fd5b81019080805160405193929190846401000000008211156200015f57600080fd5b838201915060208201858111156200017657600080fd5b82518660018202830111640100000000821117156200019457600080fd5b8083526020830192505050908051906020019080838360005b83811015620001ca578082015181840152602081019050620001ad565b50505050905090810190601f168015620001f85780820380516001836020036101000a031916815260200191505b5060405250505060405160200180807f5079726f2000000000000000000000000000000000000000000000000000000081525060050182805190602001908083835b602083106200025f57805182526020820191506020810190506020830392506200023a565b6001836020036101000a03801982511681845116808217855250505050505090500191505060405160208183030381529060405260059080519060200190620002aa92919062000514565b50600360009054906101000a900473ffffffffffffffffffffffffffffffffffffffff1673ffffffffffffffffffffffffffffffffffffffff166395d89b416040518163ffffffff1660e01b8152600401600060405180830381600087803b1580156200031657600080fd5b505af11580156200032b573d6000803e3d6000fd5b505050506040513d6000823e3d601f19601f8201168201806040525060208110156200035657600080fd5b81019080805160405193929190846401000000008211156200037757600080fd5b838201915060208201858111156200038e57600080fd5b8251866001820283011164010000000082111715620003ac57600080fd5b8083526020830192505050908051906020019080838360005b83811015620003e2578082015181840152602081019050620003c5565b50505050905090810190601f168015620004105780820380516001836020036101000a031916815260200191505b5060405250505060405160200180807f5079726f0000000000000000000000000000000000000000000000000000000081525060040182805190602001908083835b6020831062000477578051825260208201915060208101905060208303925062000452565b6001836020036101000a03801982511681845116808217855250505050505090500191505060405160208183030381529060405260069080519060200190620004c292919062000514565b50601260078190555080600460006101000a81548173ffffffffffffffffffffffffffffffffffffffff021916908373ffffffffffffffffffffffffffffffffffffffff1602179055505050620005ba565b828054600181600116156101000203166002900490600052602060002090601f016020900481019282601f106200055757805160ff191683800117855562000588565b8280016001018555821562000588579182015b82811115620005875782518255916020019190600101906200056a565b5b5090506200059791906200059b565b5090565b5b80821115620005b65760008160009055506001016200059c565b5090565b61167b80620005ca6000396000f3fe608060405234801561001057600080fd5b50600436106100ea5760003560e01c806370a082311161008c578063a9059cbb11610066578063a9059cbb146103eb578063c55dae631461044f578063db006a7514610483578063dd62ed3e146104b1576100ea565b806370a08231146102e257806395d89b411461033a578063a0712d68146103bd576100ea565b806318160ddd116100c857806318160ddd146101f457806323b872dd14610212578063313ce5671461029657806342966c68146102b4576100ea565b806306fdde03146100ef578063095ea7b3146101725780630adcdbaa146101d6575b600080fd5b6100f7610529565b6040518080602001828103825283818151815260200191508051906020019080838360005b8381101561013757808201518184015260208101905061011c565b50505050905090810190601f1680156101645780820380516001836020036101000a031916815260200191505b509250505060405180910390f35b6101be6004803603604081101561018857600080fd5b81019080803573ffffffffffffffffffffffffffffffffffffffff169060200190929190803590602001909291905050506105c7565b60405180821515815260200191505060405180910390f35b6101de6106b9565b6040518082815260200191505060405180910390f35b6101fc6107de565b6040518082815260200191505060405180910390f35b61027e6004803603606081101561022857600080fd5b81019080803573ffffffffffffffffffffffffffffffffffffffff169060200190929190803573ffffffffffffffffffffffffffffffffffffffff169060200190929190803590602001909291905050506107e7565b60405180821515815260200191505060405180910390f35b61029e6108f1565b6040518082815260200191505060405180910390f35b6102e0600480360360208110156102ca57600080fd5b81019080803590602001909291905050506108f7565b005b610324600480360360208110156102f857600080fd5b81019080803573ffffffffffffffffffffffffffffffffffffffff1690602001909291905050506109aa565b6040518082815260200191505060405180910390f35b6103426109f3565b6040518080602001828103825283818151815260200191508051906020019080838360005b83811015610382578082015181840152602081019050610367565b50505050905090810190601f1680156103af5780820380516001836020036101000a031916815260200191505b509250505060405180910390f35b6103e9600480360360208110156103d357600080fd5b8101908080359060200190929190505050610a91565b005b6104376004803603604081101561040157600080fd5b81019080803573ffffffffffffffffffffffffffffffffffffffff16906020019092919080359060200190929190505050610cbb565b60405180821515815260200191505060405180910390f35b610457610cd2565b604051808273ffffffffffffffffffffffffffffffffffffffff16815260200191505060405180910390f35b6104af6004803603602081101561049957600080fd5b8101908080359060200190929190505050610cf8565b005b610513600480360360408110156104c757600080fd5b81019080803573ffffffffffffffffffffffffffffffffffffffff169060200190929190803573ffffffffffffffffffffffffffffffffffffffff169060200190929190505050610fd1565b6040518082815260200191505060405180910390f35b60058054600181600116156101000203166002900480601f0160208091040260200160405190810160405280929190818152602001828054600181600116156101000203166002900480156105bf5780601f10610594576101008083540402835291602001916105bf565b820191906000526020600020905b8154815290600101906020018083116105a257829003601f168201915b505050505081565b600081600260003373ffffffffffffffffffffffffffffffffffffffff1673ffffffffffffffffffffffffffffffffffffffff16815260200190815260200160002060008573ffffffffffffffffffffffffffffffffffffffff1673ffffffffffffffffffffffffffffffffffffffff168152602001908152602001600020819055508273ffffffffffffffffffffffffffffffffffffffff163373ffffffffffffffffffffffffffffffffffffffff167f8c5be1e5ebec7d5bd14f71427d1e84f3dd0314c0f7b2291e5b200ac8c7c3b925846040518082815260200191505060405180910390a36001905092915050565b600080600360009054906101000a900473ffffffffffffffffffffffffffffffffffffffff1673ffffffffffffffffffffffffffffffffffffffff166370a08231306040518263ffffffff1660e01b8152600401808273ffffffffffffffffffffffffffffffffffffffff16815260200191505060206040518083038186803b15801561074557600080fd5b505afa158015610759573d6000803e3d6000fd5b505050506040513d602081101561076f57600080fd5b810190808051906020019092919050505090506000805414806107925750600081145b156107a857670de0b6b3a76400009150506107db565b6107d76000546107c9670de0b6b3a76400008461105890919063ffffffff16565b6110de90919063ffffffff16565b9150505b90565b60008054905090565b600081600260008673ffffffffffffffffffffffffffffffffffffffff1673ffffffffffffffffffffffffffffffffffffffff16815260200190815260200160002060008573ffffffffffffffffffffffffffffffffffffffff1673ffffffffffffffffffffffffffffffffffffffff1681526020019081526020016000205410156108db576040517f08c379a000000000000000000000000000000000000000000000000000000000815260040180806020018281038252601b8152602001807f45524332303a206e6f7420617070726f76656420746f2073656e64000000000081525060200191505060405180910390fd5b6108e6848484611128565b600190509392505050565b60075481565b61094981600160003373ffffffffffffffffffffffffffffffffffffffff1673ffffffffffffffffffffffffffffffffffffffff168152602001908152602001600020546112f390919063ffffffff16565b600160003373ffffffffffffffffffffffffffffffffffffffff1673ffffffffffffffffffffffffffffffffffffffff168152602001908152602001600020819055506109a1816000546112f390919063ffffffff16565b60008190555050565b6000600160008373ffffffffffffffffffffffffffffffffffffffff1673ffffffffffffffffffffffffffffffffffffffff168152602001908152602001600020549050919050565b60068054600181600116156101000203166002900480601f016020809104026020016040519081016040528092919081815260200182805460018160011615610100020316600290048015610a895780601f10610a5e57610100808354040283529160200191610a89565b820191906000526020600020905b815481529060010190602001808311610a6c57829003601f168201915b505050505081565b600460009054906101000a900473ffffffffffffffffffffffffffffffffffffffff1673ffffffffffffffffffffffffffffffffffffffff1663ece53132306040518263ffffffff1660e01b8152600401808273ffffffffffffffffffffffffffffffffffffffff168152602001915050600060405180830381600087803b158015610b1c57600080fd5b505af1158015610b30573d6000803e3d6000fd5b505050506000610b6a610b416106b9565b610b5c670de0b6b3a76400008561105890919063ffffffff16565b6110de90919063ffffffff16565b9050600360009054906101000a900473ffffffffffffffffffffffffffffffffffffffff1673ffffffffffffffffffffffffffffffffffffffff166323b872dd3330856040518463ffffffff1660e01b8152600401808473ffffffffffffffffffffffffffffffffffffffff1681526020018373ffffffffffffffffffffffffffffffffffffffff1681526020018281526020019350505050602060405180830381600087803b158015610c1d57600080fd5b505af1158015610c31573d6000803e3d6000fd5b505050506040513d6020811015610c4757600080fd5b8101908080519060200190929190505050610cad576040517f08c379a00000000000000000000000000000000000000000000000000000000081526004018080602001828103825260258152602001806116006025913960400191505060405180910390fd5b610cb7338261133d565b5050565b6000610cc8338484611128565b6001905092915050565b600360009054906101000a900473ffffffffffffffffffffffffffffffffffffffff1681565b600460009054906101000a900473ffffffffffffffffffffffffffffffffffffffff1673ffffffffffffffffffffffffffffffffffffffff1663ece53132306040518263ffffffff1660e01b8152600401808273ffffffffffffffffffffffffffffffffffffffff168152602001915050600060405180830381600087803b158015610d8357600080fd5b505af1158015610d97573d6000803e3d6000fd5b50505050610e24816040518060400160405280601f81526020017f5059524f544f4b454e3a20696e73756666696369656e742062616c616e636500815250600160003373ffffffffffffffffffffffffffffffffffffffff1673ffffffffffffffffffffffffffffffffffffffff168152602001908152602001600020546113f19092919063ffffffff16565b600160003373ffffffffffffffffffffffffffffffffffffffff1673ffffffffffffffffffffffffffffffffffffffff16815260200190815260200160002081905550610e7c816000546112f390919063ffffffff16565b6000819055506000610eab6064610e9d60028561105890919063ffffffff16565b6110de90919063ffffffff16565b90506000610ec282846112f390919063ffffffff16565b90506000610efa670de0b6b3a7640000610eec84610ede6106b9565b61105890919063ffffffff16565b6110de90919063ffffffff16565b9050600360009054906101000a900473ffffffffffffffffffffffffffffffffffffffff1673ffffffffffffffffffffffffffffffffffffffff1663a9059cbb33836040518363ffffffff1660e01b8152600401808373ffffffffffffffffffffffffffffffffffffffff16815260200182815260200192505050602060405180830381600087803b158015610f8f57600080fd5b505af1158015610fa3573d6000803e3d6000fd5b505050506040513d6020811015610fb957600080fd5b81019080805190602001909291905050505050505050565b6000600260008473ffffffffffffffffffffffffffffffffffffffff1673ffffffffffffffffffffffffffffffffffffffff16815260200190815260200160002060008373ffffffffffffffffffffffffffffffffffffffff1673ffffffffffffffffffffffffffffffffffffffff16815260200190815260200160002054905092915050565b60008083141561106b57600090506110d8565b600082840290508284828161107c57fe5b04146110d3576040517f08c379a00000000000000000000000000000000000000000000000000000000081526004018080602001828103825260218152602001806116256021913960400191505060405180910390fd5b809150505b92915050565b600061112083836040518060400160405280601a81526020017f536166654d6174683a206469766973696f6e206279207a65726f0000000000008152506114b1565b905092915050565b600061113f6103e8836110de90919063ffffffff16565b9050611195818303600160008673ffffffffffffffffffffffffffffffffffffffff1673ffffffffffffffffffffffffffffffffffffffff1681526020019081526020016000205461157790919063ffffffff16565b600160008573ffffffffffffffffffffffffffffffffffffffff1673ffffffffffffffffffffffffffffffffffffffff1681526020019081526020016000208190555061122a82600160008773ffffffffffffffffffffffffffffffffffffffff1673ffffffffffffffffffffffffffffffffffffffff168152602001908152602001600020546112f390919063ffffffff16565b600160008673ffffffffffffffffffffffffffffffffffffffff1673ffffffffffffffffffffffffffffffffffffffff16815260200190815260200160002081905550611282816000546112f390919063ffffffff16565b6000819055508273ffffffffffffffffffffffffffffffffffffffff168473ffffffffffffffffffffffffffffffffffffffff167fddf252ad1be2c89b69c2b068fc378daa952ba7f163c4a11628f55a4df523b3ef846040518082815260200191505060405180910390a350505050565b600061133583836040518060400160405280601e81526020017f536166654d6174683a207375627472616374696f6e206f766572666c6f7700008152506113f1565b905092915050565b61138f81600160008573ffffffffffffffffffffffffffffffffffffffff1673ffffffffffffffffffffffffffffffffffffffff1681526020019081526020016000205461157790919063ffffffff16565b600160008473ffffffffffffffffffffffffffffffffffffffff1673ffffffffffffffffffffffffffffffffffffffff168152602001908152602001600020819055506113e78160005461157790919063ffffffff16565b6000819055505050565b600083831115829061149e576040517f08c379a00000000000000000000000000000000000000000000000000000000081526004018080602001828103825283818151815260200191508051906020019080838360005b83811015611463578082015181840152602081019050611448565b50505050905090810190601f1680156114905780820380516001836020036101000a031916815260200191505b509250505060405180910390fd5b5060008385039050809150509392505050565b6000808311829061155d576040517f08c379a00000000000000000000000000000000000000000000000000000000081526004018080602001828103825283818151815260200191508051906020019080838360005b83811015611522578082015181840152602081019050611507565b50505050905090810190601f16801561154f5780820380516001836020036101000a031916815260200191505b509250505060405180910390fd5b50600083858161156957fe5b049050809150509392505050565b6000808284019050838110156115f5576040517f08c379a000000000000000000000000000000000000000000000000000000000815260040180806020018281038252601b8152602001807f536166654d6174683a206164646974696f6e206f766572666c6f77000000000081525060200191505060405180910390fd5b809150509291505056fe5059524f544f4b454e3a2062617365746f6b656e207472616e73666572206661696c65642e536166654d6174683a206d756c7469706c69636174696f6e206f766572666c6f77a26469706673582212202790b101687dde5e097de620bc88bdced43b84a2a94f68c9d496c1f7dab0fce164736f6c634300070100334245484f444c45523a207079726f746f6b656e206e6f7420726567697374657265642e4245484f444c45523a207079726f746f6b656e20616c72656164792072656769737465726564a264697066735822122047e33485226eb4dec7d99ac28cc74eced9cf17fd0c232d7547c926ec16bedc4564736f6c63430007010033",
  "immutableReferences": {},
  "source": "// SPDX-License-Identifier: MIT\npragma solidity ^0.7.1;\nimport \"../openzeppelin/IERC20.sol\";\nimport \"./Pyrotoken.sol\";\n\ncontract LiquidityReceiver {\n    mapping(address => address) public baseTokenMapping;\n\n    function registerPyroToken(address baseToken) public {\n        require(\n            baseTokenMapping[baseToken] == address(0),\n            \"BEHODLER: pyrotoken already registered\"\n        );\n        Pyrotoken pyro = new Pyrotoken(baseToken, address(this));\n        baseTokenMapping[baseToken] = address(pyro);\n    }\n\n    function drain(address pyroToken) public {\n        address baseToken = Pyrotoken(pyroToken).baseToken();\n        require(\n            baseTokenMapping[baseToken] == pyroToken,\n            \"BEHODLER: pyrotoken not registered.\"\n        );\n        address self = address(this);\n        uint256 balance = IERC20(baseToken).balanceOf(self);\n        IERC20(baseToken).transfer(pyroToken, balance);\n    }\n}\n",
  "sourcePath": "/home/justin/weidai ecosystem/behodler2/contracts/Pyrotokens/LiquidityReceiver.sol",
  "compiler": {
    "name": "solc",
    "version": "0.7.1+commit.f4a555be.Emscripten.clang"
  },
  "schemaVersion": "3.3.3",
  "updatedAt": "2021-01-27T10:02:24.153Z",
  "networkType": "ethereum",
  "devdoc": {
    "kind": "dev",
    "methods": {},
    "version": 1
  },
  "userdoc": {
    "kind": "user",
    "methods": {},
    "version": 1
  }
}