{
  "contractName": "Pyrotoken",
  "abi": [
    {
      "inputs": [
        {
          "internalType": "address",
          "name": "_baseToken",
          "type": "address"
        },
        {
          "internalType": "address",
          "name": "_liquidityReceiver",
          "type": "address"
        }
      ],
      "stateMutability": "nonpayable",
      "type": "constructor"
    },
    {
      "anonymous": false,
      "inputs": [
        {
          "indexed": true,
          "internalType": "address",
          "name": "owner",
          "type": "address"
        },
        {
          "indexed": true,
          "internalType": "address",
          "name": "spender",
          "type": "address"
        },
        {
          "indexed": false,
          "internalType": "uint256",
          "name": "value",
          "type": "uint256"
        }
      ],
      "name": "Approval",
      "type": "event"
    },
    {
      "anonymous": false,
      "inputs": [
        {
          "indexed": false,
          "internalType": "address",
          "name": "minter",
          "type": "address"
        },
        {
          "indexed": false,
          "internalType": "address",
          "name": "baseToken",
          "type": "address"
        },
        {
          "indexed": false,
          "internalType": "address",
          "name": "pyroToken",
          "type": "address"
        },
        {
          "indexed": false,
          "internalType": "uint256",
          "name": "redeemRate",
          "type": "uint256"
        }
      ],
      "name": "Mint",
      "type": "event"
    },
    {
      "anonymous": false,
      "inputs": [
        {
          "indexed": false,
          "internalType": "address",
          "name": "redeemer",
          "type": "address"
        },
        {
          "indexed": false,
          "internalType": "address",
          "name": "baseToken",
          "type": "address"
        },
        {
          "indexed": false,
          "internalType": "address",
          "name": "pyroToken",
          "type": "address"
        },
        {
          "indexed": false,
          "internalType": "uint256",
          "name": "redeemRate",
          "type": "uint256"
        }
      ],
      "name": "Redeem",
      "type": "event"
    },
    {
      "anonymous": false,
      "inputs": [
        {
          "indexed": true,
          "internalType": "address",
          "name": "from",
          "type": "address"
        },
        {
          "indexed": true,
          "internalType": "address",
          "name": "to",
          "type": "address"
        },
        {
          "indexed": false,
          "internalType": "uint256",
          "name": "value",
          "type": "uint256"
        }
      ],
      "name": "Transfer",
      "type": "event"
    },
    {
      "inputs": [],
      "name": "baseToken",
      "outputs": [
        {
          "internalType": "address",
          "name": "",
          "type": "address"
        }
      ],
      "stateMutability": "view",
      "type": "function"
    },
    {
      "inputs": [],
      "name": "decimals",
      "outputs": [
        {
          "internalType": "uint8",
          "name": "",
          "type": "uint8"
        }
      ],
      "stateMutability": "view",
      "type": "function"
    },
    {
      "inputs": [],
      "name": "name",
      "outputs": [
        {
          "internalType": "string",
          "name": "",
          "type": "string"
        }
      ],
      "stateMutability": "view",
      "type": "function"
    },
    {
      "inputs": [],
      "name": "symbol",
      "outputs": [
        {
          "internalType": "string",
          "name": "",
          "type": "string"
        }
      ],
      "stateMutability": "view",
      "type": "function"
    },
    {
      "inputs": [],
      "name": "totalSupply",
      "outputs": [
        {
          "internalType": "uint256",
          "name": "",
          "type": "uint256"
        }
      ],
      "stateMutability": "view",
      "type": "function"
    },
    {
      "inputs": [
        {
          "internalType": "address",
          "name": "account",
          "type": "address"
        }
      ],
      "name": "balanceOf",
      "outputs": [
        {
          "internalType": "uint256",
          "name": "",
          "type": "uint256"
        }
      ],
      "stateMutability": "view",
      "type": "function"
    },
    {
      "inputs": [
        {
          "internalType": "address",
          "name": "recipient",
          "type": "address"
        },
        {
          "internalType": "uint256",
          "name": "amount",
          "type": "uint256"
        }
      ],
      "name": "transfer",
      "outputs": [
        {
          "internalType": "bool",
          "name": "",
          "type": "bool"
        }
      ],
      "stateMutability": "nonpayable",
      "type": "function"
    },
    {
      "inputs": [
        {
          "internalType": "address",
          "name": "owner",
          "type": "address"
        },
        {
          "internalType": "address",
          "name": "spender",
          "type": "address"
        }
      ],
      "name": "allowance",
      "outputs": [
        {
          "internalType": "uint256",
          "name": "",
          "type": "uint256"
        }
      ],
      "stateMutability": "view",
      "type": "function"
    },
    {
      "inputs": [
        {
          "internalType": "address",
          "name": "spender",
          "type": "address"
        },
        {
          "internalType": "uint256",
          "name": "amount",
          "type": "uint256"
        }
      ],
      "name": "approve",
      "outputs": [
        {
          "internalType": "bool",
          "name": "",
          "type": "bool"
        }
      ],
      "stateMutability": "nonpayable",
      "type": "function"
    },
    {
      "inputs": [
        {
          "internalType": "address",
          "name": "sender",
          "type": "address"
        },
        {
          "internalType": "address",
          "name": "recipient",
          "type": "address"
        },
        {
          "internalType": "uint256",
          "name": "amount",
          "type": "uint256"
        }
      ],
      "name": "transferFrom",
      "outputs": [
        {
          "internalType": "bool",
          "name": "",
          "type": "bool"
        }
      ],
      "stateMutability": "nonpayable",
      "type": "function"
    },
    {
      "inputs": [
        {
          "internalType": "uint256",
          "name": "pyroTokenAmount",
          "type": "uint256"
        }
      ],
      "name": "redeem",
      "outputs": [],
      "stateMutability": "nonpayable",
      "type": "function"
    },
    {
      "inputs": [],
      "name": "redeemRate",
      "outputs": [
        {
          "internalType": "uint256",
          "name": "",
          "type": "uint256"
        }
      ],
      "stateMutability": "view",
      "type": "function"
    },
    {
      "inputs": [
        {
          "internalType": "uint256",
          "name": "baseTokenAmount",
          "type": "uint256"
        }
      ],
      "name": "mint",
      "outputs": [],
      "stateMutability": "nonpayable",
      "type": "function"
    },
    {
      "inputs": [
        {
          "internalType": "uint256",
          "name": "amount",
          "type": "uint256"
        }
      ],
      "name": "burn",
      "outputs": [],
      "stateMutability": "nonpayable",
      "type": "function"
    }
  ],
  "bytecode": "0x60806040523480156200001157600080fd5b5060405162001deb38038062001deb833981810160405260408110156200003757600080fd5b81019080805190602001909291908051906020019092919050505081600360006101000a81548173ffffffffffffffffffffffffffffffffffffffff021916908373ffffffffffffffffffffffffffffffffffffffff160217905550600360009054906101000a900473ffffffffffffffffffffffffffffffffffffffff1673ffffffffffffffffffffffffffffffffffffffff166306fdde036040518163ffffffff1660e01b8152600401600060405180830381600087803b158015620000fe57600080fd5b505af115801562000113573d6000803e3d6000fd5b505050506040513d6000823e3d601f19601f8201168201806040525060208110156200013e57600080fd5b81019080805160405193929190846401000000008211156200015f57600080fd5b838201915060208201858111156200017657600080fd5b82518660018202830111640100000000821117156200019457600080fd5b8083526020830192505050908051906020019080838360005b83811015620001ca578082015181840152602081019050620001ad565b50505050905090810190601f168015620001f85780820380516001836020036101000a031916815260200191505b5060405250505060405160200180807f5079726f2000000000000000000000000000000000000000000000000000000081525060050182805190602001908083835b602083106200025f57805182526020820191506020810190506020830392506200023a565b6001836020036101000a03801982511681845116808217855250505050505090500191505060405160208183030381529060405260059080519060200190620002aa92919062000528565b50600360009054906101000a900473ffffffffffffffffffffffffffffffffffffffff1673ffffffffffffffffffffffffffffffffffffffff166395d89b416040518163ffffffff1660e01b8152600401600060405180830381600087803b1580156200031657600080fd5b505af11580156200032b573d6000803e3d6000fd5b505050506040513d6000823e3d601f19601f8201168201806040525060208110156200035657600080fd5b81019080805160405193929190846401000000008211156200037757600080fd5b838201915060208201858111156200038e57600080fd5b8251866001820283011164010000000082111715620003ac57600080fd5b8083526020830192505050908051906020019080838360005b83811015620003e2578082015181840152602081019050620003c5565b50505050905090810190601f168015620004105780820380516001836020036101000a031916815260200191505b5060405250505060405160200180807f5079726f0000000000000000000000000000000000000000000000000000000081525060040182805190602001908083835b6020831062000477578051825260208201915060208101905060208303925062000452565b6001836020036101000a03801982511681845116808217855250505050505090500191505060405160208183030381529060405260069080519060200190620004c292919062000528565b506012600760006101000a81548160ff021916908360ff16021790555080600460006101000a81548173ffffffffffffffffffffffffffffffffffffffff021916908373ffffffffffffffffffffffffffffffffffffffff1602179055505050620005de565b828054600181600116156101000203166002900490600052602060002090601f016020900481019282620005605760008555620005ac565b82601f106200057b57805160ff1916838001178555620005ac565b82800160010185558215620005ac579182015b82811115620005ab5782518255916020019190600101906200058e565b5b509050620005bb9190620005bf565b5090565b5b80821115620005da576000816000905550600101620005c0565b5090565b6117fd80620005ee6000396000f3fe608060405234801561001057600080fd5b50600436106100ea5760003560e01c806370a082311161008c578063a9059cbb11610066578063a9059cbb146103ee578063c55dae6314610452578063db006a7514610486578063dd62ed3e146104b4576100ea565b806370a08231146102e557806395d89b411461033d578063a0712d68146103c0576100ea565b806318160ddd116100c857806318160ddd146101f457806323b872dd14610212578063313ce5671461029657806342966c68146102b7576100ea565b806306fdde03146100ef578063095ea7b3146101725780630adcdbaa146101d6575b600080fd5b6100f761052c565b6040518080602001828103825283818151815260200191508051906020019080838360005b8381101561013757808201518184015260208101905061011c565b50505050905090810190601f1680156101645780820380516001836020036101000a031916815260200191505b509250505060405180910390f35b6101be6004803603604081101561018857600080fd5b81019080803573ffffffffffffffffffffffffffffffffffffffff169060200190929190803590602001909291905050506105ca565b60405180821515815260200191505060405180910390f35b6101de6106bc565b6040518082815260200191505060405180910390f35b6101fc6107e1565b6040518082815260200191505060405180910390f35b61027e6004803603606081101561022857600080fd5b81019080803573ffffffffffffffffffffffffffffffffffffffff169060200190929190803573ffffffffffffffffffffffffffffffffffffffff169060200190929190803590602001909291905050506107ea565b60405180821515815260200191505060405180910390f35b61029e6108f4565b604051808260ff16815260200191505060405180910390f35b6102e3600480360360208110156102cd57600080fd5b8101908080359060200190929190505050610907565b005b610327600480360360208110156102fb57600080fd5b81019080803573ffffffffffffffffffffffffffffffffffffffff1690602001909291905050506109ba565b6040518082815260200191505060405180910390f35b610345610a03565b6040518080602001828103825283818151815260200191508051906020019080838360005b8381101561038557808201518184015260208101905061036a565b50505050905090810190601f1680156103b25780820380516001836020036101000a031916815260200191505b509250505060405180910390f35b6103ec600480360360208110156103d657600080fd5b8101908080359060200190929190505050610aa1565b005b61043a6004803603604081101561040457600080fd5b81019080803573ffffffffffffffffffffffffffffffffffffffff16906020019092919080359060200190929190505050610d84565b60405180821515815260200191505060405180910390f35b61045a610d9b565b604051808273ffffffffffffffffffffffffffffffffffffffff16815260200191505060405180910390f35b6104b26004803603602081101561049c57600080fd5b8101908080359060200190929190505050610dc1565b005b610516600480360360408110156104ca57600080fd5b81019080803573ffffffffffffffffffffffffffffffffffffffff169060200190929190803573ffffffffffffffffffffffffffffffffffffffff169060200190929190505050611153565b6040518082815260200191505060405180910390f35b60058054600181600116156101000203166002900480601f0160208091040260200160405190810160405280929190818152602001828054600181600116156101000203166002900480156105c25780601f10610597576101008083540402835291602001916105c2565b820191906000526020600020905b8154815290600101906020018083116105a557829003601f168201915b505050505081565b600081600260003373ffffffffffffffffffffffffffffffffffffffff1673ffffffffffffffffffffffffffffffffffffffff16815260200190815260200160002060008573ffffffffffffffffffffffffffffffffffffffff1673ffffffffffffffffffffffffffffffffffffffff168152602001908152602001600020819055508273ffffffffffffffffffffffffffffffffffffffff163373ffffffffffffffffffffffffffffffffffffffff167f8c5be1e5ebec7d5bd14f71427d1e84f3dd0314c0f7b2291e5b200ac8c7c3b925846040518082815260200191505060405180910390a36001905092915050565b600080600360009054906101000a900473ffffffffffffffffffffffffffffffffffffffff1673ffffffffffffffffffffffffffffffffffffffff166370a08231306040518263ffffffff1660e01b8152600401808273ffffffffffffffffffffffffffffffffffffffff16815260200191505060206040518083038186803b15801561074857600080fd5b505afa15801561075c573d6000803e3d6000fd5b505050506040513d602081101561077257600080fd5b810190808051906020019092919050505090506000805414806107955750600081145b156107ab57670de0b6b3a76400009150506107de565b6107da6000546107cc670de0b6b3a7640000846111da90919063ffffffff16565b61126090919063ffffffff16565b9150505b90565b60008054905090565b600081600260008673ffffffffffffffffffffffffffffffffffffffff1673ffffffffffffffffffffffffffffffffffffffff16815260200190815260200160002060008573ffffffffffffffffffffffffffffffffffffffff1673ffffffffffffffffffffffffffffffffffffffff1681526020019081526020016000205410156108de576040517f08c379a000000000000000000000000000000000000000000000000000000000815260040180806020018281038252601b8152602001807f45524332303a206e6f7420617070726f76656420746f2073656e64000000000081525060200191505060405180910390fd5b6108e98484846112aa565b600190509392505050565b600760009054906101000a900460ff1681565b61095981600160003373ffffffffffffffffffffffffffffffffffffffff1673ffffffffffffffffffffffffffffffffffffffff1681526020019081526020016000205461147590919063ffffffff16565b600160003373ffffffffffffffffffffffffffffffffffffffff1673ffffffffffffffffffffffffffffffffffffffff168152602001908152602001600020819055506109b18160005461147590919063ffffffff16565b60008190555050565b6000600160008373ffffffffffffffffffffffffffffffffffffffff1673ffffffffffffffffffffffffffffffffffffffff168152602001908152602001600020549050919050565b60068054600181600116156101000203166002900480601f016020809104026020016040519081016040528092919081815260200182805460018160011615610100020316600290048015610a995780601f10610a6e57610100808354040283529160200191610a99565b820191906000526020600020905b815481529060010190602001808311610a7c57829003601f168201915b505050505081565b600460009054906101000a900473ffffffffffffffffffffffffffffffffffffffff1673ffffffffffffffffffffffffffffffffffffffff1663ece53132306040518263ffffffff1660e01b8152600401808273ffffffffffffffffffffffffffffffffffffffff168152602001915050600060405180830381600087803b158015610b2c57600080fd5b505af1158015610b40573d6000803e3d6000fd5b505050506000610b4e6106bc565b90506000610b7f82610b71670de0b6b3a7640000866111da90919063ffffffff16565b61126090919063ffffffff16565b9050600360009054906101000a900473ffffffffffffffffffffffffffffffffffffffff1673ffffffffffffffffffffffffffffffffffffffff166323b872dd3330866040518463ffffffff1660e01b8152600401808473ffffffffffffffffffffffffffffffffffffffff1681526020018373ffffffffffffffffffffffffffffffffffffffff1681526020018281526020019350505050602060405180830381600087803b158015610c3257600080fd5b505af1158015610c46573d6000803e3d6000fd5b505050506040513d6020811015610c5c57600080fd5b8101908080519060200190929190505050610cc2576040517f08c379a00000000000000000000000000000000000000000000000000000000081526004018080602001828103825260258152602001806117826025913960400191505060405180910390fd5b610ccc33826114bf565b7f6b460f6f5497bb72eeec65f6df538e6388b2e74b8fc03e7d318653a663e7378233600360009054906101000a900473ffffffffffffffffffffffffffffffffffffffff163085604051808573ffffffffffffffffffffffffffffffffffffffff1681526020018473ffffffffffffffffffffffffffffffffffffffff1681526020018373ffffffffffffffffffffffffffffffffffffffff16815260200182815260200194505050505060405180910390a1505050565b6000610d913384846112aa565b6001905092915050565b600360009054906101000a900473ffffffffffffffffffffffffffffffffffffffff1681565b600460009054906101000a900473ffffffffffffffffffffffffffffffffffffffff1673ffffffffffffffffffffffffffffffffffffffff1663ece53132306040518263ffffffff1660e01b8152600401808273ffffffffffffffffffffffffffffffffffffffff168152602001915050600060405180830381600087803b158015610e4c57600080fd5b505af1158015610e60573d6000803e3d6000fd5b50505050610eed816040518060400160405280601f81526020017f5059524f544f4b454e3a20696e73756666696369656e742062616c616e636500815250600160003373ffffffffffffffffffffffffffffffffffffffff1673ffffffffffffffffffffffffffffffffffffffff168152602001908152602001600020546115739092919063ffffffff16565b600160003373ffffffffffffffffffffffffffffffffffffffff1673ffffffffffffffffffffffffffffffffffffffff168152602001908152602001600020819055506000610f3a6106bc565b9050610f518260005461147590919063ffffffff16565b6000819055506000610f806064610f726002866111da90919063ffffffff16565b61126090919063ffffffff16565b90506000610f97828561147590919063ffffffff16565b90506000610fc8670de0b6b3a7640000610fba84876111da90919063ffffffff16565b61126090919063ffffffff16565b9050600360009054906101000a900473ffffffffffffffffffffffffffffffffffffffff1673ffffffffffffffffffffffffffffffffffffffff1663a9059cbb33836040518363ffffffff1660e01b8152600401808373ffffffffffffffffffffffffffffffffffffffff16815260200182815260200192505050602060405180830381600087803b15801561105d57600080fd5b505af1158015611071573d6000803e3d6000fd5b505050506040513d602081101561108757600080fd5b8101908080519060200190929190505050507fee02732fab40ece8284c756220846dff4b8d32058b86b35b4f0459bf172fcef033600360009054906101000a900473ffffffffffffffffffffffffffffffffffffffff163087604051808573ffffffffffffffffffffffffffffffffffffffff1681526020018473ffffffffffffffffffffffffffffffffffffffff1681526020018373ffffffffffffffffffffffffffffffffffffffff16815260200182815260200194505050505060405180910390a15050505050565b6000600260008473ffffffffffffffffffffffffffffffffffffffff1673ffffffffffffffffffffffffffffffffffffffff16815260200190815260200160002060008373ffffffffffffffffffffffffffffffffffffffff1673ffffffffffffffffffffffffffffffffffffffff16815260200190815260200160002054905092915050565b6000808314156111ed576000905061125a565b60008284029050828482816111fe57fe5b0414611255576040517f08c379a00000000000000000000000000000000000000000000000000000000081526004018080602001828103825260218152602001806117a76021913960400191505060405180910390fd5b809150505b92915050565b60006112a283836040518060400160405280601a81526020017f536166654d6174683a206469766973696f6e206279207a65726f000000000000815250611633565b905092915050565b60006112c16103e88361126090919063ffffffff16565b9050611317818303600160008673ffffffffffffffffffffffffffffffffffffffff1673ffffffffffffffffffffffffffffffffffffffff168152602001908152602001600020546116f990919063ffffffff16565b600160008573ffffffffffffffffffffffffffffffffffffffff1673ffffffffffffffffffffffffffffffffffffffff168152602001908152602001600020819055506113ac82600160008773ffffffffffffffffffffffffffffffffffffffff1673ffffffffffffffffffffffffffffffffffffffff1681526020019081526020016000205461147590919063ffffffff16565b600160008673ffffffffffffffffffffffffffffffffffffffff1673ffffffffffffffffffffffffffffffffffffffff168152602001908152602001600020819055506114048160005461147590919063ffffffff16565b6000819055508273ffffffffffffffffffffffffffffffffffffffff168473ffffffffffffffffffffffffffffffffffffffff167fddf252ad1be2c89b69c2b068fc378daa952ba7f163c4a11628f55a4df523b3ef846040518082815260200191505060405180910390a350505050565b60006114b783836040518060400160405280601e81526020017f536166654d6174683a207375627472616374696f6e206f766572666c6f770000815250611573565b905092915050565b61151181600160008573ffffffffffffffffffffffffffffffffffffffff1673ffffffffffffffffffffffffffffffffffffffff168152602001908152602001600020546116f990919063ffffffff16565b600160008473ffffffffffffffffffffffffffffffffffffffff1673ffffffffffffffffffffffffffffffffffffffff16815260200190815260200160002081905550611569816000546116f990919063ffffffff16565b6000819055505050565b6000838311158290611620576040517f08c379a00000000000000000000000000000000000000000000000000000000081526004018080602001828103825283818151815260200191508051906020019080838360005b838110156115e55780820151818401526020810190506115ca565b50505050905090810190601f1680156116125780820380516001836020036101000a031916815260200191505b509250505060405180910390fd5b5060008385039050809150509392505050565b600080831182906116df576040517f08c379a00000000000000000000000000000000000000000000000000000000081526004018080602001828103825283818151815260200191508051906020019080838360005b838110156116a4578082015181840152602081019050611689565b50505050905090810190601f1680156116d15780820380516001836020036101000a031916815260200191505b509250505060405180910390fd5b5060008385816116eb57fe5b049050809150509392505050565b600080828401905083811015611777576040517f08c379a000000000000000000000000000000000000000000000000000000000815260040180806020018281038252601b8152602001807f536166654d6174683a206164646974696f6e206f766572666c6f77000000000081525060200191505060405180910390fd5b809150509291505056fe5059524f544f4b454e3a2062617365546f6b656e207472616e73666572206661696c65642e536166654d6174683a206d756c7469706c69636174696f6e206f766572666c6f77a2646970667358221220523cabb65346627e98b2d9bb93a0e26267287a78396f2f9000d8c6b4db5493cc64736f6c63430007060033",
  "immutableReferences": {},
  "source": "// SPDX-License-Identifier: MIT\npragma solidity ^0.7.6;\n\nimport \"../openzeppelin/IERC20.sol\";\nimport \"../openzeppelin/SafeMath.sol\";\nimport \"./LiquidityReceiver.sol\";\n\nabstract contract ERC20MetaData {\n    function symbol() public virtual returns (string memory);\n\n    function name() public virtual returns (string memory);\n}\n\ncontract Pyrotoken is IERC20 {\n    event Mint(\n        address minter,\n        address baseToken,\n        address pyroToken,\n        uint256 redeemRate\n    );\n    event Redeem(\n        address redeemer,\n        address baseToken,\n        address pyroToken,\n        uint256 redeemRate\n    );\n\n    using SafeMath for uint256;\n    uint256 _totalSupply;\n    mapping(address => uint256) balances;\n    mapping(address => mapping(address => uint256)) allowances;\n    address public baseToken;\n    uint256 constant ONE = 1e18;\n    LiquidityReceiver liquidityReceiver;\n\n    constructor(address _baseToken, address _liquidityReceiver) {\n        baseToken = _baseToken;\n        name = string(\n            abi.encodePacked(\"Pyro \", ERC20MetaData(baseToken).name())\n        );\n        symbol = string(\n            abi.encodePacked(\"Pyro\", ERC20MetaData(baseToken).symbol())\n        );\n        decimals = 18;\n        liquidityReceiver = LiquidityReceiver(_liquidityReceiver);\n    }\n\n    string public name;\n    string public symbol;\n    uint8 public override decimals;\n\n    modifier updateReserve {\n        liquidityReceiver.drain(address(this));\n        _;\n    }\n\n    function totalSupply() external view override returns (uint256) {\n        return _totalSupply;\n    }\n\n    function balanceOf(address account)\n        external\n        view\n        override\n        returns (uint256)\n    {\n        return balances[account];\n    }\n\n    function transfer(address recipient, uint256 amount)\n        external\n        override\n        returns (bool)\n    {\n        _transfer(msg.sender, recipient, amount);\n        return true;\n    }\n\n    function allowance(address owner, address spender)\n        external\n        view\n        override\n        returns (uint256)\n    {\n        return allowances[owner][spender];\n    }\n\n    function approve(address spender, uint256 amount)\n        external\n        override\n        returns (bool)\n    {\n        allowances[msg.sender][spender] = amount;\n        emit Approval(msg.sender, spender, amount);\n        return true;\n    }\n\n    function transferFrom(\n        address sender,\n        address recipient,\n        uint256 amount\n    ) external override returns (bool) {\n        require(\n            allowances[sender][recipient] >= amount,\n            \"ERC20: not approved to send\"\n        );\n        _transfer(sender, recipient, amount);\n        return true;\n    }\n\n    function mint(uint256 baseTokenAmount) external updateReserve {\n        uint256 rate = redeemRate();\n        uint256 pyroTokensToMint = baseTokenAmount.mul(ONE).div(rate);\n        require(\n            IERC20(baseToken).transferFrom(\n                msg.sender,\n                address(this),\n                baseTokenAmount\n            ),\n            \"PYROTOKEN: baseToken transfer failed.\"\n        );\n        mint(msg.sender, pyroTokensToMint);\n        emit Mint(msg.sender, baseToken, address(this), rate);\n    }\n\n    function redeem(uint256 pyroTokenAmount) external updateReserve {\n        //no approval necessary\n        balances[msg.sender] = balances[msg.sender].sub(\n            pyroTokenAmount,\n            \"PYROTOKEN: insufficient balance\"\n        );\n        uint256 rate = redeemRate();\n        _totalSupply = _totalSupply.sub(pyroTokenAmount);\n        uint256 exitFee = pyroTokenAmount.mul(2).div(100); //2% burn on exit pushes up price for remaining hodlers\n        uint256 net = pyroTokenAmount.sub(exitFee);\n        uint256 baseTokensToRelease = rate.mul(net).div(ONE);\n        IERC20(baseToken).transfer(msg.sender, baseTokensToRelease);\n        emit Redeem(msg.sender, baseToken, address(this), rate);\n    }\n\n    function redeemRate() public view returns (uint256) {\n        uint256 balanceOfBase = IERC20(baseToken).balanceOf(address(this));\n        if (_totalSupply == 0 || balanceOfBase == 0) return ONE;\n\n        return balanceOfBase.mul(ONE).div(_totalSupply);\n    }\n\n    function mint(address recipient, uint256 amount) internal {\n        balances[recipient] = balances[recipient].add(amount);\n        _totalSupply = _totalSupply.add(amount);\n    }\n\n    function burn(uint256 amount) public {\n        balances[msg.sender] = balances[msg.sender].sub(amount);\n        _totalSupply = _totalSupply.sub(amount);\n    }\n\n    function _transfer(\n        address sender,\n        address recipient,\n        uint256 amount\n    ) internal {\n        uint256 burnFee = amount.div(1000); //0.1%\n        balances[recipient] = balances[recipient].add(amount - burnFee);\n        balances[sender] = balances[sender].sub(amount);\n        _totalSupply = _totalSupply.sub(burnFee);\n        emit Transfer(sender, recipient, amount);\n    }\n}\n",
  "sourcePath": "/home/justin/weidai ecosystem/behodler2/contracts/Pyrotokens/Pyrotoken.sol",
  "compiler": {
    "name": "solc",
    "version": "0.7.6+commit.7338295f.Emscripten.clang"
  },
  "schemaVersion": "3.3.3",
  "updatedAt": "2021-02-17T22:51:20.119Z",
  "devdoc": {
    "kind": "dev",
    "methods": {},
    "version": 1
  },
  "userdoc": {
    "kind": "user",
    "methods": {},
    "version": 1
  }
}