{
  "contractName": "WETH10",
  "abi": [
    {
      "anonymous": false,
      "inputs": [
        {
          "indexed": true,
          "internalType": "address",
          "name": "owner",
          "type": "address"
        },
        {
          "indexed": true,
          "internalType": "address",
          "name": "spender",
          "type": "address"
        },
        {
          "indexed": false,
          "internalType": "uint256",
          "name": "value",
          "type": "uint256"
        }
      ],
      "name": "Approval",
      "type": "event"
    },
    {
      "anonymous": false,
      "inputs": [
        {
          "indexed": true,
          "internalType": "address",
          "name": "from",
          "type": "address"
        },
        {
          "indexed": true,
          "internalType": "address",
          "name": "to",
          "type": "address"
        },
        {
          "indexed": false,
          "internalType": "uint256",
          "name": "value",
          "type": "uint256"
        }
      ],
      "name": "Transfer",
      "type": "event"
    },
    {
      "inputs": [],
      "name": "CALLBACK_SUCCESS",
      "outputs": [
        {
          "internalType": "bytes32",
          "name": "",
          "type": "bytes32"
        }
      ],
      "stateMutability": "view",
      "type": "function",
      "constant": true
    },
    {
      "inputs": [],
      "name": "PERMIT_TYPEHASH",
      "outputs": [
        {
          "internalType": "bytes32",
          "name": "",
          "type": "bytes32"
        }
      ],
      "stateMutability": "view",
      "type": "function",
      "constant": true
    },
    {
      "inputs": [
        {
          "internalType": "address",
          "name": "",
          "type": "address"
        },
        {
          "internalType": "address",
          "name": "",
          "type": "address"
        }
      ],
      "name": "allowance",
      "outputs": [
        {
          "internalType": "uint256",
          "name": "",
          "type": "uint256"
        }
      ],
      "stateMutability": "view",
      "type": "function",
      "constant": true
    },
    {
      "inputs": [
        {
          "internalType": "address",
          "name": "",
          "type": "address"
        }
      ],
      "name": "balanceOf",
      "outputs": [
        {
          "internalType": "uint256",
          "name": "",
          "type": "uint256"
        }
      ],
      "stateMutability": "view",
      "type": "function",
      "constant": true
    },
    {
      "inputs": [],
      "name": "decimals",
      "outputs": [
        {
          "internalType": "uint8",
          "name": "",
          "type": "uint8"
        }
      ],
      "stateMutability": "view",
      "type": "function",
      "constant": true
    },
    {
      "inputs": [],
      "name": "flashMinted",
      "outputs": [
        {
          "internalType": "uint256",
          "name": "",
          "type": "uint256"
        }
      ],
      "stateMutability": "view",
      "type": "function",
      "constant": true
    },
    {
      "inputs": [],
      "name": "name",
      "outputs": [
        {
          "internalType": "string",
          "name": "",
          "type": "string"
        }
      ],
      "stateMutability": "view",
      "type": "function",
      "constant": true
    },
    {
      "inputs": [
        {
          "internalType": "address",
          "name": "",
          "type": "address"
        }
      ],
      "name": "nonces",
      "outputs": [
        {
          "internalType": "uint256",
          "name": "",
          "type": "uint256"
        }
      ],
      "stateMutability": "view",
      "type": "function",
      "constant": true
    },
    {
      "inputs": [],
      "name": "symbol",
      "outputs": [
        {
          "internalType": "string",
          "name": "",
          "type": "string"
        }
      ],
      "stateMutability": "view",
      "type": "function",
      "constant": true
    },
    {
      "stateMutability": "payable",
      "type": "receive",
      "payable": true
    },
    {
      "inputs": [],
      "name": "totalSupply",
      "outputs": [
        {
          "internalType": "uint256",
          "name": "",
          "type": "uint256"
        }
      ],
      "stateMutability": "view",
      "type": "function",
      "constant": true
    },
    {
      "inputs": [],
      "name": "deposit",
      "outputs": [],
      "stateMutability": "payable",
      "type": "function",
      "payable": true
    },
    {
      "inputs": [
        {
          "internalType": "address",
          "name": "to",
          "type": "address"
        }
      ],
      "name": "depositTo",
      "outputs": [],
      "stateMutability": "payable",
      "type": "function",
      "payable": true
    },
    {
      "inputs": [
        {
          "internalType": "address",
          "name": "to",
          "type": "address"
        },
        {
          "internalType": "bytes",
          "name": "data",
          "type": "bytes"
        }
      ],
      "name": "depositToAndCall",
      "outputs": [
        {
          "internalType": "bool",
          "name": "success",
          "type": "bool"
        }
      ],
      "stateMutability": "payable",
      "type": "function",
      "payable": true
    },
    {
      "inputs": [
        {
          "internalType": "address",
          "name": "token",
          "type": "address"
        }
      ],
      "name": "maxFlashLoan",
      "outputs": [
        {
          "internalType": "uint256",
          "name": "",
          "type": "uint256"
        }
      ],
      "stateMutability": "view",
      "type": "function",
      "constant": true
    },
    {
      "inputs": [
        {
          "internalType": "address",
          "name": "token",
          "type": "address"
        },
        {
          "internalType": "uint256",
          "name": "",
          "type": "uint256"
        }
      ],
      "name": "flashFee",
      "outputs": [
        {
          "internalType": "uint256",
          "name": "",
          "type": "uint256"
        }
      ],
      "stateMutability": "view",
      "type": "function",
      "constant": true
    },
    {
      "inputs": [
        {
          "internalType": "contract IERC3156FlashBorrower",
          "name": "receiver",
          "type": "address"
        },
        {
          "internalType": "address",
          "name": "token",
          "type": "address"
        },
        {
          "internalType": "uint256",
          "name": "value",
          "type": "uint256"
        },
        {
          "internalType": "bytes",
          "name": "data",
          "type": "bytes"
        }
      ],
      "name": "flashLoan",
      "outputs": [
        {
          "internalType": "bool",
          "name": "",
          "type": "bool"
        }
      ],
      "stateMutability": "nonpayable",
      "type": "function"
    },
    {
      "inputs": [
        {
          "internalType": "uint256",
          "name": "value",
          "type": "uint256"
        }
      ],
      "name": "withdraw",
      "outputs": [],
      "stateMutability": "nonpayable",
      "type": "function"
    },
    {
      "inputs": [
        {
          "internalType": "address payable",
          "name": "to",
          "type": "address"
        },
        {
          "internalType": "uint256",
          "name": "value",
          "type": "uint256"
        }
      ],
      "name": "withdrawTo",
      "outputs": [],
      "stateMutability": "nonpayable",
      "type": "function"
    },
    {
      "inputs": [
        {
          "internalType": "address",
          "name": "from",
          "type": "address"
        },
        {
          "internalType": "address payable",
          "name": "to",
          "type": "address"
        },
        {
          "internalType": "uint256",
          "name": "value",
          "type": "uint256"
        }
      ],
      "name": "withdrawFrom",
      "outputs": [],
      "stateMutability": "nonpayable",
      "type": "function"
    },
    {
      "inputs": [
        {
          "internalType": "address",
          "name": "spender",
          "type": "address"
        },
        {
          "internalType": "uint256",
          "name": "value",
          "type": "uint256"
        }
      ],
      "name": "approve",
      "outputs": [
        {
          "internalType": "bool",
          "name": "",
          "type": "bool"
        }
      ],
      "stateMutability": "nonpayable",
      "type": "function"
    },
    {
      "inputs": [
        {
          "internalType": "address",
          "name": "spender",
          "type": "address"
        },
        {
          "internalType": "uint256",
          "name": "value",
          "type": "uint256"
        },
        {
          "internalType": "bytes",
          "name": "data",
          "type": "bytes"
        }
      ],
      "name": "approveAndCall",
      "outputs": [
        {
          "internalType": "bool",
          "name": "",
          "type": "bool"
        }
      ],
      "stateMutability": "nonpayable",
      "type": "function"
    },
    {
      "inputs": [
        {
          "internalType": "address",
          "name": "owner",
          "type": "address"
        },
        {
          "internalType": "address",
          "name": "spender",
          "type": "address"
        },
        {
          "internalType": "uint256",
          "name": "value",
          "type": "uint256"
        },
        {
          "internalType": "uint256",
          "name": "deadline",
          "type": "uint256"
        },
        {
          "internalType": "uint8",
          "name": "v",
          "type": "uint8"
        },
        {
          "internalType": "bytes32",
          "name": "r",
          "type": "bytes32"
        },
        {
          "internalType": "bytes32",
          "name": "s",
          "type": "bytes32"
        }
      ],
      "name": "permit",
      "outputs": [],
      "stateMutability": "nonpayable",
      "type": "function"
    },
    {
      "inputs": [
        {
          "internalType": "address",
          "name": "to",
          "type": "address"
        },
        {
          "internalType": "uint256",
          "name": "value",
          "type": "uint256"
        }
      ],
      "name": "transfer",
      "outputs": [
        {
          "internalType": "bool",
          "name": "",
          "type": "bool"
        }
      ],
      "stateMutability": "nonpayable",
      "type": "function"
    },
    {
      "inputs": [
        {
          "internalType": "address",
          "name": "from",
          "type": "address"
        },
        {
          "internalType": "address",
          "name": "to",
          "type": "address"
        },
        {
          "internalType": "uint256",
          "name": "value",
          "type": "uint256"
        }
      ],
      "name": "transferFrom",
      "outputs": [
        {
          "internalType": "bool",
          "name": "",
          "type": "bool"
        }
      ],
      "stateMutability": "nonpayable",
      "type": "function"
    },
    {
      "inputs": [
        {
          "internalType": "address",
          "name": "to",
          "type": "address"
        },
        {
          "internalType": "uint256",
          "name": "value",
          "type": "uint256"
        },
        {
          "internalType": "bytes",
          "name": "data",
          "type": "bytes"
        }
      ],
      "name": "transferAndCall",
      "outputs": [
        {
          "internalType": "bool",
          "name": "",
          "type": "bool"
        }
      ],
      "stateMutability": "nonpayable",
      "type": "function"
    }
  ],
  "bytecode": "0x60c06040527f439148f0bbc682ca079e46d6e2c2f0c1e3b820f1a291b069d8882abf8cf18dd96080908152507f6e71edae12b1b97f4d1f60370fef10105fa2faae0126114a169c64845d6126c960a09081525034801561005e57600080fd5b5060805160a05161399661008c600039806118a952806134ab525080612000528061272f52506139966000f3fe60806040526004361061016a5760003560e01c806370a08231116100d1578063a9059cbb1161008a578063d0e30db011610064578063d0e30db014610b3a578063d505accf14610b44578063d9d98ce414610bea578063dd62ed3e14610c5957610223565b8063a9059cbb146109bf578063b760faf914610a30578063cae9ca5114610a7457610223565b806370a08231146107945780637ecebe00146107f95780638237e5381461085e5780638b28d32f146108895780639555a942146108b457806395d89b411461092f57610223565b806330adf81f1161012357806330adf81f1461047b578063313ce567146104a65780634000aea0146104d45780635cffe9de1461059a5780635ddb7d7e14610680578063613255ab1461072f57610223565b806306fdde0314610228578063095ea7b3146102b857806318160ddd14610329578063205c28781461035457806323b872dd146103af5780632e1a7d4d1461044057610223565b3661022357346000803373ffffffffffffffffffffffffffffffffffffffff1673ffffffffffffffffffffffffffffffffffffffff168152602001908152602001600020600082825401925050819055503373ffffffffffffffffffffffffffffffffffffffff16600073ffffffffffffffffffffffffffffffffffffffff167fddf252ad1be2c89b69c2b068fc378daa952ba7f163c4a11628f55a4df523b3ef346040518082815260200191505060405180910390a3005b600080fd5b34801561023457600080fd5b5061023d610cde565b6040518080602001828103825283818151815260200191508051906020019080838360005b8381101561027d578082015181840152602081019050610262565b50505050905090810190601f1680156102aa5780820380516001836020036101000a031916815260200191505b509250505060405180910390f35b3480156102c457600080fd5b50610311600480360360408110156102db57600080fd5b81019080803573ffffffffffffffffffffffffffffffffffffffff16906020019092919080359060200190929190505050610d17565b60405180821515815260200191505060405180910390f35b34801561033557600080fd5b5061033e610e09565b6040518082815260200191505060405180910390f35b34801561036057600080fd5b506103ad6004803603604081101561037757600080fd5b81019080803573ffffffffffffffffffffffffffffffffffffffff16906020019092919080359060200190929190505050610e15565b005b3480156103bb57600080fd5b50610428600480360360608110156103d257600080fd5b81019080803573ffffffffffffffffffffffffffffffffffffffff169060200190929190803573ffffffffffffffffffffffffffffffffffffffff1690602001909291908035906020019092919050505061103e565b60405180821515815260200191505060405180910390f35b34801561044c57600080fd5b506104796004803603602081101561046357600080fd5b810190808035906020019092919050505061167f565b005b34801561048757600080fd5b506104906118a7565b6040518082815260200191505060405180910390f35b3480156104b257600080fd5b506104bb6118cb565b604051808260ff16815260200191505060405180910390f35b3480156104e057600080fd5b50610582600480360360608110156104f757600080fd5b81019080803573ffffffffffffffffffffffffffffffffffffffff169060200190929190803590602001909291908035906020019064010000000081111561053e57600080fd5b82018360208201111561055057600080fd5b8035906020019184600183028401116401000000008311171561057257600080fd5b90919293919293905050506118d0565b60405180821515815260200191505060405180910390f35b3480156105a657600080fd5b50610668600480360360808110156105bd57600080fd5b81019080803573ffffffffffffffffffffffffffffffffffffffff169060200190929190803573ffffffffffffffffffffffffffffffffffffffff169060200190929190803590602001909291908035906020019064010000000081111561062457600080fd5b82018360208201111561063657600080fd5b8035906020019184600183028401116401000000008311171561065857600080fd5b9091929391929390505050611dad565b60405180821515815260200191505060405180910390f35b6107176004803603604081101561069657600080fd5b81019080803573ffffffffffffffffffffffffffffffffffffffff169060200190929190803590602001906401000000008111156106d357600080fd5b8201836020820111156106e557600080fd5b8035906020019184600183028401116401000000008311171561070757600080fd5b9091929391929390505050612507565b60405180821515815260200191505060405180910390f35b34801561073b57600080fd5b5061077e6004803603602081101561075257600080fd5b81019080803573ffffffffffffffffffffffffffffffffffffffff1690602001909291905050506126a4565b6040518082815260200191505060405180910390f35b3480156107a057600080fd5b506107e3600480360360208110156107b757600080fd5b81019080803573ffffffffffffffffffffffffffffffffffffffff1690602001909291905050506126fd565b6040518082815260200191505060405180910390f35b34801561080557600080fd5b506108486004803603602081101561081c57600080fd5b81019080803573ffffffffffffffffffffffffffffffffffffffff169060200190929190505050612715565b6040518082815260200191505060405180910390f35b34801561086a57600080fd5b5061087361272d565b6040518082815260200191505060405180910390f35b34801561089557600080fd5b5061089e612751565b6040518082815260200191505060405180910390f35b3480156108c057600080fd5b5061092d600480360360608110156108d757600080fd5b81019080803573ffffffffffffffffffffffffffffffffffffffff169060200190929190803573ffffffffffffffffffffffffffffffffffffffff16906020019092919080359060200190929190505050612757565b005b34801561093b57600080fd5b50610944612bc3565b6040518080602001828103825283818151815260200191508051906020019080838360005b83811015610984578082015181840152602081019050610969565b50505050905090810190601f1680156109b15780820380516001836020036101000a031916815260200191505b509250505060405180910390f35b3480156109cb57600080fd5b50610a18600480360360408110156109e257600080fd5b81019080803573ffffffffffffffffffffffffffffffffffffffff16906020019092919080359060200190929190505050612bfc565b60405180821515815260200191505060405180910390f35b610a7260048036036020811015610a4657600080fd5b81019080803573ffffffffffffffffffffffffffffffffffffffff169060200190929190505050612ff9565b005b348015610a8057600080fd5b50610b2260048036036060811015610a9757600080fd5b81019080803573ffffffffffffffffffffffffffffffffffffffff1690602001909291908035906020019092919080359060200190640100000000811115610ade57600080fd5b820183602082011115610af057600080fd5b80359060200191846001830284011164010000000083111715610b1257600080fd5b90919293919293905050506130ae565b60405180821515815260200191505060405180910390f35b610b4261327f565b005b348015610b5057600080fd5b50610be8600480360360e0811015610b6757600080fd5b81019080803573ffffffffffffffffffffffffffffffffffffffff169060200190929190803573ffffffffffffffffffffffffffffffffffffffff1690602001909291908035906020019092919080359060200190929190803560ff1690602001909291908035906020019092919080359060200190929190505050613333565b005b348015610bf657600080fd5b50610c4360048036036040811015610c0d57600080fd5b81019080803573ffffffffffffffffffffffffffffffffffffffff16906020019092919080359060200190929190505050613824565b6040518082815260200191505060405180910390f35b348015610c6557600080fd5b50610cc860048036036040811015610c7c57600080fd5b81019080803573ffffffffffffffffffffffffffffffffffffffff169060200190929190803573ffffffffffffffffffffffffffffffffffffffff1690602001909291905050506138d1565b6040518082815260200191505060405180910390f35b6040518060400160405280601181526020017f577261707065642045746865722076313000000000000000000000000000000081525081565b600081600260003373ffffffffffffffffffffffffffffffffffffffff1673ffffffffffffffffffffffffffffffffffffffff16815260200190815260200160002060008573ffffffffffffffffffffffffffffffffffffffff1673ffffffffffffffffffffffffffffffffffffffff168152602001908152602001600020819055508273ffffffffffffffffffffffffffffffffffffffff163373ffffffffffffffffffffffffffffffffffffffff167f8c5be1e5ebec7d5bd14f71427d1e84f3dd0314c0f7b2291e5b200ac8c7c3b925846040518082815260200191505060405180910390a36001905092915050565b60006003544701905090565b60008060003373ffffffffffffffffffffffffffffffffffffffff1673ffffffffffffffffffffffffffffffffffffffff16815260200190815260200160002054905081811015610eb1576040517f08c379a00000000000000000000000000000000000000000000000000000000081526004018080602001828103825260218152602001806139406021913960400191505060405180910390fd5b8181036000803373ffffffffffffffffffffffffffffffffffffffff1673ffffffffffffffffffffffffffffffffffffffff16815260200190815260200160002081905550600073ffffffffffffffffffffffffffffffffffffffff163373ffffffffffffffffffffffffffffffffffffffff167fddf252ad1be2c89b69c2b068fc378daa952ba7f163c4a11628f55a4df523b3ef846040518082815260200191505060405180910390a360008373ffffffffffffffffffffffffffffffffffffffff168360405180600001905060006040518083038185875af1925050503d8060008114610fbc576040519150601f19603f3d011682016040523d82523d6000602084013e610fc1565b606091505b5050905080611038576040517f08c379a00000000000000000000000000000000000000000000000000000000081526004018080602001828103825260198152602001807f574554483a20455448207472616e73666572206661696c65640000000000000081525060200191505060405180910390fd5b50505050565b60003373ffffffffffffffffffffffffffffffffffffffff168473ffffffffffffffffffffffffffffffffffffffff1614611282576000600260008673ffffffffffffffffffffffffffffffffffffffff1673ffffffffffffffffffffffffffffffffffffffff16815260200190815260200160002060003373ffffffffffffffffffffffffffffffffffffffff1673ffffffffffffffffffffffffffffffffffffffff1681526020019081526020016000205490507fffffffffffffffffffffffffffffffffffffffffffffffffffffffffffffffff81146112805782811015611191576040517f08c379a000000000000000000000000000000000000000000000000000000000815260040180806020018281038252601f8152602001807f574554483a2072657175657374206578636565647320616c6c6f77616e63650081525060200191505060405180910390fd5b6000838203905080600260008873ffffffffffffffffffffffffffffffffffffffff1673ffffffffffffffffffffffffffffffffffffffff16815260200190815260200160002060003373ffffffffffffffffffffffffffffffffffffffff1673ffffffffffffffffffffffffffffffffffffffff168152602001908152602001600020819055503373ffffffffffffffffffffffffffffffffffffffff168673ffffffffffffffffffffffffffffffffffffffff167f8c5be1e5ebec7d5bd14f71427d1e84f3dd0314c0f7b2291e5b200ac8c7c3b925836040518082815260200191505060405180910390a3505b505b600073ffffffffffffffffffffffffffffffffffffffff168373ffffffffffffffffffffffffffffffffffffffff161461144e5760008060008673ffffffffffffffffffffffffffffffffffffffff1673ffffffffffffffffffffffffffffffffffffffff16815260200190815260200160002054905082811015611352576040517f08c379a00000000000000000000000000000000000000000000000000000000081526004018080602001828103825260258152602001806138f76025913960400191505060405180910390fd5b8281036000808773ffffffffffffffffffffffffffffffffffffffff1673ffffffffffffffffffffffffffffffffffffffff16815260200190815260200160002081905550826000808673ffffffffffffffffffffffffffffffffffffffff1673ffffffffffffffffffffffffffffffffffffffff168152602001908152602001600020600082825401925050819055508373ffffffffffffffffffffffffffffffffffffffff168573ffffffffffffffffffffffffffffffffffffffff167fddf252ad1be2c89b69c2b068fc378daa952ba7f163c4a11628f55a4df523b3ef856040518082815260200191505060405180910390a350611674565b60008060008673ffffffffffffffffffffffffffffffffffffffff1673ffffffffffffffffffffffffffffffffffffffff168152602001908152602001600020549050828110156114ea576040517f08c379a00000000000000000000000000000000000000000000000000000000081526004018080602001828103825260218152602001806139406021913960400191505060405180910390fd5b8281036000808773ffffffffffffffffffffffffffffffffffffffff1673ffffffffffffffffffffffffffffffffffffffff16815260200190815260200160002081905550600073ffffffffffffffffffffffffffffffffffffffff168573ffffffffffffffffffffffffffffffffffffffff167fddf252ad1be2c89b69c2b068fc378daa952ba7f163c4a11628f55a4df523b3ef856040518082815260200191505060405180910390a360003373ffffffffffffffffffffffffffffffffffffffff168460405180600001905060006040518083038185875af1925050503d80600081146115f5576040519150601f19603f3d011682016040523d82523d6000602084013e6115fa565b606091505b5050905080611671576040517f08c379a00000000000000000000000000000000000000000000000000000000081526004018080602001828103825260198152602001807f574554483a20455448207472616e73666572206661696c65640000000000000081525060200191505060405180910390fd5b50505b600190509392505050565b60008060003373ffffffffffffffffffffffffffffffffffffffff1673ffffffffffffffffffffffffffffffffffffffff1681526020019081526020016000205490508181101561171b576040517f08c379a00000000000000000000000000000000000000000000000000000000081526004018080602001828103825260218152602001806139406021913960400191505060405180910390fd5b8181036000803373ffffffffffffffffffffffffffffffffffffffff1673ffffffffffffffffffffffffffffffffffffffff16815260200190815260200160002081905550600073ffffffffffffffffffffffffffffffffffffffff163373ffffffffffffffffffffffffffffffffffffffff167fddf252ad1be2c89b69c2b068fc378daa952ba7f163c4a11628f55a4df523b3ef846040518082815260200191505060405180910390a360003373ffffffffffffffffffffffffffffffffffffffff168360405180600001905060006040518083038185875af1925050503d8060008114611826576040519150601f19603f3d011682016040523d82523d6000602084013e61182b565b606091505b50509050806118a2576040517f08c379a00000000000000000000000000000000000000000000000000000000081526004018080602001828103825260198152602001807f574554483a20455448207472616e73666572206661696c65640000000000000081525060200191505060405180910390fd5b505050565b7f000000000000000000000000000000000000000000000000000000000000000081565b601281565b60008073ffffffffffffffffffffffffffffffffffffffff168573ffffffffffffffffffffffffffffffffffffffff1614611a9d5760008060003373ffffffffffffffffffffffffffffffffffffffff1673ffffffffffffffffffffffffffffffffffffffff168152602001908152602001600020549050848110156119a1576040517f08c379a00000000000000000000000000000000000000000000000000000000081526004018080602001828103825260258152602001806138f76025913960400191505060405180910390fd5b8481036000803373ffffffffffffffffffffffffffffffffffffffff1673ffffffffffffffffffffffffffffffffffffffff16815260200190815260200160002081905550846000808873ffffffffffffffffffffffffffffffffffffffff1673ffffffffffffffffffffffffffffffffffffffff168152602001908152602001600020600082825401925050819055508573ffffffffffffffffffffffffffffffffffffffff163373ffffffffffffffffffffffffffffffffffffffff167fddf252ad1be2c89b69c2b068fc378daa952ba7f163c4a11628f55a4df523b3ef876040518082815260200191505060405180910390a350611cc3565b60008060003373ffffffffffffffffffffffffffffffffffffffff1673ffffffffffffffffffffffffffffffffffffffff16815260200190815260200160002054905084811015611b39576040517f08c379a00000000000000000000000000000000000000000000000000000000081526004018080602001828103825260218152602001806139406021913960400191505060405180910390fd5b8481036000803373ffffffffffffffffffffffffffffffffffffffff1673ffffffffffffffffffffffffffffffffffffffff16815260200190815260200160002081905550600073ffffffffffffffffffffffffffffffffffffffff163373ffffffffffffffffffffffffffffffffffffffff167fddf252ad1be2c89b69c2b068fc378daa952ba7f163c4a11628f55a4df523b3ef876040518082815260200191505060405180910390a360003373ffffffffffffffffffffffffffffffffffffffff168660405180600001905060006040518083038185875af1925050503d8060008114611c44576040519150601f19603f3d011682016040523d82523d6000602084013e611c49565b606091505b5050905080611cc0576040517f08c379a00000000000000000000000000000000000000000000000000000000081526004018080602001828103825260198152602001807f574554483a20455448207472616e73666572206661696c65640000000000000081525060200191505060405180910390fd5b50505b8473ffffffffffffffffffffffffffffffffffffffff1663a4c0ed36338686866040518563ffffffff1660e01b8152600401808573ffffffffffffffffffffffffffffffffffffffff168152602001848152602001806020018281038252848482818152602001925080828437600081840152601f19601f82011690508083019250505095505050505050602060405180830381600087803b158015611d6857600080fd5b505af1158015611d7c573d6000803e3d6000fd5b505050506040513d6020811015611d9257600080fd5b81019080805190602001909291905050509050949350505050565b60003073ffffffffffffffffffffffffffffffffffffffff168573ffffffffffffffffffffffffffffffffffffffff1614611e50576040517f08c379a000000000000000000000000000000000000000000000000000000000815260040180806020018281038252601c8152602001807f574554483a20666c617368206d696e74206f6e6c79205745544831300000000081525060200191505060405180910390fd5b6dffffffffffffffffffffffffffff8016841115611eb9576040517f08c379a000000000000000000000000000000000000000000000000000000000815260040180806020018281038252602481526020018061391c6024913960400191505060405180910390fd5b83600354016003819055506dffffffffffffffffffffffffffff80166003541115611f4c576040517f08c379a000000000000000000000000000000000000000000000000000000000815260040180806020018281038252601f8152602001807f574554483a20746f74616c206c6f616e206c696d69742065786365656465640081525060200191505060405180910390fd5b836000808873ffffffffffffffffffffffffffffffffffffffff1673ffffffffffffffffffffffffffffffffffffffff168152602001908152602001600020600082825401925050819055508573ffffffffffffffffffffffffffffffffffffffff16600073ffffffffffffffffffffffffffffffffffffffff167fddf252ad1be2c89b69c2b068fc378daa952ba7f163c4a11628f55a4df523b3ef866040518082815260200191505060405180910390a37f00000000000000000000000000000000000000000000000000000000000000008673ffffffffffffffffffffffffffffffffffffffff166323e30c8b333088600089896040518763ffffffff1660e01b8152600401808773ffffffffffffffffffffffffffffffffffffffff1681526020018673ffffffffffffffffffffffffffffffffffffffff168152602001858152602001848152602001806020018281038252848482818152602001925080828437600081840152601f19601f820116905080830192505050975050505050505050602060405180830381600087803b1580156120eb57600080fd5b505af11580156120ff573d6000803e3d6000fd5b505050506040513d602081101561211557600080fd5b810190808051906020019092919050505014612199576040517f08c379a00000000000000000000000000000000000000000000000000000000081526004018080602001828103825260178152602001807f574554483a20666c617368206c6f616e206661696c656400000000000000000081525060200191505060405180910390fd5b6000600260008873ffffffffffffffffffffffffffffffffffffffff1673ffffffffffffffffffffffffffffffffffffffff16815260200190815260200160002060003073ffffffffffffffffffffffffffffffffffffffff1673ffffffffffffffffffffffffffffffffffffffff1681526020019081526020016000205490507fffffffffffffffffffffffffffffffffffffffffffffffffffffffffffffffff81146123a657848110156122b7576040517f08c379a000000000000000000000000000000000000000000000000000000000815260040180806020018281038252601f8152602001807f574554483a2072657175657374206578636565647320616c6c6f77616e63650081525060200191505060405180910390fd5b6000858203905080600260008a73ffffffffffffffffffffffffffffffffffffffff1673ffffffffffffffffffffffffffffffffffffffff16815260200190815260200160002060003073ffffffffffffffffffffffffffffffffffffffff1673ffffffffffffffffffffffffffffffffffffffff168152602001908152602001600020819055503073ffffffffffffffffffffffffffffffffffffffff168873ffffffffffffffffffffffffffffffffffffffff167f8c5be1e5ebec7d5bd14f71427d1e84f3dd0314c0f7b2291e5b200ac8c7c3b925836040518082815260200191505060405180910390a3505b60008060008973ffffffffffffffffffffffffffffffffffffffff1673ffffffffffffffffffffffffffffffffffffffff16815260200190815260200160002054905085811015612442576040517f08c379a00000000000000000000000000000000000000000000000000000000081526004018080602001828103825260218152602001806139406021913960400191505060405180910390fd5b8581036000808a73ffffffffffffffffffffffffffffffffffffffff1673ffffffffffffffffffffffffffffffffffffffff16815260200190815260200160002081905550600073ffffffffffffffffffffffffffffffffffffffff168873ffffffffffffffffffffffffffffffffffffffff167fddf252ad1be2c89b69c2b068fc378daa952ba7f163c4a11628f55a4df523b3ef886040518082815260200191505060405180910390a3856003540360038190555060019250505095945050505050565b6000346000808673ffffffffffffffffffffffffffffffffffffffff1673ffffffffffffffffffffffffffffffffffffffff168152602001908152602001600020600082825401925050819055508373ffffffffffffffffffffffffffffffffffffffff16600073ffffffffffffffffffffffffffffffffffffffff167fddf252ad1be2c89b69c2b068fc378daa952ba7f163c4a11628f55a4df523b3ef346040518082815260200191505060405180910390a38373ffffffffffffffffffffffffffffffffffffffff1663a4c0ed36333486866040518563ffffffff1660e01b8152600401808573ffffffffffffffffffffffffffffffffffffffff168152602001848152602001806020018281038252848482818152602001925080828437600081840152601f19601f82011690508083019250505095505050505050602060405180830381600087803b15801561266057600080fd5b505af1158015612674573d6000803e3d6000fd5b505050506040513d602081101561268a57600080fd5b810190808051906020019092919050505090509392505050565b60003073ffffffffffffffffffffffffffffffffffffffff168273ffffffffffffffffffffffffffffffffffffffff16146126e05760006126f6565b6003546dffffffffffffffffffffffffffff8016035b9050919050565b60006020528060005260406000206000915090505481565b60016020528060005260406000206000915090505481565b7f000000000000000000000000000000000000000000000000000000000000000081565b60035481565b3373ffffffffffffffffffffffffffffffffffffffff168373ffffffffffffffffffffffffffffffffffffffff1614612999576000600260008573ffffffffffffffffffffffffffffffffffffffff1673ffffffffffffffffffffffffffffffffffffffff16815260200190815260200160002060003373ffffffffffffffffffffffffffffffffffffffff1673ffffffffffffffffffffffffffffffffffffffff1681526020019081526020016000205490507fffffffffffffffffffffffffffffffffffffffffffffffffffffffffffffffff811461299757818110156128a8576040517f08c379a000000000000000000000000000000000000000000000000000000000815260040180806020018281038252601f8152602001807f574554483a2072657175657374206578636565647320616c6c6f77616e63650081525060200191505060405180910390fd5b6000828203905080600260008773ffffffffffffffffffffffffffffffffffffffff1673ffffffffffffffffffffffffffffffffffffffff16815260200190815260200160002060003373ffffffffffffffffffffffffffffffffffffffff1673ffffffffffffffffffffffffffffffffffffffff168152602001908152602001600020819055503373ffffffffffffffffffffffffffffffffffffffff168573ffffffffffffffffffffffffffffffffffffffff167f8c5be1e5ebec7d5bd14f71427d1e84f3dd0314c0f7b2291e5b200ac8c7c3b925836040518082815260200191505060405180910390a3505b505b60008060008573ffffffffffffffffffffffffffffffffffffffff1673ffffffffffffffffffffffffffffffffffffffff16815260200190815260200160002054905081811015612a35576040517f08c379a00000000000000000000000000000000000000000000000000000000081526004018080602001828103825260218152602001806139406021913960400191505060405180910390fd5b8181036000808673ffffffffffffffffffffffffffffffffffffffff1673ffffffffffffffffffffffffffffffffffffffff16815260200190815260200160002081905550600073ffffffffffffffffffffffffffffffffffffffff168473ffffffffffffffffffffffffffffffffffffffff167fddf252ad1be2c89b69c2b068fc378daa952ba7f163c4a11628f55a4df523b3ef846040518082815260200191505060405180910390a360008373ffffffffffffffffffffffffffffffffffffffff168360405180600001905060006040518083038185875af1925050503d8060008114612b40576040519150601f19603f3d011682016040523d82523d6000602084013e612b45565b606091505b5050905080612bbc576040517f08c379a000000000000000000000000000000000000000000000000000000000815260040180806020018281038252601b8152602001807f574554483a204574686572207472616e73666572206661696c6564000000000081525060200191505060405180910390fd5b5050505050565b6040518060400160405280600681526020017f574554483130000000000000000000000000000000000000000000000000000081525081565b60008073ffffffffffffffffffffffffffffffffffffffff168373ffffffffffffffffffffffffffffffffffffffff1614612dc95760008060003373ffffffffffffffffffffffffffffffffffffffff1673ffffffffffffffffffffffffffffffffffffffff16815260200190815260200160002054905082811015612ccd576040517f08c379a00000000000000000000000000000000000000000000000000000000081526004018080602001828103825260258152602001806138f76025913960400191505060405180910390fd5b8281036000803373ffffffffffffffffffffffffffffffffffffffff1673ffffffffffffffffffffffffffffffffffffffff16815260200190815260200160002081905550826000808673ffffffffffffffffffffffffffffffffffffffff1673ffffffffffffffffffffffffffffffffffffffff168152602001908152602001600020600082825401925050819055508373ffffffffffffffffffffffffffffffffffffffff163373ffffffffffffffffffffffffffffffffffffffff167fddf252ad1be2c89b69c2b068fc378daa952ba7f163c4a11628f55a4df523b3ef856040518082815260200191505060405180910390a350612fef565b60008060003373ffffffffffffffffffffffffffffffffffffffff1673ffffffffffffffffffffffffffffffffffffffff16815260200190815260200160002054905082811015612e65576040517f08c379a00000000000000000000000000000000000000000000000000000000081526004018080602001828103825260218152602001806139406021913960400191505060405180910390fd5b8281036000803373ffffffffffffffffffffffffffffffffffffffff1673ffffffffffffffffffffffffffffffffffffffff16815260200190815260200160002081905550600073ffffffffffffffffffffffffffffffffffffffff163373ffffffffffffffffffffffffffffffffffffffff167fddf252ad1be2c89b69c2b068fc378daa952ba7f163c4a11628f55a4df523b3ef856040518082815260200191505060405180910390a360003373ffffffffffffffffffffffffffffffffffffffff168460405180600001905060006040518083038185875af1925050503d8060008114612f70576040519150601f19603f3d011682016040523d82523d6000602084013e612f75565b606091505b5050905080612fec576040517f08c379a00000000000000000000000000000000000000000000000000000000081526004018080602001828103825260198152602001807f574554483a20455448207472616e73666572206661696c65640000000000000081525060200191505060405180910390fd5b50505b6001905092915050565b346000808373ffffffffffffffffffffffffffffffffffffffff1673ffffffffffffffffffffffffffffffffffffffff168152602001908152602001600020600082825401925050819055508073ffffffffffffffffffffffffffffffffffffffff16600073ffffffffffffffffffffffffffffffffffffffff167fddf252ad1be2c89b69c2b068fc378daa952ba7f163c4a11628f55a4df523b3ef346040518082815260200191505060405180910390a350565b600083600260003373ffffffffffffffffffffffffffffffffffffffff1673ffffffffffffffffffffffffffffffffffffffff16815260200190815260200160002060008773ffffffffffffffffffffffffffffffffffffffff1673ffffffffffffffffffffffffffffffffffffffff168152602001908152602001600020819055508473ffffffffffffffffffffffffffffffffffffffff163373ffffffffffffffffffffffffffffffffffffffff167f8c5be1e5ebec7d5bd14f71427d1e84f3dd0314c0f7b2291e5b200ac8c7c3b925866040518082815260200191505060405180910390a38473ffffffffffffffffffffffffffffffffffffffff1662ba451f338686866040518563ffffffff1660e01b8152600401808573ffffffffffffffffffffffffffffffffffffffff168152602001848152602001806020018281038252848482818152602001925080828437600081840152601f19601f82011690508083019250505095505050505050602060405180830381600087803b15801561323a57600080fd5b505af115801561324e573d6000803e3d6000fd5b505050506040513d602081101561326457600080fd5b81019080805190602001909291905050509050949350505050565b346000803373ffffffffffffffffffffffffffffffffffffffff1673ffffffffffffffffffffffffffffffffffffffff168152602001908152602001600020600082825401925050819055503373ffffffffffffffffffffffffffffffffffffffff16600073ffffffffffffffffffffffffffffffffffffffff167fddf252ad1be2c89b69c2b068fc378daa952ba7f163c4a11628f55a4df523b3ef346040518082815260200191505060405180910390a3565b834211156133a9576040517f08c379a00000000000000000000000000000000000000000000000000000000081526004018080602001828103825260148152602001807f574554483a2045787069726564207065726d697400000000000000000000000081525060200191505060405180910390fd5b600046905060007f8b73c3c69bb8fe3d512ecc4cf759cc79239f7b179b0ffacaa9a75d522b39400f6040518060400160405280601181526020017f5772617070656420457468657220763130000000000000000000000000000000815250805190602001206040518060400160405280600181526020017f3100000000000000000000000000000000000000000000000000000000000000815250805190602001208430604051602001808681526020018581526020018481526020018381526020018273ffffffffffffffffffffffffffffffffffffffff1681526020019550505050505060405160208183030381529060405280519060200120905060007f00000000000000000000000000000000000000000000000000000000000000008a8a8a600160008f73ffffffffffffffffffffffffffffffffffffffff1673ffffffffffffffffffffffffffffffffffffffff1681526020019081526020016000206000815480929190600101919050558b604051602001808781526020018673ffffffffffffffffffffffffffffffffffffffff1681526020018573ffffffffffffffffffffffffffffffffffffffff16815260200184815260200183815260200182815260200196505050505050506040516020818303038152906040528051906020012090506000828260405160200180807f190100000000000000000000000000000000000000000000000000000000000081525060020183815260200182815260200192505050604051602081830303815290604052805190602001209050600060018289898960405160008152602001604052604051808581526020018460ff1681526020018381526020018281526020019450505050506020604051602081039080840390855afa15801561364a573d6000803e3d6000fd5b505050602060405103519050600073ffffffffffffffffffffffffffffffffffffffff168173ffffffffffffffffffffffffffffffffffffffff16141580156136be57508b73ffffffffffffffffffffffffffffffffffffffff168173ffffffffffffffffffffffffffffffffffffffff16145b613730576040517f08c379a00000000000000000000000000000000000000000000000000000000081526004018080602001828103825260148152602001807f574554483a20696e76616c6964207065726d697400000000000000000000000081525060200191505060405180910390fd5b89600260008e73ffffffffffffffffffffffffffffffffffffffff1673ffffffffffffffffffffffffffffffffffffffff16815260200190815260200160002060008d73ffffffffffffffffffffffffffffffffffffffff1673ffffffffffffffffffffffffffffffffffffffff168152602001908152602001600020819055508a73ffffffffffffffffffffffffffffffffffffffff168c73ffffffffffffffffffffffffffffffffffffffff167f8c5be1e5ebec7d5bd14f71427d1e84f3dd0314c0f7b2291e5b200ac8c7c3b9258c6040518082815260200191505060405180910390a3505050505050505050505050565b60003073ffffffffffffffffffffffffffffffffffffffff168373ffffffffffffffffffffffffffffffffffffffff16146138c7576040517f08c379a000000000000000000000000000000000000000000000000000000000815260040180806020018281038252601c8152602001807f574554483a20666c617368206d696e74206f6e6c79205745544831300000000081525060200191505060405180910390fd5b6000905092915050565b600260205281600052604060002060205280600052604060002060009150915050548156fe574554483a207472616e7366657220616d6f756e7420657863656564732062616c616e6365574554483a20696e646976696475616c206c6f616e206c696d6974206578636565646564574554483a206275726e20616d6f756e7420657863656564732062616c616e6365a2646970667358221220b67448a000de56785165c24f5e5c3fffbea32f3e3393af83d5c16405c39ab16664736f6c63430007060033",
  "immutableReferences": {
    "3057": [
      {
        "length": 32,
        "start": 8192
      },
      {
        "length": 32,
        "start": 10031
      }
    ],
    "3062": [
      {
        "length": 32,
        "start": 6313
      },
      {
        "length": 32,
        "start": 13483
      }
    ]
  },
  "source": "// SPDX-License-Identifier: GPL-3.0-or-later\n// Copyright (C) 2015, 2016, 2017 Dapphub\n// Adapted by Ethereum Community 2020\npragma solidity 0.7.6;\nimport './openzeppelin/IERC20.sol';\n\ninterface IERC2612 {\n    /**\n     * @dev Sets `amount` as the allowance of `spender` over `owner`'s tokens,\n     * given `owner`'s signed approval.\n     *\n     * IMPORTANT: The same issues {IERC20-approve} has related to transaction\n     * ordering also apply here.\n     *\n     * Emits an {Approval} event.\n     *\n     * Requirements:\n     *\n     * - `owner` cannot be the zero address.\n     * - `spender` cannot be the zero address.\n     * - `deadline` must be a timestamp in the future.\n     * - `v`, `r` and `s` must be a valid `secp256k1` signature from `owner`\n     * over the EIP712-formatted function arguments.\n     * - the signature must use ``owner``'s current nonce (see {nonces}).\n     *\n     * For more information on the signature format, see the\n     * https://eips.ethereum.org/EIPS/eip-2612#specification[relevant EIP\n     * section].\n     */\n    function permit(address owner, address spender, uint256 amount, uint256 deadline, uint8 v, bytes32 r, bytes32 s) external;\n\n    /**\n     * @dev Returns the current ERC2612 nonce for `owner`. This value must be\n     * included whenever a signature is generated for {permit}.\n     *\n     * Every successful call to {permit} increases ``owner``'s nonce by one. This\n     * prevents a signature from being used multiple times.\n     */\n    function nonces(address owner) external view returns (uint256);\n}\n\ninterface IERC3156FlashBorrower {\n\n    /**\n     * @dev Receive a flash loan.\n     * @param initiator The initiator of the loan.\n     * @param token The loan currency.\n     * @param amount The amount of tokens lent.\n     * @param fee The additional amount of tokens to repay.\n     * @param data Arbitrary data structure, intended to contain user-defined parameters.\n     * @return The keccak256 hash of \"ERC3156FlashBorrower.onFlashLoan\"\n     */\n    function onFlashLoan(\n        address initiator,\n        address token,\n        uint256 amount,\n        uint256 fee,\n        bytes calldata data\n    ) external returns (bytes32);\n}\n\n\ninterface IERC3156FlashLender {\n\n    /**\n     * @dev The amount of currency available to be lended.\n     * @param token The loan currency.\n     * @return The amount of `token` that can be borrowed.\n     */\n    function maxFlashLoan(\n        address token\n    ) external view returns (uint256);\n\n    /**\n     * @dev The fee to be charged for a given loan.\n     * @param token The loan currency.\n     * @param amount The amount of tokens lent.\n     * @return The amount of `token` to be charged for the loan, on top of the returned principal.\n     */\n    function flashFee(\n        address token,\n        uint256 amount\n    ) external view returns (uint256);\n\n    /**\n     * @dev Initiate a flash loan.\n     * @param receiver The receiver of the tokens in the loan, and the receiver of the callback.\n     * @param token The loan currency.\n     * @param amount The amount of tokens lent.\n     * @param data Arbitrary data structure, intended to contain user-defined parameters.\n     */\n    function flashLoan(\n        IERC3156FlashBorrower receiver,\n        address token,\n        uint256 amount,\n        bytes calldata data\n    ) external returns (bool);\n}\n\n/// @dev Wrapped Ether v10 (WETH10) is an Ether (ETH) ERC-20 wrapper. You can `deposit` ETH and obtain an WETH10 balance which can then be operated as an ERC-20 token. You can\n/// `withdraw` ETH from WETH10, which will then burn WETH10 token in your wallet. The amount of WETH10 token in any wallet is always identical to the\n/// balance of ETH deposited minus the ETH withdrawn with that specific wallet.\ninterface IWETH10 is IERC20, IERC2612, IERC3156FlashLender {\n\n    /// @dev Returns current amount of flash-minted WETH10 token.\n    function flashMinted() external view returns(uint256);\n\n    /// @dev `msg.value` of ETH sent to this contract grants caller account a matching increase in WETH10 token balance.\n    /// Emits {Transfer} event to reflect WETH10 token mint of `msg.value` from zero address to caller account.\n    function deposit() external payable;\n\n    /// @dev `msg.value` of ETH sent to this contract grants `to` account a matching increase in WETH10 token balance.\n    /// Emits {Transfer} event to reflect WETH10 token mint of `msg.value` from zero address to `to` account.\n    function depositTo(address to) external payable;\n\n    /// @dev Burn `value` WETH10 token from caller account and withdraw matching ETH to the same.\n    /// Emits {Transfer} event to reflect WETH10 token burn of `value` to zero address from caller account. \n    /// Requirements:\n    ///   - caller account must have at least `value` balance of WETH10 token.\n    function withdraw(uint256 value) external;\n\n    /// @dev Burn `value` WETH10 token from caller account and withdraw matching ETH to account (`to`).\n    /// Emits {Transfer} event to reflect WETH10 token burn of `value` to zero address from caller account.\n    /// Requirements:\n    ///   - caller account must have at least `value` balance of WETH10 token.\n    function withdrawTo(address payable to, uint256 value) external;\n\n    /// @dev Burn `value` WETH10 token from account (`from`) and withdraw matching ETH to account (`to`).\n    /// Emits {Approval} event to reflect reduced allowance `value` for caller account to spend from account (`from`),\n    /// unless allowance is set to `type(uint256).max`\n    /// Emits {Transfer} event to reflect WETH10 token burn of `value` to zero address from account (`from`).\n    /// Requirements:\n    ///   - `from` account must have at least `value` balance of WETH10 token.\n    ///   - `from` account must have approved caller to spend at least `value` of WETH10 token, unless `from` and caller are the same account.\n    function withdrawFrom(address from, address payable to, uint256 value) external;\n\n    /// @dev `msg.value` of ETH sent to this contract grants `to` account a matching increase in WETH10 token balance,\n    /// after which a call is executed to an ERC677-compliant contract with the `data` parameter.\n    /// Emits {Transfer} event.\n    /// Returns boolean value indicating whether operation succeeded.\n    /// For more information on *transferAndCall* format, see https://github.com/ethereum/EIPs/issues/677.\n    function depositToAndCall(address to, bytes calldata data) external payable returns (bool);\n\n    /// @dev Sets `value` as allowance of `spender` account over caller account's WETH10 token,\n    /// after which a call is executed to an ERC677-compliant contract with the `data` parameter.\n    /// Emits {Approval} event.\n    /// Returns boolean value indicating whether operation succeeded.\n    /// For more information on approveAndCall format, see https://github.com/ethereum/EIPs/issues/677.\n    function approveAndCall(address spender, uint256 value, bytes calldata data) external returns (bool);\n\n    /// @dev Moves `value` WETH10 token from caller's account to account (`to`), \n    /// after which a call is executed to an ERC677-compliant contract with the `data` parameter.\n    /// A transfer to `address(0)` triggers an ETH withdraw matching the sent WETH10 token in favor of caller.\n    /// Emits {Transfer} event.\n    /// Returns boolean value indicating whether operation succeeded.\n    /// Requirements:\n    ///   - caller account must have at least `value` WETH10 token.\n    /// For more information on transferAndCall format, see https://github.com/ethereum/EIPs/issues/677.\n    function transferAndCall(address to, uint value, bytes calldata data) external returns (bool);\n}\n\ninterface ITransferReceiver {\n    function onTokenTransfer(address, uint, bytes calldata) external returns (bool);\n}\n\ninterface IApprovalReceiver {\n    function onTokenApproval(address, uint, bytes calldata) external returns (bool);\n}\n\n/// @dev Wrapped Ether v10 (WETH10) is an Ether (ETH) ERC-20 wrapper. You can `deposit` ETH and obtain an WETH10 balance which can then be operated as an ERC-20 token. You can\n/// `withdraw` ETH from WETH10, which will then burn WETH10 token in your wallet. The amount of WETH10 token in any wallet is always identical to the\n/// balance of ETH deposited minus the ETH withdrawn with that specific wallet.\ncontract WETH10 is IWETH10 {\n\n    string public constant name = \"Wrapped Ether v10\";\n    string public constant symbol = \"WETH10\";\n    uint8  public constant decimals = 18;\n\n    bytes32 public immutable CALLBACK_SUCCESS = keccak256(\"ERC3156FlashBorrower.onFlashLoan\");\n    bytes32 public immutable PERMIT_TYPEHASH = keccak256(\"Permit(address owner,address spender,uint256 value,uint256 nonce,uint256 deadline)\");\n\n    /// @dev Records amount of WETH10 token owned by account.\n    mapping (address => uint256) public override balanceOf;\n\n    /// @dev Records current ERC2612 nonce for account. This value must be included whenever signature is generated for {permit}.\n    /// Every successful call to {permit} increases account's nonce by one. This prevents signature from being used multiple times.\n    mapping (address => uint256) public override nonces;\n\n    /// @dev Records number of WETH10 token that account (second) will be allowed to spend on behalf of another account (first) through {transferFrom}.\n    mapping (address => mapping (address => uint256)) public override allowance;\n\n    /// @dev Current amount of flash-minted WETH10 token.\n    uint256 public override flashMinted;\n    \n    /// @dev Returns the total supply of WETH10 token as the ETH held in this contract.\n    function totalSupply() external view override returns(uint256) {\n        return address(this).balance + flashMinted;\n    }\n\n    /// @dev Fallback, `msg.value` of ETH sent to this contract grants caller account a matching increase in WETH10 token balance.\n    /// Emits {Transfer} event to reflect WETH10 token mint of `msg.value` from zero address to caller account.\n    receive() external payable {\n        // _mintTo(msg.sender, msg.value);\n        balanceOf[msg.sender] += msg.value;\n        emit Transfer(address(0), msg.sender, msg.value);\n    }\n\n    /// @dev `msg.value` of ETH sent to this contract grants caller account a matching increase in WETH10 token balance.\n    /// Emits {Transfer} event to reflect WETH10 token mint of `msg.value` from zero address to caller account.\n    function deposit() external override payable {\n        // _mintTo(msg.sender, msg.value);\n        balanceOf[msg.sender] += msg.value;\n        emit Transfer(address(0), msg.sender, msg.value);\n    }\n\n    /// @dev `msg.value` of ETH sent to this contract grants `to` account a matching increase in WETH10 token balance.\n    /// Emits {Transfer} event to reflect WETH10 token mint of `msg.value` from zero address to `to` account.\n    function depositTo(address to) external override payable {\n        // _mintTo(to, msg.value);\n        balanceOf[to] += msg.value;\n        emit Transfer(address(0), to, msg.value);\n    }\n\n    /// @dev `msg.value` of ETH sent to this contract grants `to` account a matching increase in WETH10 token balance,\n    /// after which a call is executed to an ERC677-compliant contract with the `data` parameter.\n    /// Emits {Transfer} event.\n    /// Returns boolean value indicating whether operation succeeded.\n    /// For more information on *transferAndCall* format, see https://github.com/ethereum/EIPs/issues/677.\n    function depositToAndCall(address to, bytes calldata data) external override payable returns (bool success) {\n        // _mintTo(to, msg.value);\n        balanceOf[to] += msg.value;\n        emit Transfer(address(0), to, msg.value);\n\n        return ITransferReceiver(to).onTokenTransfer(msg.sender, msg.value, data);\n    }\n\n    /// @dev Return the amount of WETH10 token that can be flash-lent.\n    function maxFlashLoan(address token) external view override returns (uint256) {\n        return token == address(this) ? type(uint112).max - flashMinted : 0; // Can't underflow\n    }\n\n    /// @dev Return the fee (zero) for flash-lending an amount of WETH10 token.\n    function flashFee(address token, uint256) external view override returns (uint256) {\n        require(token == address(this), \"WETH: flash mint only WETH10\");\n        return 0;\n    }\n\n    /// @dev Flash lends `value` WETH10 token to the receiver address.\n    /// By the end of the transaction, `value` WETH10 token will be burned from the receiver.\n    /// The flash-minted WETH10 token is not backed by real ETH, but can be withdrawn as such up to the ETH balance of this contract.\n    /// Arbitrary data can be passed as a bytes calldata parameter.\n    /// Emits {Approval} event to reflect reduced allowance `value` for this contract to spend from receiver account (`receiver`),\n    /// unless allowance is set to `type(uint256).max`\n    /// Emits two {Transfer} events for minting and burning of the flash-minted amount.\n    /// Returns boolean value indicating whether operation succeeded.\n    /// Requirements:\n    ///   - `value` must be less or equal to type(uint112).max.\n    ///   - The total of all flash loans in a tx must be less or equal to type(uint112).max.\n    function flashLoan(IERC3156FlashBorrower receiver, address token, uint256 value, bytes calldata data) external override returns(bool) {\n        require(token == address(this), \"WETH: flash mint only WETH10\");\n        require(value <= type(uint112).max, \"WETH: individual loan limit exceeded\");\n        flashMinted = flashMinted + value;\n        require(flashMinted <= type(uint112).max, \"WETH: total loan limit exceeded\");\n        \n        // _mintTo(address(receiver), value);\n        balanceOf[address(receiver)] += value;\n        emit Transfer(address(0), address(receiver), value);\n\n        require(\n            receiver.onFlashLoan(msg.sender, address(this), value, 0, data) == CALLBACK_SUCCESS,\n            \"WETH: flash loan failed\"\n        );\n        \n        // _decreaseAllowance(address(receiver), address(this), value);\n        uint256 allowed = allowance[address(receiver)][address(this)];\n        if (allowed != type(uint256).max) {\n            require(allowed >= value, \"WETH: request exceeds allowance\");\n            uint256 reduced = allowed - value;\n            allowance[address(receiver)][address(this)] = reduced;\n            emit Approval(address(receiver), address(this), reduced);\n        }\n\n        // _burnFrom(address(receiver), value);\n        uint256 balance = balanceOf[address(receiver)];\n        require(balance >= value, \"WETH: burn amount exceeds balance\");\n        balanceOf[address(receiver)] = balance - value;\n        emit Transfer(address(receiver), address(0), value);\n        \n        flashMinted = flashMinted - value;\n        return true;\n    }\n\n    /// @dev Burn `value` WETH10 token from caller account and withdraw matching ETH to the same.\n    /// Emits {Transfer} event to reflect WETH10 token burn of `value` to zero address from caller account. \n    /// Requirements:\n    ///   - caller account must have at least `value` balance of WETH10 token.\n    function withdraw(uint256 value) external override {\n        // _burnFrom(msg.sender, value);\n        uint256 balance = balanceOf[msg.sender];\n        require(balance >= value, \"WETH: burn amount exceeds balance\");\n        balanceOf[msg.sender] = balance - value;\n        emit Transfer(msg.sender, address(0), value);\n\n        // _transferEther(msg.sender, value);        \n        (bool success, ) = msg.sender.call{value: value}(\"\");\n        require(success, \"WETH: ETH transfer failed\");\n    }\n\n    /// @dev Burn `value` WETH10 token from caller account and withdraw matching ETH to account (`to`).\n    /// Emits {Transfer} event to reflect WETH10 token burn of `value` to zero address from caller account.\n    /// Requirements:\n    ///   - caller account must have at least `value` balance of WETH10 token.\n    function withdrawTo(address payable to, uint256 value) external override {\n        // _burnFrom(msg.sender, value);\n        uint256 balance = balanceOf[msg.sender];\n        require(balance >= value, \"WETH: burn amount exceeds balance\");\n        balanceOf[msg.sender] = balance - value;\n        emit Transfer(msg.sender, address(0), value);\n\n        // _transferEther(to, value);        \n        (bool success, ) = to.call{value: value}(\"\");\n        require(success, \"WETH: ETH transfer failed\");\n    }\n\n    /// @dev Burn `value` WETH10 token from account (`from`) and withdraw matching ETH to account (`to`).\n    /// Emits {Approval} event to reflect reduced allowance `value` for caller account to spend from account (`from`),\n    /// unless allowance is set to `type(uint256).max`\n    /// Emits {Transfer} event to reflect WETH10 token burn of `value` to zero address from account (`from`).\n    /// Requirements:\n    ///   - `from` account must have at least `value` balance of WETH10 token.\n    ///   - `from` account must have approved caller to spend at least `value` of WETH10 token, unless `from` and caller are the same account.\n    function withdrawFrom(address from, address payable to, uint256 value) external override {\n        if (from != msg.sender) {\n            // _decreaseAllowance(from, msg.sender, value);\n            uint256 allowed = allowance[from][msg.sender];\n            if (allowed != type(uint256).max) {\n                require(allowed >= value, \"WETH: request exceeds allowance\");\n                uint256 reduced = allowed - value;\n                allowance[from][msg.sender] = reduced;\n                emit Approval(from, msg.sender, reduced);\n            }\n        }\n        \n        // _burnFrom(from, value);\n        uint256 balance = balanceOf[from];\n        require(balance >= value, \"WETH: burn amount exceeds balance\");\n        balanceOf[from] = balance - value;\n        emit Transfer(from, address(0), value);\n\n        // _transferEther(to, value);        \n        (bool success, ) = to.call{value: value}(\"\");\n        require(success, \"WETH: Ether transfer failed\");\n    }\n\n    /// @dev Sets `value` as allowance of `spender` account over caller account's WETH10 token.\n    /// Emits {Approval} event.\n    /// Returns boolean value indicating whether operation succeeded.\n    function approve(address spender, uint256 value) external override returns (bool) {\n        // _approve(msg.sender, spender, value);\n        allowance[msg.sender][spender] = value;\n        emit Approval(msg.sender, spender, value);\n\n        return true;\n    }\n\n    /// @dev Sets `value` as allowance of `spender` account over caller account's WETH10 token,\n    /// after which a call is executed to an ERC677-compliant contract with the `data` parameter.\n    /// Emits {Approval} event.\n    /// Returns boolean value indicating whether operation succeeded.\n    /// For more information on approveAndCall format, see https://github.com/ethereum/EIPs/issues/677.\n    function approveAndCall(address spender, uint256 value, bytes calldata data) external override returns (bool) {\n        // _approve(msg.sender, spender, value);\n        allowance[msg.sender][spender] = value;\n        emit Approval(msg.sender, spender, value);\n        \n        return IApprovalReceiver(spender).onTokenApproval(msg.sender, value, data);\n    }\n\n    /// @dev Sets `value` as allowance of `spender` account over `owner` account's WETH10 token, given `owner` account's signed approval.\n    /// Emits {Approval} event.\n    /// Requirements:\n    ///   - `deadline` must be timestamp in future.\n    ///   - `v`, `r` and `s` must be valid `secp256k1` signature from `owner` account over EIP712-formatted function arguments.\n    ///   - the signature must use `owner` account's current nonce (see {nonces}).\n    ///   - the signer cannot be zero address and must be `owner` account.\n    /// For more information on signature format, see https://eips.ethereum.org/EIPS/eip-2612#specification[relevant EIP section].\n    /// WETH10 token implementation adapted from https://github.com/albertocuestacanada/ERC20Permit/blob/master/contracts/ERC20Permit.sol.\n    function permit(address owner, address spender, uint256 value, uint256 deadline, uint8 v, bytes32 r, bytes32 s) external override {\n        require(block.timestamp <= deadline, \"WETH: Expired permit\");\n\n        uint256 chainId;\n        assembly {chainId := chainid()}\n        bytes32 DOMAIN_SEPARATOR = keccak256(\n            abi.encode(\n                keccak256(\"EIP712Domain(string name,string version,uint256 chainId,address verifyingContract)\"),\n                keccak256(bytes(name)),\n                keccak256(bytes(\"1\")),\n                chainId,\n                address(this)));\n\n        bytes32 hashStruct = keccak256(\n            abi.encode(\n                PERMIT_TYPEHASH,\n                owner,\n                spender,\n                value,\n                nonces[owner]++,\n                deadline));\n\n        bytes32 hash = keccak256(\n            abi.encodePacked(\n                \"\\x19\\x01\",\n                DOMAIN_SEPARATOR,\n                hashStruct));\n\n        address signer = ecrecover(hash, v, r, s);\n        require(signer != address(0) && signer == owner, \"WETH: invalid permit\");\n\n        // _approve(owner, spender, value);\n        allowance[owner][spender] = value;\n        emit Approval(owner, spender, value);\n    }\n\n    /// @dev Moves `value` WETH10 token from caller's account to account (`to`).\n    /// A transfer to `address(0)` triggers an ETH withdraw matching the sent WETH10 token in favor of caller.\n    /// Emits {Transfer} event.\n    /// Returns boolean value indicating whether operation succeeded.\n    /// Requirements:\n    ///   - caller account must have at least `value` WETH10 token.\n    function transfer(address to, uint256 value) external override returns (bool) {\n        // _transferFrom(msg.sender, to, value);\n        if (to != address(0)) { // Transfer\n            uint256 balance = balanceOf[msg.sender];\n            require(balance >= value, \"WETH: transfer amount exceeds balance\");\n\n            balanceOf[msg.sender] = balance - value;\n            balanceOf[to] += value;\n            emit Transfer(msg.sender, to, value);\n        } else { // Withdraw\n            uint256 balance = balanceOf[msg.sender];\n            require(balance >= value, \"WETH: burn amount exceeds balance\");\n            balanceOf[msg.sender] = balance - value;\n            emit Transfer(msg.sender, address(0), value);\n            \n            (bool success, ) = msg.sender.call{value: value}(\"\");\n            require(success, \"WETH: ETH transfer failed\");\n        }\n        \n        return true;\n    }\n\n    /// @dev Moves `value` WETH10 token from account (`from`) to account (`to`) using allowance mechanism.\n    /// `value` is then deducted from caller account's allowance, unless set to `type(uint256).max`.\n    /// A transfer to `address(0)` triggers an ETH withdraw matching the sent WETH10 token in favor of caller.\n    /// Emits {Approval} event to reflect reduced allowance `value` for caller account to spend from account (`from`),\n    /// unless allowance is set to `type(uint256).max`\n    /// Emits {Transfer} event.\n    /// Returns boolean value indicating whether operation succeeded.\n    /// Requirements:\n    ///   - `from` account must have at least `value` balance of WETH10 token.\n    ///   - `from` account must have approved caller to spend at least `value` of WETH10 token, unless `from` and caller are the same account.\n    function transferFrom(address from, address to, uint256 value) external override returns (bool) {\n        if (from != msg.sender) {\n            // _decreaseAllowance(from, msg.sender, value);\n            uint256 allowed = allowance[from][msg.sender];\n            if (allowed != type(uint256).max) {\n                require(allowed >= value, \"WETH: request exceeds allowance\");\n                uint256 reduced = allowed - value;\n                allowance[from][msg.sender] = reduced;\n                emit Approval(from, msg.sender, reduced);\n            }\n        }\n        \n        // _transferFrom(from, to, value);\n        if (to != address(0)) { // Transfer\n            uint256 balance = balanceOf[from];\n            require(balance >= value, \"WETH: transfer amount exceeds balance\");\n\n            balanceOf[from] = balance - value;\n            balanceOf[to] += value;\n            emit Transfer(from, to, value);\n        } else { // Withdraw\n            uint256 balance = balanceOf[from];\n            require(balance >= value, \"WETH: burn amount exceeds balance\");\n            balanceOf[from] = balance - value;\n            emit Transfer(from, address(0), value);\n        \n            (bool success, ) = msg.sender.call{value: value}(\"\");\n            require(success, \"WETH: ETH transfer failed\");\n        }\n        \n        return true;\n    }\n\n    /// @dev Moves `value` WETH10 token from caller's account to account (`to`), \n    /// after which a call is executed to an ERC677-compliant contract with the `data` parameter.\n    /// A transfer to `address(0)` triggers an ETH withdraw matching the sent WETH10 token in favor of caller.\n    /// Emits {Transfer} event.\n    /// Returns boolean value indicating whether operation succeeded.\n    /// Requirements:\n    ///   - caller account must have at least `value` WETH10 token.\n    /// For more information on transferAndCall format, see https://github.com/ethereum/EIPs/issues/677.\n    function transferAndCall(address to, uint value, bytes calldata data) external override returns (bool) {\n        // _transferFrom(msg.sender, to, value);\n        if (to != address(0)) { // Transfer\n            uint256 balance = balanceOf[msg.sender];\n            require(balance >= value, \"WETH: transfer amount exceeds balance\");\n\n            balanceOf[msg.sender] = balance - value;\n            balanceOf[to] += value;\n            emit Transfer(msg.sender, to, value);\n        } else { // Withdraw\n            uint256 balance = balanceOf[msg.sender];\n            require(balance >= value, \"WETH: burn amount exceeds balance\");\n            balanceOf[msg.sender] = balance - value;\n            emit Transfer(msg.sender, address(0), value);\n        \n            (bool success, ) = msg.sender.call{value: value}(\"\");\n            require(success, \"WETH: ETH transfer failed\");\n        }\n\n        return ITransferReceiver(to).onTokenTransfer(msg.sender, value, data);\n    }\n}\n",
  "sourcePath": "/home/justin/weidai ecosystem/behodler2/contracts/WETH10.sol",
  "compiler": {
    "name": "solc",
    "version": "0.7.6+commit.7338295f.Emscripten.clang"
  },
  "schemaVersion": "3.3.3",
  "updatedAt": "2021-02-14T02:39:20.960Z",
  "networkType": "ethereum",
  "devdoc": {
    "details": "Wrapped Ether v10 (WETH10) is an Ether (ETH) ERC-20 wrapper. You can `deposit` ETH and obtain an WETH10 balance which can then be operated as an ERC-20 token. You can `withdraw` ETH from WETH10, which will then burn WETH10 token in your wallet. The amount of WETH10 token in any wallet is always identical to the balance of ETH deposited minus the ETH withdrawn with that specific wallet.",
    "kind": "dev",
    "methods": {
      "approve(address,uint256)": {
        "details": "Sets `value` as allowance of `spender` account over caller account's WETH10 token. Emits {Approval} event. Returns boolean value indicating whether operation succeeded."
      },
      "approveAndCall(address,uint256,bytes)": {
        "details": "Sets `value` as allowance of `spender` account over caller account's WETH10 token, after which a call is executed to an ERC677-compliant contract with the `data` parameter. Emits {Approval} event. Returns boolean value indicating whether operation succeeded. For more information on approveAndCall format, see https://github.com/ethereum/EIPs/issues/677."
      },
      "deposit()": {
        "details": "`msg.value` of ETH sent to this contract grants caller account a matching increase in WETH10 token balance. Emits {Transfer} event to reflect WETH10 token mint of `msg.value` from zero address to caller account."
      },
      "depositTo(address)": {
        "details": "`msg.value` of ETH sent to this contract grants `to` account a matching increase in WETH10 token balance. Emits {Transfer} event to reflect WETH10 token mint of `msg.value` from zero address to `to` account."
      },
      "depositToAndCall(address,bytes)": {
        "details": "`msg.value` of ETH sent to this contract grants `to` account a matching increase in WETH10 token balance, after which a call is executed to an ERC677-compliant contract with the `data` parameter. Emits {Transfer} event. Returns boolean value indicating whether operation succeeded. For more information on *transferAndCall* format, see https://github.com/ethereum/EIPs/issues/677."
      },
      "flashFee(address,uint256)": {
        "details": "Return the fee (zero) for flash-lending an amount of WETH10 token."
      },
      "flashLoan(address,address,uint256,bytes)": {
        "details": "Flash lends `value` WETH10 token to the receiver address. By the end of the transaction, `value` WETH10 token will be burned from the receiver. The flash-minted WETH10 token is not backed by real ETH, but can be withdrawn as such up to the ETH balance of this contract. Arbitrary data can be passed as a bytes calldata parameter. Emits {Approval} event to reflect reduced allowance `value` for this contract to spend from receiver account (`receiver`), unless allowance is set to `type(uint256).max` Emits two {Transfer} events for minting and burning of the flash-minted amount. Returns boolean value indicating whether operation succeeded. Requirements:   - `value` must be less or equal to type(uint112).max.   - The total of all flash loans in a tx must be less or equal to type(uint112).max."
      },
      "maxFlashLoan(address)": {
        "details": "Return the amount of WETH10 token that can be flash-lent."
      },
      "permit(address,address,uint256,uint256,uint8,bytes32,bytes32)": {
        "details": "Sets `value` as allowance of `spender` account over `owner` account's WETH10 token, given `owner` account's signed approval. Emits {Approval} event. Requirements:   - `deadline` must be timestamp in future.   - `v`, `r` and `s` must be valid `secp256k1` signature from `owner` account over EIP712-formatted function arguments.   - the signature must use `owner` account's current nonce (see {nonces}).   - the signer cannot be zero address and must be `owner` account. For more information on signature format, see https://eips.ethereum.org/EIPS/eip-2612#specification[relevant EIP section]. WETH10 token implementation adapted from https://github.com/albertocuestacanada/ERC20Permit/blob/master/contracts/ERC20Permit.sol."
      },
      "totalSupply()": {
        "details": "Returns the total supply of WETH10 token as the ETH held in this contract."
      },
      "transfer(address,uint256)": {
        "details": "Moves `value` WETH10 token from caller's account to account (`to`). A transfer to `address(0)` triggers an ETH withdraw matching the sent WETH10 token in favor of caller. Emits {Transfer} event. Returns boolean value indicating whether operation succeeded. Requirements:   - caller account must have at least `value` WETH10 token."
      },
      "transferAndCall(address,uint256,bytes)": {
        "details": "Moves `value` WETH10 token from caller's account to account (`to`),  after which a call is executed to an ERC677-compliant contract with the `data` parameter. A transfer to `address(0)` triggers an ETH withdraw matching the sent WETH10 token in favor of caller. Emits {Transfer} event. Returns boolean value indicating whether operation succeeded. Requirements:   - caller account must have at least `value` WETH10 token. For more information on transferAndCall format, see https://github.com/ethereum/EIPs/issues/677."
      },
      "transferFrom(address,address,uint256)": {
        "details": "Moves `value` WETH10 token from account (`from`) to account (`to`) using allowance mechanism. `value` is then deducted from caller account's allowance, unless set to `type(uint256).max`. A transfer to `address(0)` triggers an ETH withdraw matching the sent WETH10 token in favor of caller. Emits {Approval} event to reflect reduced allowance `value` for caller account to spend from account (`from`), unless allowance is set to `type(uint256).max` Emits {Transfer} event. Returns boolean value indicating whether operation succeeded. Requirements:   - `from` account must have at least `value` balance of WETH10 token.   - `from` account must have approved caller to spend at least `value` of WETH10 token, unless `from` and caller are the same account."
      },
      "withdraw(uint256)": {
        "details": "Burn `value` WETH10 token from caller account and withdraw matching ETH to the same. Emits {Transfer} event to reflect WETH10 token burn of `value` to zero address from caller account.  Requirements:   - caller account must have at least `value` balance of WETH10 token."
      },
      "withdrawFrom(address,address,uint256)": {
        "details": "Burn `value` WETH10 token from account (`from`) and withdraw matching ETH to account (`to`). Emits {Approval} event to reflect reduced allowance `value` for caller account to spend from account (`from`), unless allowance is set to `type(uint256).max` Emits {Transfer} event to reflect WETH10 token burn of `value` to zero address from account (`from`). Requirements:   - `from` account must have at least `value` balance of WETH10 token.   - `from` account must have approved caller to spend at least `value` of WETH10 token, unless `from` and caller are the same account."
      },
      "withdrawTo(address,uint256)": {
        "details": "Burn `value` WETH10 token from caller account and withdraw matching ETH to account (`to`). Emits {Transfer} event to reflect WETH10 token burn of `value` to zero address from caller account. Requirements:   - caller account must have at least `value` balance of WETH10 token."
      }
    },
    "stateVariables": {
      "allowance": {
        "details": "Records number of WETH10 token that account (second) will be allowed to spend on behalf of another account (first) through {transferFrom}."
      },
      "balanceOf": {
        "details": "Records amount of WETH10 token owned by account."
      },
      "flashMinted": {
        "details": "Current amount of flash-minted WETH10 token."
      },
      "nonces": {
        "details": "Records current ERC2612 nonce for account. This value must be included whenever signature is generated for {permit}. Every successful call to {permit} increases account's nonce by one. This prevents signature from being used multiple times."
      }
    },
    "version": 1
  },
  "userdoc": {
    "kind": "user",
    "methods": {},
    "version": 1
  }
}