{
  "contractName": "Celeborn",
  "abi": [
    {
      "anonymous": false,
      "inputs": [
        {
          "indexed": true,
          "internalType": "address",
          "name": "previousOwner",
          "type": "address"
        },
        {
          "indexed": true,
          "internalType": "address",
          "name": "newOwner",
          "type": "address"
        }
      ],
      "name": "OwnershipTransferred",
      "type": "event"
    },
    {
      "inputs": [],
      "name": "bronzeThreshold",
      "outputs": [
        {
          "internalType": "uint256",
          "name": "",
          "type": "uint256"
        }
      ],
      "stateMutability": "view",
      "type": "function",
      "constant": true
    },
    {
      "inputs": [],
      "name": "dai",
      "outputs": [
        {
          "internalType": "contract ERC20Like",
          "name": "",
          "type": "address"
        }
      ],
      "stateMutability": "view",
      "type": "function",
      "constant": true
    },
    {
      "inputs": [],
      "name": "goldThreshold",
      "outputs": [
        {
          "internalType": "uint256",
          "name": "",
          "type": "uint256"
        }
      ],
      "stateMutability": "view",
      "type": "function",
      "constant": true
    },
    {
      "inputs": [],
      "name": "maxBronze",
      "outputs": [
        {
          "internalType": "uint256",
          "name": "",
          "type": "uint256"
        }
      ],
      "stateMutability": "view",
      "type": "function",
      "constant": true
    },
    {
      "inputs": [],
      "name": "maxGold",
      "outputs": [
        {
          "internalType": "uint256",
          "name": "",
          "type": "uint256"
        }
      ],
      "stateMutability": "view",
      "type": "function",
      "constant": true
    },
    {
      "inputs": [],
      "name": "maxSilver",
      "outputs": [
        {
          "internalType": "uint256",
          "name": "",
          "type": "uint256"
        }
      ],
      "stateMutability": "view",
      "type": "function",
      "constant": true
    },
    {
      "inputs": [],
      "name": "owner",
      "outputs": [
        {
          "internalType": "address",
          "name": "",
          "type": "address"
        }
      ],
      "stateMutability": "view",
      "type": "function",
      "constant": true
    },
    {
      "inputs": [],
      "name": "renounceOwnership",
      "outputs": [],
      "stateMutability": "nonpayable",
      "type": "function"
    },
    {
      "inputs": [],
      "name": "rivulet",
      "outputs": [
        {
          "internalType": "contract RivuletLike",
          "name": "",
          "type": "address"
        }
      ],
      "stateMutability": "view",
      "type": "function",
      "constant": true
    },
    {
      "inputs": [],
      "name": "silverThreshold",
      "outputs": [
        {
          "internalType": "uint256",
          "name": "",
          "type": "uint256"
        }
      ],
      "stateMutability": "view",
      "type": "function",
      "constant": true
    },
    {
      "inputs": [
        {
          "internalType": "uint256",
          "name": "",
          "type": "uint256"
        }
      ],
      "name": "sponsors",
      "outputs": [
        {
          "internalType": "bytes32",
          "name": "companyName",
          "type": "bytes32"
        },
        {
          "internalType": "bytes32",
          "name": "logoURL",
          "type": "bytes32"
        },
        {
          "internalType": "bytes32",
          "name": "siteURL",
          "type": "bytes32"
        },
        {
          "internalType": "bytes",
          "name": "message",
          "type": "bytes"
        },
        {
          "internalType": "uint256",
          "name": "value",
          "type": "uint256"
        },
        {
          "internalType": "uint256",
          "name": "time",
          "type": "uint256"
        }
      ],
      "stateMutability": "view",
      "type": "function",
      "constant": true
    },
    {
      "inputs": [
        {
          "internalType": "address",
          "name": "newOwner",
          "type": "address"
        }
      ],
      "name": "transferOwnership",
      "outputs": [],
      "stateMutability": "nonpayable",
      "type": "function"
    },
    {
      "inputs": [
        {
          "internalType": "uint256",
          "name": "slot",
          "type": "uint256"
        },
        {
          "internalType": "uint256",
          "name": "value",
          "type": "uint256"
        },
        {
          "internalType": "bytes32",
          "name": "company",
          "type": "bytes32"
        },
        {
          "internalType": "bytes32",
          "name": "logo",
          "type": "bytes32"
        },
        {
          "internalType": "bytes32",
          "name": "siteURL",
          "type": "bytes32"
        },
        {
          "internalType": "bytes",
          "name": "message",
          "type": "bytes"
        }
      ],
      "name": "sponsor",
      "outputs": [],
      "stateMutability": "nonpayable",
      "type": "function"
    },
    {
      "inputs": [
        {
          "internalType": "address",
          "name": "r",
          "type": "address"
        },
        {
          "internalType": "address",
          "name": "d",
          "type": "address"
        }
      ],
      "name": "seed",
      "outputs": [],
      "stateMutability": "nonpayable",
      "type": "function"
    },
    {
      "inputs": [
        {
          "internalType": "uint256",
          "name": "g",
          "type": "uint256"
        },
        {
          "internalType": "uint256",
          "name": "s",
          "type": "uint256"
        },
        {
          "internalType": "uint256",
          "name": "b",
          "type": "uint256"
        },
        {
          "internalType": "uint256",
          "name": "m",
          "type": "uint256"
        }
      ],
      "name": "setMaxSponsorships",
      "outputs": [],
      "stateMutability": "nonpayable",
      "type": "function"
    },
    {
      "inputs": [
        {
          "internalType": "uint256",
          "name": "slot",
          "type": "uint256"
        },
        {
          "internalType": "uint256",
          "name": "field",
          "type": "uint256"
        }
      ],
      "name": "getSponsorshipData",
      "outputs": [
        {
          "internalType": "bytes",
          "name": "",
          "type": "bytes"
        }
      ],
      "stateMutability": "view",
      "type": "function",
      "constant": true
    }
  ],
  "bytecode": "0x608060405260016003556003600455600a60055568056bc75e2d631000006006556801158e460913d00000600755670de0b6b3a7640000600855611c20600955600061004f6100f260201b60201c565b9050806000806101000a81548173ffffffffffffffffffffffffffffffffffffffff021916908373ffffffffffffffffffffffffffffffffffffffff1602179055508073ffffffffffffffffffffffffffffffffffffffff16600073ffffffffffffffffffffffffffffffffffffffff167f8be0079c531659141344cd1fd0a4f28419497f9722a3daafe3b4186f6b6457e060405160405180910390a3506100fa565b600033905090565b611704806101096000396000f3fe608060405234801561001057600080fd5b50600436106101005760003560e01c8063a9c2577011610097578063f0f5cc0911610066578063f0f5cc0914610464578063f2fde38b14610482578063f4b9fa75146104c6578063f9ebd6511461051057610100565b8063a9c257701461032d578063b96a0b48146103de578063c6d410f9146103fc578063d4cd57f01461041a57610100565b806388b7379b116100d357806388b7379b146101af5780638da5cb5b146101cd5780638e3a66c71461021757806393066b4c1461026357610100565b8063289add0c146101055780635da736a7146101695780637033048814610187578063715018a6146101a5575b600080fd5b6101676004803603604081101561011b57600080fd5b81019080803573ffffffffffffffffffffffffffffffffffffffff169060200190929190803573ffffffffffffffffffffffffffffffffffffffff1690602001909291905050506105bb565b005b61017161080f565b6040518082815260200191505060405180910390f35b61018f610815565b6040518082815260200191505060405180910390f35b6101ad61081b565b005b6101b76109a3565b6040518082815260200191505060405180910390f35b6101d56109a9565b604051808273ffffffffffffffffffffffffffffffffffffffff1673ffffffffffffffffffffffffffffffffffffffff16815260200191505060405180910390f35b6102616004803603608081101561022d57600080fd5b81019080803590602001909291908035906020019092919080359060200190929190803590602001909291905050506109d2565b005b61028f6004803603602081101561027957600080fd5b8101908080359060200190929190505050610abd565b6040518087815260200186815260200185815260200180602001848152602001838152602001828103825285818151815260200191508051906020019080838360005b838110156102ed5780820151818401526020810190506102d2565b50505050905090810190601f16801561031a5780820380516001836020036101000a031916815260200191505b5097505050505050505060405180910390f35b6103636004803603604081101561034357600080fd5b810190808035906020019092919080359060200190929190505050610b94565b6040518080602001828103825283818151815260200191508051906020019080838360005b838110156103a3578082015181840152602081019050610388565b50505050905090810190601f1680156103d05780820380516001836020036101000a031916815260200191505b509250505060405180910390f35b6103e6610e60565b6040518082815260200191505060405180910390f35b610404610e66565b6040518082815260200191505060405180910390f35b610422610e6c565b604051808273ffffffffffffffffffffffffffffffffffffffff1673ffffffffffffffffffffffffffffffffffffffff16815260200191505060405180910390f35b61046c610e92565b6040518082815260200191505060405180910390f35b6104c46004803603602081101561049857600080fd5b81019080803573ffffffffffffffffffffffffffffffffffffffff169060200190929190505050610e98565b005b6104ce6110a5565b604051808273ffffffffffffffffffffffffffffffffffffffff1673ffffffffffffffffffffffffffffffffffffffff16815260200191505060405180910390f35b6105b9600480360360c081101561052657600080fd5b8101908080359060200190929190803590602001909291908035906020019092919080359060200190929190803590602001909291908035906020019064010000000081111561057557600080fd5b82018360208201111561058757600080fd5b803590602001918460018302840111640100000000831117156105a957600080fd5b90919293919293905050506110cb565b005b6105c361156e565b73ffffffffffffffffffffffffffffffffffffffff166000809054906101000a900473ffffffffffffffffffffffffffffffffffffffff1673ffffffffffffffffffffffffffffffffffffffff1614610684576040517f08c379a00000000000000000000000000000000000000000000000000000000081526004018080602001828103825260208152602001807f4f776e61626c653a2063616c6c6572206973206e6f7420746865206f776e657281525060200191505060405180910390fd5b81600160006101000a81548173ffffffffffffffffffffffffffffffffffffffff021916908373ffffffffffffffffffffffffffffffffffffffff16021790555080600260006101000a81548173ffffffffffffffffffffffffffffffffffffffff021916908373ffffffffffffffffffffffffffffffffffffffff160217905550600260009054906101000a900473ffffffffffffffffffffffffffffffffffffffff1673ffffffffffffffffffffffffffffffffffffffff1663095ea7b3837fffffffffffffffffffffffffffffffffffffffffffffffffffffffffffffffff6040518363ffffffff1660e01b8152600401808373ffffffffffffffffffffffffffffffffffffffff1673ffffffffffffffffffffffffffffffffffffffff16815260200182815260200192505050602060405180830381600087803b1580156107cf57600080fd5b505af11580156107e3573d6000803e3d6000fd5b505050506040513d60208110156107f957600080fd5b8101908080519060200190929190505050505050565b60085481565b60075481565b61082361156e565b73ffffffffffffffffffffffffffffffffffffffff166000809054906101000a900473ffffffffffffffffffffffffffffffffffffffff1673ffffffffffffffffffffffffffffffffffffffff16146108e4576040517f08c379a00000000000000000000000000000000000000000000000000000000081526004018080602001828103825260208152602001807f4f776e61626c653a2063616c6c6572206973206e6f7420746865206f776e657281525060200191505060405180910390fd5b600073ffffffffffffffffffffffffffffffffffffffff166000809054906101000a900473ffffffffffffffffffffffffffffffffffffffff1673ffffffffffffffffffffffffffffffffffffffff167f8be0079c531659141344cd1fd0a4f28419497f9722a3daafe3b4186f6b6457e060405160405180910390a360008060006101000a81548173ffffffffffffffffffffffffffffffffffffffff021916908373ffffffffffffffffffffffffffffffffffffffff160217905550565b60045481565b60008060009054906101000a900473ffffffffffffffffffffffffffffffffffffffff16905090565b6109da61156e565b73ffffffffffffffffffffffffffffffffffffffff166000809054906101000a900473ffffffffffffffffffffffffffffffffffffffff1673ffffffffffffffffffffffffffffffffffffffff1614610a9b576040517f08c379a00000000000000000000000000000000000000000000000000000000081526004018080602001828103825260208152602001807f4f776e61626c653a2063616c6c6572206973206e6f7420746865206f776e657281525060200191505060405180910390fd5b8360038190555082600481905550816005819055508060098190555050505050565b600a81600e8110610aca57fe5b60060201600091509050806000015490806001015490806002015490806003018054600181600116156101000203166002900480601f016020809104026020016040519081016040528092919081815260200182805460018160011615610100020316600290048015610b7e5780601f10610b5357610100808354040283529160200191610b7e565b820191906000526020600020905b815481529060010190602001808311610b6157829003601f168201915b5050505050908060040154908060050154905086565b606060055460045460035401018310610be4576040518060400160405280600c81526020017f494e56414c494420534c4f5400000000000000000000000000000000000000008152509050610e5a565b610bec611576565b600a84600e8110610bf957fe5b600602016040518060c0016040529081600082015481526020016001820154815260200160028201548152602001600382018054600181600116156101000203166002900480601f016020809104026020016040519081016040528092919081815260200182805460018160011615610100020316600290048015610cbf5780601f10610c9457610100808354040283529160200191610cbf565b820191906000526020600020905b815481529060010190602001808311610ca257829003601f168201915b50505050508152602001600482015481526020016005820154815250509050600080841415610cf45781600001519050610d2e565b6001841415610d095781602001519050610d2d565b6002841415610d1e5781604001519050610d2c565b816060015192505050610e5a565b5b5b600080905060008090505b6020811015610d9957600060f81b838260208110610d5357fe5b1a60f81b7effffffffffffffffffffffffffffffffffffffffffffffffffffffffffffff191614610d85576000610d8a565b600182015b91508080600101915050610d39565b5060208114610da85780610dab565b601f5b90506060816020036040519080825280601f01601f191660200182016040528015610de55781602001600182028038833980820191505090505b50905060008090505b82602003811015610e5157838160208110610e0557fe5b1a60f81b828281518110610e1557fe5b60200101907effffffffffffffffffffffffffffffffffffffffffffffffffffffffffffff1916908160001a9053508080600101915050610dee565b50809450505050505b92915050565b60055481565b60065481565b600160009054906101000a900473ffffffffffffffffffffffffffffffffffffffff1681565b60035481565b610ea061156e565b73ffffffffffffffffffffffffffffffffffffffff166000809054906101000a900473ffffffffffffffffffffffffffffffffffffffff1673ffffffffffffffffffffffffffffffffffffffff1614610f61576040517f08c379a00000000000000000000000000000000000000000000000000000000081526004018080602001828103825260208152602001807f4f776e61626c653a2063616c6c6572206973206e6f7420746865206f776e657281525060200191505060405180910390fd5b600073ffffffffffffffffffffffffffffffffffffffff168173ffffffffffffffffffffffffffffffffffffffff161415610fe7576040517f08c379a000000000000000000000000000000000000000000000000000000000815260040180806020018281038252602681526020018061165b6026913960400191505060405180910390fd5b8073ffffffffffffffffffffffffffffffffffffffff166000809054906101000a900473ffffffffffffffffffffffffffffffffffffffff1673ffffffffffffffffffffffffffffffffffffffff167f8be0079c531659141344cd1fd0a4f28419497f9722a3daafe3b4186f6b6457e060405160405180910390a3806000806101000a81548173ffffffffffffffffffffffffffffffffffffffff021916908373ffffffffffffffffffffffffffffffffffffffff16021790555050565b600260009054906101000a900473ffffffffffffffffffffffffffffffffffffffff1681565b608c828290501115611145576040517f08c379a000000000000000000000000000000000000000000000000000000000815260040180806020018281038252601c8152602001807f6d6178206d657373616765206c656e6774682065786365656465642e0000000081525060200191505060405180910390fd5b6008548610156111a0576040517f08c379a00000000000000000000000000000000000000000000000000000000081526004018080602001828103825260278152602001806116a86027913960400191505060405180910390fd5b6003546004546005540101871061121f576040517f08c379a00000000000000000000000000000000000000000000000000000000081526004018080602001828103825260138152602001807f696e76616c696420736c6f74206e756d6265720000000000000000000000000081525060200191505060405180910390fd5b60075486101580611231575060055487105b6112a3576040517f08c379a00000000000000000000000000000000000000000000000000000000081526004018080602001828103825260138152602001807f736c6f742d76616c7565206d69736d617463680000000000000000000000000081525060200191505060405180910390fd5b600654861015806112b957506004546005540187105b61132b576040517f08c379a00000000000000000000000000000000000000000000000000000000081526004018080602001828103825260138152602001807f736c6f742d76616c7565206d69736d617463680000000000000000000000000081525060200191505060405180910390fd5b611333611576565b82828080601f016020809104026020016040519081016040528093929190818152602001838380828437600081840152601f19601f820116905080830192505050505050508160600181905250428160a001818152505060075487106113a85785816000018181525050838160400181815250505b60065487106113bc57848160200181815250505b670de0b6b3a764000087816113cd57fe5b0460095402600a89600e81106113df57fe5b600602016005015442031161143f576040517f08c379a00000000000000000000000000000000000000000000000000000000081526004018080602001828103825260278152602001806116816027913960400191505060405180910390fd5b80600a89600e811061144d57fe5b60060201600082015181600001556020820151816001015560408201518160020155606082015181600301908051906020019061148b9291906115b5565b506080820151816004015560a08201518160050155905050600160009054906101000a900473ffffffffffffffffffffffffffffffffffffffff1673ffffffffffffffffffffffffffffffffffffffff16631e4acce133896040518363ffffffff1660e01b8152600401808373ffffffffffffffffffffffffffffffffffffffff1673ffffffffffffffffffffffffffffffffffffffff16815260200182815260200192505050600060405180830381600087803b15801561154c57600080fd5b505af1158015611560573d6000803e3d6000fd5b505050505050505050505050565b600033905090565b6040518060c001604052806000801916815260200160008019168152602001600080191681526020016060815260200160008152602001600081525090565b828054600181600116156101000203166002900490600052602060002090601f016020900481019282601f106115f657805160ff1916838001178555611624565b82800160010185558215611624579182015b82811115611623578251825591602001919060010190611608565b5b5090506116319190611635565b5090565b61165791905b8082111561165357600081600090555060010161163b565b5090565b9056fe4f776e61626c653a206e6577206f776e657220697320746865207a65726f206164647265737363757272656e742073706f6e736f722063616e277420626520646973706c61636564207965742e6d696e696d756d2073706f6e736f73686970207061796d656e74206e6f7420726561636865642ea26469706673582212200d5b1736c650cf70b1655b28a3e4af573072801618eb2e4ec757098ffcdba04364736f6c63430006020033",
  "source": "//SPDX-License-Identifier: MIT\npragma solidity ^0.6.2;\nimport \"./node_modules/@openzeppelin/contracts/access/Ownable.sol\";\nimport \"./facades/ScarcityLike.sol\";\nimport \"./facades/ERC20Like.sol\";\nimport \"./facades/RivuletLike.sol\";\nimport \"./node_modules/@openzeppelin/contracts/math/SafeMath.sol\";\n\n/**\n    Celeborn handles all sponsorships of Nimrodel in a trustless manner\n    For now, Celeborn retrieves resources using bitly as a go between.\n    When IPFS has an incentive layer, we can use it instead.\n */\n\ncontract Celeborn is Ownable {\n    RivuletLike public rivulet;\n    ERC20Like public dai;\n\n    uint256 public maxGold = 1;\n    uint256 public maxSilver = 3;\n    uint256 public maxBronze = 10;\n    uint256 public goldThreshold = 100 ether;\n    uint256 public silverThreshold = 20 ether;\n    uint256 public bronzeThreshold = 1 ether;\n    uint256 safetyDurationMultiplier = 2 hours;\n    uint256 constant ONE = 1 ether;\n\n    sponsorshipData[14] public sponsors;\n\n    function sponsor(\n        uint256 slot,\n        uint256 value,\n        bytes32 company,\n        bytes32 logo,\n        bytes32 siteURL,\n        bytes calldata message\n    ) external {\n        require(message.length <= 140, \"max message length exceeded.\");\n        require(\n            value >= bronzeThreshold,\n            \"minimum sponsoship payment not reached.\"\n        );\n        require(slot < maxBronze + maxSilver + maxGold, \"invalid slot number\");\n        require(value >= silverThreshold || slot < maxBronze, \"slot-value mismatch\");\n        require(value >= goldThreshold || slot < maxBronze + maxSilver, \"slot-value mismatch\");\n\n        sponsorshipData memory data;\n        data.message = message;\n        data.time = now; \n        \n        if (value >= silverThreshold) {\n            data.companyName = company;\n            data.siteURL = siteURL;\n        }\n        if (value >= goldThreshold) {\n            data.logoURL = logo;\n        }\n\n        require(\n            now - sponsors[slot].time >\n                safetyDurationMultiplier * (value / ONE),\n            \"current sponsor can't be displaced yet.\"\n        );\n\n        sponsors[slot] = data;\n        rivulet.celebrant(msg.sender, value);\n    }\n\n    function seed(address r, address d) public onlyOwner {\n        rivulet = RivuletLike(r);\n        dai = ERC20Like(d);\n        dai.approve(r, uint256(-1));\n    }\n\n    function setMaxSponsorships(\n        uint256 g,\n        uint256 s,\n        uint256 b,\n        uint256 m\n    ) public onlyOwner {\n        maxGold = g;\n        maxSilver = s;\n        maxBronze = b;\n        safetyDurationMultiplier = m;\n    }\n\n    function getSponsorshipData(uint256 slot, uint256 field)\n        external\n        view\n        returns (bytes memory)\n    {\n        if (slot >= maxGold + maxSilver + maxBronze) return \"INVALID SLOT\";\n        sponsorshipData memory data = sponsors[slot];\n\n        bytes32 dataToConvert;\n        if (field == 0) dataToConvert = data.companyName;\n        else if (field == 1) dataToConvert = data.logoURL;\n        else if (field == 2) dataToConvert = data.siteURL;\n        else return data.message;\n        uint256 spacePadding = 0;\n        for (uint256 i = 0; i < 32; i++) {\n            spacePadding = dataToConvert[i] == 0 ? spacePadding + 1 : 0;\n        }\n        spacePadding = spacePadding == 32 ? 31 : spacePadding;\n        bytes memory depaddedReturn = new bytes(32 - spacePadding);\n        for (uint256 i = 0; i < 32 - spacePadding; i++) {\n            depaddedReturn[i] = dataToConvert[i];\n        }\n        return depaddedReturn;\n    }\n}\n\nstruct sponsorshipData {\n    bytes32 companyName;\n    bytes32 logoURL;\n    bytes32 siteURL;\n    bytes message;\n    //fields for internal management\n    uint256 value;\n    uint256 time;\n}\n",
  "sourcePath": "/home/justin/weidai ecosystem/nimrodel/contracts/Celeborn.sol",
  "compiler": {
    "name": "solc",
    "version": "0.6.2+commit.bacdbe57.Emscripten.clang"
  },
  "schemaVersion": "3.1.0",
  "updatedAt": "2020-06-30T21:40:10.042Z",
  "networkType": "ethereum",
  "devdoc": {
    "methods": {
      "owner()": {
        "details": "Returns the address of the current owner."
      },
      "renounceOwnership()": {
        "details": "Leaves the contract without owner. It will not be possible to call `onlyOwner` functions anymore. Can only be called by the current owner.     * NOTE: Renouncing ownership will leave the contract without an owner, thereby removing any functionality that is only available to the owner."
      },
      "transferOwnership(address)": {
        "details": "Transfers ownership of the contract to a new account (`newOwner`). Can only be called by the current owner."
      }
    }
  },
  "userdoc": {
    "methods": {},
    "notice": "Celeborn handles all sponsorships of Nimrodel in a trustless manner For now, Celeborn retrieves resources using bitly as a go between. When IPFS has an incentive layer, we can use it instead."
  }
}