{
  "contractName": "Miruvor",
  "abi": [
    {
      "anonymous": false,
      "inputs": [
        {
          "indexed": true,
          "internalType": "address",
          "name": "previousOwner",
          "type": "address"
        },
        {
          "indexed": true,
          "internalType": "address",
          "name": "newOwner",
          "type": "address"
        }
      ],
      "name": "OwnershipTransferred",
      "type": "event"
    },
    {
      "inputs": [
        {
          "internalType": "address",
          "name": "",
          "type": "address"
        }
      ],
      "name": "SCXperToken",
      "outputs": [
        {
          "internalType": "uint256",
          "name": "",
          "type": "uint256"
        }
      ],
      "stateMutability": "view",
      "type": "function",
      "constant": true
    },
    {
      "inputs": [],
      "name": "behodler",
      "outputs": [
        {
          "internalType": "contract BehodlerLike",
          "name": "",
          "type": "address"
        }
      ],
      "stateMutability": "view",
      "type": "function",
      "constant": true
    },
    {
      "inputs": [],
      "name": "dai",
      "outputs": [
        {
          "internalType": "contract ERC20Like",
          "name": "",
          "type": "address"
        }
      ],
      "stateMutability": "view",
      "type": "function",
      "constant": true
    },
    {
      "inputs": [],
      "name": "discount",
      "outputs": [
        {
          "internalType": "uint256",
          "name": "",
          "type": "uint256"
        }
      ],
      "stateMutability": "view",
      "type": "function",
      "constant": true
    },
    {
      "inputs": [],
      "name": "janus",
      "outputs": [
        {
          "internalType": "contract JanusLike",
          "name": "",
          "type": "address"
        }
      ],
      "stateMutability": "view",
      "type": "function",
      "constant": true
    },
    {
      "inputs": [],
      "name": "lachesis",
      "outputs": [
        {
          "internalType": "contract LachesisLike",
          "name": "",
          "type": "address"
        }
      ],
      "stateMutability": "view",
      "type": "function",
      "constant": true
    },
    {
      "inputs": [],
      "name": "owner",
      "outputs": [
        {
          "internalType": "address",
          "name": "",
          "type": "address"
        }
      ],
      "stateMutability": "view",
      "type": "function",
      "constant": true
    },
    {
      "inputs": [],
      "name": "pyroTokenRegistry",
      "outputs": [
        {
          "internalType": "contract PyroTokenRegistryLike",
          "name": "",
          "type": "address"
        }
      ],
      "stateMutability": "view",
      "type": "function",
      "constant": true
    },
    {
      "inputs": [],
      "name": "renounceOwnership",
      "outputs": [],
      "stateMutability": "nonpayable",
      "type": "function"
    },
    {
      "inputs": [],
      "name": "scarcity",
      "outputs": [
        {
          "internalType": "contract ScarcityLike",
          "name": "",
          "type": "address"
        }
      ],
      "stateMutability": "view",
      "type": "function",
      "constant": true
    },
    {
      "inputs": [
        {
          "internalType": "address",
          "name": "newOwner",
          "type": "address"
        }
      ],
      "name": "transferOwnership",
      "outputs": [],
      "stateMutability": "nonpayable",
      "type": "function"
    },
    {
      "inputs": [],
      "name": "weiDai",
      "outputs": [
        {
          "internalType": "contract ERC20Like",
          "name": "",
          "type": "address"
        }
      ],
      "stateMutability": "view",
      "type": "function",
      "constant": true
    },
    {
      "inputs": [],
      "name": "weth",
      "outputs": [
        {
          "internalType": "contract WethLike",
          "name": "",
          "type": "address"
        }
      ],
      "stateMutability": "view",
      "type": "function",
      "constant": true
    },
    {
      "inputs": [
        {
          "internalType": "uint256",
          "name": "d",
          "type": "uint256"
        }
      ],
      "name": "setMarkup",
      "outputs": [],
      "stateMutability": "nonpayable",
      "type": "function"
    },
    {
      "inputs": [
        {
          "internalType": "address",
          "name": "scx",
          "type": "address"
        },
        {
          "internalType": "address",
          "name": "behodlerAddress",
          "type": "address"
        },
        {
          "internalType": "address",
          "name": "lachesisAddress",
          "type": "address"
        },
        {
          "internalType": "address",
          "name": "janusAddress",
          "type": "address"
        },
        {
          "internalType": "address",
          "name": "wethAddress",
          "type": "address"
        },
        {
          "internalType": "address",
          "name": "pTokenReg",
          "type": "address"
        },
        {
          "internalType": "address",
          "name": "daiAddress",
          "type": "address"
        },
        {
          "internalType": "address",
          "name": "weiDaiAddress",
          "type": "address"
        }
      ],
      "name": "seed",
      "outputs": [],
      "stateMutability": "nonpayable",
      "type": "function"
    },
    {
      "inputs": [
        {
          "internalType": "address",
          "name": "tokenAddress",
          "type": "address"
        }
      ],
      "name": "canDrink",
      "outputs": [
        {
          "internalType": "bool",
          "name": "",
          "type": "bool"
        }
      ],
      "stateMutability": "nonpayable",
      "type": "function"
    },
    {
      "inputs": [
        {
          "internalType": "address",
          "name": "tokenAddress",
          "type": "address"
        }
      ],
      "name": "refresh",
      "outputs": [],
      "stateMutability": "nonpayable",
      "type": "function"
    },
    {
      "inputs": [],
      "name": "drinkEth",
      "outputs": [],
      "stateMutability": "payable",
      "type": "function",
      "payable": true
    },
    {
      "inputs": [
        {
          "internalType": "address",
          "name": "tokenAddress",
          "type": "address"
        },
        {
          "internalType": "uint256",
          "name": "value",
          "type": "uint256"
        }
      ],
      "name": "drink",
      "outputs": [],
      "stateMutability": "nonpayable",
      "type": "function"
    },
    {
      "inputs": [
        {
          "internalType": "address",
          "name": "tokenAddress",
          "type": "address"
        }
      ],
      "name": "stopper",
      "outputs": [],
      "stateMutability": "nonpayable",
      "type": "function"
    },
    {
      "inputs": [],
      "name": "stopper",
      "outputs": [],
      "stateMutability": "payable",
      "type": "function",
      "payable": true
    },
    {
      "inputs": [
        {
          "internalType": "address",
          "name": "tokenAddress",
          "type": "address"
        },
        {
          "internalType": "uint256",
          "name": "scx",
          "type": "uint256"
        }
      ],
      "name": "calculateSCXperToken",
      "outputs": [
        {
          "internalType": "uint256",
          "name": "",
          "type": "uint256"
        }
      ],
      "stateMutability": "view",
      "type": "function",
      "constant": true
    }
  ],
  "bytecode": "0x6080604052610384600955600061001a6100bd60201b60201c565b9050806000806101000a81548173ffffffffffffffffffffffffffffffffffffffff021916908373ffffffffffffffffffffffffffffffffffffffff1602179055508073ffffffffffffffffffffffffffffffffffffffff16600073ffffffffffffffffffffffffffffffffffffffff167f8be0079c531659141344cd1fd0a4f28419497f9722a3daafe3b4186f6b6457e060405160405180910390a3506100c5565b600033905090565b612a51806100d46000396000f3fe6080604052600436106101345760003560e01c80638da5cb5b116100ab578063d1a767141161006f578063d1a76714146106df578063dc06770a146106e9578063e5b12cc014610740578063f2fde38b14610797578063f4b9fa75146107e8578063f89f322d1461083f57610134565b80638da5cb5b1461054f57806394a2b241146105a6578063ae13651f146105fd578063aeae66f214610607578063cfd2ce701461067657610134565b80636b86df0c116100fd5780636b86df0c146102ba5780636ffc219314610315578063715018a61461044757806376d19be11461045e5780637ce9e4bd146104af5780638b9789c91461051457610134565b8062b12034146101395780630afb0409146101905780632e0d7cbc146101e15780633fc8cef3146102385780636b6f4a9d1461028f575b600080fd5b34801561014557600080fd5b5061014e610896565b604051808273ffffffffffffffffffffffffffffffffffffffff1673ffffffffffffffffffffffffffffffffffffffff16815260200191505060405180910390f35b34801561019c57600080fd5b506101df600480360360208110156101b357600080fd5b81019080803573ffffffffffffffffffffffffffffffffffffffff1690602001909291905050506108bc565b005b3480156101ed57600080fd5b506101f6610a0d565b604051808273ffffffffffffffffffffffffffffffffffffffff1673ffffffffffffffffffffffffffffffffffffffff16815260200191505060405180910390f35b34801561024457600080fd5b5061024d610a33565b604051808273ffffffffffffffffffffffffffffffffffffffff1673ffffffffffffffffffffffffffffffffffffffff16815260200191505060405180910390f35b34801561029b57600080fd5b506102a4610a59565b6040518082815260200191505060405180910390f35b3480156102c657600080fd5b50610313600480360360408110156102dd57600080fd5b81019080803573ffffffffffffffffffffffffffffffffffffffff16906020019092919080359060200190929190505050610a5f565b005b34801561032157600080fd5b50610445600480360361010081101561033957600080fd5b81019080803573ffffffffffffffffffffffffffffffffffffffff169060200190929190803573ffffffffffffffffffffffffffffffffffffffff169060200190929190803573ffffffffffffffffffffffffffffffffffffffff169060200190929190803573ffffffffffffffffffffffffffffffffffffffff169060200190929190803573ffffffffffffffffffffffffffffffffffffffff169060200190929190803573ffffffffffffffffffffffffffffffffffffffff169060200190929190803573ffffffffffffffffffffffffffffffffffffffff169060200190929190803573ffffffffffffffffffffffffffffffffffffffff169060200190929190505050610a6e565b005b34801561045357600080fd5b5061045c610d49565b005b34801561046a57600080fd5b506104ad6004803603602081101561048157600080fd5b81019080803573ffffffffffffffffffffffffffffffffffffffff169060200190929190505050610ed1565b005b3480156104bb57600080fd5b506104fe600480360360208110156104d257600080fd5b81019080803573ffffffffffffffffffffffffffffffffffffffff16906020019092919050505061178e565b6040518082815260200191505060405180910390f35b34801561052057600080fd5b5061054d6004803603602081101561053757600080fd5b81019080803590602001909291905050506117a6565b005b34801561055b57600080fd5b506105646118f1565b604051808273ffffffffffffffffffffffffffffffffffffffff1673ffffffffffffffffffffffffffffffffffffffff16815260200191505060405180910390f35b3480156105b257600080fd5b506105bb61191a565b604051808273ffffffffffffffffffffffffffffffffffffffff1673ffffffffffffffffffffffffffffffffffffffff16815260200191505060405180910390f35b610605611940565b005b34801561061357600080fd5b506106606004803603604081101561062a57600080fd5b81019080803573ffffffffffffffffffffffffffffffffffffffff16906020019092919080359060200190929190505050611b4d565b6040518082815260200191505060405180910390f35b34801561068257600080fd5b506106c56004803603602081101561069957600080fd5b81019080803573ffffffffffffffffffffffffffffffffffffffff169060200190929190505050611c91565b604051808215151515815260200191505060405180910390f35b6106e7611dce565b005b3480156106f557600080fd5b506106fe61218f565b604051808273ffffffffffffffffffffffffffffffffffffffff1673ffffffffffffffffffffffffffffffffffffffff16815260200191505060405180910390f35b34801561074c57600080fd5b506107556121b5565b604051808273ffffffffffffffffffffffffffffffffffffffff1673ffffffffffffffffffffffffffffffffffffffff16815260200191505060405180910390f35b3480156107a357600080fd5b506107e6600480360360208110156107ba57600080fd5b81019080803573ffffffffffffffffffffffffffffffffffffffff1690602001909291905050506121db565b005b3480156107f457600080fd5b506107fd6123e8565b604051808273ffffffffffffffffffffffffffffffffffffffff1673ffffffffffffffffffffffffffffffffffffffff16815260200191505060405180910390f35b34801561084b57600080fd5b5061085461240e565b604051808273ffffffffffffffffffffffffffffffffffffffff1673ffffffffffffffffffffffffffffffffffffffff16815260200191505060405180910390f35b600860009054906101000a900473ffffffffffffffffffffffffffffffffffffffff1681565b6109c76103e86109b96009546109ab85600360009054906101000a900473ffffffffffffffffffffffffffffffffffffffff1673ffffffffffffffffffffffffffffffffffffffff166370a08231306040518263ffffffff1660e01b8152600401808273ffffffffffffffffffffffffffffffffffffffff1673ffffffffffffffffffffffffffffffffffffffff16815260200191505060206040518083038186803b15801561096b57600080fd5b505afa15801561097f573d6000803e3d6000fd5b505050506040513d602081101561099557600080fd5b8101908080519060200190929190505050611b4d565b61243490919063ffffffff16565b6124ba90919063ffffffff16565b600a60008373ffffffffffffffffffffffffffffffffffffffff1673ffffffffffffffffffffffffffffffffffffffff1681526020019081526020016000208190555050565b600360009054906101000a900473ffffffffffffffffffffffffffffffffffffffff1681565b600560009054906101000a900473ffffffffffffffffffffffffffffffffffffffff1681565b60095481565b610a6a828233612504565b5050565b610a766128b3565b73ffffffffffffffffffffffffffffffffffffffff166000809054906101000a900473ffffffffffffffffffffffffffffffffffffffff1673ffffffffffffffffffffffffffffffffffffffff1614610b37576040517f08c379a00000000000000000000000000000000000000000000000000000000081526004018080602001828103825260208152602001807f4f776e61626c653a2063616c6c6572206973206e6f7420746865206f776e657281525060200191505060405180910390fd5b85600160006101000a81548173ffffffffffffffffffffffffffffffffffffffff021916908373ffffffffffffffffffffffffffffffffffffffff16021790555087600360006101000a81548173ffffffffffffffffffffffffffffffffffffffff021916908373ffffffffffffffffffffffffffffffffffffffff16021790555086600260006101000a81548173ffffffffffffffffffffffffffffffffffffffff021916908373ffffffffffffffffffffffffffffffffffffffff16021790555084600460006101000a81548173ffffffffffffffffffffffffffffffffffffffff021916908373ffffffffffffffffffffffffffffffffffffffff16021790555083600560006101000a81548173ffffffffffffffffffffffffffffffffffffffff021916908373ffffffffffffffffffffffffffffffffffffffff16021790555082600660006101000a81548173ffffffffffffffffffffffffffffffffffffffff021916908373ffffffffffffffffffffffffffffffffffffffff16021790555081600760006101000a81548173ffffffffffffffffffffffffffffffffffffffff021916908373ffffffffffffffffffffffffffffffffffffffff16021790555080600860006101000a81548173ffffffffffffffffffffffffffffffffffffffff021916908373ffffffffffffffffffffffffffffffffffffffff1602179055505050505050505050565b610d516128b3565b73ffffffffffffffffffffffffffffffffffffffff166000809054906101000a900473ffffffffffffffffffffffffffffffffffffffff1673ffffffffffffffffffffffffffffffffffffffff1614610e12576040517f08c379a00000000000000000000000000000000000000000000000000000000081526004018080602001828103825260208152602001807f4f776e61626c653a2063616c6c6572206973206e6f7420746865206f776e657281525060200191505060405180910390fd5b600073ffffffffffffffffffffffffffffffffffffffff166000809054906101000a900473ffffffffffffffffffffffffffffffffffffffff1673ffffffffffffffffffffffffffffffffffffffff167f8be0079c531659141344cd1fd0a4f28419497f9722a3daafe3b4186f6b6457e060405160405180910390a360008060006101000a81548173ffffffffffffffffffffffffffffffffffffffff021916908373ffffffffffffffffffffffffffffffffffffffff160217905550565b600760009054906101000a900473ffffffffffffffffffffffffffffffffffffffff1673ffffffffffffffffffffffffffffffffffffffff168173ffffffffffffffffffffffffffffffffffffffff161480610f7a5750600860009054906101000a900473ffffffffffffffffffffffffffffffffffffffff1673ffffffffffffffffffffffffffffffffffffffff168173ffffffffffffffffffffffffffffffffffffffff16145b156113175760008173ffffffffffffffffffffffffffffffffffffffff166370a08231306040518263ffffffff1660e01b8152600401808273ffffffffffffffffffffffffffffffffffffffff1673ffffffffffffffffffffffffffffffffffffffff16815260200191505060206040518083038186803b158015610ffe57600080fd5b505afa158015611012573d6000803e3d6000fd5b505050506040513d602081101561102857600080fd5b810190808051906020019092919050505090508173ffffffffffffffffffffffffffffffffffffffff1663a9059cbb336064848161106257fe5b046040518363ffffffff1660e01b8152600401808373ffffffffffffffffffffffffffffffffffffffff1673ffffffffffffffffffffffffffffffffffffffff16815260200182815260200192505050602060405180830381600087803b1580156110cc57600080fd5b505af11580156110e0573d6000803e3d6000fd5b505050506040513d60208110156110f657600080fd5b81019080805190602001909291905050505060008273ffffffffffffffffffffffffffffffffffffffff166370a08231306040518263ffffffff1660e01b8152600401808273ffffffffffffffffffffffffffffffffffffffff1673ffffffffffffffffffffffffffffffffffffffff16815260200191505060206040518083038186803b15801561118757600080fd5b505afa15801561119b573d6000803e3d6000fd5b505050506040513d60208110156111b157600080fd5b81019080805190602001909291905050509050600460009054906101000a900473ffffffffffffffffffffffffffffffffffffffff1673ffffffffffffffffffffffffffffffffffffffff1663eec50be584600360009054906101000a900473ffffffffffffffffffffffffffffffffffffffff16846000806040518663ffffffff1660e01b8152600401808673ffffffffffffffffffffffffffffffffffffffff1673ffffffffffffffffffffffffffffffffffffffff1681526020018573ffffffffffffffffffffffffffffffffffffffff1673ffffffffffffffffffffffffffffffffffffffff16815260200184815260200183815260200182815260200195505050505050602060405180830381600087803b1580156112d457600080fd5b505af11580156112e8573d6000803e3d6000fd5b505050506040513d60208110156112fe57600080fd5b8101908080519060200190929190505050505050611782565b60008173ffffffffffffffffffffffffffffffffffffffff166370a08231306040518263ffffffff1660e01b8152600401808273ffffffffffffffffffffffffffffffffffffffff1673ffffffffffffffffffffffffffffffffffffffff16815260200191505060206040518083038186803b15801561139657600080fd5b505afa1580156113aa573d6000803e3d6000fd5b505050506040513d60208110156113c057600080fd5b810190808051906020019092919050505090506000600660009054906101000a900473ffffffffffffffffffffffffffffffffffffffff1673ffffffffffffffffffffffffffffffffffffffff1663268157b9846040518263ffffffff1660e01b8152600401808273ffffffffffffffffffffffffffffffffffffffff1673ffffffffffffffffffffffffffffffffffffffff168152602001915050602060405180830381600087803b15801561147657600080fd5b505af115801561148a573d6000803e3d6000fd5b505050506040513d60208110156114a057600080fd5b81019080805190602001909291905050509050600460009054906101000a900473ffffffffffffffffffffffffffffffffffffffff1673ffffffffffffffffffffffffffffffffffffffff1663eec50be584600360009054906101000a900473ffffffffffffffffffffffffffffffffffffffff16856000806040518663ffffffff1660e01b8152600401808673ffffffffffffffffffffffffffffffffffffffff1673ffffffffffffffffffffffffffffffffffffffff1681526020018573ffffffffffffffffffffffffffffffffffffffff1673ffffffffffffffffffffffffffffffffffffffff16815260200184815260200183815260200182815260200195505050505050602060405180830381600087803b1580156115c357600080fd5b505af11580156115d7573d6000803e3d6000fd5b505050506040513d60208110156115ed57600080fd5b81019080805190602001909291905050505060008173ffffffffffffffffffffffffffffffffffffffff166370a08231306040518263ffffffff1660e01b8152600401808273ffffffffffffffffffffffffffffffffffffffff1673ffffffffffffffffffffffffffffffffffffffff16815260200191505060206040518083038186803b15801561167e57600080fd5b505afa158015611692573d6000803e3d6000fd5b505050506040513d60208110156116a857600080fd5b810190808051906020019092919050505090508173ffffffffffffffffffffffffffffffffffffffff1663a9059cbb33836040518363ffffffff1660e01b8152600401808373ffffffffffffffffffffffffffffffffffffffff1673ffffffffffffffffffffffffffffffffffffffff16815260200182815260200192505050602060405180830381600087803b15801561174257600080fd5b505af1158015611756573d6000803e3d6000fd5b505050506040513d602081101561176c57600080fd5b8101908080519060200190929190505050505050505b61178b816108bc565b50565b600a6020528060005260406000206000915090505481565b6117ae6128b3565b73ffffffffffffffffffffffffffffffffffffffff166000809054906101000a900473ffffffffffffffffffffffffffffffffffffffff1673ffffffffffffffffffffffffffffffffffffffff161461186f576040517f08c379a00000000000000000000000000000000000000000000000000000000081526004018080602001828103825260208152602001807f4f776e61626c653a2063616c6c6572206973206e6f7420746865206f776e657281525060200191505060405180910390fd5b6103e88111156118e7576040517f08c379a000000000000000000000000000000000000000000000000000000000815260040180806020018281038252600a8152602001807f31303030203d3d3d20310000000000000000000000000000000000000000000081525060200191505060405180910390fd5b8060098190555050565b60008060009054906101000a900473ffffffffffffffffffffffffffffffffffffffff16905090565b600460009054906101000a900473ffffffffffffffffffffffffffffffffffffffff1681565b600034116119b6576040517f08c379a000000000000000000000000000000000000000000000000000000000815260040180806020018281038252600b8152602001807f6e6f206574682073656e7400000000000000000000000000000000000000000081525060200191505060405180910390fd5b600560009054906101000a900473ffffffffffffffffffffffffffffffffffffffff1673ffffffffffffffffffffffffffffffffffffffff1663d0e30db0346040518263ffffffff1660e01b81526004016000604051808303818588803b158015611a2057600080fd5b505af1158015611a34573d6000803e3d6000fd5b5050505050600560009054906101000a900473ffffffffffffffffffffffffffffffffffffffff1673ffffffffffffffffffffffffffffffffffffffff1663a9059cbb33346040518363ffffffff1660e01b8152600401808373ffffffffffffffffffffffffffffffffffffffff1673ffffffffffffffffffffffffffffffffffffffff16815260200182815260200192505050602060405180830381600087803b158015611ae257600080fd5b505af1158015611af6573d6000803e3d6000fd5b505050506040513d6020811015611b0c57600080fd5b810190808051906020019092919050505050611b4b600560009054906101000a900473ffffffffffffffffffffffffffffffffffffffff163433612504565b565b600080611c4f6002611c41600260009054906101000a900473ffffffffffffffffffffffffffffffffffffffff1673ffffffffffffffffffffffffffffffffffffffff1663c815d107886040518263ffffffff1660e01b8152600401808273ffffffffffffffffffffffffffffffffffffffff1673ffffffffffffffffffffffffffffffffffffffff16815260200191505060206040518083038186803b158015611bf757600080fd5b505afa158015611c0b573d6000803e3d6000fd5b505050506040513d6020811015611c2157600080fd5b81019080805190602001909291905050508661243490919063ffffffff16565b61243490919063ffffffff16565b611c58846128bb565b019050611c8881611c7a670de0b6b3a76400008661243490919063ffffffff16565b6124ba90919063ffffffff16565b91505092915050565b6000600160009054906101000a900473ffffffffffffffffffffffffffffffffffffffff1673ffffffffffffffffffffffffffffffffffffffff1663e4860339836040518263ffffffff1660e01b8152600401808273ffffffffffffffffffffffffffffffffffffffff1673ffffffffffffffffffffffffffffffffffffffff168152602001915050602060405180830381600087803b158015611d3457600080fd5b505af1158015611d48573d6000803e3d6000fd5b505050506040513d6020811015611d5e57600080fd5b81019080805190602001909291905050501580611dba57506000600a60008473ffffffffffffffffffffffffffffffffffffffff1673ffffffffffffffffffffffffffffffffffffffff16815260200190815260200160002054145b15611dc85760009050611dc9565b5b919050565b600460009054906101000a900473ffffffffffffffffffffffffffffffffffffffff1673ffffffffffffffffffffffffffffffffffffffff1663ef50108034600360009054906101000a900473ffffffffffffffffffffffffffffffffffffffff166000806040518563ffffffff1660e01b8152600401808473ffffffffffffffffffffffffffffffffffffffff1673ffffffffffffffffffffffffffffffffffffffff16815260200183815260200182815260200193505050506020604051808303818588803b158015611ea257600080fd5b505af1158015611eb6573d6000803e3d6000fd5b50505050506040513d6020811015611ecd57600080fd5b8101908080519060200190929190505050506000600660009054906101000a900473ffffffffffffffffffffffffffffffffffffffff1673ffffffffffffffffffffffffffffffffffffffff1663268157b9600560009054906101000a900473ffffffffffffffffffffffffffffffffffffffff166040518263ffffffff1660e01b8152600401808273ffffffffffffffffffffffffffffffffffffffff1673ffffffffffffffffffffffffffffffffffffffff168152602001915050602060405180830381600087803b158015611fa457600080fd5b505af1158015611fb8573d6000803e3d6000fd5b505050506040513d6020811015611fce57600080fd5b8101908080519060200190929190505050905060008173ffffffffffffffffffffffffffffffffffffffff166370a08231306040518263ffffffff1660e01b8152600401808273ffffffffffffffffffffffffffffffffffffffff1673ffffffffffffffffffffffffffffffffffffffff16815260200191505060206040518083038186803b15801561206057600080fd5b505afa158015612074573d6000803e3d6000fd5b505050506040513d602081101561208a57600080fd5b810190808051906020019092919050505090508173ffffffffffffffffffffffffffffffffffffffff1663a9059cbb33836040518363ffffffff1660e01b8152600401808373ffffffffffffffffffffffffffffffffffffffff1673ffffffffffffffffffffffffffffffffffffffff16815260200182815260200192505050602060405180830381600087803b15801561212457600080fd5b505af1158015612138573d6000803e3d6000fd5b505050506040513d602081101561214e57600080fd5b81019080805190602001909291905050505061218b600560009054906101000a900473ffffffffffffffffffffffffffffffffffffffff166108bc565b5050565b600160009054906101000a900473ffffffffffffffffffffffffffffffffffffffff1681565b600260009054906101000a900473ffffffffffffffffffffffffffffffffffffffff1681565b6121e36128b3565b73ffffffffffffffffffffffffffffffffffffffff166000809054906101000a900473ffffffffffffffffffffffffffffffffffffffff1673ffffffffffffffffffffffffffffffffffffffff16146122a4576040517f08c379a00000000000000000000000000000000000000000000000000000000081526004018080602001828103825260208152602001807f4f776e61626c653a2063616c6c6572206973206e6f7420746865206f776e657281525060200191505060405180910390fd5b600073ffffffffffffffffffffffffffffffffffffffff168173ffffffffffffffffffffffffffffffffffffffff16141561232a576040517f08c379a00000000000000000000000000000000000000000000000000000000081526004018080602001828103825260268152602001806129d56026913960400191505060405180910390fd5b8073ffffffffffffffffffffffffffffffffffffffff166000809054906101000a900473ffffffffffffffffffffffffffffffffffffffff1673ffffffffffffffffffffffffffffffffffffffff167f8be0079c531659141344cd1fd0a4f28419497f9722a3daafe3b4186f6b6457e060405160405180910390a3806000806101000a81548173ffffffffffffffffffffffffffffffffffffffff021916908373ffffffffffffffffffffffffffffffffffffffff16021790555050565b600760009054906101000a900473ffffffffffffffffffffffffffffffffffffffff1681565b600660009054906101000a900473ffffffffffffffffffffffffffffffffffffffff1681565b60008083141561244757600090506124b4565b600082840290508284828161245857fe5b04146124af576040517f08c379a00000000000000000000000000000000000000000000000000000000081526004018080602001828103825260218152602001806129fb6021913960400191505060405180910390fd5b809150505b92915050565b60006124fc83836040518060400160405280601a81526020017f536166654d6174683a206469766973696f6e206279207a65726f00000000000081525061290e565b905092915050565b61250d83611c91565b61257f576040517f08c379a000000000000000000000000000000000000000000000000000000000815260040180806020018281038252601e8152602001807f496e76616c696420746f6b656e2e205472792072656672657368696e672e000081525060200191505060405180910390fd5b60006125ed670de0b6b3a76400006125df85600a60008973ffffffffffffffffffffffffffffffffffffffff1673ffffffffffffffffffffffffffffffffffffffff1681526020019081526020016000205461243490919063ffffffff16565b6124ba90919063ffffffff16565b90508373ffffffffffffffffffffffffffffffffffffffff166323b872dd8330866040518463ffffffff1660e01b8152600401808473ffffffffffffffffffffffffffffffffffffffff1673ffffffffffffffffffffffffffffffffffffffff1681526020018373ffffffffffffffffffffffffffffffffffffffff1673ffffffffffffffffffffffffffffffffffffffff1681526020018281526020019350505050602060405180830381600087803b1580156126aa57600080fd5b505af11580156126be573d6000803e3d6000fd5b505050506040513d60208110156126d457600080fd5b8101908080519060200190929190505050612757576040517f08c379a00000000000000000000000000000000000000000000000000000000081526004018080602001828103825260158152602001807f746f6b656e207472616e73666572206661696c6564000000000000000000000081525060200191505060405180910390fd5b600360009054906101000a900473ffffffffffffffffffffffffffffffffffffffff1673ffffffffffffffffffffffffffffffffffffffff1663a9059cbb83836040518363ffffffff1660e01b8152600401808373ffffffffffffffffffffffffffffffffffffffff1673ffffffffffffffffffffffffffffffffffffffff16815260200182815260200192505050602060405180830381600087803b15801561280057600080fd5b505af1158015612814573d6000803e3d6000fd5b505050506040513d602081101561282a57600080fd5b81019080805190602001909291905050506128ad576040517f08c379a00000000000000000000000000000000000000000000000000000000081526004018080602001828103825260168152602001807f7363617263697479207061796f7574206661696c65640000000000000000000081525060200191505060405180910390fd5b50505050565b600033905090565b6000806128d1838461243490919063ffffffff16565b905082811015612904577f8000000000000000000000000000000000000000000000000000000000000000915050612909565b809150505b919050565b600080831182906129ba576040517f08c379a00000000000000000000000000000000000000000000000000000000081526004018080602001828103825283818151815260200191508051906020019080838360005b8381101561297f578082015181840152602081019050612964565b50505050905090810190601f1680156129ac5780820380516001836020036101000a031916815260200191505b509250505060405180910390fd5b5060008385816129c657fe5b04905080915050939250505056fe4f776e61626c653a206e6577206f776e657220697320746865207a65726f2061646472657373536166654d6174683a206d756c7469706c69636174696f6e206f766572666c6f77a2646970667358221220b444a62f00fd9c6f18f124a881a64e9710a7263b04494f184ef29bdbfbfd075c64736f6c63430006020033",
  "source": "pragma solidity ^0.6.2;\nimport \"./node_modules/@openzeppelin/contracts/access/Ownable.sol\";\nimport \"./node_modules/@openzeppelin/contracts/math/SafeMath.sol\";\nimport \"./facades/LachesisLike.sol\";\nimport \"./facades/ScarcityLike.sol\";\nimport \"./facades/BehodlerLike.sol\";\nimport \"./libraries/SafeOperations.sol\";\nimport \"./facades/ERC20Like.sol\";\nimport \"./facades/JanusLike.sol\";\nimport \"./facades/WethLike.sol\";\nimport \"./facades/PyroTokenRegistryLike.sol\";\n\n/*\n    Miruvor is a low gas alternative to buying Scarcity straight from Behodler\n    The price per unit is higher than on Behodler and the amount of Scarcity is limited.\n    When Scarcity is purchased, the contract by definition fills with trading tokens.\n    A top up function exists to flush the tokens by calling Behodler.buy(). Purchasing SCX\n    creates Pyrotokens. Instead of keeping them, the contract redeems them and pays them to caller to compensate for gas.\n    The markup should be set such that Miruvor profits, thereby growing the pool of SCX over time and being increasingly rewarding to end users.\n */\ncontract Miruvor is Ownable {\n    LachesisLike public lachesis;\n    BehodlerLike public behodler;\n    ScarcityLike public scarcity;\n    JanusLike public janus;\n    WethLike public weth;\n    PyroTokenRegistryLike public pyroTokenRegistry;\n    ERC20Like public dai;\n    ERC20Like public weiDai;\n    uint256 public discount = 900; // divide by 1000 to get multiplier. 900 = 0.9\n\n    using SafeMath for uint256;\n    using SafeOperations for uint256;\n\n    mapping(address => uint256) public SCXperToken; //SCALED BY ONE\n\n    uint256 constant ONE = 1 ether;\n    uint256 constant factor = 128;\n\n    function setMarkup(uint256 d) public onlyOwner {\n        require(d <= 1000, \"1000 === 1\");\n        discount = d;\n    }\n\n    function seed(\n        address scx,\n        address behodlerAddress,\n        address lachesisAddress,\n        address janusAddress,\n        address wethAddress,\n        address pTokenReg,\n        address daiAddress,\n        address weiDaiAddress\n    ) public onlyOwner {\n        lachesis = LachesisLike(lachesisAddress);\n        scarcity = ScarcityLike(scx);\n        behodler = BehodlerLike(behodlerAddress);\n        janus = JanusLike(janusAddress);\n        weth = WethLike(wethAddress);\n        pyroTokenRegistry = PyroTokenRegistryLike(pTokenReg);\n        dai = ERC20Like(daiAddress);\n        weiDai = ERC20Like(weiDaiAddress);\n    }\n\n    function canDrink(address tokenAddress) public returns (bool) {\n        if (!lachesis.tokens(tokenAddress) || SCXperToken[tokenAddress] == 0)\n            return false;\n    }\n\n    function refresh(address tokenAddress) public {\n        SCXperToken[tokenAddress] = calculateSCXperToken(\n            tokenAddress,\n            scarcity.balanceOf(address(this))\n        )\n            .mul(discount)\n            .div(1000);\n    }\n\n    //purchases SCX with token\n    function drink(address tokenAddress, uint256 value) public {\n        drink(tokenAddress, value, msg.sender);\n    }\n\n    //user enables weth for Miruvor\n    function drinkEth() public payable {\n        require(msg.value > 0, \"no eth sent\");\n        weth.deposit.value(msg.value)();\n        weth.transfer(msg.sender, msg.value);\n        drink(address(weth), msg.value, msg.sender);\n    }\n\n    function drink(\n        address tokenAddress,\n        uint256 value,\n        address sender\n    ) private {\n        require(canDrink(tokenAddress), \"Invalid token. Try refreshing.\");\n        uint256 scx = SCXperToken[tokenAddress].mul(value).div(ONE);\n        require(\n            ERC20Like(tokenAddress).transferFrom(sender, address(this), value),\n            \"token transfer failed\"\n        );\n        require(scarcity.transfer(sender, scx), \"scarcity payout failed\");\n    }\n\n    function stopper() public payable {\n        janus.ethToToken{value: msg.value}(address(scarcity), 0, 0);\n        ERC20Like pToken = ERC20Like(\n            pyroTokenRegistry.baseTokenMapping(address(weth))\n        );\n        uint256 pbalance = pToken.balanceOf(address(this));\n        pToken.transfer(msg.sender, pbalance);\n        refresh(address(weth));\n    }\n\n    //flushes the token balance into Behodler, pays caller fee\n    function stopper(address tokenAddress) public {\n        if (tokenAddress == address(dai) || tokenAddress == address(weiDai)) {\n            uint256 tokenBalanceBefore = ERC20Like(tokenAddress).balanceOf(\n                address(this)\n            );\n            ERC20Like(tokenAddress).transfer(\n                msg.sender,\n                tokenBalanceBefore / 100\n            );\n            uint256 tokenBalanceAfter = ERC20Like(tokenAddress).balanceOf(\n                address(this)\n            );\n            janus.tokenToToken(\n                tokenAddress,\n                address(scarcity),\n                tokenBalanceAfter,\n                0,\n                0\n            );\n        } else {\n            uint256 tokenBalance = ERC20Like(tokenAddress).balanceOf(\n                address(this)\n            );\n            ERC20Like pToken = ERC20Like(\n                pyroTokenRegistry.baseTokenMapping(tokenAddress)\n            );\n            janus.tokenToToken(\n                tokenAddress,\n                address(scarcity),\n                tokenBalance,\n                0,\n                0\n            );\n            uint256 pbalance = pToken.balanceOf(address(this));\n            pToken.transfer(msg.sender, pbalance);\n        }\n        refresh(tokenAddress);\n    }\n\n    //Given a level of SCX, how many tokens are required to generate it\n    function calculateSCXperToken(address tokenAddress, uint256 scx)\n        public\n        view\n        returns (uint256)\n    {\n        uint256 tokensToPurchaseWith = scx.square() +\n            scx.mul(behodler.tokenScarcityObligations(tokenAddress)).mul(2);\n        return scx.mul(ONE).div(tokensToPurchaseWith);\n    }\n}\n",
  "sourcePath": "/home/justin/weidai ecosystem/nimrodel/contracts/Miruvor.sol",
  "compiler": {
    "name": "solc",
    "version": "0.6.2+commit.bacdbe57.Emscripten.clang"
  },
  "schemaVersion": "3.1.0",
  "updatedAt": "2020-06-30T21:40:10.050Z",
  "networkType": "ethereum",
  "devdoc": {
    "methods": {
      "owner()": {
        "details": "Returns the address of the current owner."
      },
      "renounceOwnership()": {
        "details": "Leaves the contract without owner. It will not be possible to call `onlyOwner` functions anymore. Can only be called by the current owner.     * NOTE: Renouncing ownership will leave the contract without an owner, thereby removing any functionality that is only available to the owner."
      },
      "transferOwnership(address)": {
        "details": "Transfers ownership of the contract to a new account (`newOwner`). Can only be called by the current owner."
      }
    }
  },
  "userdoc": {
    "methods": {}
  }
}