{
  "contractName": "Rivulet",
  "abi": [
    {
      "inputs": [],
      "stateMutability": "nonpayable",
      "type": "constructor"
    },
    {
      "anonymous": false,
      "inputs": [
        {
          "indexed": true,
          "internalType": "address",
          "name": "previousOwner",
          "type": "address"
        },
        {
          "indexed": true,
          "internalType": "address",
          "name": "newOwner",
          "type": "address"
        }
      ],
      "name": "OwnershipTransferred",
      "type": "event"
    },
    {
      "inputs": [],
      "name": "burnMultiple",
      "outputs": [
        {
          "internalType": "uint256",
          "name": "",
          "type": "uint256"
        }
      ],
      "stateMutability": "view",
      "type": "function",
      "constant": true
    },
    {
      "inputs": [],
      "name": "celeborn",
      "outputs": [
        {
          "internalType": "address",
          "name": "",
          "type": "address"
        }
      ],
      "stateMutability": "view",
      "type": "function",
      "constant": true
    },
    {
      "inputs": [],
      "name": "dai",
      "outputs": [
        {
          "internalType": "contract ERC20Like",
          "name": "",
          "type": "address"
        }
      ],
      "stateMutability": "view",
      "type": "function",
      "constant": true
    },
    {
      "inputs": [],
      "name": "damHeight",
      "outputs": [
        {
          "internalType": "uint256",
          "name": "",
          "type": "uint256"
        }
      ],
      "stateMutability": "view",
      "type": "function",
      "constant": true
    },
    {
      "inputs": [
        {
          "internalType": "address",
          "name": "",
          "type": "address"
        }
      ],
      "name": "damHeightAtJoin",
      "outputs": [
        {
          "internalType": "uint256",
          "name": "",
          "type": "uint256"
        }
      ],
      "stateMutability": "view",
      "type": "function",
      "constant": true
    },
    {
      "inputs": [],
      "name": "initialDai",
      "outputs": [
        {
          "internalType": "uint256",
          "name": "",
          "type": "uint256"
        }
      ],
      "stateMutability": "view",
      "type": "function",
      "constant": true
    },
    {
      "inputs": [],
      "name": "maxTickets",
      "outputs": [
        {
          "internalType": "uint256",
          "name": "",
          "type": "uint256"
        }
      ],
      "stateMutability": "view",
      "type": "function",
      "constant": true
    },
    {
      "inputs": [],
      "name": "owner",
      "outputs": [
        {
          "internalType": "address",
          "name": "",
          "type": "address"
        }
      ],
      "stateMutability": "view",
      "type": "function",
      "constant": true
    },
    {
      "inputs": [
        {
          "internalType": "address",
          "name": "",
          "type": "address"
        }
      ],
      "name": "ponds",
      "outputs": [
        {
          "internalType": "uint256",
          "name": "",
          "type": "uint256"
        }
      ],
      "stateMutability": "view",
      "type": "function",
      "constant": true
    },
    {
      "inputs": [],
      "name": "renounceOwnership",
      "outputs": [],
      "stateMutability": "nonpayable",
      "type": "function"
    },
    {
      "inputs": [],
      "name": "scarcity",
      "outputs": [
        {
          "internalType": "contract ScarcityLike",
          "name": "",
          "type": "address"
        }
      ],
      "stateMutability": "view",
      "type": "function",
      "constant": true
    },
    {
      "inputs": [
        {
          "internalType": "address",
          "name": "",
          "type": "address"
        }
      ],
      "name": "scxMultiple",
      "outputs": [
        {
          "internalType": "uint256",
          "name": "",
          "type": "uint256"
        }
      ],
      "stateMutability": "view",
      "type": "function",
      "constant": true
    },
    {
      "inputs": [
        {
          "internalType": "address",
          "name": "",
          "type": "address"
        }
      ],
      "name": "staked",
      "outputs": [
        {
          "internalType": "uint256",
          "name": "",
          "type": "uint256"
        }
      ],
      "stateMutability": "view",
      "type": "function",
      "constant": true
    },
    {
      "inputs": [],
      "name": "ticketSize",
      "outputs": [
        {
          "internalType": "uint256",
          "name": "",
          "type": "uint256"
        }
      ],
      "stateMutability": "view",
      "type": "function",
      "constant": true
    },
    {
      "inputs": [
        {
          "internalType": "address",
          "name": "",
          "type": "address"
        }
      ],
      "name": "tickets",
      "outputs": [
        {
          "internalType": "uint256",
          "name": "",
          "type": "uint256"
        }
      ],
      "stateMutability": "view",
      "type": "function",
      "constant": true
    },
    {
      "inputs": [],
      "name": "timeScale",
      "outputs": [
        {
          "internalType": "uint256",
          "name": "",
          "type": "uint256"
        }
      ],
      "stateMutability": "view",
      "type": "function",
      "constant": true
    },
    {
      "inputs": [],
      "name": "totalTickets",
      "outputs": [
        {
          "internalType": "uint256",
          "name": "",
          "type": "uint256"
        }
      ],
      "stateMutability": "view",
      "type": "function",
      "constant": true
    },
    {
      "inputs": [
        {
          "internalType": "address",
          "name": "newOwner",
          "type": "address"
        }
      ],
      "name": "transferOwnership",
      "outputs": [],
      "stateMutability": "nonpayable",
      "type": "function"
    },
    {
      "inputs": [
        {
          "internalType": "address",
          "name": "daiAddress",
          "type": "address"
        },
        {
          "internalType": "address",
          "name": "scxAddress",
          "type": "address"
        },
        {
          "internalType": "address",
          "name": "c",
          "type": "address"
        },
        {
          "internalType": "uint256",
          "name": "time",
          "type": "uint256"
        },
        {
          "internalType": "uint256",
          "name": "b",
          "type": "uint256"
        },
        {
          "internalType": "uint256",
          "name": "m",
          "type": "uint256"
        }
      ],
      "name": "seed",
      "outputs": [],
      "stateMutability": "nonpayable",
      "type": "function"
    },
    {
      "inputs": [
        {
          "internalType": "uint256",
          "name": "t",
          "type": "uint256"
        },
        {
          "internalType": "uint256",
          "name": "m",
          "type": "uint256"
        }
      ],
      "name": "setTicketParameters",
      "outputs": [],
      "stateMutability": "nonpayable",
      "type": "function"
    },
    {
      "inputs": [
        {
          "internalType": "uint256",
          "name": "b",
          "type": "uint256"
        }
      ],
      "name": "setBurnMultiple",
      "outputs": [],
      "stateMutability": "nonpayable",
      "type": "function"
    },
    {
      "inputs": [
        {
          "internalType": "uint256",
          "name": "value",
          "type": "uint256"
        }
      ],
      "name": "celebrant",
      "outputs": [],
      "stateMutability": "nonpayable",
      "type": "function"
    },
    {
      "inputs": [
        {
          "internalType": "address",
          "name": "sender",
          "type": "address"
        },
        {
          "internalType": "uint256",
          "name": "value",
          "type": "uint256"
        }
      ],
      "name": "celebrant",
      "outputs": [],
      "stateMutability": "nonpayable",
      "type": "function"
    },
    {
      "inputs": [],
      "name": "dripIfStale",
      "outputs": [],
      "stateMutability": "nonpayable",
      "type": "function"
    },
    {
      "inputs": [],
      "name": "drip",
      "outputs": [],
      "stateMutability": "nonpayable",
      "type": "function"
    },
    {
      "inputs": [],
      "name": "drainPond",
      "outputs": [],
      "stateMutability": "nonpayable",
      "type": "function"
    },
    {
      "inputs": [
        {
          "internalType": "uint256",
          "name": "stakeValue",
          "type": "uint256"
        },
        {
          "internalType": "uint256",
          "name": "burnValue",
          "type": "uint256"
        }
      ],
      "name": "stake",
      "outputs": [],
      "stateMutability": "nonpayable",
      "type": "function"
    },
    {
      "inputs": [
        {
          "internalType": "uint256",
          "name": "scx",
          "type": "uint256"
        }
      ],
      "name": "unstake",
      "outputs": [],
      "stateMutability": "nonpayable",
      "type": "function"
    },
    {
      "inputs": [],
      "name": "aggregateFlow",
      "outputs": [
        {
          "internalType": "uint256",
          "name": "flow",
          "type": "uint256"
        }
      ],
      "stateMutability": "view",
      "type": "function",
      "constant": true
    }
  ],
  "bytecode": "0x608060405264e8d4a51000600a5562127500600d55600a600e5569d3c21bcecceda1000000600f5534801561003357600080fd5b5060006100446100ee60201b60201c565b9050806000806101000a81548173ffffffffffffffffffffffffffffffffffffffff021916908373ffffffffffffffffffffffffffffffffffffffff1602179055508073ffffffffffffffffffffffffffffffffffffffff16600073ffffffffffffffffffffffffffffffffffffffff167f8be0079c531659141344cd1fd0a4f28419497f9722a3daafe3b4186f6b6457e060405160405180910390a350426010819055506100f6565b600033905090565b61299e806101056000396000f3fe608060405234801561001057600080fd5b50600436106101cf5760003560e01c80637b0472f011610104578063a994f980116100a2578063ded984e911610071578063ded984e914610730578063f2fde38b1461074e578063f32b85e814610792578063f4b9fa75146107b0576101cf565b8063a994f98014610648578063b6c290f0146106ea578063c52aa72114610708578063dd11247e14610712576101cf565b806395c0da4a116100de57806395c0da4a146105aa57806398807d84146105c85780639b894703146106205780639f678cca1461063e576101cf565b80637b0472f0146104f05780638da5cb5b146105285780638f6dc33514610572576101cf565b80632e17de7811610171578063484e366a1161014b578063484e366a146104265780636dcbf2a3146104445780636e8d4ca41461049c578063715018a6146104e6576101cf565b80632e17de781461037257806338d6c137146103a0578063411c6de9146103f8576101cf565b80631e4acce1116101ad5780631e4acce11461025457806323109424146102a2578063248b6010146102d05780632e0d7cbc14610328576101cf565b80630b13f962146101d45780630ef08c58146101f257806315265eee1461024a575b600080fd5b6101dc6107fa565b6040518082815260200191505060405180910390f35b6102346004803603602081101561020857600080fd5b81019080803573ffffffffffffffffffffffffffffffffffffffff16906020019092919050505061095b565b6040518082815260200191505060405180910390f35b610252610973565b005b6102a06004803603604081101561026a57600080fd5b81019080803573ffffffffffffffffffffffffffffffffffffffff16906020019092919080359060200190929190505050610b66565b005b6102ce600480360360208110156102b857600080fd5b8101908080359060200190929190505050610ede565b005b610312600480360360208110156102e657600080fd5b81019080803573ffffffffffffffffffffffffffffffffffffffff169060200190929190505050610fb1565b6040518082815260200191505060405180910390f35b610330610fc9565b604051808273ffffffffffffffffffffffffffffffffffffffff1673ffffffffffffffffffffffffffffffffffffffff16815260200191505060405180910390f35b61039e6004803603602081101561038857600080fd5b8101908080359060200190929190505050610fef565b005b6103e2600480360360208110156103b657600080fd5b81019080803573ffffffffffffffffffffffffffffffffffffffff1690602001909291905050506115a5565b6040518082815260200191505060405180910390f35b6104246004803603602081101561040e57600080fd5b81019080803590602001909291905050506115bd565b005b61042e6115ca565b6040518082815260200191505060405180910390f35b6104866004803603602081101561045a57600080fd5b81019080803573ffffffffffffffffffffffffffffffffffffffff1690602001909291905050506115d0565b6040518082815260200191505060405180910390f35b6104a46115e8565b604051808273ffffffffffffffffffffffffffffffffffffffff1673ffffffffffffffffffffffffffffffffffffffff16815260200191505060405180910390f35b6104ee61160e565b005b6105266004803603604081101561050657600080fd5b810190808035906020019092919080359060200190929190505050611796565b005b610530611c50565b604051808273ffffffffffffffffffffffffffffffffffffffff1673ffffffffffffffffffffffffffffffffffffffff16815260200191505060405180910390f35b6105a86004803603604081101561058857600080fd5b810190808035906020019092919080359060200190929190505050611c79565b005b6105b2611d54565b6040518082815260200191505060405180910390f35b61060a600480360360208110156105de57600080fd5b81019080803573ffffffffffffffffffffffffffffffffffffffff169060200190929190505050611d5a565b6040518082815260200191505060405180910390f35b610628611d72565b6040518082815260200191505060405180910390f35b610646611d78565b005b6106e8600480360360c081101561065e57600080fd5b81019080803573ffffffffffffffffffffffffffffffffffffffff169060200190929190803573ffffffffffffffffffffffffffffffffffffffff169060200190929190803573ffffffffffffffffffffffffffffffffffffffff169060200190929190803590602001909291908035906020019092919080359060200190929190505050611f22565b005b6106f26120dc565b6040518082815260200191505060405180910390f35b6107106120e2565b005b61071a6120f6565b6040518082815260200191505060405180910390f35b6107386120fc565b6040518082815260200191505060405180910390f35b6107906004803603602081101561076457600080fd5b81019080803573ffffffffffffffffffffffffffffffffffffffff169060200190929190505050612102565b005b61079a61230f565b6040518082815260200191505060405180910390f35b6107b8612315565b604051808273ffffffffffffffffffffffffffffffffffffffff1673ffffffffffffffffffffffffffffffffffffffff16815260200191505060405180910390f35b6000806000600b541461080f57600b546108be565b600f54600160009054906101000a900473ffffffffffffffffffffffffffffffffffffffff1673ffffffffffffffffffffffffffffffffffffffff166318160ddd6040518163ffffffff1660e01b815260040160206040518083038186803b15801561087a57600080fd5b505afa15801561088e573d6000803e3d6000fd5b505050506040513d60208110156108a457600080fd5b8101908080519060200190929190505050816108bc57fe5b045b9050600081905060006108f36108df6006548461233b90919063ffffffff16565b64e8d4a5100061238590919063ffffffff16565b9050600061090a838361240b90919063ffffffff16565b9050600061093a64e8d4a5100061092c84600d5461238590919063ffffffff16565b61240b90919063ffffffff16565b905061095181600c5461240b90919063ffffffff16565b9550505050505090565b60076020528060005260406000206000915090505481565b61097b6120e2565b61098433612455565b6000600960003373ffffffffffffffffffffffffffffffffffffffff1673ffffffffffffffffffffffffffffffffffffffff1681526020019081526020016000205490506000600960003373ffffffffffffffffffffffffffffffffffffffff1673ffffffffffffffffffffffffffffffffffffffff16815260200190815260200160002081905550600260009054906101000a900473ffffffffffffffffffffffffffffffffffffffff1673ffffffffffffffffffffffffffffffffffffffff1663a9059cbb33836040518363ffffffff1660e01b8152600401808373ffffffffffffffffffffffffffffffffffffffff1673ffffffffffffffffffffffffffffffffffffffff16815260200182815260200192505050602060405180830381600087803b158015610ab657600080fd5b505af1158015610aca573d6000803e3d6000fd5b505050506040513d6020811015610ae057600080fd5b8101908080519060200190929190505050610b63576040517f08c379a00000000000000000000000000000000000000000000000000000000081526004018080602001828103825260138152602001807f646169207472616e73666572206661696c65640000000000000000000000000081525060200191505060405180910390fd5b50565b3073ffffffffffffffffffffffffffffffffffffffff163373ffffffffffffffffffffffffffffffffffffffff161480610bed5750600360009054906101000a900473ffffffffffffffffffffffffffffffffffffffff1673ffffffffffffffffffffffffffffffffffffffff163373ffffffffffffffffffffffffffffffffffffffff16145b610c5f576040517f08c379a00000000000000000000000000000000000000000000000000000000081526004018080602001828103825260188152602001807f6e6f742061636365737369626c6520746f207075626c6963000000000000000081525060200191505060405180910390fd5b600260009054906101000a900473ffffffffffffffffffffffffffffffffffffffff1673ffffffffffffffffffffffffffffffffffffffff166323b872dd8330846040518463ffffffff1660e01b8152600401808473ffffffffffffffffffffffffffffffffffffffff1673ffffffffffffffffffffffffffffffffffffffff1681526020018373ffffffffffffffffffffffffffffffffffffffff1673ffffffffffffffffffffffffffffffffffffffff1681526020018281526020019350505050602060405180830381600087803b158015610d3c57600080fd5b505af1158015610d50573d6000803e3d6000fd5b505050506040513d6020811015610d6657600080fd5b8101908080519060200190929190505050610de9576040517f08c379a000000000000000000000000000000000000000000000000000000000815260040180806020018281038252601e8152602001807f646169207472616e7366657220746f20526976756c6574206661696c6564000081525060200191505060405180910390fd5b6000600260009054906101000a900473ffffffffffffffffffffffffffffffffffffffff1673ffffffffffffffffffffffffffffffffffffffff166370a08231306040518263ffffffff1660e01b8152600401808273ffffffffffffffffffffffffffffffffffffffff1673ffffffffffffffffffffffffffffffffffffffff16815260200191505060206040518083038186803b158015610e8a57600080fd5b505afa158015610e9e573d6000803e3d6000fd5b505050506040513d6020811015610eb457600080fd5b81019080805190602001909291905050509050600c54811115610ed95780600c819055505b505050565b610ee661257f565b73ffffffffffffffffffffffffffffffffffffffff166000809054906101000a900473ffffffffffffffffffffffffffffffffffffffff1673ffffffffffffffffffffffffffffffffffffffff1614610fa7576040517f08c379a00000000000000000000000000000000000000000000000000000000081526004018080602001828103825260208152602001807f4f776e61626c653a2063616c6c6572206973206e6f7420746865206f776e657281525060200191505060405180910390fd5b80600e8190555050565b60096020528060005260406000206000915090505481565b600160009054906101000a900473ffffffffffffffffffffffffffffffffffffffff1681565b6000600460003373ffffffffffffffffffffffffffffffffffffffff1673ffffffffffffffffffffffffffffffffffffffff16815260200190815260200160002054821161103d578161107e565b600460003373ffffffffffffffffffffffffffffffffffffffff1673ffffffffffffffffffffffffffffffffffffffff168152602001908152602001600020545b9050600061110b82600460003373ffffffffffffffffffffffffffffffffffffffff1673ffffffffffffffffffffffffffffffffffffffff16815260200190815260200160002054600560003373ffffffffffffffffffffffffffffffffffffffff1673ffffffffffffffffffffffffffffffffffffffff16815260200190815260200160002054612587565b905061115f82600460003373ffffffffffffffffffffffffffffffffffffffff1673ffffffffffffffffffffffffffffffffffffffff1681526020019081526020016000205461233b90919063ffffffff16565b600460003373ffffffffffffffffffffffffffffffffffffffff1673ffffffffffffffffffffffffffffffffffffffff16815260200190815260200160002081905550600160009054906101000a900473ffffffffffffffffffffffffffffffffffffffff1673ffffffffffffffffffffffffffffffffffffffff1663a9059cbb33846040518363ffffffff1660e01b8152600401808373ffffffffffffffffffffffffffffffffffffffff1673ffffffffffffffffffffffffffffffffffffffff16815260200182815260200192505050602060405180830381600087803b15801561124b57600080fd5b505af115801561125f573d6000803e3d6000fd5b505050506040513d602081101561127557600080fd5b8101908080519060200190929190505050506000600560003373ffffffffffffffffffffffffffffffffffffffff1673ffffffffffffffffffffffffffffffffffffffff1681526020019081526020016000205414156112d65750506115a2565b6112de6120e2565b6112e733612455565b600061137282600560003373ffffffffffffffffffffffffffffffffffffffff1673ffffffffffffffffffffffffffffffffffffffff16815260200190815260200160002054600960003373ffffffffffffffffffffffffffffffffffffffff1673ffffffffffffffffffffffffffffffffffffffff16815260200190815260200160002054612587565b90506113c682600560003373ffffffffffffffffffffffffffffffffffffffff1673ffffffffffffffffffffffffffffffffffffffff1681526020019081526020016000205461233b90919063ffffffff16565b600560003373ffffffffffffffffffffffffffffffffffffffff1673ffffffffffffffffffffffffffffffffffffffff1681526020019081526020016000208190555061141e8260065461233b90919063ffffffff16565b60068190555061147681600960003373ffffffffffffffffffffffffffffffffffffffff1673ffffffffffffffffffffffffffffffffffffffff1681526020019081526020016000205461233b90919063ffffffff16565b600960003373ffffffffffffffffffffffffffffffffffffffff1673ffffffffffffffffffffffffffffffffffffffff16815260200190815260200160002081905550600260009054906101000a900473ffffffffffffffffffffffffffffffffffffffff1673ffffffffffffffffffffffffffffffffffffffff1663a9059cbb33836040518363ffffffff1660e01b8152600401808373ffffffffffffffffffffffffffffffffffffffff1673ffffffffffffffffffffffffffffffffffffffff16815260200182815260200192505050602060405180830381600087803b15801561156257600080fd5b505af1158015611576573d6000803e3d6000fd5b505050506040513d602081101561158c57600080fd5b8101908080519060200190929190505050505050505b50565b60086020528060005260406000206000915090505481565b6115c73382610b66565b50565b600c5481565b60056020528060005260406000206000915090505481565b600360009054906101000a900473ffffffffffffffffffffffffffffffffffffffff1681565b61161661257f565b73ffffffffffffffffffffffffffffffffffffffff166000809054906101000a900473ffffffffffffffffffffffffffffffffffffffff1673ffffffffffffffffffffffffffffffffffffffff16146116d7576040517f08c379a00000000000000000000000000000000000000000000000000000000081526004018080602001828103825260208152602001807f4f776e61626c653a2063616c6c6572206973206e6f7420746865206f776e657281525060200191505060405180910390fd5b600073ffffffffffffffffffffffffffffffffffffffff166000809054906101000a900473ffffffffffffffffffffffffffffffffffffffff1673ffffffffffffffffffffffffffffffffffffffff167f8be0079c531659141344cd1fd0a4f28419497f9722a3daafe3b4186f6b6457e060405160405180910390a360008060006101000a81548173ffffffffffffffffffffffffffffffffffffffff021916908373ffffffffffffffffffffffffffffffffffffffff160217905550565b61179e6120e2565b60006117c76117b8600f54856125e590919063ffffffff16565b8461233b90919063ffffffff16565b905060006117f26117e3600f54856125e590919063ffffffff16565b8461233b90919063ffffffff16565b905060008183011161186c576040517f08c379a00000000000000000000000000000000000000000000000000000000081526004018080602001828103825260148152602001807f6e6f207469636b6574732070757263686173656400000000000000000000000081525060200191505060405180910390fd5b600160009054906101000a900473ffffffffffffffffffffffffffffffffffffffff1673ffffffffffffffffffffffffffffffffffffffff166323b872dd33308486016040518463ffffffff1660e01b8152600401808473ffffffffffffffffffffffffffffffffffffffff1673ffffffffffffffffffffffffffffffffffffffff1681526020018373ffffffffffffffffffffffffffffffffffffffff1673ffffffffffffffffffffffffffffffffffffffff1681526020018281526020019350505050602060405180830381600087803b15801561194b57600080fd5b505af115801561195f573d6000803e3d6000fd5b505050506040513d602081101561197557600080fd5b81019080805190602001909291905050506119f8576040517f08c379a00000000000000000000000000000000000000000000000000000000081526004018080602001828103825260168152602001807f7472616e73666572206f6620534358206661696c65640000000000000000000081525060200191505060405180910390fd5b611a0133612455565b6000600f5482600e5402840181611a1457fe5b049050611a6981600560003373ffffffffffffffffffffffffffffffffffffffff1673ffffffffffffffffffffffffffffffffffffffff1681526020019081526020016000205461262f90919063ffffffff16565b600560003373ffffffffffffffffffffffffffffffffffffffff1673ffffffffffffffffffffffffffffffffffffffff16815260200190815260200160002081905550600b5481600654016006819055111580611ac857506000600b54145b611b1d576040517f08c379a00000000000000000000000000000000000000000000000000000000081526004018080602001828103825260238152602001806129466023913960400191505060405180910390fd5b611b6f83600460003373ffffffffffffffffffffffffffffffffffffffff1673ffffffffffffffffffffffffffffffffffffffff1681526020019081526020016000205461262f90919063ffffffff16565b600460003373ffffffffffffffffffffffffffffffffffffffff1673ffffffffffffffffffffffffffffffffffffffff168152602001908152602001600020819055506000821115611c4957600160009054906101000a900473ffffffffffffffffffffffffffffffffffffffff1673ffffffffffffffffffffffffffffffffffffffff166342966c68836040518263ffffffff1660e01b815260040180828152602001915050600060405180830381600087803b158015611c3057600080fd5b505af1158015611c44573d6000803e3d6000fd5b505050505b5050505050565b60008060009054906101000a900473ffffffffffffffffffffffffffffffffffffffff16905090565b611c8161257f565b73ffffffffffffffffffffffffffffffffffffffff166000809054906101000a900473ffffffffffffffffffffffffffffffffffffffff1673ffffffffffffffffffffffffffffffffffffffff1614611d42576040517f08c379a00000000000000000000000000000000000000000000000000000000081526004018080602001828103825260208152602001807f4f776e61626c653a2063616c6c6572206973206e6f7420746865206f776e657281525060200191505060405180910390fd5b81600f8190555080600b819055505050565b600a5481565b60046020528060005260406000206000915090505481565b600b5481565b600042905060006006541415611d95578060108190555050611f20565b60006010548211611da857601054611dae565b60105482035b90506000611dba6107fa565b90506000611dd36006548361240b90919063ffffffff16565b90506000611dea848361238590919063ffffffff16565b90506000611edc600654600260009054906101000a900473ffffffffffffffffffffffffffffffffffffffff1673ffffffffffffffffffffffffffffffffffffffff166370a08231306040518263ffffffff1660e01b8152600401808273ffffffffffffffffffffffffffffffffffffffff1673ffffffffffffffffffffffffffffffffffffffff16815260200191505060206040518083038186803b158015611e9357600080fd5b505afa158015611ea7573d6000803e3d6000fd5b505050506040513d6020811015611ebd57600080fd5b810190808051906020019092919050505061240b90919063ffffffff16565b9050611ef382600a5461262f90919063ffffffff16565b600a8190555080600a5410611f085780611f0c565b600a545b600a81905550426010819055505050505050505b565b611f2a61257f565b73ffffffffffffffffffffffffffffffffffffffff166000809054906101000a900473ffffffffffffffffffffffffffffffffffffffff1673ffffffffffffffffffffffffffffffffffffffff1614611feb576040517f08c379a00000000000000000000000000000000000000000000000000000000081526004018080602001828103825260208152602001807f4f776e61626c653a2063616c6c6572206973206e6f7420746865206f776e657281525060200191505060405180910390fd5b85600260006101000a81548173ffffffffffffffffffffffffffffffffffffffff021916908373ffffffffffffffffffffffffffffffffffffffff16021790555084600160006101000a81548173ffffffffffffffffffffffffffffffffffffffff021916908373ffffffffffffffffffffffffffffffffffffffff1602179055506000831461207b578261207f565b600d545b600d8190555081600e8190555080600b8190555083600360006101000a81548173ffffffffffffffffffffffffffffffffffffffff021916908373ffffffffffffffffffffffffffffffffffffffff160217905550505050505050565b600e5481565b60105442146120f4576120f3611d78565b5b565b60065481565b600f5481565b61210a61257f565b73ffffffffffffffffffffffffffffffffffffffff166000809054906101000a900473ffffffffffffffffffffffffffffffffffffffff1673ffffffffffffffffffffffffffffffffffffffff16146121cb576040517f08c379a00000000000000000000000000000000000000000000000000000000081526004018080602001828103825260208152602001807f4f776e61626c653a2063616c6c6572206973206e6f7420746865206f776e657281525060200191505060405180910390fd5b600073ffffffffffffffffffffffffffffffffffffffff168173ffffffffffffffffffffffffffffffffffffffff161415612251576040517f08c379a00000000000000000000000000000000000000000000000000000000081526004018080602001828103825260268152602001806128ff6026913960400191505060405180910390fd5b8073ffffffffffffffffffffffffffffffffffffffff166000809054906101000a900473ffffffffffffffffffffffffffffffffffffffff1673ffffffffffffffffffffffffffffffffffffffff167f8be0079c531659141344cd1fd0a4f28419497f9722a3daafe3b4186f6b6457e060405160405180910390a3806000806101000a81548173ffffffffffffffffffffffffffffffffffffffff021916908373ffffffffffffffffffffffffffffffffffffffff16021790555050565b600d5481565b600260009054906101000a900473ffffffffffffffffffffffffffffffffffffffff1681565b600061237d83836040518060400160405280601e81526020017f536166654d6174683a207375627472616374696f6e206f766572666c6f7700008152506126b7565b905092915050565b6000808314156123985760009050612405565b60008284029050828482816123a957fe5b0414612400576040517f08c379a00000000000000000000000000000000000000000000000000000000081526004018080602001828103825260218152602001806129256021913960400191505060405180910390fd5b809150505b92915050565b600061244d83836040518060400160405280601a81526020017f536166654d6174683a206469766973696f6e206279207a65726f000000000000815250612777565b905092915050565b6124ea600860008373ffffffffffffffffffffffffffffffffffffffff1673ffffffffffffffffffffffffffffffffffffffff16815260200190815260200160002054600a5403600560008473ffffffffffffffffffffffffffffffffffffffff1673ffffffffffffffffffffffffffffffffffffffff1681526020019081526020016000205461238590919063ffffffff16565b600960008373ffffffffffffffffffffffffffffffffffffffff1673ffffffffffffffffffffffffffffffffffffffff16815260200190815260200160002060008282540192505081905550600a54600860008373ffffffffffffffffffffffffffffffffffffffff1673ffffffffffffffffffffffffffffffffffffffff1681526020019081526020016000208190555050565b600033905090565b60006125dc64e8d4a510006125ce846125c0876125b264e8d4a510008b61238590919063ffffffff16565b61240b90919063ffffffff16565b61238590919063ffffffff16565b61240b90919063ffffffff16565b90509392505050565b600061262783836040518060400160405280601881526020017f536166654d6174683a206d6f64756c6f206279207a65726f000000000000000081525061283d565b905092915050565b6000808284019050838110156126ad576040517f08c379a000000000000000000000000000000000000000000000000000000000815260040180806020018281038252601b8152602001807f536166654d6174683a206164646974696f6e206f766572666c6f77000000000081525060200191505060405180910390fd5b8091505092915050565b6000838311158290612764576040517f08c379a00000000000000000000000000000000000000000000000000000000081526004018080602001828103825283818151815260200191508051906020019080838360005b8381101561272957808201518184015260208101905061270e565b50505050905090810190601f1680156127565780820380516001836020036101000a031916815260200191505b509250505060405180910390fd5b5060008385039050809150509392505050565b60008083118290612823576040517f08c379a00000000000000000000000000000000000000000000000000000000081526004018080602001828103825283818151815260200191508051906020019080838360005b838110156127e85780820151818401526020810190506127cd565b50505050905090810190601f1680156128155780820380516001836020036101000a031916815260200191505b509250505060405180910390fd5b50600083858161282f57fe5b049050809150509392505050565b60008083141582906128ea576040517f08c379a00000000000000000000000000000000000000000000000000000000081526004018080602001828103825283818151815260200191508051906020019080838360005b838110156128af578082015181840152602081019050612894565b50505050905090810190601f1680156128dc5780820380516001836020036101000a031916815260200191505b509250505060405180910390fd5b508284816128f457fe5b069050939250505056fe4f776e61626c653a206e6577206f776e657220697320746865207a65726f2061646472657373536166654d6174683a206d756c7469706c69636174696f6e206f766572666c6f77726976756c657420686173206d61786564206f7574207469636b65742073616c65732ea26469706673582212200ad9ca5bb000bd7f45f57f5a5ab76ef4735b321c4526cc436a73e1a6c5c51fa864736f6c63430006020033",
  "source": "//SPDX-License-Identifier: MIT\npragma solidity ^0.6.2;\nimport \"./node_modules/@openzeppelin/contracts/access/Ownable.sol\";\nimport \"./facades/ScarcityLike.sol\";\nimport \"./facades/ERC20Like.sol\";\nimport \"./node_modules/@openzeppelin/contracts/math/SafeMath.sol\";\n\n/**\n    Rivulet is the SCX staking contract. All the rivulets make up Nimrodel\n    Rivulet is seeded with a portion of Dai which is streamed to all stakers of\n    Scarcity on a per second basis in proportion to their stake size.\n    There is a global stream rate (Dai per Second) that is divided between Stakers.\n    The global stream rate increases as more total Scarcity is staked. So that there are first\n    and second order effects to staking. The first order effect of a new staker is to take\n    a share of the stream from existing stakers. The second order effect is to increase the overall quantity\n    staked and therefore increase the stream rate for everyone.\n */\ncontract Rivulet is Ownable {\n    using SafeMath for uint256;\n    uint256 constant ONE = 1 szabo; //what are smart contracts without Nick?\n\n    ScarcityLike public scarcity;\n    ERC20Like public dai;\n    address public celeborn;\n\n    mapping(address => uint256) public staked;\n    mapping(address => uint256) public tickets;\n    uint256 public totalTickets;\n    mapping(address => uint256) public scxMultiple; //burning Scx gives an effective balance of 10x\n    mapping(address => uint256) public damHeightAtJoin; //when calculating Dai, (dam-damHeightAtJoin)*SCX\n    mapping(address => uint256) public ponds; // Dai accumulated per user\n    uint256 public damHeight = ONE; // total growth as % since first deposit;\n\n    // uint256 public totalEffectiveStaked;\n    uint256 public maxTickets; //this acts as the denominator in adjusting the rate of flow\n    uint256 public initialDai; //used to calculate aggregate flow\n    uint256 public timeScale = 14 days;\n    uint256 public burnMultiple = 10; //scxBurnt is staked at this multiple\n    uint256 public ticketSize = 1000000 ether; // minimum SCX to stake;\n    uint256 lastDrip; //following from MakerDAO's pot, the growth must be calculated before deposit and withdrawal can be invoked.\n\n    constructor() public {\n        lastDrip = now;\n    }\n\n    function seed(\n        address daiAddress,\n        address scxAddress,\n        address c,\n        uint256 time,\n        uint256 b,\n        uint256 m\n    ) public onlyOwner {\n        dai = ERC20Like(daiAddress);\n        scarcity = ScarcityLike(scxAddress);\n        timeScale = time == 0 ? timeScale : time;\n        burnMultiple = b;\n        maxTickets = m;\n        celeborn = c;\n    }\n\n    function setTicketParameters(uint256 t, uint256 m) public onlyOwner {\n        ticketSize = t;\n        maxTickets = m;\n    }\n\n    function setBurnMultiple(uint256 b) public onlyOwner {\n        burnMultiple = b;\n    }\n\n    //where Dai meets Nimrodel. Don't call directly if you want to sponsor\n    function celebrant(uint256 value) external {\n        celebrant(msg.sender, value);\n    }\n\n    function celebrant(address sender, uint256 value) public {\n        require(\n            msg.sender == address(this) || msg.sender == celeborn,\n            \"not accessible to public\"\n        );\n        require(\n            dai.transferFrom(sender, address(this), value),\n            \"dai transfer to Rivulet failed\"\n        );\n        uint256 newBalance = dai.balanceOf(address(this));\n        if (newBalance > initialDai) {\n            initialDai = newBalance;\n        }\n    }\n\n    function dripIfStale() public {\n        if (now != lastDrip) drip();\n    }\n\n    function drip() public {\n        uint256 rightNow = now;\n        if (totalTickets == 0) {\n            lastDrip = rightNow;\n            return;\n        }\n        uint256 timeSpan = rightNow > lastDrip ? rightNow - lastDrip : lastDrip; //avoid miner attacks\n        uint256 flow = aggregateFlow();\n        uint256 aggregateDaiPerTicketPerSecond = flow.div(totalTickets);\n        uint256 linearGrowth = aggregateDaiPerTicketPerSecond.mul(timeSpan);\n        uint256 maxHeight = dai.balanceOf(address(this)).div(totalTickets);\n        damHeight = damHeight.add(linearGrowth);\n        damHeight = damHeight < maxHeight ? damHeight : maxHeight;\n        lastDrip = now;\n    }\n\n    function fillPond(address sender) private {\n        ponds[sender] += tickets[sender].mul(\n            damHeight - damHeightAtJoin[sender]\n        );\n        damHeightAtJoin[sender] = damHeight;\n    }\n\n    function drainPond() external {\n        dripIfStale();\n        fillPond(msg.sender);\n        uint256 daiToSend = ponds[msg.sender];\n        ponds[msg.sender] = 0;\n        require(dai.transfer(msg.sender, daiToSend), \"dai transfer failed\");\n    }\n\n    function stake(uint256 stakeValue, uint256 burnValue) external {\n        dripIfStale();\n        uint256 stakeTrunc = stakeValue.sub(stakeValue.mod(ticketSize));\n        uint256 burnTrunc = burnValue.sub(burnValue.mod(ticketSize));\n        require(stakeTrunc + burnTrunc > 0, \"no tickets purchased\");\n        require(\n            scarcity.transferFrom(\n                msg.sender,\n                address(this),\n                stakeTrunc + burnTrunc\n            ),\n            \"transfer of SCX failed\"\n        );\n        fillPond(msg.sender);\n        uint256 ticketsCreated = (stakeTrunc + (burnMultiple * burnTrunc)) /\n            ticketSize;\n        tickets[msg.sender] = tickets[msg.sender].add(ticketsCreated);\n        require(\n            (totalTickets = totalTickets + ticketsCreated) <= maxTickets ||\n                maxTickets == 0,\n            \"rivulet has maxed out ticket sales.\"\n        );\n        staked[msg.sender] = staked[msg.sender].add(stakeTrunc);\n        if (burnTrunc > 0) {\n            scarcity.burn(burnTrunc);\n        }\n    }\n\n    function unstake(uint256 scx) external {\n        uint256 stakeToWithdraw = scx > staked[msg.sender]\n            ? staked[msg.sender]\n            : scx;\n        uint256 ticketsToUnstake = proportionMul( //possibly change\n            stakeToWithdraw,\n            staked[msg.sender],\n            tickets[msg.sender]\n        );\n        staked[msg.sender] = staked[msg.sender].sub(stakeToWithdraw);\n        scarcity.transfer(msg.sender, stakeToWithdraw);\n        if (tickets[msg.sender] == 0) {\n            return;\n        }\n        dripIfStale();\n        fillPond(msg.sender);\n\n        uint256 daiToSend = proportionMul(\n            ticketsToUnstake,\n            tickets[msg.sender],\n            ponds[msg.sender]\n        );\n        tickets[msg.sender] = tickets[msg.sender].sub(ticketsToUnstake);\n        totalTickets = totalTickets.sub(ticketsToUnstake);\n        ponds[msg.sender] = ponds[msg.sender].sub(daiToSend);\n        dai.transfer(msg.sender, daiToSend);\n    }\n\n    function proportionMul(\n        uint256 numerator,\n        uint256 denominator,\n        uint256 base\n    ) private pure returns (uint256) {\n        return (numerator.mul(ONE).div(denominator).mul(base)).div(ONE);\n    }\n\n    //do not allow max to be reached\n    //Dai per second\n    // NB: 'ware the fixed point dragons\n    function aggregateFlow() public view returns (uint256 flow) {\n        uint256 max = maxTickets == 0\n            ? scarcity.totalSupply() / ticketSize\n            : maxTickets;\n        uint256 denominator = max;\n        uint256 numerator = ONE.mul(denominator.sub(totalTickets));\n        uint256 inflatedRatio = numerator.div(denominator);\n        uint256 duration = (timeScale.mul(inflatedRatio)).div(ONE);\n        flow = initialDai.div(duration);\n    }\n}\n",
  "sourcePath": "/home/justin/weidai ecosystem/nimrodel/contracts/Rivulet.sol",
  "compiler": {
    "name": "solc",
    "version": "0.6.2+commit.bacdbe57.Emscripten.clang"
  },
  "schemaVersion": "3.1.0",
  "updatedAt": "2020-06-30T21:40:10.032Z",
  "networkType": "ethereum",
  "devdoc": {
    "methods": {
      "owner()": {
        "details": "Returns the address of the current owner."
      },
      "renounceOwnership()": {
        "details": "Leaves the contract without owner. It will not be possible to call `onlyOwner` functions anymore. Can only be called by the current owner.     * NOTE: Renouncing ownership will leave the contract without an owner, thereby removing any functionality that is only available to the owner."
      },
      "transferOwnership(address)": {
        "details": "Transfers ownership of the contract to a new account (`newOwner`). Can only be called by the current owner."
      }
    }
  },
  "userdoc": {
    "methods": {},
    "notice": "Rivulet is the SCX staking contract. All the rivulets make up Nimrodel Rivulet is seeded with a portion of Dai which is streamed to all stakers of Scarcity on a per second basis in proportion to their stake size. There is a global stream rate (Dai per Second) that is divided between Stakers. The global stream rate increases as more total Scarcity is staked. So that there are first and second order effects to staking. The first order effect of a new staker is to take a share of the stream from existing stakers. The second order effect is to increase the overall quantity staked and therefore increase the stream rate for everyone."
  }
}