{
  "contractName": "Sisyphus",
  "abi": [
    {
      "inputs": [],
      "stateMutability": "nonpayable",
      "type": "constructor"
    },
    {
      "anonymous": false,
      "inputs": [
        {
          "indexed": true,
          "internalType": "address",
          "name": "previousOwner",
          "type": "address"
        },
        {
          "indexed": true,
          "internalType": "address",
          "name": "newOwner",
          "type": "address"
        }
      ],
      "name": "OwnershipTransferred",
      "type": "event"
    },
    {
      "anonymous": false,
      "inputs": [
        {
          "indexed": false,
          "internalType": "address",
          "name": "deposed",
          "type": "address"
        },
        {
          "indexed": false,
          "internalType": "address",
          "name": "ascended",
          "type": "address"
        },
        {
          "indexed": false,
          "internalType": "uint256",
          "name": "Buyout",
          "type": "uint256"
        },
        {
          "indexed": false,
          "internalType": "uint256",
          "name": "Payout",
          "type": "uint256"
        }
      ],
      "name": "monarchChanged",
      "type": "event"
    },
    {
      "inputs": [],
      "name": "buyoutAmount",
      "outputs": [
        {
          "internalType": "uint256",
          "name": "",
          "type": "uint256"
        }
      ],
      "stateMutability": "view",
      "type": "function"
    },
    {
      "inputs": [],
      "name": "buyoutTime",
      "outputs": [
        {
          "internalType": "uint256",
          "name": "",
          "type": "uint256"
        }
      ],
      "stateMutability": "view",
      "type": "function"
    },
    {
      "inputs": [],
      "name": "currentMonarch",
      "outputs": [
        {
          "internalType": "address",
          "name": "",
          "type": "address"
        }
      ],
      "stateMutability": "view",
      "type": "function"
    },
    {
      "inputs": [],
      "name": "enabled",
      "outputs": [
        {
          "internalType": "bool",
          "name": "",
          "type": "bool"
        }
      ],
      "stateMutability": "view",
      "type": "function"
    },
    {
      "inputs": [],
      "name": "faucet",
      "outputs": [
        {
          "internalType": "contract FaucetLike",
          "name": "",
          "type": "address"
        }
      ],
      "stateMutability": "view",
      "type": "function"
    },
    {
      "inputs": [],
      "name": "owner",
      "outputs": [
        {
          "internalType": "address",
          "name": "",
          "type": "address"
        }
      ],
      "stateMutability": "view",
      "type": "function"
    },
    {
      "inputs": [],
      "name": "periodDuration",
      "outputs": [
        {
          "internalType": "uint256",
          "name": "",
          "type": "uint256"
        }
      ],
      "stateMutability": "view",
      "type": "function"
    },
    {
      "inputs": [],
      "name": "renounceOwnership",
      "outputs": [],
      "stateMutability": "nonpayable",
      "type": "function"
    },
    {
      "inputs": [],
      "name": "rewardProportion",
      "outputs": [
        {
          "internalType": "uint256",
          "name": "",
          "type": "uint256"
        }
      ],
      "stateMutability": "view",
      "type": "function"
    },
    {
      "inputs": [],
      "name": "scarcity",
      "outputs": [
        {
          "internalType": "contract ScarcityLike",
          "name": "",
          "type": "address"
        }
      ],
      "stateMutability": "view",
      "type": "function"
    },
    {
      "inputs": [],
      "name": "totalIncrements",
      "outputs": [
        {
          "internalType": "uint256",
          "name": "",
          "type": "uint256"
        }
      ],
      "stateMutability": "view",
      "type": "function"
    },
    {
      "inputs": [
        {
          "internalType": "address",
          "name": "newOwner",
          "type": "address"
        }
      ],
      "name": "transferOwnership",
      "outputs": [],
      "stateMutability": "nonpayable",
      "type": "function"
    },
    {
      "inputs": [
        {
          "internalType": "bool",
          "name": "e",
          "type": "bool"
        }
      ],
      "name": "enable",
      "outputs": [],
      "stateMutability": "nonpayable",
      "type": "function"
    },
    {
      "inputs": [
        {
          "internalType": "uint256",
          "name": "periodDurationType",
          "type": "uint256"
        },
        {
          "internalType": "uint256",
          "name": "_totalIncrements",
          "type": "uint256"
        }
      ],
      "name": "setTime",
      "outputs": [],
      "stateMutability": "nonpayable",
      "type": "function"
    },
    {
      "inputs": [
        {
          "internalType": "uint256",
          "name": "p",
          "type": "uint256"
        }
      ],
      "name": "setRewardProportion",
      "outputs": [],
      "stateMutability": "nonpayable",
      "type": "function"
    },
    {
      "inputs": [
        {
          "internalType": "address",
          "name": "scx",
          "type": "address"
        },
        {
          "internalType": "address",
          "name": "f",
          "type": "address"
        }
      ],
      "name": "seed",
      "outputs": [],
      "stateMutability": "nonpayable",
      "type": "function"
    },
    {
      "inputs": [
        {
          "internalType": "uint256",
          "name": "scarcityForwarded",
          "type": "uint256"
        }
      ],
      "name": "struggle",
      "outputs": [],
      "stateMutability": "nonpayable",
      "type": "function"
    },
    {
      "inputs": [],
      "name": "calculateCurrentBuyout",
      "outputs": [
        {
          "internalType": "uint256",
          "name": "",
          "type": "uint256"
        }
      ],
      "stateMutability": "view",
      "type": "function"
    }
  ],
  "bytecode": "0x608060405234801561001057600080fd5b5060006100216100f960201b60201c565b9050806000806101000a81548173ffffffffffffffffffffffffffffffffffffffff021916908373ffffffffffffffffffffffffffffffffffffffff1602179055508073ffffffffffffffffffffffffffffffffffffffff16600073ffffffffffffffffffffffffffffffffffffffff167f8be0079c531659141344cd1fd0a4f28419497f9722a3daafe3b4186f6b6457e060405160405180910390a3506001600960006101000a81548160ff0219169083151502179055506050600881905550606460078190555062015180600681905550610101565b600033905090565b611c07806101106000396000f3fe608060405234801561001057600080fd5b50600436106101165760003560e01c80638da5cb5b116100a2578063d3aea98311610071578063d3aea9831461036b578063de0ee96014610399578063de5f72fd146103b7578063e40d0ac314610401578063f2fde38b1461044b57610116565b80638da5cb5b146102ad578063a0355eca146102f7578063b470aade1461032f578063b88379571461034d57610116565b80632e0d7cbc116100e95780632e0d7cbc146101dd5780633545cc37146102275780633c650f7d146102555780634df68ada14610273578063715018a6146102a357610116565b806314fbb8c31461011b5780631829b73f14610139578063238dafe014610157578063289add0c14610179575b600080fd5b61012361048f565b6040518082815260200191505060405180910390f35b610141610495565b6040518082815260200191505060405180910390f35b61015f61049b565b604051808215151515815260200191505060405180910390f35b6101db6004803603604081101561018f57600080fd5b81019080803573ffffffffffffffffffffffffffffffffffffffff169060200190929190803573ffffffffffffffffffffffffffffffffffffffff1690602001909291905050506104ae565b005b6101e5610604565b604051808273ffffffffffffffffffffffffffffffffffffffff1673ffffffffffffffffffffffffffffffffffffffff16815260200191505060405180910390f35b6102536004803603602081101561023d57600080fd5b810190808035906020019092919050505061062a565b005b61025d610757565b6040518082815260200191505060405180910390f35b6102a16004803603602081101561028957600080fd5b810190808035151590602001909291905050506107eb565b005b6102ab6108d1565b005b6102b5610a59565b604051808273ffffffffffffffffffffffffffffffffffffffff1673ffffffffffffffffffffffffffffffffffffffff16815260200191505060405180910390f35b61032d6004803603604081101561030d57600080fd5b810190808035906020019092919080359060200190929190505050610a82565b005b610337610c26565b6040518082815260200191505060405180910390f35b610355610c2c565b6040518082815260200191505060405180910390f35b6103976004803603602081101561038157600080fd5b8101908080359060200190929190505050610c32565b005b6103a16115e8565b6040518082815260200191505060405180910390f35b6103bf6115ee565b604051808273ffffffffffffffffffffffffffffffffffffffff1673ffffffffffffffffffffffffffffffffffffffff16815260200191505060405180910390f35b610409611614565b604051808273ffffffffffffffffffffffffffffffffffffffff1673ffffffffffffffffffffffffffffffffffffffff16815260200191505060405180910390f35b61048d6004803603602081101561046157600080fd5b81019080803573ffffffffffffffffffffffffffffffffffffffff16906020019092919050505061163a565b005b60075481565b60045481565b600960009054906101000a900460ff1681565b6104b6611847565b73ffffffffffffffffffffffffffffffffffffffff166000809054906101000a900473ffffffffffffffffffffffffffffffffffffffff1673ffffffffffffffffffffffffffffffffffffffff1614610577576040517f08c379a00000000000000000000000000000000000000000000000000000000081526004018080602001828103825260208152602001807f4f776e61626c653a2063616c6c6572206973206e6f7420746865206f776e657281525060200191505060405180910390fd5b81600160006101000a81548173ffffffffffffffffffffffffffffffffffffffff021916908373ffffffffffffffffffffffffffffffffffffffff16021790555080600260006101000a81548173ffffffffffffffffffffffffffffffffffffffff021916908373ffffffffffffffffffffffffffffffffffffffff160217905550426005819055505050565b600160009054906101000a900473ffffffffffffffffffffffffffffffffffffffff1681565b610632611847565b73ffffffffffffffffffffffffffffffffffffffff166000809054906101000a900473ffffffffffffffffffffffffffffffffffffffff1673ffffffffffffffffffffffffffffffffffffffff16146106f3576040517f08c379a00000000000000000000000000000000000000000000000000000000081526004018080602001828103825260208152602001807f4f776e61626c653a2063616c6c6572206973206e6f7420746865206f776e657281525060200191505060405180910390fd5b606481111561074d576040517f08c379a0000000000000000000000000000000000000000000000000000000008152600401808060200182810382526031815260200180611af06031913960400191505060405180910390fd5b8060088190555050565b6000804290506005548111610771576004549150506107e8565b600060065460055442038161078257fe5b04905060006007548211610796578161079a565b6007545b60075403905060006107cb6007546107bd8460045461184f90919063ffffffff16565b6118d590919063ffffffff16565b90506004548111156107df576004546107e1565b805b9450505050505b90565b6107f3611847565b73ffffffffffffffffffffffffffffffffffffffff166000809054906101000a900473ffffffffffffffffffffffffffffffffffffffff1673ffffffffffffffffffffffffffffffffffffffff16146108b4576040517f08c379a00000000000000000000000000000000000000000000000000000000081526004018080602001828103825260208152602001807f4f776e61626c653a2063616c6c6572206973206e6f7420746865206f776e657281525060200191505060405180910390fd5b80600960006101000a81548160ff02191690831515021790555050565b6108d9611847565b73ffffffffffffffffffffffffffffffffffffffff166000809054906101000a900473ffffffffffffffffffffffffffffffffffffffff1673ffffffffffffffffffffffffffffffffffffffff161461099a576040517f08c379a00000000000000000000000000000000000000000000000000000000081526004018080602001828103825260208152602001807f4f776e61626c653a2063616c6c6572206973206e6f7420746865206f776e657281525060200191505060405180910390fd5b600073ffffffffffffffffffffffffffffffffffffffff166000809054906101000a900473ffffffffffffffffffffffffffffffffffffffff1673ffffffffffffffffffffffffffffffffffffffff167f8be0079c531659141344cd1fd0a4f28419497f9722a3daafe3b4186f6b6457e060405160405180910390a360008060006101000a81548173ffffffffffffffffffffffffffffffffffffffff021916908373ffffffffffffffffffffffffffffffffffffffff160217905550565b60008060009054906101000a900473ffffffffffffffffffffffffffffffffffffffff16905090565b610a8a611847565b73ffffffffffffffffffffffffffffffffffffffff166000809054906101000a900473ffffffffffffffffffffffffffffffffffffffff1673ffffffffffffffffffffffffffffffffffffffff1614610b4b576040517f08c379a00000000000000000000000000000000000000000000000000000000081526004018080602001828103825260208152602001807f4f776e61626c653a2063616c6c6572206973206e6f7420746865206f776e657281525060200191505060405180910390fd5b60048210610bc1576040517f08c379a00000000000000000000000000000000000000000000000000000000081526004018080602001828103825260178152602001807f696e76616c696420706572696f64206475726174696f6e00000000000000000081525060200191505060405180910390fd5b6000821415610bd7576001600681905550610c1b565b6001821415610bed57603c600681905550610c1a565b6002821415610c0457610e10600681905550610c19565b6003821415610c1857620151806006819055505b5b5b5b806007819055505050565b60065481565b60085481565b600960009054906101000a900460ff16610cb4576040517f08c379a000000000000000000000000000000000000000000000000000000000815260040180806020018281038252601e8152602001807f53697379706875732069732063757272656e746c792064697361626c6564000081525060200191505060405180910390fd5b6000610cbe610757565b905080821015610d19576040517f08c379a0000000000000000000000000000000000000000000000000000000008152600401808060200182810382526045815260200180611b8d6045913960600191505060405180910390fd5b6000821115610ead57600160009054906101000a900473ffffffffffffffffffffffffffffffffffffffff1673ffffffffffffffffffffffffffffffffffffffff166323b872dd3330856040518463ffffffff1660e01b8152600401808473ffffffffffffffffffffffffffffffffffffffff1673ffffffffffffffffffffffffffffffffffffffff1681526020018373ffffffffffffffffffffffffffffffffffffffff1673ffffffffffffffffffffffffffffffffffffffff1681526020018281526020019350505050602060405180830381600087803b158015610dff57600080fd5b505af1158015610e13573d6000803e3d6000fd5b505050506040513d6020811015610e2957600080fd5b8101908080519060200190929190505050610eac576040517f08c379a00000000000000000000000000000000000000000000000000000000081526004018080602001828103825260198152602001807f5363617263697479207472616e73666572206661696c65642e0000000000000081525060200191505060405180910390fd5b5b426005819055506000610ede6064610ed06008548561184f90919063ffffffff16565b6118d590919063ffffffff16565b90506000610ef5828561191f90919063ffffffff16565b9050600073ffffffffffffffffffffffffffffffffffffffff16600360009054906101000a900473ffffffffffffffffffffffffffffffffffffffff1673ffffffffffffffffffffffffffffffffffffffff1614158015610f565750600082115b156110d857600160009054906101000a900473ffffffffffffffffffffffffffffffffffffffff1673ffffffffffffffffffffffffffffffffffffffff1663a9059cbb600360009054906101000a900473ffffffffffffffffffffffffffffffffffffffff16846040518363ffffffff1660e01b8152600401808373ffffffffffffffffffffffffffffffffffffffff1673ffffffffffffffffffffffffffffffffffffffff16815260200182815260200192505050602060405180830381600087803b15801561102657600080fd5b505af115801561103a573d6000803e3d6000fd5b505050506040513d602081101561105057600080fd5b81019080805190602001909291905050506110d3576040517f08c379a00000000000000000000000000000000000000000000000000000000081526004018080602001828103825260178152602001807f726577617264207472616e73666572206661696c65642e00000000000000000081525060200191505060405180910390fd5b6110de565b81810190505b600081111561129c57600160009054906101000a900473ffffffffffffffffffffffffffffffffffffffff1673ffffffffffffffffffffffffffffffffffffffff1663095ea7b3600260009054906101000a900473ffffffffffffffffffffffffffffffffffffffff167fffffffffffffffffffffffffffffffffffffffffffffffffffffffffffffffff6040518363ffffffff1660e01b8152600401808373ffffffffffffffffffffffffffffffffffffffff1673ffffffffffffffffffffffffffffffffffffffff16815260200182815260200192505050602060405180830381600087803b1580156111d257600080fd5b505af11580156111e6573d6000803e3d6000fd5b505050506040513d60208110156111fc57600080fd5b810190808051906020019092919050505050600260009054906101000a900473ffffffffffffffffffffffffffffffffffffffff1673ffffffffffffffffffffffffffffffffffffffff1663d5005d59826040518263ffffffff1660e01b815260040180828152602001915050600060405180830381600087803b15801561128357600080fd5b505af1158015611297573d6000803e3d6000fd5b505050505b6000600160009054906101000a900473ffffffffffffffffffffffffffffffffffffffff1673ffffffffffffffffffffffffffffffffffffffff166370a08231306040518263ffffffff1660e01b8152600401808273ffffffffffffffffffffffffffffffffffffffff1673ffffffffffffffffffffffffffffffffffffffff16815260200191505060206040518083038186803b15801561133d57600080fd5b505afa158015611351573d6000803e3d6000fd5b505050506040513d602081101561136757600080fd5b8101908080519060200190929190505050905060008111156114bd57600160009054906101000a900473ffffffffffffffffffffffffffffffffffffffff1673ffffffffffffffffffffffffffffffffffffffff1663a9059cbb33836040518363ffffffff1660e01b8152600401808373ffffffffffffffffffffffffffffffffffffffff1673ffffffffffffffffffffffffffffffffffffffff16815260200182815260200192505050602060405180830381600087803b15801561142c57600080fd5b505af1158015611440573d6000803e3d6000fd5b505050506040513d602081101561145657600080fd5b81019080805190602001909291905050506114bc576040517f08c379a0000000000000000000000000000000000000000000000000000000008152600401808060200182810382526025815260200180611b476025913960400191505060405180910390fd5b5b7f5d184de3b9658e020f5909ad532e5fda75aa639497d7a44c43fafd5d945a6ce2600360009054906101000a900473ffffffffffffffffffffffffffffffffffffffff16338786604051808573ffffffffffffffffffffffffffffffffffffffff1673ffffffffffffffffffffffffffffffffffffffff1681526020018473ffffffffffffffffffffffffffffffffffffffff1673ffffffffffffffffffffffffffffffffffffffff16815260200183815260200182815260200194505050505060405180910390a133600360006101000a81548173ffffffffffffffffffffffffffffffffffffffff021916908373ffffffffffffffffffffffffffffffffffffffff1602179055506115db60048661184f90919063ffffffff16565b6004819055505050505050565b60055481565b600260009054906101000a900473ffffffffffffffffffffffffffffffffffffffff1681565b600360009054906101000a900473ffffffffffffffffffffffffffffffffffffffff1681565b611642611847565b73ffffffffffffffffffffffffffffffffffffffff166000809054906101000a900473ffffffffffffffffffffffffffffffffffffffff1673ffffffffffffffffffffffffffffffffffffffff1614611703576040517f08c379a00000000000000000000000000000000000000000000000000000000081526004018080602001828103825260208152602001807f4f776e61626c653a2063616c6c6572206973206e6f7420746865206f776e657281525060200191505060405180910390fd5b600073ffffffffffffffffffffffffffffffffffffffff168173ffffffffffffffffffffffffffffffffffffffff161415611789576040517f08c379a0000000000000000000000000000000000000000000000000000000008152600401808060200182810382526026815260200180611b216026913960400191505060405180910390fd5b8073ffffffffffffffffffffffffffffffffffffffff166000809054906101000a900473ffffffffffffffffffffffffffffffffffffffff1673ffffffffffffffffffffffffffffffffffffffff167f8be0079c531659141344cd1fd0a4f28419497f9722a3daafe3b4186f6b6457e060405160405180910390a3806000806101000a81548173ffffffffffffffffffffffffffffffffffffffff021916908373ffffffffffffffffffffffffffffffffffffffff16021790555050565b600033905090565b60008083141561186257600090506118cf565b600082840290508284828161187357fe5b04146118ca576040517f08c379a0000000000000000000000000000000000000000000000000000000008152600401808060200182810382526021815260200180611b6c6021913960400191505060405180910390fd5b809150505b92915050565b600061191783836040518060400160405280601a81526020017f536166654d6174683a206469766973696f6e206279207a65726f000000000000815250611969565b905092915050565b600061196183836040518060400160405280601e81526020017f536166654d6174683a207375627472616374696f6e206f766572666c6f770000815250611a2f565b905092915050565b60008083118290611a15576040517f08c379a00000000000000000000000000000000000000000000000000000000081526004018080602001828103825283818151815260200191508051906020019080838360005b838110156119da5780820151818401526020810190506119bf565b50505050905090810190601f168015611a075780820380516001836020036101000a031916815260200191505b509250505060405180910390fd5b506000838581611a2157fe5b049050809150509392505050565b6000838311158290611adc576040517f08c379a00000000000000000000000000000000000000000000000000000000081526004018080602001828103825283818151815260200191508051906020019080838360005b83811015611aa1578082015181840152602081019050611a86565b50505050905090810190601f168015611ace5780820380516001836020036101000a031916815260200191505b509250505060405180910390fd5b506000838503905080915050939250505056fe70726f706f7274696f6e206d75737420626520612070657263656e74616765206265747765656e203020616e64203130304f776e61626c653a206e6577206f776e657220697320746865207a65726f20616464726573737472616e736665722066726f6d2073706f6e736f722062616c616e6365206661696c65642e536166654d6174683a206d756c7469706c69636174696f6e206f766572666c6f7770726574656e646572206d75737420617420666f7277617264206174206c65617374206173206d75636820536378206173207468652063757272656e74206275796f75742ea2646970667358221220c68a18b2a7086643967210de5ea4a75901cd19a04b60708339f5daf6e75c5ea664736f6c63430006020033",
  "source": "pragma solidity ^0.6.2;\nimport \"./facades/ScarcityLike.sol\";\nimport \"../node_modules/@openzeppelin/contracts/access/Ownable.sol\";\nimport \"../node_modules/@openzeppelin/contracts/math/SafeMath.sol\";\nimport \"./facades/FaucetLike.sol\";\n\ncontract Sisyphus is Ownable {\n    using SafeMath for uint256;\n    ScarcityLike public scarcity;\n    FaucetLike public faucet;\n    address public currentMonarch;\n    uint256 public buyoutAmount;\n    uint256 public buyoutTime;\n    uint256 public periodDuration;\n    uint256 public totalIncrements;\n    uint256 public rewardProportion;\n    bool public enabled;\n\n    event monarchChanged(\n        address deposed,\n        address ascended,\n        uint256 Buyout,\n        uint256 Payout\n    );\n\n    function enable(bool e) public onlyOwner {\n        enabled = e;\n    }\n\n    constructor() public {\n        enabled = true;\n        rewardProportion = 80;\n        totalIncrements = 100;\n        periodDuration = 1 days;\n    }\n\n    function setTime(uint256 periodDurationType, uint256 _totalIncrements)\n        external\n        onlyOwner\n    {\n        require(periodDurationType < 4, \"invalid period duration\");\n        if (periodDurationType == 0) {\n            periodDuration = 1 seconds;\n        } else if (periodDurationType == 1) {\n            periodDuration = 1 minutes;\n        } else if (periodDurationType == 2) {\n            periodDuration = 1 hours;\n        } else if (periodDurationType == 3) {\n            periodDuration = 1 days;\n        }\n        totalIncrements = _totalIncrements;\n    }\n\n    function setRewardProportion(uint256 p) external onlyOwner {\n        require(p <= 100, \"proportion must be a percentage between 0 and 100\");\n        rewardProportion = p;\n    }\n\n    function seed(address scx, address f) external onlyOwner {\n        scarcity = ScarcityLike(scx);\n        faucet = FaucetLike(f);\n        buyoutTime = now;\n    }\n\n    function struggle(uint256 scarcityForwarded) public {\n        require(enabled, \"Sisyphus is currently disabled\");\n        uint256 currentBuyout = calculateCurrentBuyout();\n        require(\n            scarcityForwarded >= currentBuyout,\n            \"pretender must at forward at least as much Scx as the current buyout.\"\n        );\n\n        if (scarcityForwarded > 0) {\n            require(\n                scarcity.transferFrom(\n                    msg.sender,\n                    address(this),\n                    scarcityForwarded\n                ),\n                \"Scarcity transfer failed.\"\n            );\n        }\n\n        buyoutTime = now;\n        uint256 rewardForDeposed = currentBuyout.mul(rewardProportion).div(100);\n        uint256 scarcityForFaucet = scarcityForwarded.sub(rewardForDeposed);\n\n        if (currentMonarch != address(0) && rewardForDeposed > 0) {\n            require(\n                scarcity.transfer(currentMonarch, rewardForDeposed),\n                \"reward transfer failed.\"\n            );\n        } else {\n            scarcityForFaucet += rewardForDeposed;\n        }\n        if (scarcityForFaucet > 0) {\n            scarcity.approve(address(faucet),uint(-1));\n            faucet.takeDonation(scarcityForFaucet);\n        }\n\n        uint256 sponsorBalance = scarcity.balanceOf(address(this));\n\n        if (sponsorBalance > 0) {\n            require(scarcity.transfer(msg.sender, sponsorBalance),\"transfer from sponsor balance failed.\");\n        }\n        emit monarchChanged(\n            currentMonarch,\n            msg.sender,\n            scarcityForwarded,\n            rewardForDeposed\n        );\n        currentMonarch = msg.sender;\n        buyoutAmount = scarcityForwarded.mul(4);\n    }\n\n    function calculateCurrentBuyout() public view returns (uint256) {\n        uint256 currentTime = now;\n        if (currentTime <= buyoutTime) {\n            return buyoutAmount;\n        }\n        uint256 incrementsElapsed = (now - buyoutTime) / (periodDuration);\n        uint256 incrementsLeft = totalIncrements -\n            (\n                incrementsElapsed > totalIncrements\n                    ? totalIncrements\n                    : incrementsElapsed\n            );\n\n        uint256 newBuyoutAmount = buyoutAmount.mul(incrementsLeft).div(\n            totalIncrements\n        );\n\n        return newBuyoutAmount <= buyoutAmount ? newBuyoutAmount : buyoutAmount;\n    }\n}\n",
  "sourcePath": "/home/justin/weidai ecosystem/Sisyphus/contracts/Sisyphus.sol",
  "compiler": {
    "name": "solc",
    "version": "0.6.2+commit.bacdbe57.Emscripten.clang"
  },
  "schemaVersion": "3.1.0",
  "updatedAt": "2020-05-23T17:37:18.910Z",
  "devdoc": {
    "methods": {
      "owner()": {
        "details": "Returns the address of the current owner."
      },
      "renounceOwnership()": {
        "details": "Leaves the contract without owner. It will not be possible to call `onlyOwner` functions anymore. Can only be called by the current owner.     * NOTE: Renouncing ownership will leave the contract without an owner, thereby removing any functionality that is only available to the owner."
      },
      "transferOwnership(address)": {
        "details": "Transfers ownership of the contract to a new account (`newOwner`). Can only be called by the current owner."
      }
    }
  },
  "userdoc": {
    "methods": {}
  }
}