{
  "contractName": "Sisyphus",
  "abi": [
    {
      "inputs": [],
      "stateMutability": "nonpayable",
      "type": "constructor"
    },
    {
      "anonymous": false,
      "inputs": [
        {
          "indexed": true,
          "internalType": "address",
          "name": "previousOwner",
          "type": "address"
        },
        {
          "indexed": true,
          "internalType": "address",
          "name": "newOwner",
          "type": "address"
        }
      ],
      "name": "OwnershipTransferred",
      "type": "event"
    },
    {
      "anonymous": false,
      "inputs": [
        {
          "indexed": false,
          "internalType": "address",
          "name": "deposed",
          "type": "address"
        },
        {
          "indexed": false,
          "internalType": "address",
          "name": "ascended",
          "type": "address"
        },
        {
          "indexed": false,
          "internalType": "uint256",
          "name": "Buyout",
          "type": "uint256"
        },
        {
          "indexed": false,
          "internalType": "uint256",
          "name": "Payout",
          "type": "uint256"
        }
      ],
      "name": "monarchChanged",
      "type": "event"
    },
    {
      "inputs": [],
      "name": "BuyoutAmount",
      "outputs": [
        {
          "internalType": "uint256",
          "name": "",
          "type": "uint256"
        }
      ],
      "stateMutability": "view",
      "type": "function"
    },
    {
      "inputs": [],
      "name": "BuyoutTime",
      "outputs": [
        {
          "internalType": "uint256",
          "name": "",
          "type": "uint256"
        }
      ],
      "stateMutability": "view",
      "type": "function"
    },
    {
      "inputs": [],
      "name": "CurrentMonarch",
      "outputs": [
        {
          "internalType": "address",
          "name": "",
          "type": "address"
        }
      ],
      "stateMutability": "view",
      "type": "function"
    },
    {
      "inputs": [],
      "name": "enabled",
      "outputs": [
        {
          "internalType": "bool",
          "name": "",
          "type": "bool"
        }
      ],
      "stateMutability": "view",
      "type": "function"
    },
    {
      "inputs": [],
      "name": "owner",
      "outputs": [
        {
          "internalType": "address",
          "name": "",
          "type": "address"
        }
      ],
      "stateMutability": "view",
      "type": "function"
    },
    {
      "inputs": [],
      "name": "periodDuration",
      "outputs": [
        {
          "internalType": "uint256",
          "name": "",
          "type": "uint256"
        }
      ],
      "stateMutability": "view",
      "type": "function"
    },
    {
      "inputs": [],
      "name": "renounceOwnership",
      "outputs": [],
      "stateMutability": "nonpayable",
      "type": "function"
    },
    {
      "inputs": [],
      "name": "rewardProportion",
      "outputs": [
        {
          "internalType": "uint256",
          "name": "",
          "type": "uint256"
        }
      ],
      "stateMutability": "view",
      "type": "function"
    },
    {
      "inputs": [],
      "name": "scarcity",
      "outputs": [
        {
          "internalType": "contract ScarcityLike",
          "name": "",
          "type": "address"
        }
      ],
      "stateMutability": "view",
      "type": "function"
    },
    {
      "inputs": [],
      "name": "totalIncrements",
      "outputs": [
        {
          "internalType": "uint256",
          "name": "",
          "type": "uint256"
        }
      ],
      "stateMutability": "view",
      "type": "function"
    },
    {
      "inputs": [
        {
          "internalType": "address",
          "name": "newOwner",
          "type": "address"
        }
      ],
      "name": "transferOwnership",
      "outputs": [],
      "stateMutability": "nonpayable",
      "type": "function"
    },
    {
      "inputs": [
        {
          "internalType": "bool",
          "name": "e",
          "type": "bool"
        }
      ],
      "name": "enable",
      "outputs": [],
      "stateMutability": "nonpayable",
      "type": "function"
    },
    {
      "inputs": [
        {
          "internalType": "uint256",
          "name": "periodDurationType",
          "type": "uint256"
        },
        {
          "internalType": "uint256",
          "name": "_totalIncrements",
          "type": "uint256"
        }
      ],
      "name": "setTime",
      "outputs": [],
      "stateMutability": "nonpayable",
      "type": "function"
    },
    {
      "inputs": [
        {
          "internalType": "uint256",
          "name": "p",
          "type": "uint256"
        }
      ],
      "name": "setRewardProportion",
      "outputs": [],
      "stateMutability": "nonpayable",
      "type": "function"
    },
    {
      "inputs": [
        {
          "internalType": "address",
          "name": "scx",
          "type": "address"
        }
      ],
      "name": "seed",
      "outputs": [],
      "stateMutability": "nonpayable",
      "type": "function"
    },
    {
      "inputs": [
        {
          "internalType": "uint256",
          "name": "scarcityForwarded",
          "type": "uint256"
        }
      ],
      "name": "struggle",
      "outputs": [],
      "stateMutability": "nonpayable",
      "type": "function"
    },
    {
      "inputs": [],
      "name": "calculateCurrentBuyout",
      "outputs": [
        {
          "internalType": "uint256",
          "name": "",
          "type": "uint256"
        }
      ],
      "stateMutability": "view",
      "type": "function"
    }
  ],
  "bytecode": "0x608060405234801561001057600080fd5b5060006100216100f960201b60201c565b9050806000806101000a81548173ffffffffffffffffffffffffffffffffffffffff021916908373ffffffffffffffffffffffffffffffffffffffff1602179055508073ffffffffffffffffffffffffffffffffffffffff16600073ffffffffffffffffffffffffffffffffffffffff167f8be0079c531659141344cd1fd0a4f28419497f9722a3daafe3b4186f6b6457e060405160405180910390a3506001600860006101000a81548160ff0219169083151502179055506042600781905550606460068190555062015180600581905550610101565b600033905090565b6117bc806101106000396000f3fe608060405234801561001057600080fd5b506004361061010b5760003560e01c8063715018a6116100a2578063b470aade11610071578063b470aade1461034e578063b88379571461036c578063d3aea9831461038a578063e3200123146103b8578063f2fde38b146103d65761010b565b8063715018a6146102a457806374b70c08146102ae5780638da5cb5b146102cc578063a0355eca146103165761010b565b80632e0d7cbc116100de5780632e0d7cbc146101de5780633545cc37146102285780633c650f7d146102565780634df68ada146102745761010b565b8063063c67b71461011057806314fbb8c314610154578063238dafe01461017257806327437fd814610194575b600080fd5b6101526004803603602081101561012657600080fd5b81019080803573ffffffffffffffffffffffffffffffffffffffff16906020019092919050505061041a565b005b61015c61052e565b6040518082815260200191505060405180910390f35b61017a610534565b604051808215151515815260200191505060405180910390f35b61019c610547565b604051808273ffffffffffffffffffffffffffffffffffffffff1673ffffffffffffffffffffffffffffffffffffffff16815260200191505060405180910390f35b6101e661056d565b604051808273ffffffffffffffffffffffffffffffffffffffff1673ffffffffffffffffffffffffffffffffffffffff16815260200191505060405180910390f35b6102546004803603602081101561023e57600080fd5b8101908080359060200190929190505050610593565b005b61025e6106c0565b6040518082815260200191505060405180910390f35b6102a26004803603602081101561028a57600080fd5b81019080803515159060200190929190505050610754565b005b6102ac61083a565b005b6102b66109c2565b6040518082815260200191505060405180910390f35b6102d46109c8565b604051808273ffffffffffffffffffffffffffffffffffffffff1673ffffffffffffffffffffffffffffffffffffffff16815260200191505060405180910390f35b61034c6004803603604081101561032c57600080fd5b8101908080359060200190929190803590602001909291905050506109f1565b005b610356610b95565b6040518082815260200191505060405180910390f35b610374610b9b565b6040518082815260200191505060405180910390f35b6103b6600480360360208110156103a057600080fd5b8101908080359060200190929190505050610ba1565b005b6103c061120e565b6040518082815260200191505060405180910390f35b610418600480360360208110156103ec57600080fd5b81019080803573ffffffffffffffffffffffffffffffffffffffff169060200190929190505050611214565b005b610422611421565b73ffffffffffffffffffffffffffffffffffffffff166000809054906101000a900473ffffffffffffffffffffffffffffffffffffffff1673ffffffffffffffffffffffffffffffffffffffff16146104e3576040517f08c379a00000000000000000000000000000000000000000000000000000000081526004018080602001828103825260208152602001807f4f776e61626c653a2063616c6c6572206973206e6f7420746865206f776e657281525060200191505060405180910390fd5b80600160006101000a81548173ffffffffffffffffffffffffffffffffffffffff021916908373ffffffffffffffffffffffffffffffffffffffff1602179055504260048190555050565b60065481565b600860009054906101000a900460ff1681565b600260009054906101000a900473ffffffffffffffffffffffffffffffffffffffff1681565b600160009054906101000a900473ffffffffffffffffffffffffffffffffffffffff1681565b61059b611421565b73ffffffffffffffffffffffffffffffffffffffff166000809054906101000a900473ffffffffffffffffffffffffffffffffffffffff1673ffffffffffffffffffffffffffffffffffffffff161461065c576040517f08c379a00000000000000000000000000000000000000000000000000000000081526004018080602001828103825260208152602001807f4f776e61626c653a2063616c6c6572206973206e6f7420746865206f776e657281525060200191505060405180910390fd5b60648111156106b6576040517f08c379a00000000000000000000000000000000000000000000000000000000081526004018080602001828103825260318152602001806116ca6031913960400191505060405180910390fd5b8060078190555050565b60008042905060045481116106da57600354915050610751565b60006005546004544203816106eb57fe5b049050600060065482116106ff5781610703565b6006545b60065403905060006107346006546107268460035461142990919063ffffffff16565b6114af90919063ffffffff16565b90506003548111156107485760035461074a565b805b9450505050505b90565b61075c611421565b73ffffffffffffffffffffffffffffffffffffffff166000809054906101000a900473ffffffffffffffffffffffffffffffffffffffff1673ffffffffffffffffffffffffffffffffffffffff161461081d576040517f08c379a00000000000000000000000000000000000000000000000000000000081526004018080602001828103825260208152602001807f4f776e61626c653a2063616c6c6572206973206e6f7420746865206f776e657281525060200191505060405180910390fd5b80600860006101000a81548160ff02191690831515021790555050565b610842611421565b73ffffffffffffffffffffffffffffffffffffffff166000809054906101000a900473ffffffffffffffffffffffffffffffffffffffff1673ffffffffffffffffffffffffffffffffffffffff1614610903576040517f08c379a00000000000000000000000000000000000000000000000000000000081526004018080602001828103825260208152602001807f4f776e61626c653a2063616c6c6572206973206e6f7420746865206f776e657281525060200191505060405180910390fd5b600073ffffffffffffffffffffffffffffffffffffffff166000809054906101000a900473ffffffffffffffffffffffffffffffffffffffff1673ffffffffffffffffffffffffffffffffffffffff167f8be0079c531659141344cd1fd0a4f28419497f9722a3daafe3b4186f6b6457e060405160405180910390a360008060006101000a81548173ffffffffffffffffffffffffffffffffffffffff021916908373ffffffffffffffffffffffffffffffffffffffff160217905550565b60045481565b60008060009054906101000a900473ffffffffffffffffffffffffffffffffffffffff16905090565b6109f9611421565b73ffffffffffffffffffffffffffffffffffffffff166000809054906101000a900473ffffffffffffffffffffffffffffffffffffffff1673ffffffffffffffffffffffffffffffffffffffff1614610aba576040517f08c379a00000000000000000000000000000000000000000000000000000000081526004018080602001828103825260208152602001807f4f776e61626c653a2063616c6c6572206973206e6f7420746865206f776e657281525060200191505060405180910390fd5b60048210610b30576040517f08c379a00000000000000000000000000000000000000000000000000000000081526004018080602001828103825260178152602001807f696e76616c696420706572696f64206475726174696f6e00000000000000000081525060200191505060405180910390fd5b6000821415610b46576001600581905550610b8a565b6001821415610b5c57603c600581905550610b89565b6002821415610b7357610e10600581905550610b88565b6003821415610b8757620151806005819055505b5b5b5b806006819055505050565b60055481565b60075481565b600860009054906101000a900460ff16610c23576040517f08c379a000000000000000000000000000000000000000000000000000000000815260040180806020018281038252601e8152602001807f53697379706875732069732063757272656e746c792064697361626c6564000081525060200191505060405180910390fd5b6000610c2d6106c0565b905080821015610c88576040517f08c379a00000000000000000000000000000000000000000000000000000000081526004018080602001828103825260458152602001806117426045913960600191505060405180910390fd5b6000821115610e1c57600160009054906101000a900473ffffffffffffffffffffffffffffffffffffffff1673ffffffffffffffffffffffffffffffffffffffff166323b872dd3330856040518463ffffffff1660e01b8152600401808473ffffffffffffffffffffffffffffffffffffffff1673ffffffffffffffffffffffffffffffffffffffff1681526020018373ffffffffffffffffffffffffffffffffffffffff1673ffffffffffffffffffffffffffffffffffffffff1681526020018281526020019350505050602060405180830381600087803b158015610d6e57600080fd5b505af1158015610d82573d6000803e3d6000fd5b505050506040513d6020811015610d9857600080fd5b8101908080519060200190929190505050610e1b576040517f08c379a00000000000000000000000000000000000000000000000000000000081526004018080602001828103825260198152602001807f5363617263697479207472616e73666572206661696c65642e0000000000000081525060200191505060405180910390fd5b5b426004819055506000610e4d6064610e3f6007548561142990919063ffffffff16565b6114af90919063ffffffff16565b90506000610e6482856114f990919063ffffffff16565b9050600073ffffffffffffffffffffffffffffffffffffffff16600260009054906101000a900473ffffffffffffffffffffffffffffffffffffffff1673ffffffffffffffffffffffffffffffffffffffff1614158015610ec55750600082115b1561104757600160009054906101000a900473ffffffffffffffffffffffffffffffffffffffff1673ffffffffffffffffffffffffffffffffffffffff1663a9059cbb600260009054906101000a900473ffffffffffffffffffffffffffffffffffffffff16846040518363ffffffff1660e01b8152600401808373ffffffffffffffffffffffffffffffffffffffff1673ffffffffffffffffffffffffffffffffffffffff16815260200182815260200192505050602060405180830381600087803b158015610f9557600080fd5b505af1158015610fa9573d6000803e3d6000fd5b505050506040513d6020811015610fbf57600080fd5b8101908080519060200190929190505050611042576040517f08c379a00000000000000000000000000000000000000000000000000000000081526004018080602001828103825260178152602001807f726577617264207472616e73666572206661696c65642e00000000000000000081525060200191505060405180910390fd5b61104d565b81810190505b60008111156110e457600160009054906101000a900473ffffffffffffffffffffffffffffffffffffffff1673ffffffffffffffffffffffffffffffffffffffff166342966c68826040518263ffffffff1660e01b815260040180828152602001915050600060405180830381600087803b1580156110cb57600080fd5b505af11580156110df573d6000803e3d6000fd5b505050505b7f5d184de3b9658e020f5909ad532e5fda75aa639497d7a44c43fafd5d945a6ce2600260009054906101000a900473ffffffffffffffffffffffffffffffffffffffff16338685604051808573ffffffffffffffffffffffffffffffffffffffff1673ffffffffffffffffffffffffffffffffffffffff1681526020018473ffffffffffffffffffffffffffffffffffffffff1673ffffffffffffffffffffffffffffffffffffffff16815260200183815260200182815260200194505050505060405180910390a133600260006101000a81548173ffffffffffffffffffffffffffffffffffffffff021916908373ffffffffffffffffffffffffffffffffffffffff16021790555061120260048561142990919063ffffffff16565b60038190555050505050565b60035481565b61121c611421565b73ffffffffffffffffffffffffffffffffffffffff166000809054906101000a900473ffffffffffffffffffffffffffffffffffffffff1673ffffffffffffffffffffffffffffffffffffffff16146112dd576040517f08c379a00000000000000000000000000000000000000000000000000000000081526004018080602001828103825260208152602001807f4f776e61626c653a2063616c6c6572206973206e6f7420746865206f776e657281525060200191505060405180910390fd5b600073ffffffffffffffffffffffffffffffffffffffff168173ffffffffffffffffffffffffffffffffffffffff161415611363576040517f08c379a00000000000000000000000000000000000000000000000000000000081526004018080602001828103825260268152602001806116fb6026913960400191505060405180910390fd5b8073ffffffffffffffffffffffffffffffffffffffff166000809054906101000a900473ffffffffffffffffffffffffffffffffffffffff1673ffffffffffffffffffffffffffffffffffffffff167f8be0079c531659141344cd1fd0a4f28419497f9722a3daafe3b4186f6b6457e060405160405180910390a3806000806101000a81548173ffffffffffffffffffffffffffffffffffffffff021916908373ffffffffffffffffffffffffffffffffffffffff16021790555050565b600033905090565b60008083141561143c57600090506114a9565b600082840290508284828161144d57fe5b04146114a4576040517f08c379a00000000000000000000000000000000000000000000000000000000081526004018080602001828103825260218152602001806117216021913960400191505060405180910390fd5b809150505b92915050565b60006114f183836040518060400160405280601a81526020017f536166654d6174683a206469766973696f6e206279207a65726f000000000000815250611543565b905092915050565b600061153b83836040518060400160405280601e81526020017f536166654d6174683a207375627472616374696f6e206f766572666c6f770000815250611609565b905092915050565b600080831182906115ef576040517f08c379a00000000000000000000000000000000000000000000000000000000081526004018080602001828103825283818151815260200191508051906020019080838360005b838110156115b4578082015181840152602081019050611599565b50505050905090810190601f1680156115e15780820380516001836020036101000a031916815260200191505b509250505060405180910390fd5b5060008385816115fb57fe5b049050809150509392505050565b60008383111582906116b6576040517f08c379a00000000000000000000000000000000000000000000000000000000081526004018080602001828103825283818151815260200191508051906020019080838360005b8381101561167b578082015181840152602081019050611660565b50505050905090810190601f1680156116a85780820380516001836020036101000a031916815260200191505b509250505060405180910390fd5b506000838503905080915050939250505056fe70726f706f7274696f6e206d75737420626520612070657263656e74616765206265747765656e203020616e64203130304f776e61626c653a206e6577206f776e657220697320746865207a65726f2061646472657373536166654d6174683a206d756c7469706c69636174696f6e206f766572666c6f7770726574656e646572206d75737420617420666f7277617264206174206c65617374206173206d75636820536378206173207468652063757272656e74206275796f75742ea26469706673582212200225ae80611b4eb3fd7f1ef1b1df9e4fb53d6781932c77855374883a2f7222ff64736f6c63430006020033",
  "source": "pragma solidity ^0.6.2;\nimport \"./facades/ScarcityLike.sol\";\nimport \"../node_modules/@openzeppelin/contracts/access/Ownable.sol\";\nimport \"../node_modules/@openzeppelin/contracts/math/SafeMath.sol\";\n\n\ncontract Sisyphus is Ownable {\n    using SafeMath for uint256;\n    ScarcityLike public scarcity;\n    address public CurrentMonarch;\n    uint256 public BuyoutAmount;\n    uint256 public BuyoutTime;\n    uint256 public periodDuration;\n    uint256 public totalIncrements;\n    uint256 public rewardProportion;\n    bool public enabled;\n\n    event monarchChanged(\n        address deposed,\n        address ascended,\n        uint256 Buyout,\n        uint256 Payout\n    );\n\n    function enable(bool e) public onlyOwner {\n        enabled = e;\n    }\n\n    constructor() public {\n        enabled = true;\n        rewardProportion = 66;\n        totalIncrements = 100;\n        periodDuration = 1 days;\n    }\n\n    function setTime(uint256 periodDurationType, uint256 _totalIncrements)\n        external\n        onlyOwner\n    {\n        require(periodDurationType < 4, \"invalid period duration\");\n        if (periodDurationType == 0) {\n            periodDuration = 1 seconds;\n        } else if (periodDurationType == 1) {\n            periodDuration = 1 minutes;\n        } else if (periodDurationType == 2) {\n            periodDuration = 1 hours;\n        } else if (periodDurationType == 3) {\n            periodDuration = 1 days;\n        }\n        totalIncrements = _totalIncrements;\n    }\n\n    function setRewardProportion(uint256 p) external onlyOwner {\n        require(p <= 100, \"proportion must be a percentage between 0 and 100\");\n        rewardProportion = p;\n    }\n\n    function seed(address scx) external onlyOwner {\n        scarcity = ScarcityLike(scx);\n        BuyoutTime = now;\n    }\n\n    function struggle(uint256 scarcityForwarded) public {\n        require(enabled, \"Sisyphus is currently disabled\");\n        uint256 currentBuyout = calculateCurrentBuyout();\n        require(\n            scarcityForwarded >= currentBuyout,\n            \"pretender must at forward at least as much Scx as the current buyout.\"\n        );\n\n        if (scarcityForwarded > 0) {\n            require(\n                scarcity.transferFrom(\n                    msg.sender,\n                    address(this),\n                    scarcityForwarded\n                ),\n                \"Scarcity transfer failed.\"\n            );\n        }\n\n        BuyoutTime = now;\n        uint256 rewardForDeposed = currentBuyout.mul(rewardProportion).div(100);\n        uint256 scarcityToBurn = scarcityForwarded.sub(rewardForDeposed);\n\n        if (CurrentMonarch != address(0) && rewardForDeposed > 0) {\n            require(\n                scarcity.transfer(CurrentMonarch, rewardForDeposed),\n                \"reward transfer failed.\"\n            );\n        } else {\n            scarcityToBurn += rewardForDeposed;\n        }\n        if (scarcityToBurn > 0) {\n            scarcity.burn(scarcityToBurn);\n        }\n        emit monarchChanged(\n            CurrentMonarch,\n            msg.sender,\n            scarcityForwarded,\n            rewardForDeposed\n        );\n        CurrentMonarch = msg.sender;\n        BuyoutAmount = scarcityForwarded.mul(4);\n    }\n\n    function calculateCurrentBuyout() public view returns (uint256) {\n        uint256 currentTime = now;\n        if (currentTime <= BuyoutTime) {\n            return BuyoutAmount;\n        }\n        uint256 incrementsElapsed = (now - BuyoutTime) / (periodDuration);\n        uint256 incrementsLeft = totalIncrements -\n            (\n                incrementsElapsed > totalIncrements\n                    ? totalIncrements\n                    : incrementsElapsed\n            );\n\n        uint256 newBuyoutAmount = BuyoutAmount.mul(incrementsLeft).div(\n            totalIncrements\n        );\n\n        return newBuyoutAmount <= BuyoutAmount ? newBuyoutAmount : BuyoutAmount;\n    }\n}\n",
  "sourcePath": "/home/justin/weidai ecosystem/Sisyphus/contracts/Sisyphus.sol",
  "compiler": {
    "name": "solc",
    "version": "0.6.2+commit.bacdbe57.Emscripten.clang"
  },
  "schemaVersion": "3.1.0",
  "updatedAt": "2020-05-21T19:43:07.340Z",
  "devdoc": {
    "methods": {
      "owner()": {
        "details": "Returns the address of the current owner."
      },
      "renounceOwnership()": {
        "details": "Leaves the contract without owner. It will not be possible to call `onlyOwner` functions anymore. Can only be called by the current owner.     * NOTE: Renouncing ownership will leave the contract without an owner, thereby removing any functionality that is only available to the owner."
      },
      "transferOwnership(address)": {
        "details": "Transfers ownership of the contract to a new account (`newOwner`). Can only be called by the current owner."
      }
    }
  },
  "userdoc": {
    "methods": {}
  }
}